:020000040800F2
:1000000070120020DD0A0008590B0008AF4C0008F0
:10001000590B0008590B0008590B0008000000009C
:100020000000000000000000000000006D53000808
:10003000590B00080000000071540008C954000862
:10004000590B0008590B0008590B0008590B000800
:10005000590B0008590B0008590B0008590B0008F0
:10006000590B0008590B0008590B0008590B0008E0
:10007000590B0008590B0008590B0008590B0008D0
:10008000590B0008590B0008590B0008590B0008C0
:10009000590B0008590B0008590B0008590B0008B0
:1000A000590B0008590B0008590B0008590B0008A0
:1000B000590B0008590B0008590B0008590B000890
:1000C000590B0008590B0008590B0008590B000880
:1000D000590B0008590B0008590B0008590B000870
:1000E000590B0008590B0008590B0008590B000860
:1000F000590B0008590B0008590B0008590B000850
:10010000590B0008590B0008590B0008590B00083F
:10011000590B0008590B0008590B0008590B00082F
:10012000590B0008590B0008590B0008590B00081F
:10013000590B0008590B0008590B0008590B00080F
:10014000590B0008590B0008590B0008590B0008FF
:10015000590B0008590B0008590B0008590B0008EF
:10016000590B0008590B0008590B0008590B0008DF
:10017000590B0008590B0008590B0008590B0008CF
:10018000590B0008590B000880B584B004AF03F088
:10019000ADFE024646F69C23C0F60003009346F6E9
:1001A000C023C0F60003019346F6AC23C0F600035B
:1001B0000293104646F69021C0F6000146F69822BA
:1001C000C0F600024FF0000305F07AFE4FF0000386
:1001D0001846BD4680BD00BFF0B587B004AF78605B
:1001E00003F084FE06464FF0000003F093FE054640
:1001F0004FF0000003F020FD044646F69C23C0F6B5
:100200000003009346F6DC23C0F60003019346F694
:10021000AC23C0F600030293304646F69021C0F6A8
:1002200000012A46234605F04BFE07F10C07BD46A8
:10023000F0BD00BFF0B589B004AF78604FF00003A7
:10024000FB81786800F06CF803461C46786800F083
:100250007DF8034623439CB2786800F0B3F8034668
:1002600023439CB2786800F0E3F8034623439AB234
:10027000FB891343FB81FB89002B25D103F036FE5C
:1002800006464FF0000003F045FE05464FF0000023
:1002900003F0D2FC044646F69C23C0F6000300930C
:1002A00046F6F423C0F60003019346F60833C0F681
:1002B00000030293304646F6EC21C0F600012A46C0
:1002C000234605F0FDFD24E003F010FE06464FF046
:1002D000000003F01FFE05464FF0000003F0ACFCE9
:1002E000044646F69C23C0F60003009346F6F4232A
:1002F000C0F60003019346F63033C0F600030293C4
:10030000304646F62831C0F600012A46234605F05D
:10031000D7FDFB89184607F11407BD46F0BD00BFA5
:1003200080B485B000AF78604FF00003FB817B683C
:100330001B68002B02DA4FF00103FB81FB89184692
:1003400007F11407BD4680BC704700BF80B485B07C
:1003500000AF78604FF00003FB817B689B881BB285
:10036000B42B05DC7B689B881BB213F1B40F03DA56
:10037000FB8943F00203FB817B68DB881BB2B42B53
:1003800005DC7B68DB881BB213F1B40F03DAFB8951
:1003900043F00403FB817B681B891BB2B42B05DC93
:1003A0007B681B891BB213F1B40F03DAFB8943F09E
:1003B0000803FB81FB89184607F11407BD4680BC82
:1003C000704700BF80B485B000AF78604FF0000385
:1003D000FB817B68DB68642B04DC7B68DB6813F1E2
:1003E000640F03DAFB8943F01003FB817B681B6910
:1003F000642B04DC7B681B6913F1640F03DAFB894F
:1004000043F02003FB817B685B69642B04DC7B6821
:100410005B6913F1640F03DAFB8943F04003FB814E
:10042000FB89184607F11407BD4680BC704700BF22
:1004300080B485B000AF78604FF00003FB817B682B
:100440009B69642B04DC7B689B6913F1640F03DAFE
:10045000FB8943F08003FB817B68DB69642B04DC50
:100460007B68DB6913F1640F03DAFB8943F4807363
:10047000FB817B681B6A642B04DC7B681B6A13F1BD
:10048000640F03DAFB8943F40073FB81FB89184690
:1004900007F11407BD4680BC704700BF80B58AB025
:1004A00000AF786039604FF000037B624FF00003CB
:1004B0003B624FF00003FB614FF00003BB617B68C0
:1004C0001B8A9BB27B627B6A23F440537B623B684E
:1004D000DB887A6A13437B627B6A9AB27B681A82F2
:1004E0007B689B899BB27B627B6A23F4B05323F0C9
:1004F0000C037B623B689A883B681B8913439AB262
:100500003B685B8913439BB27A6A13437B627B6AC5
:100510009AB27B689A817B689B8A9BB27B627B6A7A
:1005200023F440737B623B689B897A6A13437B6246
:100530007B6A9AB27B689A8207F10803184600F03A
:100540000FFB7A684FF48053C4F201039A4206D03D
:100550007A684FF4A053C4F201039A4202D17B6936
:100560003B6201E03B693B627B689B899BB29BB22B
:100570001BB2002B0FDA3A6A13464FEA83039B182B
:100580004FEA83029A183B681B684FEA4303B2FBA9
:10059000F3F3FB610EE03A6A13464FEA83039B18BC
:1005A0004FEA83029A183B681B684FEA8303B2FB49
:1005B000F3F3FB61FA6948F21F53C5F2EB13A3FB97
:1005C00002134FEA53134FEA03137B627B6A4FEA2D
:1005D00013134FF0640202FB03F3FA69D31ABB61F1
:1005E0007B689B899BB29BB21BB2002B12DABB6962
:1005F0004FEAC30303F1320248F21F53C5F2EB1373
:10060000A3FB02134FEA531303F007037A6A134361
:100610007B6211E0BB694FEA031303F1320248F237
:100620001F53C5F2EB13A3FB02134FEA531303F05E
:100630000F037A6A13437B627B6A9AB27B681A81E2
:1006400007F12807BD4680BD80B483B000AF786055
:100650000B46FB70FB78002B08D07B689B899BB214
:1006600043F400539AB27B689A8107E07B689B89C8
:100670009BB223F400539AB27B689A8107F10C076E
:10068000BD4680BC704700BF80B483B000AF7860C7
:100690000B467B807B884FEAC3534FEAD3539AB211
:1006A0007B689A8007F10C07BD4680BC704700BF8D
:1006B00080B485B000AF78600B467B804FF00003BC
:1006C000FB737B681B889AB27B8813409BB2002B1C
:1006D00003D04FF00103FB7302E04FF00003FB7304
:1006E000FB7B184607F11407BD4680BC704700BF6E
:1006F00080B584B004AF03F0F9FB024646F66033E0
:10070000C0F60003009346F68C33C0F60003019355
:1007100046F67833C0F600030293104646F654318D
:10072000C0F6000146F65C32C0F600024FF000034E
:1007300005F0C6FB4FF000031846BD4680BD00BF64
:10074000F0B587B004AF786003F0D0FB06464FF0F9
:10075000000003F0DFFB05464FF0000003F06CFAE9
:10076000044646F66033C0F60003009346F6C033F5
:10077000C0F60003019346F67833C0F600030293F7
:10078000304646F65431C0F600012A46234605F0AD
:1007900097FB07F10C07BD46F0BD00BFF0B589B06F
:1007A00004AF78604FF4FA73FB814FF03203BB81E2
:1007B0007B681B881A46FB8903F59C5303F10803E9
:1007C0009A4207DC7B681B881A46BB8903F596733F
:1007D0009A4227DA03F08AFB06464FF0000003F046
:1007E00099FB05464FF0000003F026FA044646F652
:1007F000DC33C0F60003009346F6E833C0F600038E
:10080000019346F60443C0F600030293304646F6D1
:10081000D431C0F600012A46234605F051FB4FF0C3
:10082000000326E003F062FB06464FF0000003F0F1
:1008300071FB05464FF0000003F0FEF9044646F652
:10084000DC33C0F60003009346F6E833C0F600033D
:10085000019346F62C43C0F600030293304646F659
:100860002441C0F600012A46234605F029FB4FF03B
:100870000103184607F11407BD46F0BD80B584B0EA
:1008800004AF03F033FB024646F6DC33C0F6000348
:10089000009346F67C43C0F60003019346F6684396
:1008A000C0F600030293104646F64841C0F6000128
:1008B00046F65042C0F600024FF0000305F000FB80
:1008C0004FF000031846BD4680BD00BFF0B587B0AD
:1008D00004AF0346FB7103F009FB06464FF000002E
:1008E00003F018FB05464FF0000003F0A5F904469D
:1008F00046F6DC33C0F60003009346F6A843C0F684
:100900000003019346F66843C0F6000302933046A5
:1009100046F64841C0F600012A46234605F0D0FAC3
:100920004FF00003184607F10C07BD46F0BD00BFAD
:10093000F0B587B004AF78607B681846FFF72EFFEC
:100940000346002B5DD07B6803F102031846FFF7D6
:1009500025FF0346002B54D07B6803F1040318469F
:10096000FFF71CFF0346002B4BD07B6803F1060307
:100970001846FFF713FF0346002B42D07B6803F1B4
:1009800008031846FFF70AFF0346002B39D07B689F
:1009900003F10A031846FFF701FF0346002B30D08E
:1009A0007B6803F10C031846FFF7F8FE0346002BA3
:1009B00027D003F09BFA06464FF0000003F0AAFA96
:1009C00005464FF0000003F037F9044646F6DC33E5
:1009D000C0F60003009346F6D843C0F60003019327
:1009E00046F6F443C0F600030293304646F624412F
:1009F000C0F600012A46234605F062FA4FF00103D3
:100A000026E003F073FA06464FF0000003F082FA86
:100A100005464FF0000003F00FF9044646F6DC33BC
:100A2000C0F60003009346F6D843C0F600030193D6
:100A300046F60053C0F600030293304646F6D43122
:100A4000C0F600012A46234605F03AFA4FF00003AB
:100A5000184607F10C07BD46F0BD00BF80B582B057
:100A600000AF78604FF00100FFF730FF03461A46F1
:100A70007B681A804FF00200FFF728FF03461A46F2
:100A80007B685A804FF00400FFF720FF03461A46A8
:100A90007B689A804FF00800FFF718FF03461A465C
:100AA0007B68DA804FF01000FFF710FF03461A460C
:100AB0007B681A814FF02000FFF708FF03461A46B3
:100AC0007B685A814FF04000FFF700FF03461A464B
:100AD0007B689A8107F10807BD4680BD80B582B06A
:100AE00000AF47F21873C0F600037B6040F20003CA
:100AF000C2F200033B600BE07B681A683B681A6037
:100B00003B6803F104033B607B6803F104037B60F3
:100B10003A6840F66C03C2F200039A42ECD30B48E9
:100B20000B494FF000028842B8BF40F8042BFFF693
:100B3000FAAFDFF82000016841F47001016000F0B5
:100B40008BFE07F10807BD4680BD00006C08002041
:100B50006C0A002088ED00E080B400AFFEE700BF23
:100B600080B489B000AF78604FF00003BB614FF0F4
:100B700000037B614FF00003FB614FF002033B6118
:100B80004FF00003FB604FF00203BB604FF4605373
:100B9000C4F202039B6803F00C03BB61BB69042B26
:100BA0000AD0082B0FD0002B60D17A684FF4105375
:100BB000C0F2F403136060E07A684FF49053C0F21F
:100BC0007A03136059E04FF46053C4F202035B6888
:100BD00003F480034FEA9353FB604FF46053C4F275
:100BE00002035B6803F03F03BB60FB68002B14D07B
:100BF0004FF49053C0F27A03BA68B3FBF2F24FF4A9
:100C00006053C4F20203596847F6C0730B404FEAC1
:100C1000931303FB02F3FB6113E04FF41053C0F294
:100C2000F403BA68B3FBF2F24FF46053C4F2020368
:100C3000596847F6C0730B404FEA931303FB02F366
:100C4000FB614FF46053C4F202035B6803F440336A
:100C50004FEA134303F101034FEA43033B61FA698F
:100C60003B69B2FBF3F27B681A6006E07A684FF4E6
:100C70001053C0F2F403136000BF4FF46053C4F28A
:100C800002039B6803F0F003BB61BB694FEA1313D7
:100C9000BB6140F20003C2F20003BA699B181B78E3
:100CA000DBB27B617B681A687B6922FA03F27B689E
:100CB0005A604FF46053C4F202039B6803F4E0539C
:100CC000BB61BB694FEA9323BB6140F20003C2F2F0
:100CD0000003BA699B181B78DBB27B617B685A689A
:100CE0007B6922FA03F27B689A604FF46053C4F286
:100CF00002039B6803F46043BB61BB694FEA533353
:100D0000BB6140F20003C2F20003BA699B181B7872
:100D1000DBB27B617B685A687B6922FA03F27B68ED
:100D2000DA6007F12407BD4680BC704780B483B009
:100D300000AF78600B46FB70FB78002B0CD04FF4B3
:100D40006053C4F202034FF46052C4F20202116B0A
:100D50007A680A431A630DE04FF46053C4F2020349
:100D60004FF46052C4F20202116B7A686FEA020219
:100D70000A401A6307F10C07BD4680BC704700BFEC
:100D800080B483B000AF78600B46FB70FB78002B1B
:100D90000CD04FF46053C4F202034FF46052C4F21B
:100DA0000202516C7A680A435A640DE04FF46053B2
:100DB000C4F202034FF46052C4F20202516C7A682A
:100DC0006FEA02020A405A6407F10C07BD4680BC74
:100DD000704700BF80B483B000AF78607B681B7839
:100DE0005BB213F1020F28DB7B681B785BB2022B2E
:100DF00023DC7B685B785BB213F1020F1DDB7B6841
:100E00005B785BB2022B18DC7B689B785BB213F1DA
:100E1000020F12DB7B689B785BB2022B0DDC7B68D8
:100E2000DB785BB213F1020F07DB7B68DB785BB228
:100E3000022B02DC4FF0010301E04FF000031846E3
:100E400007F10C07BD4680BC704700BFF0B589B004
:100E500004AFF860B9607A603B6003F047F806467B
:100E60004FF0000003F056F805464FF0000002F086
:100E7000E3FE044646F63453C0F60003009346F6FC
:100E80003C53C0F60003019346F65053C0F60003EE
:100E90000293304646F62C51C0F600012A462346FE
:100EA00005F00EF807F11407BD46F0BDF0B589B0A6
:100EB00004AFF860B9607A6003F018F806464FF0A6
:100EC000000003F027F805464FF0000002F0B4FEE2
:100ED000044646F63453C0F60003009346F66453C6
:100EE000C0F60003019346F65053C0F60003029388
:100EF000304646F62C51C0F600012A46234604F03F
:100F0000DFFF07F11407BD46F0BD00BFF0B589B0A3
:100F100004AFF860B9607A6002F0E8FF06464FF06F
:100F2000000002F0F7FF05464FF0000002F084FEDB
:100F3000044646F63453C0F60003009346F6785351
:100F4000C0F60003019346F65053C0F60003029327
:100F5000304646F62C51C0F600012A46234604F0DE
:100F6000AFFF4FF00003184607F11407BD46F0BD70
:100F7000F0B589B004AFF860B9607A603B6002F008
:100F8000B5FF06464FF0000002F0C4FF05464FF0E3
:100F9000000002F051FE044646F63453C0F600034A
:100FA000009346F69053C0F60003019346F6505363
:100FB000C0F600030293304646F62C51C0F60001FD
:100FC0002A46234604F07CFF07F11407BD46F0BD16
:100FD000F0B587B004AF786002F088FF06464FF0A6
:100FE000000002F097FF05464FF0000002F024FEDB
:100FF000044646F63453C0F60003009346F6B85351
:10100000C0F60003019346F65053C0F60003029366
:10101000304646F62C51C0F600012A46234604F01D
:101020004FFF07F10C07BD46F0BD00BF80B582B091
:1010300000AF0346FB71FB79184604F061FF07F12E
:101040000807BD4680BD00BF80B483B000AF7860A4
:101050000B46FB707B68FA781A704FF00103184654
:1010600007F10C07BD4680BC704700BF80B485B057
:1010700000AF786039604FF00003FB600FE03B6821
:101080001A787B681A707B6803F101037B603B6808
:1010900003F101033B60FB6803F10103FB603B6864
:1010A0001B78002BEBD1FB68184607F11407BD46EF
:1010B00080BC704780B586B000AFF8607A603B6056
:1010C0000B46FB724FF000037B617B6803F1FF333B
:1010D0007B603B68092B25D93A684CF6CD43CCF6AA
:1010E000CC43A3FB02134FEAD303FA7AF868114604
:1010F0007A68FFF7DFFF78617B69FA68D318FB60D5
:1011000013E0FB7AF8681946FFF79EFFFB6803F1CE
:101110000103FB607B6903F101037B617B6803F1E1
:10112000FF337B607B68002BEBDC39684CF6CD43EA
:10113000CCF6CC43A3FB01234FEAD30213464FEA7C
:1011400083039B184FEA4303CA1AD3B203F1300357
:10115000DBB2F8681946FFF777FF03467A69D318C0
:101160007B617B69184607F11807BD4680BD00BF4B
:1011700080B586B000AFF8607A603B600B46FB72CA
:101180004FF000037B613B68002B04DA3B68C3F13E
:1011900000033B6101E03B683B617B6803F1FF3387
:1011A0007B603B69092B2AD93B68002B12DA3A692C
:1011B0004CF6CD43CCF6CC43A3FB02134FEAD3034A
:1011C000C3F10003FA7AF86811467A68FFF7D0FF96
:1011D00078610FE03A694CF6CD43CCF6CC43A3FBE3
:1011E00002134FEAD303FA7AF86811467A68FFF7D8
:1011F000BFFF78617B69FA68D318FB602BE03B681E
:10120000002B15DA7B6803F1FF337B6010E0FB7A7B
:10121000F8681946FFF718FFFB6803F10103FB604C
:101220007B6903F101037B617B6803F1FF337B6022
:101230007B68002BEBDC3B68002B0CDAF8684FF086
:101240002D01FFF701FF03467A69D3187B61FB6824
:1012500003F10103FB6039694CF6CD43CCF6CC4376
:10126000A3FB01234FEAD30213464FEA83039B18E3
:101270004FEA4303CA1AD3B203F13003DBB2F86872
:101280001946FFF7E1FE03467A69D3187B617B6953
:10129000184607F11807BD4680BD00BF80B588B06D
:1012A00002AFF8607A600A46FA72BB724FF0000330
:1012B0007B617B6803F1FF337B603B6A4FEA13136A
:1012C000002B24D03B6A4FEA1311FA7ABB7A0091C3
:1012D000F86811467A68FFF7E1FF03467A69D31888
:1012E0007B617B69FA68D318FB6013E0FB7AF868CE
:1012F0001946FFF7A9FEFB6803F10103FB607B6958
:1013000003F101037B617B6803F1FF337B607B6842
:10131000002BEBDC3B6A03F00F03092B0CD83B6A74
:10132000DBB203F00F03DBB203F13003DBB2F8688A
:101330001946FFF789FE1BE0BB7A002B0CD03B6AF5
:10134000DBB203F00F03DBB203F13703DBB2F86863
:101350001946FFF779FE0BE03B6ADBB203F00F039F
:10136000DBB203F15703DBB2F8681946FFF76CFEF6
:101370007B6903F101037B617B69184607F118075C
:10138000BD4680BD80B58AB002AFF860B9607A60B2
:101390003B604FF00003BB614FF000037B61FB68D3
:1013A000002B00F01C81FB684FF000021A7016E160
:1013B0007B681B78252B10D07B681A78FB681A7025
:1013C000FB6803F10103FB607B6803F101037B60B1
:1013D0007B6903F101037B6102E17B6803F1010397
:1013E0001B78252B10D1FB684FF025021A70FB6883
:1013F00003F10103FB607B6803F102037B607B69FF
:1014000003F101037B61EBE04FF02003FB774FF02A
:101410000003BB777B6803F101037B607B681B786B
:10142000302B1BD14FF03003FB777B6803F10103B6
:101430007B6013E0BB7F1A464FEA8202D3184FEA63
:101440004303DAB27B681B78D318DBB2A3F1300315
:10145000BB777B6803F101037B6000E000BF7B6822
:101460001B782F2B03D97B681B78392BE2D9BA7FE5
:101470007B69D3181A46BB689A4205D9BB68DAB2B1
:101480007B69DBB2D31ABB777B681B78A3F1580367
:10149000202B00F2948001A252F823F0711500086D
:1014A000BF150008BF150008BF150008BF150008CC
:1014B000BF150008BF150008BF150008BF150008BC
:1014C000BF150008BF150008A71500082115000862
:1014D000BF150008BF150008BF150008BF1500089C
:1014E00021150008BF150008BF150008BF1500082A
:1014F000BF150008BF150008BF150008BF1500087C
:10150000BF150008BF15000891150008BF15000899
:1015100039150008BF150008BF150008511500084F
:10152000BA7F3B6803F1040139601B68F97FF868F2
:10153000FFF71EFEB86145E0BA7F3B6803F1040186
:1015400039601B68F97FF868FFF7B4FDB86139E0CE
:10155000BA7F3B6803F1040139601968FB7F009191
:10156000F86819464FF00003FFF798FEB86129E0CC
:10157000BA7F3B6803F1040139601968FB7F009171
:10158000F86819464FF00103FFF788FEB86119E0CB
:101590003B6803F104023A601B68F8681946FFF7DC
:1015A00065FDB8610EE03B6803F104023A601B6818
:1015B000DBB2F8681946FFF747FDB86102E04FF06B
:1015C000FF332CE07B6803F101037B60BB69FA68A1
:1015D000D318FB607A69BB69D3187B6100E000BF58
:1015E0007B681B78002B04D07A69BB689A42FFF4B1
:1015F000DFAE7A69BB689A4204D2FB684FF0000202
:101600001A700BE0FB6803F1FF33FB60FB684FF0DF
:1016100000021A707B6903F1FF337B617B69184616
:1016200007F12007BD4680BD80B584B000AFF860EB
:10163000B9607A60F8684FF0C801BA687B68FFF754
:10164000A1FE0346184607F11007BD4680BD00BF46
:10165000B0B5C0B000AFF860B9607A6046F6CC5360
:10166000C0F6000307F114041D460FCD0FC40FCDC3
:101670000FC42B68236007F138031846B9687A68ED
:10168000FFF7D2FF0346C72B0CDD40F23843C2F20E
:1016900000031B68DB6807F114021046194600F0CE
:1016A00073F8FEE707F138031846F96800F06CF8A4
:1016B0000346184607F58077BD46B0BD80B582B0B9
:1016C00000AF7860396040F23843C2F200031B6813
:1016D0009B68184679683A68FFF7BAFF03461846D0
:1016E00007F10807BD4680BD0FB480B582B000AFDA
:1016F00007F114033B6038693968FFF7DFFF786052
:101700007B68184607F10807BD46BDE8804004B075
:10171000704700BF80B582B000AF786040F23843B8
:10172000C2F200031B689B687868194600F02CF829
:101730000346184607F10807BD4680BD80B582B054
:1017400000AF7860396040F23843C2F200031B6892
:101750009A683B689A4208D040F23843C2F20003CC
:101760001B68DA683B689A4206D17B68DBB2184690
:10177000FFF75CFC7B6801E04FF0FF33184607F190
:101780000807BD4680BD00BF80B584B000AF78605B
:1017900039604FF00003FB6014E07B681B7818464B
:1017A0003968FFF7CBFF0346B3F1FF3F02D14FF09B
:1017B000FF330CE0FB6803F10103FB607B6803F17E
:1017C00001037B607B681B78002BE6D1FB68184621
:1017D00007F11007BD4680BD80B485B000AF7860CA
:1017E0007B6803F00703FB604FF46D43CEF2000308
:1017F000DB68BB60BA684FF6FF031340BB60FB6851
:101800004FEA0322BB68134343F0BF6343F4003342
:10181000BB604FF46D43CEF20003BA68DA6007F1A3
:101820001407BD4680BC704780B400AFBFF34F8F34
:101830004FF46D42CEF200024FF46D43CEF200033E
:10184000DB6803F4E0614FF00403C0F2FA530B438A
:10185000D360BFF34F8FFEE780B596B004AF01F0C1
:10186000C5F904F0ADFA01F025F901F0CBF9034612
:101870001A4640F65C23C2F200035A8040F65C230D
:10188000C2F200035B88002B4CD040F65C23C2F20E
:1018900000035B88102B45D002F028FB024646F679
:1018A0003C63C0F60003009346F64463C0F60003B1
:1018B000019346F64C63C0F600030293104646F6C9
:1018C0003061C0F6000146F63862C0F600024FF003
:1018D000000304F0F5FA40F65C23C2F200034FF077
:1018E00002021A7040F65C20C2F2000001F024FFF0
:1018F00007F104031846FEF723FF3B79002BF1D1D3
:101900003B79012BEED13B79002B02D0012B03D088
:1019100005E001F01BFF05E001F01EFF02E001F011
:101920001BFF00BF02F0E2FA024646F63C63C0F637
:101930000003009346F64463C0F60003019346F6A5
:101940008863C0F600030293104646F68061C0F635
:10195000000146F63862C0F600024FF0000304F0C2
:10196000AFFA4FF001004FF0000103F0E9FD02462D
:1019700040F66C03C2F200031A6040F66C03C2F238
:1019800000031B68002B54D102F0B0FA024646F661
:101990003C63C0F60003009346F64463C0F60003C0
:1019A000019346F6A063C0F600030293104646F684
:1019B0003061C0F6000146F63862C0F600024FF012
:1019C000000304F07DFA40F65C23C2F200034FF0FE
:1019D00002021A7040F65C23C2F200035B886FEAD1
:1019E00043436FEA53439AB240F65C23C2F20003CA
:1019F0005A8040F65C20C2F2000001F09DFE07F123
:101A000004031846FEF79CFE3B79002BF1D13B798D
:101A1000012BEED13B79002B02D0012B03D005E046
:101A200001F094FE05E001F097FE02E001F094FE63
:101A300000BF02F05BFA024646F63C63C0F60003C4
:101A4000009346F64463C0F60003019346F6C46370
:101A5000C0F600030293104646F68061C0F600010E
:101A600046F63862C0F600024FF0000304F028FA90
:101A70004FF00403009340F65023C2F20003019399
:101A80004FF0000302934FF00003039341F66D60A3
:101A9000C0F6000046F6E461C0F600014FF4807223
:101AA0004FF0000301F05EFE02F020FA024646F617
:101AB0003C63C0F60003009346F64463C0F600039F
:101AC000019346F6E863C0F600030293104646F61B
:101AD0008061C0F6000146F63862C0F600024FF0A1
:101AE000000304F0EDF94FF00403009340F658238F
:101AF000C2F2000301934FF0000302934FF0000382
:101B0000039342F26170C0F6000046F60C71C0F615
:101B100000014FF480724FF0000301F023FE02F049
:101B2000E5F9024646F63C63C0F60003009346F62C
:101B30004463C0F60003019346F61073C0F6000339
:101B40000293104646F68061C0F6000146F6386200
:101B5000C0F600024FF0000304F0B2F94FF00303A7
:101B6000009340F65423C2F2000301934FF00003A8
:101B700002934FF00003039342F25900C0F60000B5
:101B800046F62C71C0F600014FF480724FF000034E
:101B900001F0E8FD02F0AAF9024646F63C63C0F601
:101BA0000003009346F64463C0F60003019346F633
:101BB0003073C0F600030293104646F68061C0F60B
:101BC000000146F63862C0F600024FF0000304F050
:101BD00077F94FF00203009340F66423C2F200034A
:101BE00001934FF0000302934FF00003039342F27E
:101BF000D930C0F6000046F65071C0F600014FF42F
:101C000080724FF0000301F0ADFD02F06FF9024663
:101C100046F63C63C0F60003009346F64463C0F604
:101C20000003019346F65473C0F600030293104676
:101C300046F68061C0F6000146F63862C0F6000242
:101C40004FF0000304F03CF940F65C23C2F20003BD
:101C50004FF001021A704FF00203009340F6602328
:101C6000C2F2000301934FF0000302934FF0000310
:101C7000039342F6F100C0F6000046F67071C0F61C
:101C800000014FF480724FF0000301F06BFD40F64D
:101C90005023C2F200031B68002B1BD040F65423D4
:101CA000C2F200031B68002B14D040F66423C2F27A
:101CB00000031B68002B0DD040F65823C2F200032E
:101CC0001B68002B06D040F66023C2F200031B689D
:101CD000002B54D102F00AF9024646F63C63C0F6E6
:101CE0000003009346F64463C0F60003019346F6F2
:101CF0007473C0F600030293104646F63061C0F6D6
:101D0000000146F63862C0F600024FF0000304F00E
:101D1000D7F840F65C23C2F200034FF002021A70BB
:101D200040F65C23C2F200035B886FEA43436FEA2C
:101D300053439AB240F65C23C2F200035A8040F645
:101D40005C20C2F2000001F0F7FC07F10403184622
:101D5000FEF7F6FC3B79002BF1D13B79012BEED15C
:101D60003B79002B02D0012B03D005E001F0EEFC03
:101D700005E001F0F1FC02E001F0EEFC00BF02F032
:101D8000B5F8024646F63C63C0F60003009346F6FB
:101D90004463C0F60003019346F68C73C0F600035B
:101DA0000293104646F68061C0F6000146F638629E
:101DB000C0F600024FF0000304F082F801F058FF73
:101DC00002F094F8024646F63C63C0F60003009326
:101DD00046F64463C0F60003019346F6A073C0F6CE
:101DE00000030293104646F63061C0F6000146F645
:101DF0003862C0F600024FF0000304F061F840F6CC
:101E00005C23C2F200034FF002021A7040F65C231A
:101E1000C2F200035B886FEA43436FEA53439AB20E
:101E200040F65C23C2F200035A8040F65C20C2F206
:101E3000000001F081FC07F104031846FEF780FC66
:101E40003B79002BF1D13B79012BEED13B79002B73
:101E500002D0012B03D005E001F078FC05E001F091
:101E60007BFC02E001F078FC00BFFEE780B598B093
:101E700000AF786002F03AF80346FB6507F1100303
:101E8000184601F06FF907F10C03184601F0A0F9AC
:101E900007F14C031846FEF7E1FD07F14C03184625
:101EA000FEF746FD0346002B00F0C480FB8923F0BB
:101EB00002039BB2FB8107F10C03184601F0B4F852
:101EC000B7F84C20BB8C9A4207D297F85A3043F0AF
:101ED0000103DBB287F85A3006E097F85A3023F056
:101EE0000103DBB287F85A30B7F85620BB8C9A4210
:101EF00007D297F85A3043F02003DBB287F85A3004
:101F000006E097F85A3023F02003DBB287F85A3006
:101F1000B7F85020BB8C9A4207D297F85A3043F05A
:101F20000403DBB287F85A3006E097F85A3023F002
:101F30000403DBB287F85A30B7F84E20BB8C9A42C4
:101F400007D297F85A3043F00203DBB287F85A30D1
:101F500006E097F85A3023F00203DBB287F85A30D4
:101F6000B7F85420BB8C9A4207D297F85A3043F006
:101F70001003DBB287F85A3006E097F85A3023F0A6
:101F80001003DBB287F85A30B7F85220BB8C9A4264
:101F900007D297F85A3043F00803DBB287F85A307B
:101FA00006E097F85A3023F00803DBB287F85A307E
:101FB00040F65C23C2F200031B78012B06D140F6E9
:101FC0005C23C2F200031B78072B14D0B7F858200B
:101FD0003B8B9A4207D297F85A3043F04003DBB26A
:101FE00087F85A300EE097F85A3023F04003DBB2FE
:101FF00087F85A3006E097F85A3023F04003DBB2F6
:1020000087F85A3007F14C03184600F0C7FF97F8DD
:102010005A30002B18D040F66C03C2F200031B6844
:1020200018464FF000014FF000024FF0000303F09C
:1020300051FB09E0FB8943F002039BB2FB8107F1EE
:102040000C03184600F0F0FF3B6B07F15C021046F2
:10205000194601F029FD11E7F0B5B5B004AF78607D
:1020600046F61053C0F6000307F108041D460FCDD5
:102070000FC495E8030084E8030040F66C03C2F245
:1020800000031B68002B24D101F030FF06464FF0FF
:10209000000001F03FFF05464FF0000001F0CCFDCD
:1020A000044646F63C63C0F60003009346F6B87358
:1020B000C0F60003019346F6CC73C0F6000302930A
:1020C000304646F63061C0F600012A46234603F04A
:1020D000F7FE01F00BFF06464FF0000001F01AFF7B
:1020E00005464FF0000001F0A7FD044646F63C63AC
:1020F000C0F60003009346F6B873C0F600030193E0
:1021000046F6E873C0F600030293304646F6806157
:10211000C0F600012A46234603F0D2FE07F19003E1
:10212000184601F055F807F14003184601F01AF877
:1021300007F194031846FEF74FF807F19403184689
:10214000FEF778F80346A7F8BE30B7F8BE30002B8C
:1021500011D007F19403184600F0A6FFB7F89230AB
:1021600043F008039BB2A7F8923007F1900318469A
:1021700000F05AFF10E007F19403184600F0BEFD8E
:10218000B7F8923023F008039BB2A7F8923007F11A
:102190009003184600F048FF07F17C03184600F052
:1021A000FFFF07F13803184600F0C6FF07F13003C0
:1021B000184600F095FF07F12003184600F0A6FF2F
:1021C00007F17C0007F1380107F1940207F13003B1
:1021D00007F12004009407F14004019407F19004F2
:1021E000029401F0B9F997F8903003F1FF33062B10
:1021F00000F2A08001A252F823F000BF19220008CB
:1022000035230008252200089B2200086B220008C5
:10221000F3220008B122000807F17C03184601F000
:1022200091F88AE007F1940207F14003104619463D
:1022300001F03AF80346002B0DD140F6CC03C2F270
:1022400000035B6807F1080007F1940107F17C02C5
:10225000FEF7FCFD71E04FF0040387F8903007F1C2
:102260009003184600F0E0FE67E007F1080107F16F
:10227000940207F17C03084611461A46FEF746FE13
:102280000346002B58D04FF0040387F8903007F135
:102290009003184600F0C8FE4EE007F1080007F171
:1022A000940107F17C0207F12003FEF761FE44E090
:1022B00007F1940207F140031046194601F010F8A7
:1022C0000346002B0BD107F1080107F1940207F137
:1022D0007C03084611461A46FEF7E8FD2DE04FF054
:1022E000010387F8903007F19003184600F09CFE38
:1022F00023E007F1940207F140031046194600F06D
:10230000EFFF0346002B0BD107F1080107F1940200
:1023100007F17C03084611461A46FEF7C7FD0CE09C
:102320004FF0020387F8903007F19003184600F051
:102330007BFE02E000BF00E000BF40F65C23C2F27B
:1023400000031B78002B12D040F65C23C2F200037E
:102350001B78012B0BD040F65C23C2F200031B78E4
:10236000022B04D007F108031846FEF731FE01F0F6
:10237000BDFD06464FF0000001F0CCFD05464FF0D4
:10238000000001F059FC044646F63C63C0F6000329
:10239000009346F6B873C0F60003019346F6F47353
:1023A000C0F600030293304646F68061C0F6000195
:1023B0002A46234603F084FD40F66C03C2F2000374
:1023C0001A68BB6E10464FF000011A464FF000032A
:1023D00003F09EFA7DE600BFF0B5B3B004AF7860BD
:1023E00001F084FD0346C7F8B43001F07FFD0646D6
:1023F0004FF0000001F08EFD05464FF0000001F0A7
:102400001BFC044646F63C63C0F60003009347F20B
:102410001403C0F60003019346F6E873C0F6000308
:102420000293304646F68061C0F600012A462346F4
:1024300003F046FD07F170031846FEF781F907F136
:102440003403184600F08EFE07F13003184600F002
:10245000BFFE97F87030A3F102030A2B00F233811C
:1024600001A252F823F000BF112500082B25000817
:10247000452500089B250008D72500080F260008E1
:10248000AF240008252600085926000895240008D6
:10249000792600087B8E23F400639BB27B8607F1CC
:1024A0003003184600F0C0FD01F040F916E197F83E
:1024B0003030012B21D107F1700303F104031846DA
:1024C00000F0DAFB0346002B0CD007F1700303F198
:1024D0000403184600F020FD7B8E23F480639BB23A
:1024E0007B8604E07B8E43F480639BB27B867B8E8D
:1024F00023F400639BB27B8604E07B8E43F400638D
:102500009BB27B8607F13003184600F08DFDE5E0B5
:1025100000F072FE7B8E23F400639BB27B8607F192
:102520003003184600F080FDD8E000F091FE7B8E6D
:1025300023F400639BB27B8607F13003184600F05A
:1025400073FDCBE097F83030012B1BD107F1080366
:10255000184600F0A9FD07F1080207F13403104600
:10256000194601F0A3F84FF0030387F830307B8E53
:1025700023F400639BB27B8607F13003184600F01A
:1025800053FDABE07B8E43F400639BB27B8607F187
:102590003003184600F048FDA0E097F83030042BD7
:1025A0000ED14FF0070387F830307B8E23F40063A1
:1025B0009BB27B8607F13003184600F035FD8DE0B5
:1025C0007B8E43F400639BB27B8607F13003184691
:1025D00000F02AFD82E097F83030042B0ED14FF046
:1025E000050387F830307B8E23F400639BB27B8633
:1025F00007F13003184600F017FD6FE04FF4006359
:102600007B8607F13003184600F00EFD66E07B8EF6
:1026100023F400639BB27B8607F13003184600F079
:1026200003FD5BE097F83030012B0CD100F03CFB50
:102630007B8E23F400639BB27B8607F13003184640
:1026400000F0F2FC4AE04FF400637B8607F13003B0
:10265000184600F0E9FC41E007F13403184600F0A9
:102660001FFA7B8E23F400639BB27B8607F1300355
:10267000184600F0D9FC31E007F1700303F10403C0
:102680001846FEF7A7FB0346002B11D007F1700395
:1026900003F10403184600F0B7FB7B8E23F40063BC
:1026A0009BB27B8607F13003184600F0BDFC15E0B5
:1026B0007B8E43F400639BB27B8607F130031846A0
:1026C00000F0B2FC0AE07B8E43F400639BB27B8691
:1026D00007F13003184600F0A7FC00BF7B8E03F41F
:1026E00000639BB27B867B8E002B0BD102F08EFEAB
:1026F00001F0FCFB024640F67803C2F200039A6048
:1027000002F09AFE01F0F2FB06464FF0000001F0E5
:1027100001FC05464FF0000001F08EFA044646F633
:102720003C63C0F60003009347F21403C0F60003B5
:10273000019347F22C03C0F600030293304646F69D
:102740008061C0F600012A46234603F0B9FBBB6D49
:1027500007F1B4021046194601F0A6F945E600BF9C
:10276000F0B59BB004AF786001F0C0FB03467B6519
:1027700001F0BCFB06464FF0000001F0CBFB054624
:102780004FF0000001F058FA044646F63C63C0F6EC
:102790000003009347F23403C0F60003019346F6AA
:1027A000E873C0F600030293304646F68061C0F637
:1027B00000012A46234603F083FB07F10C03184669
:1027C00000F086FF07F15003184600F001FD07F105
:1027D0000C03184600F05CFA0346002B0CD007F1FE
:1027E0000C03184600F058FBB7F8523023F48073FE
:1027F0009BB2A7F852300BE0B7F8523043F4807325
:102800009BB2A7F8523007F10C03184600F094FC75
:1028100007F15003184600F007FC07F114031846AF
:1028200000F0A0FC07F10C0207F114031046194652
:1028300000F0B8FD0346002B2DD001F057FB0646F3
:102840004FF0000001F066FB05464FF0000001F07C
:10285000F3F9044646F63C63C0F60003009347F2E2
:102860003403C0F60003019347F25003C0F600039F
:102870000293304646F68061C0F600012A462346A0
:1028800003F01EFB4FF0060387F8503007F15003AA
:10289000184600F0C9FB01F029FB06464FF0000086
:1028A00001F038FB05464FF0000001F0C5F9044681
:1028B00046F63C63C0F60003009347F23403C0F6CB
:1028C0000003019347F22C03C0F600030293304645
:1028D00046F68061C0F600012A46234603F0F0FA6E
:1028E0003B6B07F154021046194601F0DDF83FE753
:1028F000F0B59BB004AF786001F0F8FA03467B6551
:1029000001F0F4FA06464FF0000001F003FB054623
:102910004FF0000001F090F9044646F63C63C0F623
:102920000003009347F27003C0F60003019346F6DC
:10293000E873C0F600030293304646F68061C0F6A5
:1029400000012A46234603F0BBFA07F14C03184660
:1029500002F09EFC07F10C03184600F065FB07F13E
:102960004C03184602F0C2FC0346002B0AD007F1C4
:102970004C03184600F008FAFB8923F020039BB2B1
:10298000FB8104E0FB8943F020039BB2FB8107F14C
:102990000C03184600F048FB07F11003184600F03E
:1029A000E1FB01F0A3FA06464FF0000001F0B2FA95
:1029B00005464FF0000001F03FF9044646F63C633F
:1029C000C0F60003009347F27003C0F600030193C2
:1029D00047F22C03C0F600030293304646F68061AE
:1029E000C0F600012A46234603F06AFAFB6B07F1A2
:1029F00054021046194601F057F881E7F0B585B04A
:102A000004AF01F073FA06464FF0000001F082FABD
:102A100005464FF0000001F00FF9044646F63C630E
:102A2000C0F60003009347F28403C0F6000301934D
:102A300047F29C03C0F600030293304646F68061DD
:102A4000C0F600012A46234603F03AFA01F04EFA96
:102A500006464FF0000001F05DFA05464FF0000019
:102A600001F0EAF8044646F63C63C0F60003009322
:102A700047F28403C0F60003019347F2B003C0F6A7
:102A800000030293304646F68061C0F600012A46F4
:102A9000234603F015FA30BF07F10407BD46F0BD29
:102AA00080B483B000AF786007F10C07BD4680BCEE
:102AB000704700BF80B500AF40F6CC03C2F2000300
:102AC0001A464FF03C0310464FF000011A4603F03F
:102AD00095FD40F6CC03C2F200034FF019021A60D4
:102AE00040F6CC03C2F200034FF47A725A6040F60B
:102AF000CC03C2F200034FF4FA621A8140F6CC0311
:102B0000C2F200034FF00F021A6140F6CC03C2F28A
:102B1000000340F2EE229A8240F6CC03C2F2000398
:102B20004FF005029A6140F6CC03C2F200034FF465
:102B30001672DA6140F6CC03C2F200034FF00102D4
:102B40001A6240F6CC03C2F200034FF00A025A6246
:102B500040F6CC03C2F200034FF001029A6240F645
:102B6000CC03C2F200034FF0C802DA6240F6CC0395
:102B7000C2F200034FF0030283F8342040F6CC0386
:102B8000C2F200034FF0020283F8352040F6CC0376
:102B9000C2F200034FF00A0283F8362040F6CC035D
:102BA000C2F200034FF0020283F8372040F6CC0354
:102BB000C2F200034FF0020283F8382040F6CC0343
:102BC000C2F200034FF00A0283F8392040F65C237A
:102BD000C2F200034FF000021A7040F65C23C2F20A
:102BE00000034FF000025A8080BD00BF80B500AFE7
:102BF0004FF00000FEF7F0FD02F020F902F076F948
:102C000080BD00BF80B582B000AF4FF00003FB80F5
:102C100002F016FB0346002B03D1FB8843F01003A0
:102C2000FB80FDF7B1FA0346002B03D1FB8843F08C
:102C30000403FB80FDF75CFD0346002B03D1FB88FA
:102C400043F40073FB80FDF719FE0346002B03D10C
:102C5000FB8843F00103FB8000F04EFC0346002B91
:102C600003D1FB8843F08003FB80FB88184607F103
:102C70000807BD4680BD00BF80B483B000AF786058
:102C80004FF00103184607F10C07BD4680BC7047A2
:102C900080B483B000AF78604FF00103184607F1AD
:102CA0000C07BD4680BC704780B500AF46F6F050BB
:102CB000C0F6000000F030F980BD00BF80B483B0E2
:102CC00000AF78607B681B78072B0CD84FF00102AF
:102CD00002FA03F303F0B803002B04D07B684FF033
:102CE00006021A7004E07B684FF002021A7000BFFF
:102CF00007F10C07BD4680BC704700BFF0B587B038
:102D000004AF786002F082FB40F68803C2F2000351
:102D10007A681C4615460FCD0FC40FCD0FC42B6823
:102D2000236001F0E3F8024640F68803C2F2000394
:102D30005A6202F081FB01F0D9F806464FF000001C
:102D400001F0E8F805464FF0000000F075FF04467A
:102D500046F63C63C0F60003009347F2C803C0F692
:102D60000003019347F2DC03C0F6000302933046F0
:102D700046F68061C0F600012A46234603F0A0F81B
:102D800007F10C07BD46F0BDF0B587B004AF786021
:102D900002F03CFB40F67003C2F200037A6812684E
:102DA0001A6001F0A3F8024640F67003C2F2000375
:102DB0005A6002F041FB01F099F806464FF000001E
:102DC00001F0A8F805464FF0000000F035FF04467A
:102DD00046F63C63C0F60003009347F2F003C0F6EA
:102DE0000003019347F20413C0F600030293304638
:102DF00046F68061C0F600012A46234603F060F8DB
:102E000007F10C07BD46F0BDF0B587B004AF7860A0
:102E100002F0FCFA40F67803C2F200037A68106808
:102E2000186001F063F8024640F67803C2F200032E
:102E3000DA6001F05BF8024640F67803C2F2000364
:102E40009A6002F0F9FA01F051F806464FF00000DE
:102E500001F060F805464FF0000000F0EDFE04467A
:102E600046F63C63C0F60003009347F21813C0F621
:102E70000003019347F22C13C0F60003029330467F
:102E800046F68061C0F600012A46234603F018F892
:102E900007F10C07BD46F0BDF0B587B004AF786010
:102EA00002F0B4FA7B681A6840F6B003C2F200037D
:102EB0001A6001F01BF8024640F6B003C2F20003AC
:102EC0005A6002F0B9FA01F011F806464FF000001E
:102ED00001F020F805464FF0000000F0ADFE04467A
:102EE00046F63C63C0F60003009347F24013C0F679
:102EF0000003019347F25813C0F6000302933046D3
:102F000046F68061C0F600012A46234602F0D8FF4B
:102F100007F10C07BD46F0BDF0B587B004AF78608F
:102F200002F074FA40F6CC03C2F200037A681C4641
:102F300015460FCD0FC40FCD0FC40FCD0FC495E8AC
:102F4000070084E8070002F077FA00F0CFFF06469A
:102F50004FF0000000F0DEFF05464FF0000000F0EB
:102F60006BFE044646F63C63C0F60003009347F24E
:102F70006C13C0F60003019347F28413C0F60003FC
:102F80000293304646F68061C0F600012A46234689
:102F900002F096FF07F10C07BD46F0BDF0B587B013
:102FA00004AF786002F032FA40F6B803C2F20003D0
:102FB0007A681C461346186859689A68DB680FC41B
:102FC00000F094FF024640F6B803C2F200031A6113
:102FD00002F032FA00F08AFF06464FF0000000F0DF
:102FE00099FF05464FF0000000F026FE044646F625
:102FF0003C63C0F60003009347F29C13C0F6000345
:10300000019347F2B813C0F600030293304646F628
:103010008061C0F600012A46234602F051FF07F105
:103020000C07BD46F0BD00BFF0B587B004AF7860B7
:1030300002F0ECF97B681A7840F65C23C2F20003D8
:103040001A707B685A8840F65C23C2F200035A80EB
:1030500002F0F2F900F04AFF06464FF0000000F0DF
:1030600059FF05464FF0000000F0E6FD044646F625
:103070003C63C0F60003009347F2D013C0F6000390
:10308000019347F2E813C0F600030293304646F678
:103090008061C0F600012A46234602F011FF07F1C5
:1030A0000C07BD46F0BD00BFB0B582B000AF786080
:1030B00002F0ACF97A6840F68803C2F200031446C5
:1030C0001D460FCD0FC40FCD0FC495E8030084E853
:1030D000030002F0B1F907F10807BD46B0BD00BF1B
:1030E00080B582B000AF786002F090F97A6840F65F
:1030F0007003C2F2000393E8030082E8030002F0C9
:103100009BF907F10807BD4680BD00BF90B583B0AD
:1031100000AF786002F07AF97A6840F67803C2F27C
:10312000000314460FCB84E80F0002F085F907F185
:103130000C07BD4690BD00BF80B582B000AF78607F
:1031400002F064F97A6840F6B003C2F2000393E833
:10315000030082E8030002F06FF907F10807BD469B
:1031600080BD00BFB0B582B000AF786002F04EF90C
:103170007A6840F6CC03C2F2000314461D460FCD18
:103180000FC40FCD0FC40FCD0FC495E8070084E81E
:10319000070002F051F907F10807BD46B0BD00BFB6
:1031A000B0B582B000AF786002F030F97A6840F6CE
:1031B000B803C2F2000314461D460FCD0FC42B689E
:1031C000236002F039F907F10807BD46B0BD00BF22
:1031D00080B582B000AF786002F018F97A6840F6E6
:1031E0005C23C2F200031868106002F025F907F1B1
:1031F0000807BD4680BD00BFF0B585B004AF00F044
:1032000075FE06464FF0000000F084FE05464FF0C4
:10321000000000F011FD044646F63C63C0F60003D2
:10322000009347F20423C0F60003019347F21823EA
:10323000C0F600030293304647F2FC11C0F60001CD
:103240002A46234602F03CFE07F10407BD46F0BDC6
:10325000F0B585B004AF00F049FE06464FF000001F
:1032600000F058FE05464FF0000000F0E5FC044673
:1032700046F63C63C0F60003009347F22C23C0F6E9
:103280000003019347F21823C0F60003029330466F
:1032900047F2FC11C0F600012A46234602F010FE58
:1032A00007F10407BD46F0BD80B483B000AF78607D
:1032B000396040F68803C2F200031B681A4640F6E4
:1032C000CC03C2F200035B689A422CBF00230123A7
:1032D000DBB2184607F10C07BD4680BC704700BF43
:1032E000F0B587B004AF7860396000F0FFFD0646A6
:1032F0004FF0000000F00EFE05464FF0000000F019
:103300009BFC044646F63C63C0F60003009347F27C
:103310004023C0F60003019347F21823C0F60003D0
:103320000293304647F2FC11C0F600012A462346BC
:1033300002F0C6FD4FF00003184607F10C07BD462A
:10334000F0BD00BF80B483B000AF78607B689B7B2A
:10335000002B0CBF00230123DBB2184607F10C073A
:10336000BD4680BC704700BF80B584B000AF7860B8
:10337000396000F0BBFD02467B681B69D31AFB6015
:103380003B6893F837303A68126A02FB03F2FB6835
:103390009A422CBF00230123DBB2184607F1100725
:1033A000BD4680BD80B483B000AF786039607B6873
:1033B0001A683B681B699A422CBF00230123DBB2C9
:1033C000184607F10C07BD4680BC704780B584B035
:1033D00000AF7860396000F089FD02467B685B6869
:1033E000D31AFB603B6893F838303A68D26902FB25
:1033F00003F2FB689A422CBF00230123DBB218467C
:1034000007F11007BD4680BD80B584B000AF78607D
:10341000396000F06BFD02467B685B6AD31AFB6083
:103420003B6893F834303A68926A02FB03F2FB6817
:103430009A422CBF00230123DBB2184607F1100784
:10344000BD4680BD80B584B000AF7860396000F0C3
:103450004DFD02467B685B68D31AFB603B6893F8BE
:1034600039303A68D26A02FB03F2FB689A422CBFF9
:1034700000230123DBB2184607F11007BD4680BDCB
:1034800080B584B000AF7860396000F02FFD02464F
:103490007B689B68D31AFB603B6893F836303A68C8
:1034A000526A02FB03F2FB689A422CBF00230123FD
:1034B000DBB2184607F11007BD4680BD80B584B069
:1034C00000AF7860396000F011FD02467B68DB6870
:1034D000D31AFB603B6893F835303A68526A02FBB6
:1034E00003F2FB689A422CBF00230123DBB218468B
:1034F00007F11007BD4680BDF0B585B004AF00F000
:10350000F5FC06464FF0000000F004FD05464FF0C4
:10351000000000F091FB044646F63C63C0F6000351
:10352000009347F25423C0F60003019347F2182397
:10353000C0F600030293304647F2FC11C0F60001CA
:103540002A46234602F0BCFC4FF00003184607F160
:103550000407BD46F0BD00BF80B584B000AFF86081
:10356000B9607A603B60F868F969FFF7FDFE0346D1
:10357000002B0AD03B6A5B8843F001039AB23B6A96
:103580005A80386AFFF79AFB06E03B6A5B8823F0B3
:1035900001039AB23B6A5A80B868F969FFF716FFCF
:1035A0000346002B0AD03B6A5B8843F080039AB243
:1035B0003B6A5A80386AFFF781FB06E03B6A5B880A
:1035C00023F080039AB23B6A5A807868F969FFF762
:1035D0001BFF0346002B0AD03B6A5B8843F00403C1
:1035E0009AB23B6A5A80386AFFF768FB06E03B6A8A
:1035F0005B8823F004039AB23B6A5A803868F96901
:10360000FFF720FF0346002B07D03B6A5B8843F09F
:1036100010039AB23B6A5A8006E03B6A5B8823F04B
:1036200010039AB23B6A5A80B869F969FFF728FF1C
:103630000346002B0AD03B6A5B8843F400739AB2BE
:103640003B6A5A80386AFFF739FB06E03B6A5B88C1
:1036500023F400739AB23B6A5A80B869F969FFF79C
:103660002DFF0346002B12D03B6A5B8843F04003DA
:103670009AB23B6A5A80BA6946F62853C0F60003EC
:103680001B681360BB691846FFF7BEFB06E03B6A88
:103690005B8823F040039AB23B6A5A80386AFFF78E
:1036A000C3FC07F11007BD4680BD00BF80B582B0E6
:1036B00000AF786039607B681B681A463B68DA6047
:1036C0003868FFF729FC07F10807BD4680BD00BF39
:1036D000F0B587B004AF786000F008FC06464FF004
:1036E000000000F017FC05464FF0000000F0A4FABF
:1036F000044646F63C63C0F60003009347F2682395
:10370000C0F60003019347F21823C0F600030293AA
:10371000304647F2FC11C0F600012A46234602F06B
:10372000CFFB07F10C07BD46F0BD00BF80B400AF72
:10373000BD4680BC704700BF80B483B000AF7860E6
:1037400007F10C07BD4680BC704700BF80B500AFD5
:10375000FEF76AF880BD00BF80B400AF30BFBD4641
:1037600080BC7047F0B58DB004AFF860B9603B60C5
:103770001346FB80FB68002B1ED100F0B7FB02460E
:1037800047F28823C0F60003009347F29423C0F663
:103790000003019347F2A423C0F6000302931046EE
:1037A00047F27C21C0F6000147F28422C0F60002F5
:1037B0004FF0000302F084FBBB6B042B1ED900F01A
:1037C00095FB024647F28823C0F60003009347F2B8
:1037D0009423C0F60003019347F2A423C0F600032C
:1037E0000293104647F27C21C0F6000147F2842282
:1037F000C0F600024FF0000302F062FBFB8818469F
:10380000396C01F035F8B861BB69002B00F00F810D
:10381000BB691A6BFB8803F1FF334FEA8303D318AC
:103820007B617B6923F007037B617B6903F00703FE
:10383000002B1ED000F05AFB024647F28823C0F648
:103840000003009347F29423C0F60003019347F26C
:10385000A423C0F600030293104647F27C21C0F671
:10386000000147F28422C0F600024FF0000302F08C
:1038700027FBFB880093B869B968BA6B7B6C00F0D2
:1038800021FF7869F9683A6801F03CFD0246BB699E
:103890001A60BB691B6803F00703002B1ED000F001
:1038A00025FB024647F28823C0F60003009347F247
:1038B0009423C0F60003019347F2A423C0F600034B
:1038C0000293104647F27C21C0F6000147F28422A1
:1038D000C0F600024FF0000302F0F2FAFB6B002B7F
:1038E00002D0FB6BBA691A6001F090FD40F6B81384
:1038F000C2F200031B6803F1010240F6B813C2F2E2
:1039000000031A6040F60813C2F200031B68002B84
:103910000FD140F60813C2F20003BA691A6040F6EC
:10392000B813C2F200031B68012B18D100F00EFF80
:1039300015E040F6C813C2F200031B68002B0ED13D
:1039400040F60813C2F200031B68DA6ABB6B9A42A6
:1039500005D840F60813C2F20003BA691A60BB69C1
:10396000DA6A40F6C013C2F200031B689A4206D915
:10397000BB69DA6A40F6C013C2F200031A6040F66F
:10398000DC13C2F200031B6803F1010240F6DC13F2
:10399000C2F200031A60BB69DA6A40F6C413C2F2CD
:1039A00000031B689A4206D9BB69DA6A40F6C41361
:1039B000C2F200031A60BB69DA6A13464FEA830356
:1039C0009B184FEA830340F60C12C2F200029A18C9
:1039D000BB6903F104031046194601F0A3F94FF047
:1039E0000103FB6100F082FA0646BB6903F134056E
:1039F000B86900F021F9044647F28823C0F60003B5
:103A0000009347F2B823C0F60003019347F2CC239A
:103A1000C0F600030293304647F2B021C0F6000121
:103A20002A46234602F04CFA01F006FD21E04FF051
:103A3000FF33FB6100F05AFA024647F28823C0F6D2
:103A40000003009347F2E823C0F60003019347F216
:103A50000433C0F600030293104647F27C21C0F6FF
:103A6000000147F28422C0F600024FF0000302F08A
:103A700027FAFB69012B11D140F6C813C2F20003EB
:103A80001B68002B0AD040F60813C2F200031B6823
:103A9000DA6ABB6B9A4201D201F0ACFCFB691846B2
:103AA00007F12407BD46F0BDF0B58BB004AF7860D8
:103AB00039604FF000037B617B68002B1ED100F062
:103AC00015FA024647F28823C0F60003009347F236
:103AD0009423C0F60003019347F2A423C0F6000329
:103AE0000293104647F27C21C0F6000147F284227F
:103AF000C0F600024FF0000302F0E2F93B68002B31
:103B00001ED100F0F3F9024647F28823C0F6000305
:103B1000009347F29423C0F60003019347F2A423D5
:103B2000C0F600030293104647F27C21C0F6000164
:103B300047F28422C0F600024FF0000302F0C0F901
:103B400000F0F4F87B681A683B68D3183B617B6827
:103B50001A6840F6BC13C2F200031B689A4210D9DF
:103B60007B681A683B699A421BD940F6BC13C2F2C3
:103B700000031B683A699A4213D94FF001037B6135
:103B80000FE07B681A683B699A4207D840F6BC137D
:103B9000C2F200031B683A699A4202D94FF001034E
:103BA0007B617B683A691A607B69002B37D000F033
:103BB0009DF9064640F60813C2F200031B6803F1A4
:103BC000340540F60813C2F200031B68184600F0E3
:103BD00033F8044647F28823C0F60003009347F207
:103BE0001C33C0F60003019347F23433C0F60003E0
:103BF0000293304647F2B021C0F600012A46234620
:103C000002F05EF940F60813C2F200031B6803F1EC
:103C10000403184601F0E8F8386900F0E3FD00F00D
:103C200097F8F860FB68002B01D101F0E3FB07F186
:103C30001C07BD46F0BD00BF80B584B000AF786002
:103C400001F0E4FB7B68002B05D140F60813C2F2BB
:103C500000031B6800E07B68FB60FB68DB6ABB60FD
:103C600001F0EAFBBB68184607F11007BD4680BDAE
:103C700080B586B004AF4FF00003009340F6B41354
:103C8000C2F2000301934FF0000302934FF00003D0
:103C9000039344F2B160C0F6000047F24C31C0F625
:103CA00000014FF480724FF00003FFF75BFD786076
:103CB0007B68012B13D14FF0BF0080F3118840F6D1
:103CC000C813C2F200034FF001021A6040F6BC13A1
:103CD000C2F200034FF000021A6001F061FB7B6842
:103CE000002B1ED100F002F9024647F28823C0F6ED
:103CF0000003009347F29423C0F60003019347F2B8
:103D0000A423C0F600030293104647F27C21C0F6BC
:103D1000000147F28422C0F600024FF0000302F0D7
:103D2000CFF807F10807BD4680BD00BF80B400AFE3
:103D300040F6CC13C2F200031B6803F1010240F607
:103D4000CC13C2F200031A60BD4680BC704700BFAE
:103D500090B587B004AF4FF000037B6040F6CC1302
:103D6000C2F200031B68002B1ED100F0BFF8024610
:103D700047F28823C0F60003009347F29423C0F66D
:103D80000003019347F2A423C0F6000302931046F8
:103D900047F27C21C0F6000147F28422C0F60002FF
:103DA0004FF0000302F08CF801F030FB40F6CC132A
:103DB000C2F200031B6803F1FF3240F6CC13C2F2DB
:103DC00000031A6040F6CC13C2F200031B68002BFC
:103DD00040F0848040F6B813C2F200031B68002B49
:103DE0007CD04FF000033B603BE040F6A013C2F2F2
:103DF0000003DB68DC6804F11803184600F0F4FFE8
:103E000004F10403184600F0EFFFE26A40F6C41321
:103E1000C2F200031B689A4205D9E26A40F6C41355
:103E2000C2F200031A60E26A13464FEA83039B184A
:103E30004FEA830340F60C12C2F200029A1804F112
:103E400004031046194600F06DFFE26A40F60813BD
:103E5000C2F200031B68DB6A9A4202D34FF00103EF
:103E60003B6040F6A013C2F200031B68002BBCD1DC
:103E700040F6D013C2F200031B68002B18D00DE0EF
:103E800000F082F840F6D013C2F200031B6803F181
:103E9000FF3240F6D013C2F200031A6040F6D0138E
:103EA000C2F200031B68002BEAD14FF001033B6014
:103EB0003B68012B06D040F6D413C2F200031B6806
:103EC000012B0BD14FF001037B6040F6D413C2F2FB
:103ED00000034FF000021A6001F08CFA01F0ACFA16
:103EE0007B68184607F10C07BD4690BD80B582B0CF
:103EF00000AF01F08BFA40F6BC13C2F200031B685E
:103F00007B6001F099FA7B68184607F10807BD4607
:103F100080BD00BF80B588B004AF78607B68002B9F
:103F200005D140F60813C2F200031B6800E07B686D
:103F3000FB60FB68002B1ED1FFF7D8FF024647F25B
:103F40008823C0F60003009347F29423C0F60003D1
:103F5000019347F2A423C0F600030293104647F2F0
:103F60007C21C0F6000147F28422C0F600024FF027
:103F7000000301F0A5FFFB6803F13403184607F1C5
:103F80001007BD4680BD00BF80B588B004AF40F6C5
:103F9000CC13C2F200031B68002B40F0E68040F611
:103FA000BC13C2F200031B6803F1010240F6BC130C
:103FB000C2F200031A6040F6BC13C2F200031B6891
:103FC000002B67D140F69813C2F200031B681B68F0
:103FD000002B1ED0FFF78AFF024647F28823C0F667
:103FE0000003009347F29423C0F60003019347F2C5
:103FF000A423C0F600030293104647F27C21C0F6CA
:10400000000147F28422C0F600024FF0000301F0E5
:1040100057FF40F69813C2F200031B68FB6040F69E
:104020009C13C2F200031A6840F69813C2F2000310
:104030001A6040F69C13C2F20003FA681A6040F658
:10404000D813C2F200031B6803F1010240F6D81333
:10405000C2F200031A6040F69813C2F200031B6814
:104060001B68002B07D140F24043C2F200034FF01F
:10407000FF321A600EE040F69813C2F200031B688C
:10408000DB68DB68BB60BB685A6840F24043C2F241
:1040900000031A6040F6BC13C2F200031A6840F233
:1040A0004043C2F200031B689A426AD340F6981359
:1040B000C2F200031B681B68002B07D140F240438B
:1040C000C2F200034FF0FF321A605AE040F6981334
:1040D000C2F200031B68DB68DB68BB60BB685B681F
:1040E0007B6040F6BC13C2F200031A687B689A42F8
:1040F00006D240F24043C2F200037A681A6040E000
:10410000BB6803F10403184600F06EFEBB689B6AAF
:10411000002B05D0BB6803F11803184600F064FEBD
:10412000BB68DA6A40F6C413C2F200031B689A4205
:1041300006D9BB68DA6A40F6C413C2F200031A60FB
:10414000BB68DA6A13464FEA83039B184FEA83037E
:1041500040F60C12C2F200029A18BB6803F1040385
:104160001046194600F0DEFDA0E740F6D013C2F27B
:1041700000031B6803F1010240F6D013C2F20003F2
:104180001A6007F11007BD4680BD00BFF0B587B0CB
:1041900004AF40F6CC13C2F200031B68002B07D01B
:1041A00040F6D413C2F200034FF001021A60DAE0C5
:1041B000FFF79CFE064640F60813C2F200031B6898
:1041C00003F1340540F60813C2F200031B681846D9
:1041D000FFF732FD044647F28823C0F60003009340
:1041E00047F25833C0F60003019347F27433C0F628
:1041F00000030293304647F2B021C0F600012A4680
:10420000234601F05DFE40F60813C2F200031A686F
:10421000516C40F61423C2F200031B687868C31A7D
:10422000CB18536440F61423C2F200037A681A6074
:1042300031E040F6C413C2F200031B68002B1ED10C
:10424000FFF754FE024647F28823C0F600030093AE
:1042500047F29423C0F60003019347F2A423C0F66B
:1042600000030293104647F27C21C0F6000147F29A
:104270008422C0F600024FF0000301F021FE40F658
:10428000C413C2F200031B6803F1FF3240F6C413EB
:10429000C2F200031A6040F6C413C2F200031968A8
:1042A00040F60C12C2F200020B464FEA83035B1881
:1042B0004FEA8303D3181B68002BBAD040F6C4130F
:1042C000C2F200031A6813464FEA83039B184FEAB1
:1042D000830340F60C12C2F200029B183B603B685D
:1042E0005B685A683B685A603B685A683B6803F1F0
:1042F00008039A4204D13B685B685A683B685A607D
:104300003B685B68DA6840F60813C2F200031A6083
:10431000FFF7ECFD064640F60813C2F200031B68E7
:1043200003F1340540F60813C2F200031B68184677
:10433000FFF782FC044647F28823C0F6000300938F
:1043400047F29833C0F60003019347F2B033C0F64A
:1043500000030293304647F2B021C0F600012A461E
:10436000234601F0ADFD07F10C07BD46F0BD00BFCF
:1043700080B588B004AF786039607B68002B1ED1AF
:10438000FFF7B4FD024647F28823C0F6000300930E
:1043900047F29423C0F60003019347F2A423C0F62A
:1043A00000030293104647F27C21C0F6000147F259
:1043B0008422C0F600024FF0000301F081FD40F6B8
:1043C0000813C2F200031B6803F11803786819464A
:1043D00000F0D0FC40F60813C2F200031B6803F1A2
:1043E0000403184600F000FD40F6BC13C2F20003BF
:1043F0001A683B68D318FB60F86800F0F3F907F11E
:104400001007BD4680BD00BF80B588B004AF78609E
:104410007B68DB68DB68BB60BB68002B1ED1FFF7E5
:1044200065FD024647F28823C0F60003009347F279
:104430009423C0F60003019347F2A423C0F60003BF
:104440000293104647F27C21C0F6000147F2842215
:10445000C0F600024FF0000301F032FDBB6803F12B
:104460001803184600F0C0FC40F6CC13C2F200035B
:104470001B68002B2AD1BB6803F10403184600F027
:10448000B3FCBB68DA6A40F6C413C2F200031B68CF
:104490009A4206D9BB68DA6A40F6C413C2F2000336
:1044A0001A60BB68DA6A13464FEA83039B184FEA27
:1044B000830340F60C12C2F200029A18BB6803F1A3
:1044C00004031046194600F02DFC09E0BB6803F117
:1044D000180340F6A010C2F20000194600F022FCBA
:1044E000BB68DA6A40F60813C2F200031B68DB6A95
:1044F0009A4203D34FF00103FB6002E04FF0000348
:10450000FB60FB68184607F11007BD4680BD00BF81
:1045100080B586B004AF78607B68002B1ED1FFF7B2
:10452000E5FC024647F28823C0F60003009347F2F9
:104530009423C0F60003019347F2A423C0F60003BE
:104540000293104647F27C21C0F6000147F2842214
:10455000C0F600024FF0000301F0B2FC40F6D813A1
:10456000C2F200031A687B681A6040F6BC13C2F2FC
:1045700000031A687B685A6007F10807BD4680BDD2
:1045800080B588B004AF786039607B68002B1ED19D
:10459000FFF7ACFC024647F28823C0F60003009305
:1045A00047F29423C0F60003019347F2A423C0F618
:1045B00000030293104647F27C21C0F6000147F247
:1045C0008422C0F600024FF0000301F079FC3B6842
:1045D000002B1ED1FFF78AFC024647F28823C0F663
:1045E0000003009347F29423C0F60003019347F2BF
:1045F000A423C0F600030293104647F27C21C0F6C4
:10460000000147F28422C0F600024FF0000301F0DF
:1046100057FC00F0FBFE7B681A6840F6D813C2F224
:1046200000031B689A420CD07B685A6840F6BC13A2
:10463000C2F200031B689A4203D84FF00103FB60EB
:1046400022E040F6BC13C2F200031A687B685B6884
:10465000D21A3B681B689A4213D23B681A687B687F
:10466000596840F6BC13C2F200031B68CB1AD2187B
:104670003B681A607868FFF74BFF4FF00003FB6060
:1046800002E04FF00103FB6000F0D6FEFB68184625
:1046900007F11007BD4680BD80B400AF40F6D413CB
:1046A000C2F200034FF001021A60BD4680BC7047A1
:1046B00080B582B000AF786000F08EF8FEF79EF90A
:1046C000FAE700BF80B584B000AFF860B9607A60E7
:1046D0003B60FB6803F134031846B9684FF00502EC
:1046E00002F038F8FB684FF0000283F838207B684E
:1046F000042B02D94FF004037B60FB687A68DA620E
:10470000FB687A68DA63FB6803F10403184600F07B
:10471000FBFAFB6803F11803184600F0F5FAFB6892
:10472000FA681A617B68C3F10502FB689A61FB684D
:10473000FA685A62FB684FF000021A64FB684FF097
:1047400000025A6407F11007BD4680BD80B582B0F3
:1047500000AF4FF000037B6012E07A6813464FEA27
:1047600083039B184FEA830340F60C12C2F2000247
:104770009B18184600F0A8FA7B6803F101037B60E0
:104780007B68042BE9D940F67010C2F2000000F0FB
:104790009BFA40F68410C2F2000000F095FA40F651
:1047A000A010C2F2000000F08FFA40F69813C2F297
:1047B000000340F67012C2F200021A6040F69C1329
:1047C000C2F2000340F68412C2F200021A6007F13E
:1047D0000807BD4680BD00BF80B400AFBD4680BCA9
:1047E000704700BF80B582B000AF786040F6081314
:1047F000C2F200031B687A685A6040F6BC13C2F22A
:1048000000031B687A689A4210D240F69C13C2F2E9
:1048100000031A6840F60813C2F200031B6803F194
:1048200004031046194600F0A5FA1DE040F698135F
:10483000C2F200031A6840F60813C2F200031B68B4
:1048400003F104031046194600F094FA40F2404385
:10485000C2F200031B687A689A4205D240F24043D4
:10486000C2F200037A681A6007F10807BD4680BDEE
:1048700080B584B000AF03463960FB804FF048003C
:1048800001F05CFB0346FB60FB68002B23D03B6818
:10489000002B07D1FB884FEA8303184601F04EFB3B
:1048A000034600E03B68FA681363FB681B6B002B50
:1048B00006D1F86801F04AFB4FF00003FB600AE004
:1048C000FB681A6BFB884FEA830310464FF0A50183
:1048D0001A4601F093FEFB68184607F11007BD4623
:1048E00080BD00BF80B483B000AF40F60813C2F2B1
:1048F00000031B687B607B68184607F10C07BD4608
:1049000080BC704780B588B004AF78607B68FB607E
:104910007B68002B1ED1FFF7E9FA024647F2882395
:10492000C0F60003009347F29423C0F600030193FE
:1049300047F2A423C0F600030293104647F27C21FD
:10494000C0F6000147F28422C0F600024FF00003D7
:1049500001F0B6FAFB68DA6A40F60813C2F2000307
:104960001B68DB6A9A4255D240F60813C2F2000374
:104970001B68DB6AC3F10502FB689A61FB68596931
:10498000FB68DA6A13464FEA83039B184FEA8303F6
:1049900040F60C12C2F200029B18994232D1FB6819
:1049A00003F10403184600F01FFA40F60813C2F2A0
:1049B00000031B68DA6AFB68DA62FB68DA6A40F6B1
:1049C000C413C2F200031B689A4206D9FB68DA6A74
:1049D00040F6C413C2F200031A60FB68DA6A134699
:1049E0004FEA83039B184FEA830340F60C12C2F28E
:1049F00000029A18FB6803F104031046194600F000
:104A000091F907E040F60813C2F200031B68DA6A66
:104A1000FB68DA6207F11007BD4680BD80B584B03F
:104A200000AF78607B68FB607B68002B39D0FB6847
:104A3000DA6AFB68DB6B9A4233D0FB6803F104034C
:104A4000184600F0D1F9FB68DA6BFB68DA62FB68A4
:104A5000DB6AC3F10502FB689A61FB68DA6A40F61B
:104A6000C413C2F200031B689A4206D9FB68DA6AD3
:104A700040F6C413C2F200031A60FB68DA6A1346F8
:104A80004FEA83039B184FEA830340F60C12C2F2ED
:104A900000029A18FB6803F104031046194600F05F
:104AA00041F907F11007BD4680BD00BF80B487B053
:104AB00000AF786039604FF000037B614FF0000376
:104AC0003B614FF00003FB604FF000037B6186E029
:104AD0007B694FF0010202FA03F33B613B681A68FD
:104AE0003B691340FB60FA683B699A4273D17B686B
:104AF0001A687B694FEA43034FF0030101FA03F39D
:104B00006FEA03031A407B681A607B681A683B6887
:104B10001B7919467B694FEA430301FA03F31A43F1
:104B20007B681A603B681B79012B03D03B681B79BB
:104B3000022B34D17B689A687B694FEA43034FF0BC
:104B4000030101FA03F36FEA03031A407B689A60DA
:104B50007B689A683B685B7919467B694FEA430337
:104B600001FA03F31A437B689A607B685A687B6991
:104B70009BB24FF0010101FA03F36FEA03031A40FD
:104B80007B685A607B685A683B689B7919467B69E9
:104B90009BB201FA03F39BB21A437B685A607B68AD
:104BA000DA687B699BB24FEA43034FF0030101FAD5
:104BB00003F36FEA03031A407B68DA607B68DA6804
:104BC0003B68DB7919467B694FEA430301FA03F33B
:104BD0001A437B68DA607B6903F101037B617B69BF
:104BE0000F2B7FF675AF07F11C07BD4680BC7047E1
:104BF00080B485B000AF786013460A467A807B7037
:104C00004FF00003FB604FF00003BB607A787B88B5
:104C100003F007034FEA830302FA03F3FB607B8888
:104C20004FEAD3039BB21A467B884FEAD3039BB269
:104C300019467B6801F1080153F821107B8803F0C5
:104C400007034FEA83034FF00F0000FA03F36FEA04
:104C5000030319407B6802F1080243F822107B88A5
:104C60004FEAD3039BB21A467B6802F1080253F85D
:104C70002220FB681343BB607B884FEAD3039BB2BF
:104C80001A467B6802F10802B96843F8221007F15E
:104C90001407BD4680BC7047ABBE00F002B80020D0
:104CA0007047002A00F001801060012070470698CC
:104CB0000188044A914240F0038004300690704716
:104CC000FEE70000ABBE000080B483B000AF7860A8
:104CD0007B6803F108027B685A607B684FF0FF3203
:104CE0009A607B6803F108027B68DA607B6803F1F5
:104CF00008027B681A617B684FF000021A6007F1B6
:104D00000C07BD4680BC704780B483B000AF7860AC
:104D10007B684FF000021A6107F10C07BD4680BCAA
:104D2000704700BF80B485B000AF786039607B68A1
:104D30005B68FB60FB685A683B685A607B685A682E
:104D40003B689A60FB685B683A689A60FB683A68FF
:104D50005A607B683A685A603B687A681A617B6877
:104D60001B6803F101027B681A6007F11407BD4656
:104D700080BC704780B485B000AF786039603B6814
:104D80001B68BB60BB68B3F1FF3F03D17B681B6945
:104D9000FB600DE07B6803F10803FB6002E0FB6849
:104DA0005B68FB60FB685B681A68BB689A42F6D96F
:104DB000FB685A683B685A603B685B683A689A606F
:104DC0003B68FA689A60FB683A685A603B687A68A0
:104DD0001A617B681B6803F101027B681A6007F1A6
:104DE0001407BD4680BC704780B485B000AF7860C2
:104DF0007B685B687A6892689A607B689B687A686F
:104E000052685A607B681B69FB60FB685A687B6864
:104E10009A4203D17B689A68FB685A607B684FF0BE
:104E200000021A61FB681B6803F1FF32FB681A601D
:104E300007F11407BD4680BC704700BF80B500AFC6
:104E40004FF46D43CEF200034FF46D42CEF20002F8
:104E5000D2F8882042F47002C3F888204FF46053DF
:104E6000C4F202034FF46052C4F20202126842F02C
:104E700001021A604FF46053C4F202034FF00002C3
:104E80009A604FF46053C4F202034FF46052C4F2CC
:104E90000202126822F0847222F480321A604FF407
:104EA0006053C4F2020343F21002C2F200425A609D
:104EB0004FF46053C4F202034FF46052C4F2020292
:104EC000126822F480221A604FF46053C4F2020385
:104ED0004FF00002DA6000F0C1F84FF46D43CEF2FB
:104EE00000034FF000629A6080BD00BF80B487B0BD
:104EF00000AF4FF000033B614FF000037B614FF0C8
:104F00000203FB604FF00003BB604FF002037B60C5
:104F10004FF46053C4F202039B6803F00C033B613F
:104F20003B69042B0DD0082B15D0002B69D140F222
:104F30004443C2F200034FF41052C0F2F4021A606C
:104F400069E040F24443C2F200034FF49052C0F2D1
:104F50007A021A605FE04FF46053C4F202035B68A8
:104F600003F480034FEA9353BB604FF46053C4F2E1
:104F700002035B6803F03F037B60BB68002B14D027
:104F80004FF49053C0F27A037A68B3FBF2F24FF415
:104F90006053C4F20203596847F6C0730B404FEAEE
:104FA000931303FB02F37B6113E04FF41053C0F241
:104FB000F4037A68B3FBF2F24FF46053C4F20203D5
:104FC000596847F6C0730B404FEA931303FB02F393
:104FD0007B614FF46053C4F202035B6803F4403317
:104FE0004FEA134303F101034FEA4303FB607A697D
:104FF000FB68B2FBF3F240F24443C2F200031A60D2
:1050000009E040F24443C2F200034FF41052C0F2F0
:10501000F4021A6000BF4FF46053C4F202039B68AD
:1050200003F0F0034FEA131240F24843C2F20003C8
:105030009B5CDBB23B6140F24443C2F200031A685E
:105040003B6922FA03F240F24443C2F200031A60C1
:1050500007F11C07BD4680BC704700BF80B483B019
:1050600000AF4FF000037B604FF000033B604FF454
:105070006053C4F202034FF46052C4F20202126899
:1050800042F480321A604FF46053C4F202031B688A
:1050900003F400333B607B6803F101037B603B68F2
:1050A000002B03D17B68B3F5A06FECD14FF46053B4
:1050B000C4F202031B6803F40033002B03D04FF04B
:1050C00001033B6002E04FF000033B603B68012BB3
:1050D00040F082804FF46053C4F202034FF46052F8
:1050E000C4F20202126C42F080521A644FF4E043A0
:1050F000C4F200034FF4E042C4F20002126842F42A
:1051000080421A604FF46053C4F202034FF46052BD
:10511000C4F2020292689A604FF46053C4F2020330
:105120004FF46052C4F20202926842F400429A6064
:105130004FF46053C4F202034FF46052C4F202020F
:10514000926842F4A0529A604FF46053C4F2020392
:1051500045F21942C0F240725A604FF46053C4F2F3
:1051600002034FF46052C4F20202126842F08072ED
:105170001A6000BF4FF46053C4F202031B6803F0CF
:105180000073002BF6D04FF47053C4F2020340F2C8
:1051900005621A604FF46053C4F202034FF4605288
:1051A000C4F20202926822F003029A604FF4605344
:1051B000C4F202034FF46052C4F20202926842F059
:1051C00002029A6000BF4FF46053C4F202039B686E
:1051D00003F00C03082BF6D107F10C07BD4680BC89
:1051E000704700BF80B485B000AF786040F61823E8
:1051F000C2F200031B68002B08D140F61823C2F24C
:10520000000341F27022C2F200021A6040F6182335
:10521000C2F200031B68FB6040F61823C2F20003D1
:105220001A687B68D21840F61823C2F200031A608D
:10523000FB68184607F11407BD4680BC704700BFE5
:1052400080B584B004AFFEF751FE024647F220431A
:10525000C0F60003009347F24443C0F600030193F5
:1052600047F23043C0F600030293104647F2144160
:10527000C0F6000147F21C42C0F600024FF00003E6
:1052800000F01EFE4FF000031846BD4680BD00BF73
:10529000F0B587B004AF7860FEF728FE06464FF001
:1052A0000000FEF737FE05464FF00000FEF7C4FC95
:1052B000044647F22043C0F60003009347F26043E0
:1052C000C0F60003019347F23043C0F60003029397
:1052D000304647F21441C0F600012A46234600F04A
:1052E000EFFD07F10C07BD46F0BD00BF80B483B0F1
:1052F00000AF78604FF00003184607F10C07BD4679
:1053000080BC704780B485B000AFF860B9607A6047
:10531000FB68A3F10403FB60FB684FF080721A6026
:10532000FB68A3F10403FB60BA68FB681A60FB68C2
:10533000A3F10403FB60FB684FF000021A60FB68F6
:10534000A3F11403FB607A68FB681A60FB68A3F1A1
:105350002403FB60FB686FF002021A60FB681846CA
:1053600007F11407BD4680BC704700BF064B1968A3
:10537000086850F804EBB0E8F00F80F309884FF0AC
:10538000000080F311887047080900200348006876
:10539000006880F3088862B600DF00BF08ED00E017
:1053A00080B500AF4EF62053CEF200034EF62052E9
:1053B000CEF20002126842F47F021A604EF62053C9
:1053C000CEF200034EF62052CEF20002126842F0F6
:1053D0007F421A6000F094F840F25843C2F2000392
:1053E0004FF000021A60FFF7D1FF4FF0000318469C
:1053F00080BD00BF80B400AF4EF60453CEF2000370
:105400004FF080521A60BD4680BC704780B400AF38
:105410004FF0BF0080F3118840F25843C2F20003FE
:105420001B6803F1010240F25843C2F200031A6004
:10543000BD4680BC704700BF80B400AF40F2584307
:10544000C2F200031B6803F1FF3240F25843C2F27C
:1054500000031A6040F25843C2F200031B68002B9D
:1054600003D14FF0000080F31188BD4680BC704727
:10547000EFF30980134B1A6820E9F00F1EF0100FAC
:1054800008BF20ED108A40F804ED10602DE90840B7
:105490004FF0BF0080F31188FEF778FE4FF0000058
:1054A00080F31188BDE808401968086850F804EBDB
:1054B0001EF0100F08BFB0EC108AB0E8F00F80F3B8
:1054C000098870470809002080B582B000AF4EF609
:1054D0000453CEF200034FF080521A604FF00003E5
:1054E0007B604FF0BF0080F31188FEF74DFD4FF059
:1054F000000080F3118807F10807BD4680BD00BF9A
:1055000080B400AF4EF21403CEF2000340F24442E6
:10551000C2F2000211684CF6CD42CCF6CC42A2FB9E
:1055200001024FEA121202F1FF321A604EF210032A
:10553000CEF200034FF007021A60BD4680BC7047F0
:1055400080B58AB004AF786039604FF000037B61AA
:105550007B68002B00F096804FF04C0000F0EEFCD2
:1055600003463B613B69002B00F08C807B683A6806
:1055700002FB03F303F10103FB60F86800F0DEFCBB
:1055800003461A463B691A603B691B68002B57D0DB
:105590003B691A687B68396801FB03F3D2183B69E1
:1055A0005A603B694FF000029A633B691A683B6995
:1055B0009A603B691A687B6803F1FF33396801FB25
:1055C00003F3D2183B69DA603B697A68DA633B69B6
:1055D0003A681A643B694FF0FF325A643B694FF0F6
:1055E000FF329A643B6903F110031846FFF76CFB26
:1055F0003B6903F124031846FFF766FBFEF776FCD0
:10560000024647F27843C0F60003009347F2844312
:10561000C0F60003019347F29843C0F600030293DB
:10562000104647F26C41C0F6000147F27442C0F6E2
:1056300000024FF0000300F043FC3B697B6121E076
:10564000FEF754FC024647F27843C0F6000300938D
:1056500047F2BC43C0F60003019347F2D843C0F6BB
:1056600000030293104647F2B441C0F6000147F22E
:105670007442C0F600024FF0000300F021FC3869CC
:1056800000F064FC7B69002B1ED1FEF72FFC024664
:1056900047F27843C0F60003009347F2F043C0F6A8
:1056A0000003019347F20053C0F600030293104633
:1056B00047F2B441C0F6000147F27442C0F600025E
:1056C0004FF0000300F0FCFB7B69184607F1180758
:1056D000BD4680BD80B58CB004AFF860B9607A601B
:1056E0003B604FF00003FB61FB68002B1ED1FEF70F
:1056F000FDFB024647F27843C0F60003009347F2F1
:10570000F043C0F60003019347F20053C0F60003D4
:105710000293104647F2B441C0F6000147F27442CA
:10572000C0F600024FF0000300F0CAFBBB68002B7C
:1057300003D1FB681B6C002B02D14FF0010301E089
:105740004FF00003002B20D1FEF7D0FB024647F2BA
:105750007843C0F60003009347F2F043C0F600031D
:10576000019347F20053C0F600030293104647F23C
:10577000B441C0F6000147F27442C0F600024FF097
:10578000000300F09DFB00E000BFFFF73FFEFB6859
:105790009A6BFB68DB6B9A4237D2FEF7A7FB024697
:1057A00047F27843C0F60003009347F20C53C0F66B
:1057B0000003019347F22053C0F600030293104602
:1057C00047F26C41C0F6000147F27442C0F6000295
:1057D0004FF0000300F074FBF868B9683A6800F015
:1057E000E7F9FB685B6A002B0AD0FB6803F124032E
:1057F0001846FEF709FE0346012B01D1FFF7FAFD1B
:10580000FFF71AFE4FF001037DE07B68002B04D107
:10581000FFF712FE4FF0000375E0FB69002B07D184
:1058200007F114031846FEF773FE4FF00103FB6106
:10583000FFF702FEFEF77AFAFFF7E8FDFB685B6C04
:10584000B3F1FF3F03D1FB684FF000025A64FB68DD
:105850009B6CB3F1FF3F03D1FB684FF000029A64E9
:10586000FFF7EAFD07F1140207F104031046194699
:10587000FEF786FE0346002B3ED1F86800F088FA5A
:105880000346002B32D0FEF731FB024647F2784345
:10589000C0F60003009347F23453C0F600030193AF
:1058A00047F25453C0F600030293104647F26C418E
:1058B000C0F6000147F27442C0F600024FF0000348
:1058C00000F0FEFAFB6803F110027B6810461946EF
:1058D000FEF74EFDF86800F0F5F9FEF739FA0346D9
:1058E000002B7FF451AFFFF785FD4DE7F86800F01E
:1058F000E9F9FEF72DFA47E7F86800F0E3F9FEF75B
:1059000027FA4FF00003184607F12007BD4680BD77
:1059100080B58CB004AFF860B9607A603B604FF03E
:105920000003FB61FB68002B1ED1FEF7DFFA024685
:1059300047F27843C0F60003009347F2F043C0F605
:105940000003019347F20053C0F600030293104690
:1059500047F2B441C0F6000147F27442C0F60002BB
:105960004FF0000300F0ACFABB68002B03D1FB68DA
:105970001B6C002B02D14FF0010301E04FF000033C
:10598000002B20D1FEF7B2FA024647F27843C0F668
:105990000003009347F2F043C0F60003019347F27F
:1059A0000053C0F600030293104647F2B441C0F61C
:1059B000000147F27442C0F600024FF0000300F00D
:1059C0007FFA00E000BFFFF721FDFB689B6B002B17
:1059D0005ED0FB68DB68BB61F868B96800F04AF923
:1059E0003B68002B3DD1FEF781FA024647F278432F
:1059F000C0F60003009347F27453C0F6000301930E
:105A000047F28C53C0F600030293104647F26C41F4
:105A1000C0F6000147F27442C0F600024FF00003E6
:105A200000F04EFAFB689B6B03F1FF32FB689A6350
:105A3000FB681B68002B04D1FEF754FF0246FB688D
:105A40005A60FB681B69002B1DD0FB6803F1100333
:105A50001846FEF7D9FC0346012B14D1FFF7CAFC08
:105A600011E0FB68BA69DA60FB685B6A002B0AD058
:105A7000FB6803F124031846FEF7C6FC0346002B1F
:105A800001D0FFF7B7FCFFF7D7FC4FF001038AE026
:105A90007B68002B04D1FFF7CFFC4FF0000382E0BE
:105AA000FB69002B07D107F110031846FEF730FD04
:105AB0004FF00103FB61FFF7BFFCFEF737F9FFF77B
:105AC000A5FCFB685B6CB3F1FF3F03D1FB684FF0B3
:105AD00000025A64FB689B6CB3F1FF3F03D1FB6883
