:020000040800F2
:1000000088120020B50F000831100008A759000819
:100010003110000831100008311000080000000005
:10002000000000000000000000000000AD600008BB
:100030003110000800000000B161000809620008EA
:10004000311000083110000831100008311000088C
:10005000311000083110000831100008311000087C
:10006000311000083110000831100008311000086C
:10007000311000083110000831100008311000085C
:10008000311000083110000831100008311000084C
:10009000311000083110000831100008311000083C
:1000A000311000083110000831100008311000082C
:1000B000311000083110000831100008311000081C
:1000C000311000083110000831100008311000080C
:1000D00031100008311000083110000831100008FC
:1000E00031100008311000083110000831100008EC
:1000F00031100008311000083110000831100008DC
:1001000031100008311000083110000831100008CB
:1001100031100008311000083110000831100008BB
:1001200031100008311000083110000831100008AB
:10013000311000083110000831100008311000089B
:10014000311000083110000831100008311000088B
:10015000311000083110000831100008311000087B
:10016000311000083110000831100008311000086B
:10017000311000083110000831100008311000085B
:10018000311000083110000880B584B004AF04F0CD
:1001900029FD024647F2DC73C0F60003009347F2E4
:1001A000EC73C0F60003019347F2F873C0F6000346
:1001B0000293104647F2D071C0F6000147F2D872A0
:1001C000C0F600024FF0000306F01AFD00F01AF925
:1001D000BD4680BD80B584B004AF04F003FD024687
:1001E00047F2DC73C0F60003009347F62403C0F621
:1001F0000003019347F63403C0F600030293104650
:1002000047F61C01C0F6000147F2D872C0F60002A2
:100210004FF0000306F0F4FC4FF000031846BD4613
:1002200080BD00BFF0B587B004AF786004F0DAFCA1
:1002300006464FF0000004F0E9FC05464FF00000D0
:1002400004F076FB044647F2DC73C0F6000300932B
:1002500047F65403C0F60003019347F66403C0F663
:1002600000030293304647F2D071C0F600012A46DF
:10027000234606F0C5FC05F069FF786800F032F906
:1002800005F07AFF07F10C07BD46F0BDF0B589B067
:1002900004AF78604FF00003FB73786800F060F8FB
:1002A00003461C46786800F071F803462343DAB22F
:1002B000FB7B1343FB73FB7B002B25D104F092FCEB
:1002C00006464FF0000004F0A1FC05464FF0000088
:1002D00004F02EFB044647F2DC73C0F600030093E3
:1002E00047F68003C0F60003019347F69003C0F67B
:1002F00000030293304647F2D071C0F600012A464F
:10030000234606F07DFC24E004F06CFC06464FF02A
:10031000000004F07BFC05464FF0000004F008FBF1
:10032000044647F2DC73C0F60003009347F68003EF
:10033000C0F60003019347F6B803C0F6000302932A
:10034000304647F6B001C0F600012A46234606F0C3
:1003500057FCFB7B184607F11407BD46F0BD00BFF4
:1003600080B485B000AF78604FF00003FB737B680A
:100370001B68002B02DA4FF00103FB73FB7B18466E
:1003800007F11407BD4680BC704700BF80B485B03C
:1003900000AF78604FF00003FB737B689B881BB253
:1003A000B42B05DC7B689B881BB213F1B40F03DA16
:1003B000FB7B43F00203FB737B68DB881BB2B42B2F
:1003C00005DC7B68DB881BB213F1B40F03DAFB7B1F
:1003D00043F00403FB737B681B891BB2B42B05DC61
:1003E0007B681B891BB213F1B40F03DAFB7B43F06C
:1003F0000803FB73FB7B184607F11407BD4680BC5E
:10040000704700BF80B586B000AF4FF008004FF0D6
:10041000010100F0F7FE4FF480204FF0010100F0E1
:100420001BFF4FF44060C4F202004FF008014FF090
:10043000070205F059FA4FF00003BB754FF00103B6
:10044000FB754FF002033B754FF002037B7507F11C
:1004500010034FF44060C4F20200194605F0A2F9FF
:100460004FF44060C4F202004FF009014FF0070260
:1004700005F03AFA4FF002033B754FF002037B752B
:100480004FF400733B6107F110034FF44060C4F276
:100490000200194605F086F94FF4E1333B604FF056
:1004A0000003BB804FF00003FB804FF000033B8153
:1004B0004FF00003BB814FF004037B813B464FF4B8
:1004C0009040C4F20000194600F0FAF94FF4904051
:1004D000C4F200004FF0010100F0C8FA07F118075C
:1004E000BD4680BD90B58FB000AF78604FF000037F
:1004F00087F8373044E000BF4FF49040C4F200006A
:100500004FF0200100F0F8FA0346002BF4D097F8E2
:100510003730002B1DD04FF49040C4F2000000F0A3
:10052000D9FA0346522B14D14FF0000387F8373025
:1005300097F837404FF49040C4F2000000F0CAFA38
:1005400003461A464FEA440307F13801CB1823F853
:100550002C2C97F837404FF49040C4F2000000F084
:10056000B9FA03461A464FEA440307F13801CB189B
:1005700023F82C2C97F8373003F1010387F8373034
:1005800097F837304FEA430307F13802D31833F8AE
:100590002C3C532BAFD17B684FF000029A807B68D4
:1005A0004FF00002DA807B684FF000021A814FF0B2
:1005B000000387F8373097F837304FEA430307F1E5
:1005C0003801CB1833F82C3C522B40F0748197F84B
:1005D000373003F1010387F8373097F837304FEAA7
:1005E000430307F13802D31833F82C3C2D2B5ED18E
:1005F00097F8373003F1010387F8373020E07B6844
:100600009B889BB21A464FEA8202D3184FEA4303F3
:100610009AB297F837304FEA430307F13801CB1805
:1006200033F82C3CD3189BB2A3F130039BB29AB29F
:100630007B689A8097F8373003F1010387F83730E9
:1006400097F837304FEA430307F13802D31833F8ED
:100650002C3C502BD3D17B689B889BB2C3F1000309
:100660009BB29AB27B689A802DE07B689B889BB294
:100670001A464FEA8202D3184FEA43039AB297F818
:1006800037304FEA430307F13801CB1833F82C3CDD
:10069000D3189BB2A3F130039BB29AB27B689A80C5
:1006A00097F8373003F1010387F8373000E000BFD7
:1006B00097F837304FEA430307F13802D31833F87D
:1006C0002C3C502BD1D197F8373003F1010387F838
:1006D000373097F837304FEA430307F13801CB182A
:1006E00033F82C3C2D2B5ED197F8373003F1010302
:1006F00087F8373020E07B68DB889BB21A464FEAE8
:100700008202D3184FEA43039AB297F837304FEA80
:10071000430307F13801CB1833F82C3CD3189BB2B4
:10072000A3F130039BB29AB27B68DA8097F8373036
:1007300003F1010387F8373097F837304FEA430366
:1007400007F13802D31833F82C3C592BD3D17B68EE
:10075000DB889BB2C3F100039BB29AB27B68DA805C
:100760002DE07B68DB889BB21A464FEA8202D318E1
:100770004FEA43039AB297F837304FEA430307F141
:100780003801CB1833F82C3CD3189BB2A3F13003BB
:100790009BB29AB27B68DA8097F8373003F1010395
:1007A00087F8373000E000BF97F837304FEA43034F
:1007B00007F13802D31833F82C3C592BD1D197F8D4
:1007C000373003F1010387F8373097F837304FEAB5
:1007D000430307F13801CB1833F82C3C2D2B5ED1A5
:1007E00097F8373003F1010387F8373020E07B6852
:1007F0001B899BB21A464FEA8202D3184FEA430381
:100800009AB297F837304FEA430307F13801CB1813
:1008100033F82C3CD3189BB2A3F130039BB29AB2AD
:100820007B681A8197F8373003F1010387F8373076
:1008300097F837304FEA430307F13802D31833F8FB
:100840002C3C532BD3D17B681B899BB2C3F1000393
:100850009BB29AB27B681A812DE07B681B899BB2A0
:100860001A464FEA8202D3184FEA43039AB297F826
:1008700037304FEA430307F13801CB1833F82C3CEB
:10088000D3189BB2A3F130039BB29AB27B681A8152
:1008900097F8373003F1010387F8373000E000BFE5
:1008A00097F837304FEA430307F13802D31833F88B
:1008B0002C3C532BD1D107F13C07BD4690BD00BF66
:1008C00080B58AB000AF786039604FF000037B627A
:1008D0004FF000033B624FF00003FB614FF0000359
:1008E000BB617B681B8A9BB27B627B6A23F44053AB
:1008F0007B623B68DB887A6A13437B627B6A9AB2CD
:100900007B681A827B689B899BB27B627B6A23F43B
:10091000B05323F00C037B623B689A883B681B89C9
:1009200013439AB23B685B8913439BB27A6A1343C1
:100930007B627B6A9AB27B689A817B689B8A9BB256
:100940007B627B6A23F440737B623B689B897A6A93
:1009500013437B627B6A9AB27B689A8207F1080331
:10096000184600F069FB7A684FF48053C4F2010323
:100970009A4206D07A684FF4A053C4F201039A4217
:1009800002D17B693B6201E03B693B627B689B89EA
:100990009BB29BB21BB2002B0FDA3A6A13464FEAA6
:1009A00083039B184FEA83029A183B681B684FEA3F
:1009B0004303B2FBF3F3FB610EE03A6A13464FEADE
:1009C00083039B184FEA83029A183B681B684FEA1F
:1009D0008303B2FBF3F3FB61FA6948F21F53C5F2DC
:1009E000EB13A3FB02134FEA53134FEA03137B628B
:1009F0007B6A4FEA13134FF0640202FB03F3FA69B8
:100A0000D31ABB617B689B899BB29BB21BB2002B44
:100A100012DABB694FEAC30303F1320248F21F53F3
:100A2000C5F2EB13A3FB02134FEA531303F00703C2
:100A30007A6A13437B6211E0BB694FEA031303F147
:100A4000320248F21F53C5F2EB13A3FB02134FEA25
:100A5000531303F00F037A6A13437B627B6A9AB2E3
:100A60007B681A8107F12807BD4680BD80B483B03A
:100A700000AF78600B46FB70FB78002B08D07B68DA
:100A80009B899BB243F400539AB27B689A8107E03A
:100A90007B689B899BB223F400539AB27B689A814E
:100AA00007F10C07BD4680BC704700BF80B483B01F
:100AB00000AF78600B467B807B884FEAC3534FEAD8
:100AC000D3539AB27B689A8007F10C07BD4680BC6D
:100AD000704700BF80B483B000AF78607B689B88AC
:100AE0009BB24FEAC3534FEAD3539BB2184607F168
:100AF0000C07BD4680BC704780B485B000AF7860FD
:100B00000B467B804FF00003FB737B681B889AB217
:100B10007B8813409BB2002B03D04FF00103FB7383
:100B200002E04FF00003FB73FB7B184607F114074C
:100B3000BD4680BC704700BF80B584B004AF04F0F0
:100B400051F8024647F6E803C0F60003009347F663
:100B5000F803C0F60003019347F60813C0F600033C
:100B60000293104647F6DC01C0F6000147F6E402A6
:100B7000C0F600024FF0000306F042F8BD4680BD0B
:100B800080B584B004AF04F02DF8024647F6E803C0
:100B9000C0F60003009347F61C13C0F60003019350
:100BA00047F60813C0F600030293104647F6DC012F
:100BB000C0F6000147F6E402C0F600024FF0000361
:100BC00006F01EF84FF000031846BD4680BD00BF7A
:100BD000F0B587B004AF786004F004F806464FF033
:100BE000000004F013F805464FF0000003F0A0FEEB
:100BF000044647F6E803C0F60003009347F6501397
:100C0000C0F60003019347F60813C0F600030293F1
:100C1000304647F6DC01C0F600012A46234605F0BF
:100C2000EFFF07F10C07BD46F0BD00BFF0B589B07E
:100C300004AF78604FF4FA73FB814FF03203BB814D
:100C40007B681B881A46FB8903F59C5303F1080354
:100C50009A4207DC7B681B881A46BB8903F59673AA
:100C60009A4227DA03F0BEFF06464FF0000003F079
:100C7000CDFF05464FF0000003F05AFE044647F64C
:100C80006C13C0F60003009347F67C13C0F6000314
:100C9000019347F69413C0F600030293304647F6DB
:100CA0006411C0F600012A46234605F0A9FF4FF063
:100CB000000326E003F096FF06464FF0000003F025
:100CC000A5FF05464FF0000003F032FE044647F64C
:100CD0006C13C0F60003009347F67C13C0F60003C4
:100CE000019347F6BC13C0F600030293304647F663
:100CF000B411C0F600012A46234605F081FF4FF0EB
:100D00000103184607F11407BD46F0BD80B584B055
:100D100004AF03F067FF024647F66C13C0F600030A
:100D2000009347F6E013C0F60003019347F6F4136F
:100D3000C0F600030293104647F6D411C0F6000136
:100D400047F6DC12C0F600024FF0000305F058FF32
:100D5000BD4680BD80B584B004AF03F043FF0246BA
:100D600047F66C13C0F60003009347F60823C0F65D
:100D70000003019347F6F413C0F6000302931046F4
:100D800047F6D411C0F6000147F6DC12C0F60002A7
:100D90004FF0000305F034FF4FF000031846BD4646
:100DA00080BD00BFF0B587B004AF0346FB7103F010
:100DB00019FF06464FF0000003F028FF05464FF0EC
:100DC000000003F0B5FD044647F66C13C0F60003BF
:100DD000009347F63423C0F60003019347F6F4135B
:100DE000C0F600030293304647F6D411C0F6000166
:100DF0002A46234605F004FF4FF00003184607F18A
:100E00000C07BD46F0BD00BFF0B587B004AF7860F9
:100E10007B681846FFF70AFF0346002B5DD07B680E
:100E200003F102031846FFF701FF0346002B54D0DD
:100E30007B6803F104031846FFF7F8FE0346002B16
:100E40004BD07B6803F106031846FFF7EFFE03461D
:100E5000002B42D07B6803F108031846FFF7E6FE3B
:100E60000346002B39D07B6803F10A031846FFF7CD
:100E7000DDFE0346002B30D07B6803F10C031846DF
:100E8000FFF7D4FE0346002B27D003F0ABFE064647
:100E90004FF0000003F0BAFE05464FF0000003F0EB
:100EA00047FD044647F66C13C0F60003009347F66F
:100EB0009423C0F60003019347F6AC23C0F6000369
:100EC0000293304647F6B411C0F600012A46234685
:100ED00005F096FE4FF0010326E003F083FE064680
:100EE0004FF0000003F092FE05464FF0000003F0C3
:100EF0001FFD044647F66C13C0F60003009347F647
:100F00009423C0F60003019347F6BC23C0F6000308
:100F10000293304647F66411C0F600012A46234684
:100F200005F06EFE4FF00003184607F10C07BD46B2
:100F3000F0BD00BF80B582B000AF78604FF0010017
:100F4000FFF730FF03461A467B681A804FF0020015
:100F5000FFF728FF03461A467B685A804FF00400CB
:100F6000FFF720FF03461A467B689A804FF008007F
:100F7000FFF718FF03461A467B68DA804FF010002F
:100F8000FFF710FF03461A467B681A814FF02000D6
:100F9000FFF708FF03461A467B685A814FF040006E
:100FA000FFF700FF03461A467B689A8107F108079E
:100FB000BD4680BD80B582B000AF48F6FC53C0F698
:100FC00000037B6040F20003C2F200033B600BE0D1
:100FD0007B681A683B681A603B6803F104033B6056
:100FE0007B6803F104037B603A6840F66C03C2F24D
:100FF00000039A42ECD30B480B494FF000028842A1
:10100000B8BF40F8042BFFF6FAAFDFF82000016804
:1010100041F47001016000F0FDFE07F10807BD46D4
:1010200080BD00006C080020840A002088ED00E0EC
:1010300080B400AFFEE700BF80B489B000AF786035
:101040004FF00003BB614FF000037B614FF00003E2
:10105000FB614FF002033B614FF00003FB604FF078
:101060000203BB604FF46053C4F202039B6803F0B9
:101070000C03BB61BB69042B0AD0082B0FD0002BDB
:1010800060D17A684FF41053C0F2F403136060E04B
:101090007A684FF49053C0F27A03136059E04FF42A
:1010A0006053C4F202035B6803F480034FEA935376
:1010B000FB604FF46053C4F202035B6803F03F032C
:1010C000BB60FB68002B14D04FF49053C0F27A033E
:1010D000BA68B3FBF2F24FF46053C4F202035968EA
:1010E00047F6C0730B404FEA931303FB02F3FB6117
:1010F00013E04FF41053C0F2F403BA68B3FBF2F2FA
:101100004FF46053C4F20203596847F6C0730B40B2
:101110004FEA931303FB02F3FB614FF46053C4F2F5
:1011200002035B6803F440334FEA134303F1010306
:101130004FEA43033B61FA693B69B2FBF3F27B6818
:101140001A6006E07A684FF41053C0F2F40313609B
:1011500000BF4FF46053C4F202039B6803F0F00336
:10116000BB61BB694FEA1313BB6140F20003C2F2DB
:101170000003BA699B181B78DBB27B617B681A6835
:101180007B6922FA03F27B685A604FF46053C4F221
:1011900002039B6803F4E053BB61BB694FEA9323EE
:1011A000BB6140F20003C2F20003BA699B181B78CE
:1011B000DBB27B617B685A687B6922FA03F27B6849
:1011C0009A604FF46053C4F202039B6803F46043D7
:1011D000BB61BB694FEA5333BB6140F20003C2F20B
:1011E0000003BA699B181B78DBB27B617B685A6885
:1011F0007B6922FA03F27B68DA6007F12407BD46B7
:1012000080BC704780B483B000AF78600B46FB7041
:10121000FB78002B0CD04FF46053C4F202034FF460
:101220006052C4F20202116B7A680A431A630DE03D
:101230004FF46053C4F202034FF46052C4F202024E
:10124000116B7A686FEA02020A401A6307F10C0711
:10125000BD4680BC704700BF80B483B000AF7860EB
:101260000B46FB70FB78002B0CD04FF46053C4F29C
:1012700002034FF46052C4F20202116C7A680A430E
:101280001A640DE04FF46053C4F202034FF460524D
:10129000C4F20202116C7A686FEA02020A401A6410
:1012A00007F10C07BD4680BC704700BF80B483B017
:1012B00000AF78600B46FB70FB78002B0CD04FF42E
:1012C0006053C4F202034FF46052C4F20202516C44
:1012D0007A680A435A640DE04FF46053C4F2020383
:1012E0004FF46052C4F20202516C7A686FEA020253
:1012F0000A405A6407F10C07BD4680BC704700BF26
:10130000F0B587B004AF78607B681B785BB213F1EF
:10131000020F4DDB7B681B785BB2022B48DC7B68DD
:101320005B785BB213F1020F42DB7B685B785BB2E8
:10133000022B3DDC7B689B785BB213F1020F37DB3D
:101340007B689B785BB2022B32DC7B68DB785BB21C
:1013500013F1020F2CDB7B68DB785BB2022B27DCFE
:1013600003F040FC06464FF0000003F04FFC05463A
:101370004FF0000003F0DCFA044647F6F423C0F611
:101380000003009347F60433C0F60003019347F6C9
:101390001833C0F600030293304647F6EC21C0F63E
:1013A00000012A46234605F02BFC4FF0010326E0FE
:1013B00003F018FC06464FF0000003F027FC05463A
:1013C0004FF0000003F0B4FA044647F6F423C0F6E9
:1013D0000003009347F60433C0F60003019347F679
:1013E0004433C0F600030293304647F63C31C0F662
:1013F00000012A46234605F003FC4FF0000318467F
:1014000007F10C07BD46F0BDF0B589B004AFF86038
:10141000B9607A603B6003F0E5FB06464FF00000E0
:1014200003F0F4FB05464FF0000003F081FA044698
:1014300047F6F423C0F60003009347F67433C0F672
:101440000003019347F68833C0F600030293304649
:1014500047F66C31C0F600012A46234605F0D0FB62
:1014600007F11407BD46F0BDF0B589B004AFF860D0
:10147000B9607A6003F0B6FB06464FF0000003F057
:10148000C5FB05464FF0000003F052FA044647F64C
:10149000F423C0F60003009347F69C33C0F6000324
:1014A000019347F68833C0F600030293304647F6AF
:1014B0006C31C0F600012A46234605F0A1FB07F176
:1014C0001407BD46F0BD00BFF0B589B004AFF860A9
:1014D000B9607A6003F086FB06464FF0000003F027
:1014E00095FB05464FF0000003F022FA044647F64C
:1014F000F423C0F60003009347F6B033C0F60003B0
:10150000019347F68833C0F600030293304647F64E
:101510006C31C0F600012A46234605F071FB4FF0FE
:101520000003184607F11407BD46F0BDF0B589B0B9
:1015300004AFF860B9607A603B6003F053FB064685
:101540004FF0000003F062FB05464FF0000003F08F
:10155000EFF9044647F6F423C0F60003009347F67C
:10156000C833C0F60003019347F68833C0F6000382
:101570000293304647F66C31C0F600012A462346F6
:1015800005F03EFB07F11407BD46F0BDF0B587B08E
:1015900004AF786003F026FB06464FF0000003F02E
:1015A00035FB05464FF0000003F0C2F9044647F64C
:1015B000F423C0F60003009347F6DC33C0F60003C3
:1015C000019347F68833C0F600030293304647F68E
:1015D0006C31C0F600012A46234605F011FB07F1E5
:1015E0000C07BD46F0BD00BF80B582B000AF03461A
:1015F000FB71FB79184605F023FB07F10807BD4690
:1016000080BD00BF80B483B000AF78600B46FB7034
:101610007B68FA781A704FF00103184607F10C073F
:10162000BD4680BC704700BF80B485B000AF786015
:1016300039604FF00003FB600FE03B681A787B686D
:101640001A707B6803F101037B603B6803F10103BF
:101650003B60FB6803F10103FB603B681B78002BD8
:10166000EBD1FB68184607F11407BD4680BC7047F4
:1016700080B586B000AFF8607A603B600B46FB72C5
:101680004FF000037B617B6803F1FF337B603B68B5
:10169000092B25D93A684CF6CD43CCF6CC43A3FBB5
:1016A00002134FEAD303FA7AF86811467A68FFF713
:1016B000DFFF78617B69FA68D318FB6013E0FB7A7F
:1016C000F8681946FFF79EFFFB6803F10103FB6012
:1016D0007B6903F101037B617B6803F1FF337B606E
:1016E0007B68002BEBDC39684CF6CD43CCF6CC4361
:1016F000A3FB01234FEAD30213464FEA83039B184F
:101700004FEA4303CA1AD3B203F13003DBB2F868DD
:101710001946FFF777FF03467A69D3187B617B6927
:10172000184607F11807BD4680BD00BF80B586B0DA
:1017300000AFF8607A603B600B46FB724FF000032D
:101740007B613B68002B04DA3B68C3F100033B611B
:1017500001E03B683B617B6803F1FF337B603B69E1
:10176000092B2AD93B68002B12DA3A694CF6CD4393
:10177000CCF6CC43A3FB02134FEAD303C3F100031F
:10178000FA7AF86811467A68FFF7D0FF78610FE0BF
:101790003A694CF6CD43CCF6CC43A3FB02134FEA97
:1017A000D303FA7AF86811467A68FFF7BFFF7861C9
:1017B0007B69FA68D318FB602BE03B68002B15DAD5
:1017C0007B6803F1FF337B6010E0FB7AF868194611
:1017D000FFF718FFFB6803F10103FB607B6903F16E
:1017E00001037B617B6803F1FF337B607B68002B27
:1017F000EBDC3B68002B0CDAF8684FF02D01FFF7AB
:1018000001FF03467A69D3187B61FB6803F101038A
:10181000FB6039694CF6CD43CCF6CC43A3FB0123E6
:101820004FEAD30213464FEA83039B184FEA430360
:10183000CA1AD3B203F13003DBB2F8681946FFF7D6
:10184000E1FE03467A69D3187B617B69184607F18C
:101850001807BD4680BD00BF80B588B002AFF860F4
:101860007A600A46FA72BB724FF000037B617B68B4
:1018700003F1FF337B603B6A4FEA1313002B24D044
:101880003B6A4FEA1311FA7ABB7A0091F868114665
:101890007A68FFF7E1FF03467A69D3187B617B69B9
:1018A000FA68D318FB6013E0FB7AF8681946FFF773
:1018B000A9FEFB6803F10103FB607B6903F10103EF
:1018C0007B617B6803F1FF337B607B68002BEBDC83
:1018D0003B6A03F00F03092B0CD83B6ADBB203F021
:1018E0000F03DBB203F13003DBB2F8681946FFF7F0
:1018F00089FE1BE0BB7A002B0CD03B6ADBB203F005
:101900000F03DBB203F13703DBB2F8681946FFF7C8
:1019100079FE0BE03B6ADBB203F00F03DBB203F1AD
:101920005703DBB2F8681946FFF76CFE7B6903F1D9
:1019300001037B617B69184607F11807BD4680BD2E
:1019400080B58AB002AFF860B9607A603B604FF052
:101950000003BB614FF000037B61FB68002B00F0CC
:101960001C81FB684FF000021A7016E17B681B783F
:10197000252B10D07B681A78FB681A70FB6803F17E
:101980000103FB607B6803F101037B607B6903F16A
:1019900001037B6102E17B6803F101031B78252BC6
:1019A00010D1FB684FF025021A70FB6803F10103A8
:1019B000FB607B6803F102037B607B6903F1010339
:1019C0007B61EBE04FF02003FB774FF00003BB7728
:1019D0007B6803F101037B607B681B78302B1BD194
:1019E0004FF03003FB777B6803F101037B6013E06A
:1019F000BB7F1A464FEA8202D3184FEA4303DAB29A
:101A00007B681B78D318DBB2A3F13003BB777B680C
:101A100003F101037B6000E000BF7B681B782F2B84
:101A200003D97B681B78392BE2D9BA7F7B69D3183D
:101A30001A46BB689A4205D9BB68DAB27B69DBB249
:101A4000D31ABB777B681B78A3F15803202B00F2D5
:101A5000948001A252F823F02D1B00087B1B000884
:101A60007B1B00087B1B00087B1B00087B1B0008FE
:101A70007B1B00087B1B00087B1B00087B1B0008EE
:101A80007B1B0008631B0008DD1A00087B1B000895
:101A90007B1B00087B1B00087B1B0008DD1A00086D
:101AA0007B1B00087B1B00087B1B00087B1B0008BE
:101AB0007B1B00087B1B00087B1B00087B1B0008AE
:101AC0007B1B00084D1B00087B1B0008F51A000853
:101AD0007B1B00087B1B00080D1B0008BA7F3B68BE
:101AE00003F1040139601B68F97FF868FFF71EFEF7
:101AF000B86145E0BA7F3B6803F1040139601B68B7
:101B0000F97FF868FFF7B4FDB86139E0BA7F3B6848
:101B100003F1040139601968FB7F0091F8681946E8
:101B20004FF00003FFF798FEB86129E0BA7F3B68E9
:101B300003F1040139601968FB7F0091F8681946C8
:101B40004FF00103FFF788FEB86119E03B6803F12D
:101B500004023A601B68F8681946FFF765FDB86132
:101B60000EE03B6803F104023A601B68DBB2F868E0
:101B70001946FFF747FDB86102E04FF0FF332CE054
:101B80007B6803F101037B60BB69FA68D318FB60D3
:101B90007A69BB69D3187B6100E000BF7B681B7862
:101BA000002B04D07A69BB689A42FFF4DFAE7A69F1
:101BB000BB689A4204D2FB684FF000021A700BE037
:101BC000FB6803F1FF33FB60FB684FF000021A7003
:101BD0007B6903F1FF337B617B69184607F12007BE
:101BE000BD4680BD80B584B000AFF860B9607A6052
:101BF000F8684FF0C801BA687B68FFF7A1FE03469A
:101C0000184607F11007BD4680BD00BFB0B5C0B093
:101C100000AFF860B9607A6047F6F033C0F60003B1
:101C200007F114041D460FCD0FC40FCD0FC42B6850
:101C3000236007F138031846B9687A68FFF7D2FFC6
:101C40000346C72B0CDD40F23843C2F200031B6889
:101C5000DB6807F114021046194600F073F8FEE73E
:101C600007F138031846F96800F06CF80346184687
:101C700007F58077BD46B0BD80B582B000AF786013
:101C8000396040F23843C2F200031B689B68184673
:101C900079683A68FFF7BAFF0346184607F1080764
:101CA000BD4680BD0FB480B582B000AF07F114030C
:101CB0003B6038693968FFF7DFFF78607B6818465A
:101CC00007F10807BD46BDE8804004B0704700BF7B
:101CD00080B582B000AF786040F23843C2F20003B2
:101CE0001B689B687868194600F02CF80346184674
:101CF00007F10807BD4680BD80B582B000AF7860AF
:101D0000396040F23843C2F200031B689A683B68AE
:101D10009A4208D040F23843C2F200031B68DA68E6
:101D20003B689A4206D17B68DBB21846FFF75CFC41
:101D30007B6801E04FF0FF33184607F10807BD4606
:101D400080BD00BF80B584B000AF786039604FF0CF
:101D50000003FB6014E07B681B7818463968FFF7C6
:101D6000CBFF0346B3F1FF3F02D14FF0FF330CE04E
:101D7000FB6803F10103FB607B6803F101037B60F7
:101D80007B681B78002BE6D1FB68184607F110072B
:101D9000BD4680BD80B485B000AF78607B6803F03D
:101DA0000703FB604FF46D43CEF20003DB68BB60BA
:101DB000BA684FF6FF031340BB60FB684FEA03228B
:101DC000BB68134343F0BF6343F40033BB604FF47D
:101DD0006D43CEF20003BA68DA6007F11407BD461E
:101DE00080BC704780B400AFBFF34F8F4FF46D429B
:101DF000CEF200024FF46D43CEF20003DB6803F431
:101E0000E0614FF00403C0F2FA530B43D360BFF319
:101E10004F8FFEE780B594B004AF01F0B5F904F040
:101E20006FFE01F06FF901F0FBF901F007FA0346CC
:101E30001A4640F67423C2F200035A8040F6742317
:101E4000C2F200035B88002B4CD040F67423C2F230
:101E500000035B88102B45D002F0C4FE024647F613
:101E60005843C0F60003009347F66843C0F60003EA
:101E7000019347F67043C0F600030293104647F6FD
:101E80004C41C0F6000147F65442C0F600024FF044
:101E9000000304F0B5FE40F67423C2F200034FF0D5
:101EA00002021A7040F67420C2F2000001F022FC17
:101EB00007F104031846FEF78BFE3B79002BF1D1A6
:101EC0003B79012BEED13B79002B02D0012B03D0C3
:101ED00005E002F06FFA05E002F096FA02E002F087
:101EE00093FA00BF02F07EFE024647F65843C0F662
:101EF0000003009347F66843C0F60003019347F6DA
:101F0000AC43C0F600030293104647F6A441C0F666
:101F1000000147F65442C0F600024FF0000304F0FF
:101F20006FFE4FF001004FF0000104F0A9F90246E6
:101F300040F66C03C2F200031A6040F66C03C2F272
:101F400000031B68002B54D102F04CFE024647F6FA
:101F50005843C0F60003009347F66843C0F60003F9
:101F6000019347F6C443C0F600030293104647F6B8
:101F70004C41C0F6000147F65442C0F600024FF053
:101F8000000304F03DFE40F67423C2F200034FF05C
:101F900002021A7040F67423C2F200035B886FEAF3
:101FA00043436FEA53439AB240F67423C2F20003EC
:101FB0005A8040F67420C2F2000001F09BFB07F14A
:101FC00004031846FEF704FE3B79002BF1D13B7960
:101FD000012BEED13B79002B02D0012B03D005E081
:101FE00002F0E8F905E002F00FFA02E002F00CFA64
:101FF00000BF02F0F7FD024647F65843C0F6000363
:10200000009347F66843C0F60003019347F6E843A0
:10201000C0F600030293104647F6A441C0F6000143
:1020200047F65442C0F600024FF0000304F0E8FD0A
:102030004FF00403009340F66823C2F200030193BB
:102040004FF0000302934FF00003039342F22D4040
:10205000C0F6000047F60851C0F600014FF4807248
:102060004FF0000302F0FAF902F0BCFD024647F619
:102070005843C0F60003009347F66843C0F60003D8
:10208000019347F60C53C0F600030293104647F63F
:10209000A441C0F6000147F65442C0F600024FF0DA
:1020A000000304F0ADFD4FF00403009340F67023ED
:1020B000C2F2000301934FF0000302934FF00003BC
:1020C000039342F6C150C0F6000047F63051C0F607
:1020D00000014FF480724FF0000302F0BFF902F0EC
:1020E00081FD024647F65843C0F60003009347F6C9
:1020F0006843C0F60003019347F63453C0F600036B
:102100000293104647F6A441C0F6000147F6544238
:10211000C0F600024FF0000304F072FD4FF003031D
:10212000009340F66C23C2F2000301934FF00003CA
:1021300002934FF00003039342F21960C0F60000CF
:1021400047F65051C0F600014FF480724FF0000383
:1021500002F084F902F046FD024647F65843C0F605
:102160000003009347F66843C0F60003019347F667
:102170005453C0F600030293104647F6A441C0F63C
:10218000000147F65442C0F600024FF0000304F08D
:1021900037FD4FF00203009340F67C23C2F20003A8
:1021A00001934FF0000302934FF00003039342F6B4
:1021B0009910C0F6000047F67451C0F600014FF4C4
:1021C00080724FF0000302F049F902F00BFD024665
:1021D00047F65843C0F60003009347F66843C0F63D
:1021E0000003019347F67853C0F6000302931046AC
:1021F00047F6A441C0F6000147F65442C0F600027B
:102200004FF0000304F0FCFC40F67423C2F200031C
:102210004FF001021A704FF00203009340F678234A
:10222000C2F2000301934FF0000302934FF000034A
:10223000039342F65170C0F6000047F69451C0F681
:1022400000014FF480724FF0000302F007F940F6EE
:102250006823C2F200031B68002B1BD040F66C23DE
:10226000C2F200031B68002B14D040F67C23C2F29C
:1022700000031B68002B0DD040F67023C2F2000350
:102280001B68002B06D040F67823C2F200031B68BF
:10229000002B54D102F0A6FC024647F65843C0F684
:1022A0000003009347F66843C0F60003019347F626
:1022B0009853C0F600030293104647F64C41C0F60F
:1022C000000147F65442C0F600024FF0000304F04C
:1022D00097FC40F67423C2F200034FF002021A701A
:1022E00040F67423C2F200035B886FEA43436FEA4F
:1022F00053439AB240F67423C2F200035A8040F668
:102300007420C2F2000001F0F5F907F10403184649
:10231000FEF75EFC3B79002BF1D13B79012BEED12E
:102320003B79002B02D0012B03D005E002F042F8EC
:1023300005E002F069F802E002F066F800BF02F082
:1023400051FC024647F65843C0F60003009347F697
:102350006843C0F60003019347F6B053C0F600038C
:102360000293104647F6A441C0F6000147F65442D6
:10237000C0F600024FF0000304F042FC02F0F4FA51
:1023800002F030FC024647F65843C0F600030093C3
:1023900047F66843C0F60003019347F6C453C0F6FE
:1023A00000030293104647F64C41C0F6000147F681
:1023B0005442C0F600024FF0000304F021FC40F646
:1023C0007423C2F200034FF002021A7040F6742325
:1023D000C2F200035B886FEA43436FEA53439AB249
:1023E00040F67423C2F200035A8040F67420C2F211
:1023F000000001F07FF907F104031846FEF7E8FB3F
:102400003B79002BF1D13B79012BEED13B79002BAD
:1024100002D0012B03D005E001F0CCFF05E001F074
:10242000F3FF02E001F0F0FF00BFFEE780B596B0D9
:1024300000AF786002F0D6FB03467B6507F110031E
:10244000184601F08BFC07F10C03184601F0BAFCAA
:1024500007F144031846FEF76DFD07F144031846E3
:10246000FEF7D2FC0346002B00F0C480FB8923F06A
:1024700002039BB2FB8107F10C03184601F0CEFB6F
:10248000B7F84420BB8C9A4207D297F8523043F0F9
:102490000103DBB287F8523006E097F8523023F0A0
:1024A0000103DBB287F85230B7F84E20BB8C9A425A
:1024B00007D297F8523043F02003DBB287F852304E
:1024C00006E097F8523023F02003DBB287F8523051
:1024D000B7F84820BB8C9A4207D297F8523043F0A5
:1024E0000403DBB287F8523006E097F8523023F04D
:1024F0000403DBB287F85230B7F84620BB8C9A420F
:1025000007D297F8523043F00203DBB287F852301B
:1025100006E097F8523023F00203DBB287F852301E
:10252000B7F84C20BB8C9A4207D297F8523043F050
:102530001003DBB287F8523006E097F8523023F0F0
:102540001003DBB287F85230B7F84A20BB8C9A42AE
:1025500007D297F8523043F00803DBB287F85230C5
:1025600006E097F8523023F00803DBB287F85230C8
:1025700040F67423C2F200031B78012B06D140F60B
:102580007423C2F200031B78072B14D0B7F8502035
:102590003B8B9A4207D297F8523043F04003DBB2AC
:1025A00087F852300EE097F8523023F04003DBB248
:1025B00087F8523006E097F8523023F04003DBB240
:1025C00087F8523007F14403184601F0DDFA97F816
:1025D0005230002B18D040F66C03C2F200031B6887
:1025E00018464FF000014FF000024FF0000303F0D7
:1025F00011FF09E0FB8943F002039BB2FB8107F165
:102600000C03184601F00AFBFB6A07F1540210465E
:10261000194602F0C5F811E7F0B5BBB004AF786019
:1026200047F6D023C0F6000307F108041D460FCD7E
:102630000FC495E8030084E8030040F66C03C2F27F
:1026400000031B68002B24D102F0CCFA06464FF0A1
:10265000000002F0DBFA05464FF0000002F068F9D6
:10266000044647F65843C0F60003009347F6DC5390
:10267000C0F60003019347F6F053C0F6000302933F
:10268000304647F64C41C0F600012A46234604F086
:10269000B7FA02F0A7FA06464FF0000002F0B6FAC9
:1026A00005464FF0000002F043F9044647F6584350
:1026B000C0F60003009347F6DC53C0F60003019315
:1026C00047F60C63C0F600030293304647F6A44178
:1026D000C0F600012A46234604F092FA07F1C0032F
:1026E000184601F06FFB07F17803184601F036FB3E
:1026F00007F1C4031846FDF795FD07F1C40318461A
:10270000FDF7C4FD034687F8D73097F8D730002B84
:1027100011D007F1C403184601F0C0FAB7F8C2306F
:1027200043F008039BB2A7F8C23007F1C003184674
:1027300001F074FA10E007F1C403184601F0BCF888
:10274000B7F8C23023F008039BB2A7F8C23007F1F4
:10275000C003184601F062FA07F1AC03184601F015
:1027600019FB07F17003184601F0E2FA07F1300394
:10277000184601F0A9FA07F12003184601F0C2FA41
:1027800007F1AC0007F1700107F1C40207F1300353
:1027900007F12004009407F17804019407F1C004C4
:1027A000029401F01DFD97F8C03003F1FF33062BB2
:1027B00000F2A08001A252F823F000BFD927000840
:1027C000F5280008E52700085B2800082B280008EA
:1027D000B32800087128000807F1AC03184601F07F
:1027E000F5FB8AE007F1C40207F1780310461946A9
:1027F00001F054FB0346002B0DD140F6EC03C2F26E
:1028000000035B6807F1080007F1C40107F1AC029F
:10281000FEF7FAFD71E04FF0040387F8C03007F1CE
:10282000C003184601F0FAF967E007F1080107F163
:10283000C40207F1AC03084611461A46FEF744FEEF
:102840000346002B58D04FF0040387F8C03007F13F
:10285000C003184601F0E2F94EE007F1080007F165
:10286000C40107F1AC0207F12003FEF75FFE44E06C
:1028700007F1C40207F178031046194601F074FB12
:102880000346002B0BD107F1080107F1C40207F141
:10289000AC03084611461A46FEF7E6FD2DE04FF060
:1028A000010387F8C03007F1C003184601F0B6F9FC
:1028B00023E007F1C40207F178031046194601F03E
:1028C00053FB0346002B0BD107F1080107F1C402AB
:1028D00007F1AC03084611461A46FEF7C5FD0CE0A9
:1028E0004FF0020387F8C03007F1C003184601F02B
:1028F00095F902E000BF00E000BF40F67423C2F289
:1029000000031B78002B12D040F67423C2F20003A0
:102910001B78012B0BD040F67423C2F200031B7806
:10292000022B04D007F108031846FEF72FFE02F031
:1029300059F906464FF0000002F068F905464FF0DD
:10294000000001F0F5FF044647F65843C0F60003C7
:10295000009347F6DC53C0F60003019347F6186373
:10296000C0F600030293304647F6A441C0F60001CA
:102970002A46234604F044F940F66C03C2F20003F1
:102980001A68D7F8983010464FF000011A464FF0F9
:10299000000303F05DFE7CE6F0B5C5B004AF7860DF
:1029A00002F020F90346C7F8FC3002F01BF9064696
:1029B0004FF0000002F02AF905464FF0000001F048
:1029C000B7FF044647F65843C0F60003009347F6A6
:1029D0003863C0F60003019347F60C63C0F60003AA
:1029E0000293304647F6A441C0F600012A4623462A
:1029F00004F006F907F1B0031846FEF7E9F807F10D
:102A00007C03184601F0AAF907F17803184601F093
:102A1000D9F997F8B030A3F102030A2B00F27E81B6
:102A200001A252F823F000BF332B0008512B0008FD
:102A30006F2B0008CD2B0008112C00084F2C00082C
:102A4000C12A0008692C0008A32C0008552A000898
:102A5000C72C0008B7F87A3023F400639BB2A7F8BC
:102A60007A3007F17803184601F0D8F807F16803C7
:102A7000184601F013F907F12803184601F024F96C
:102A800007F10C03184601F085F907F120031846F9
:102A900001F04EF907F1EC03184601F033F907F1A4
:102AA000780007F1680107F1EC0207F1280307F14C
:102AB0000C04009407F12004019400F037FC3AE183
:102AC00097F87830012B27D107F1B00303F1040305
:102AD000184600F0EDFB0346002B0ED007F1B003C3
:102AE00003F10403184601F00FF8B7F87A3023F425
:102AF00080639BB2A7F87A3006E0B7F87A3043F4E7
:102B000080639BB2A7F87A30B7F87A3023F4006379
:102B10009BB2A7F87A3006E0B7F87A3043F4006346
:102B20009BB2A7F87A3007F17803184601F076F8DF
:102B300001E101F05BF9B7F87A3023F400639BB24E
:102B4000A7F87A3007F17803184601F067F8F2E049
:102B500001F078F9B7F87A3023F400639BB2A7F854
:102B60007A3007F17803184601F058F8E3E097F857
:102B70007830012B1DD107F16803184601F08EF85B
:102B800007F1680207F17C031046194601F0D2FBF9
:102B90004FF0030387F87830B7F87A3023F40063F6
:102BA0009BB2A7F87A3007F17803184601F036F89F
:102BB000C1E0B7F87A3043F400639BB2A7F87A30EB
:102BC00007F17803184601F029F8B4E097F8783057
:102BD000042B10D14FF0070387F87830B7F87A301C
:102BE00023F400639BB2A7F87A3007F17803184604
:102BF00001F014F89FE0B7F87A3043F400639BB219
:102C0000A7F87A3007F17803184601F007F892E048
:102C100097F87830042B10D14FF0050387F87830FF
:102C2000B7F87A3023F400639BB2A7F87A3007F143
:102C30007803184600F0F2FF7DE04FF40063A7F838
:102C40007A3007F17803184600F0E8FF73E0B7F830
:102C50007A3023F400639BB2A7F87A3007F1780347
:102C6000184600F0DBFF66E097F87830012B0ED1B4
:102C700000F0F8FDB7F87A3023F400639BB2A7F8B0
:102C80007A3007F17803184600F0C8FF53E04FF49C
:102C90000063A7F87A3007F17803184600F0BEFF0A
:102CA00049E007F17C03184600F01AFBB7F87A30C8
:102CB00023F400639BB2A7F87A3007F17803184633
:102CC00000F0ACFF37E007F1B00303F1040318464E
:102CD000FEF716FB0346002B13D007F1B00303F1F8
:102CE0000403184600F07CFEB7F87A3023F4006342
:102CF0009BB2A7F87A3007F17803184600F08EFFF0
:102D000019E0B7F87A3043F400639BB2A7F87A3041
:102D100007F17803184600F081FF0CE0B7F87A302D
:102D200043F400639BB2A7F87A3007F178031846A2
:102D300000F074FF00BFB7F87A3003F400639BB271
:102D4000A7F87A30B7F87A30002B0BD103F0FEF9F0
:102D500001F048FF024640F6B003C2F200039A6059
:102D600003F00AFA01F03EFF06464FF0000001F0C2
:102D70004DFF05464FF0000001F0DAFD044647F62E
:102D80005843C0F60003009347F63863C0F60003CB
:102D9000019347F65063C0F600030293304647F6AE
:102DA000A441C0F600012A46234603F029FFD7F8C4
:102DB000A43007F1FC021046194601F0F1FCF4E5DD
:102DC000F0B599B004AF786001F00CFF0346FB64E6
:102DD00001F008FF06464FF0000001F017FF05461E
:102DE0004FF0000001F0A4FD044647F65843C0F63A
:102DF0000003009347F65863C0F60003019347F6BB
:102E00000C63C0F600030293304647F6A441C0F6B7
:102E100000012A46234603F0F3FE07F10C0318468F
:102E200001F09AFA07F14803184600F0CBFF07F1CA
:102E30000C03184600F048FA0346002B0CD007F1AB
:102E40000C03184600F01CFEB7F84A3023F48073D8
:102E50009BB2A7F84A300BE0B7F84A3043F48073CE
:102E60009BB2A7F84A3007F10C03184600F060FF48
:102E700007F14803184600F0D1FE07F11403184685
:102E800000F06CFF07F10C0207F11403104619461D
:102E900001F0CCF80346002B2DD001F0A3FE06462E
:102EA0004FF0000001F0B2FE05464FF0000001F0C7
:102EB0003FFD044647F65843C0F60003009347F62B
:102EC0005863C0F60003019347F67463C0F600032D
:102ED0000293304647F6A441C0F600012A46234635
:102EE00003F08EFE4FF0060387F8483007F14803E1
:102EF000184600F093FE01F075FE06464FF0000004
:102F000001F084FE05464FF0000001F011FD04467B
:102F100047F65843C0F60003009347F65863C0F6DF
:102F20000003019347F65063C0F600030293304656
:102F300047F6A441C0F600012A46234603F060FE8E
:102F4000FB6A07F14C021046194601F029FC3FE7E5
:102F5000F0B5A7B004AF786001F044FE0346C7F8AF
:102F6000843001F03FFE06464FF0000001F04EFEB7
:102F700005464FF0000001F0DBFC044647F65843DD
:102F8000C0F60003009347F69463C0F60003019374
:102F900047F60C63C0F600030293304647F6A4419F
:102FA000C0F600012A46234603F02AFE07F1440337
:102FB000184603F00DF807F10C03184600F02EFE3A
:102FC00007F14403184603F031F80346002B0AD1F9
:102FD00007F14403184600F0B5FCFB8923F02003F9
:102FE0009BB2FB8104E0FB8943F020039BB2FB8191
:102FF00007F10C03184600F011FE07F11003184604
:1030000000F0ACFE01F0EEFD06464FF0000001F0CE
:10301000FDFD05464FF0000001F08AFC044647F62E
:103020005843C0F60003009347F69463C0F60003CC
:10303000019347F65063C0F600030293304647F60B
:10304000A441C0F600012A46234603F0D9FD7B6B5C
:1030500007F184021046194601F0A2FB81E700BF88
:10306000F0B585B004AF01F0BDFD06464FF000009D
:1030700001F0CCFD05464FF0000001F059FC04467C
:1030800047F65843C0F60003009347F6A863C0F61E
:103090000003019347F6C063C0F600030293304675
:1030A00047F6A441C0F600012A46234603F0A8FDD6
:1030B00001F098FD06464FF0000001F0A7FD05461F
:1030C0004FF0000001F034FC044647F65843C0F6C8
:1030D0000003009347F6A863C0F60003019347F688
:1030E000D463C0F600030293304647F6A441C0F60D
:1030F00000012A46234603F083FD30BF07F1040791
:10310000BD46F0BDB0B584B004AF40F6EC02C2F2EB
:10311000000247F61443C0F6000314461D460FCDC7
:103120000FC40FCD0FC40FCD0FC42B68236040F622
:103130007423C2F200034FF000021A7040F67423A9
:10314000C2F200034FF000025A8047F65843C0F61F
:103150000003009347F6F463C0F60003019347F6BB
:103160000C73C0F6000302934FF0000047F6EC61C9
:10317000C0F6000147F65442C0F600024FF00003CB
:1031800003F03EFDBD46B0BD80B584B004AF4FF046
:103190000000FEF7FFFD02F0CDFC02F023FD47F634
:1031A0005843C0F60003009347F64873C0F6000387
:1031B000019347F65C73C0F6000302934FF00000E2
:1031C00047F6EC61C0F6000147F65442C0F6000233
:1031D0004FF0000303F014FDBD4680BD80B584B000
:1031E00004AF47F65843C0F60003009347F67473E4
:1031F000C0F60003019347F68873C0F600030293FC
:103200004FF0000047F66C71C0F6000147F65442DB
:10321000C0F600024FF0000303F0F2FCBD4680BD93
:1032200080B500AF02F088FEFCF7AEFFFDF784FC2E
:10323000FDF76CFDFFF7D2FF80BD00BF80B582B007
:1032400000AF4FF00003FB8002F09AFE0346002B14
:1032500003D0FB8843F01003FB80FCF7BBFF034661
:10326000002B03D0FB8843F00403FB80FDF788FCB0
:103270000346002B03D0FB8843F40073FB80FDF76B
:1032800069FD0346002B03D0FB8843F00103FB805C
:1032900000F076FF0346002B03D0FB8843F0800349
:1032A000FB80FB88184607F10807BD4680BD00BFBC
:1032B00080B483B000AF78604FF00103184607F187
:1032C0000C07BD4680BC704780B483B000AF786007
:1032D0004FF00103184607F10C07BD4680BC70474C
:1032E00080B586B004AF786047F65843C0F6000357
:1032F000009347F69C73C0F60003019347F688736A
:10330000C0F6000302934FF0000047F66C71C0F660
:10331000000147F65442C0F600024FF0000303F0EC
:103320006FFC07F10807BD4680BD00BF80B584B0C3
:1033300000AFF860B9607A603B60FB681B78072BD0
:103340004AD801A252F823F0693300087733000805
:103350008533000893330008A1330008AF33000819
:10336000BD330008CB33000847F6AC70C0F6000050
:10337000FEF798FC37E047F6D870C0F60000FEF77D
:1033800091FC30E048F20400C0F60000FEF78AFC31
:1033900029E048F23000C0F60000FEF783FC22E08E
:1033A00048F25C00C0F60000FEF77CFC1BE048F22F
:1033B0008400C0F60000FEF775FC14E048F2B0008F
:1033C000C0F60000FEF76EFC0DE048F2DC00C0F62F
:1033D0000000FEF767FC06E048F20810C0F60000A7
:1033E000FEF760FC00BFFB685B88002B06D148F24B
:1033F0002C10C0F60000FEF755FC4DE048F25810C6
:10340000C0F60000FEF74EFC48F28810C0F600003F
:10341000FEF748FC48F2B810C0F60000FEF742FC88
:1034200048F2E810C0F60000FEF73CFC48F2182015
:10343000C0F60000FEF736FC48F24020C0F600005F
:10344000FEF730FC48F27020C0F60000FEF72AFCC0
:1034500048F29C20C0F60000FEF724FC48F2CC2085
:10346000C0F60000FEF71EFC48F2FC20C0F600008B
:10347000FEF718FC48F22C30C0F60000FEF712FCF4
:1034800048F25C30C0F60000FEF70CFC48F28830D1
:10349000C0F60000FEF706FC48F2B430C0F60000AB
:1034A000FEF716FCBB681B6848F2B830C0F6000097
:1034B0001946FEF7F7FBBB689B881BB248F2CC307D
:1034C000C0F600001946FEF7EDFBBB68DB881BB2B7
:1034D00048F2E030C0F600001946FEF7E3FBBB6897
:1034E0001B891BB248F2F430C0F600001946FEF703
:1034F000D9FBBB68DB6848F20840C0F600001946FB
:10350000FEF7D0FB48F2B430C0F60000FEF7E0FB57
:103510007B681B785BB248F21C40C0F6000019467D
:10352000FEF7C0FB7B685B785BB248F23440C0F6C4
:1035300000001946FEF7B6FB7B689B785BB248F249
:103540004C40C0F600001946FEF7ACFB7B68DB7808
:103550005BB248F26440C0F600001946FEF7A2FBD9
:103560007B68DB6848F27C40C0F600001946FEF735
:1035700099FB7B689B6848F29440C0F600001946AE
:10358000FEF790FB7B681B7948F2AC40C0F6000068
:103590001946FEF787FB48F2B430C0F60000FEF78C
:1035A00097FB3B68DB6B48F2C840C0F60000194649
:1035B000FEF778FB48F2B430C0F60000FEF788FB57
:1035C000BB699B7B002B06D148F2DC40C0F60000B3
:1035D000FEF768FB29E048F20050C0F60000FEF755
:1035E00061FB48F22450C0F60000FEF75BFB48F296
:1035F0004C50C0F60000FEF755FB48F27450C0F680
:103600000000FEF74FFB48F29850C0F60000FEF7AE
:1036100049FB48F2C050C0F60000FEF743FB48F2F9
:10362000E850C0F60000FEF73DFBBB691B8848F27E
:103630000C60C0F600001946FEF734FBBB695B88DE
:1036400048F22860C0F600001946FEF72BFBBB6964
:10365000DB8848F24460C0F600001946FEF722FB02
:10366000BB695B8948F26060C0F600001946FEF74E
:1036700019FBBB699B8848F27C60C0F600001946C4
:10368000FEF710FBBB691B8948F29860C0F600008A
:103690001946FEF707FBBB699B8948F2B460C0F688
:1036A00000001946FEF7FEFABB691B6948F2D060BC
:1036B000C0F600001946FEF7F5FA48F2B430C0F63D
:1036C0000000FEF705FBFB691B6848F2EC60C0F6E2
:1036D00000001946FEF7E6FAFB695B6848F20070E5
:1036E000C0F600001946FEF7DDFA07F11007BD46E7
:1036F00080BD00BF80B582B000AF78607B681B786A
:10370000072B4BD801A252F823F000BF2D37000839
:103710003B3700084937000857370008653700086D
:1037200073370008813700088F37000847F6AC7000
:10373000C0F60000FEF7B6FA37E047F6D870C0F6DC
:103740000000FEF7AFFA30E048F20400C0F60000D7
:10375000FEF7A8FA29E048F23000C0F60000FEF7B4
:10376000A1FA22E048F25C00C0F60000FEF79AFAE7
:103770001BE048F28400C0F60000FEF793FA14E064
:1037800048F2B000C0F60000FEF78CFA0DE048F2F7
:10379000DC00C0F60000FEF785FA06E048F20810EB
:1037A000C0F60000FEF77EFA00BF7B685B88002B46
:1037B00006D148F22C10C0F60000FEF773FA4DE077
:1037C00048F25810C0F60000FEF76CFA48F2881074
:1037D000C0F60000FEF766FA48F2B810C0F6000026
:1037E000FEF760FA48F2E810C0F60000FEF75AFA59
:1037F00048F21820C0F60000FEF754FA48F24020C4
:10380000C0F60000FEF74EFA48F27020C0F6000045
:10381000FEF748FA48F29C20C0F60000FEF742FA94
:1038200048F2CC20C0F60000FEF73CFA48F2FC203B
:10383000C0F60000FEF736FA48F22C30C0F6000061
:10384000FEF730FA48F25C30C0F60000FEF72AFAC4
:1038500048F28830C0F60000FEF724FA07F10807A6
:10386000BD4680BD80B500AF47F61440C0F60000ED
:1038700000F04AF980BD00BF80B483B000AF78602B
:103880007B681B78072B0CD84FF0010202FA03F378
:1038900003F0B803002B04D07B684FF006021A70C7
:1038A00004E07B684FF002021A7000BF07F10C07BA
:1038B000BD4680BC704700BFF0B587B004AF7860EC
:1038C00002F044FC40F6C003C2F200037A6807CA63
:1038D00083E8070001F086F903464FF0320202FB4D
:1038E00003F240F6C003C2F20003DA6002F044FCC7
:1038F00001F078F906464FF0000001F087F905461F
:103900004FF0000001F014F8044647F65843C0F6A3
:103910000003009348F21873C0F60003019348F2C5
:103920002C73C0F600030293304647F6A441C0F65C
:1039300000012A46234603F063F907F10C07BD4650
:10394000F0BD00BFF0B587B004AF786002F0FEFBB9
:1039500040F67003C2F200037A681C4615460FCD8C
:103960000FC40FCD0FC40FCD0FC495E8070084E836
:10397000070001F037F903464FF0320202FB03F271
:1039800040F67003C2F20003DA6302F0F5FB01F0C7
:1039900029F906464FF0000001F038F905464FF0CE
:1039A000000000F0C5FF044647F65843C0F6000388
:1039B000009348F24073C0F60003019348F2547339
:1039C000C0F600030293304647F6A441C0F600015A
:1039D0002A46234603F014F907F10C07BD46F0BD53
:1039E000F0B587B004AF786002F0B0FB40F6B003EA
:1039F000C2F200037A681068186001F0F3F8034619
:103A00004FF0320202FB03F240F6B003C2F20003B1
:103A1000DA6001F0E7F803464FF0320202FB03F2EE
:103A200040F6B003C2F200039A6002F0A5FB01F079
:103A3000D9F806464FF0000001F0E8F805464FF0CF
:103A4000000000F075FF044647F65843C0F6000337
:103A5000009348F26873C0F60003019348F27C7348
:103A6000C0F600030293304647F6A441C0F60001B9
:103A70002A46234603F0C4F807F10C07BD46F0BD03
:103A8000F0B587B004AF786002F060FB7B681A681D
:103A900040F6D003C2F200031A6001F0A3F8034617
:103AA0004FF0320202FB03F240F6D003C2F20003F1
:103AB0005A6002F061FB01F095F806464FF00000F5
:103AC00001F0A4F805464FF0000000F031FF044675
:103AD00047F65843C0F60003009348F29073C0F6CF
:103AE0000003019348F2A873C0F600030293304626
:103AF00047F6A441C0F600012A46234603F080F8A9
:103B000007F10C07BD46F0BDF0B587B004AF786093
:103B100002F01CFB40F6EC03C2F200037A681C467C
:103B200015460FCD0FC40FCD0FC40FCD0FC42B689A
:103B3000236002F021FB01F055F806464FF000002B
:103B400001F064F805464FF0000000F0F1FE044675
:103B500047F65843C0F60003009348F2BC73C0F622
:103B60000003019348F2D473C0F600030293304679
:103B700047F6A441C0F600012A46234603F040F868
:103B800007F10C07BD46F0BDF0B587B004AF786013
:103B900002F0DCFA40F6D803C2F200037A681C4651
:103BA0001346186859689A68DB680FC401F01AF860
:103BB00003464FF0320202FB03F240F6D803C2F292
:103BC00000031A6102F0D8FA01F00CF806464FF033
:103BD000000001F01BF805464FF0000000F0A8FEC1
:103BE000044647F65843C0F60003009348F2EC73CE
:103BF000C0F60003019348F60803C0F600030293E1
:103C0000304647F6A441C0F600012A46234602F09A
:103C1000F7FF07F10C07BD46F0BD00BFF0B587B058
:103C200004AF786002F092FA7B681A7840F6742349
:103C3000C2F200031A707B685A8840F67423C2F2FD
:103C400000035A8002F098FA00F0CCFF06464FF0CD
:103C5000000000F0DBFF05464FF0000000F068FEBA
:103C6000044647F65843C0F60003009348F6200385
:103C7000C0F60003019348F63803C0F60003029330
:103C8000304647F6A441C0F600012A46234602F01A
:103C9000B7FF07F10C07BD46F0BD00BF90B583B07C
:103CA00000AF786002F052FA7A6840F6C003C2F2C0
:103CB000000314460FCB84E80F0002F05DFA07F111
:103CC0000C07BD4690BD00BFB0B582B000AF7860B4
:103CD00002F03CFA7A6840F67003C2F20003144620
:103CE0001D460FCD0FC40FCD0FC40FCD0FC495E8E7
:103CF0000F0084E80F0002F03FFA07F10807BD4605
:103D0000B0BD00BF90B583B000AF786002F01EFA7E
:103D10007A6840F6B003C2F2000314460FCB84E881
:103D20000F0002F029FA07F10C07BD4690BD00BF55
:103D300080B582B000AF786002F008FA7A6840F689
:103D4000D003C2F2000393E8030082E8030002F00C
:103D500013FA07F10807BD4680BD00BFB0B582B0B9
:103D600000AF786002F0F2F97A6840F6EC03C2F234
:103D7000000314461D460FCD0FC40FCD0FC40FCD49
:103D80000FC42B68236002F0F7F907F10807BD465E
:103D9000B0BD00BFB0B582B000AF786002F0D6F918
:103DA0007A6840F6D803C2F2000314461D460FCDD0
:103DB0000FC42B68236002F0DFF907F10807BD4646
:103DC000B0BD00BF80B582B000AF786002F0BEF930
:103DD0007A6840F67423C2F200031868106002F09B
:103DE000CBF907F10807BD4680BD00BFF0B585B02F
:103DF00004AF00F0F7FE06464FF0000000F006FFAB
:103E000005464FF0000000F093FD044647F6584386
:103E1000C0F60003009348F65403C0F60003019374
:103E200047F68873C0F600030293304648F64C010B
:103E3000C0F600012A46234602F0E2FE07F104071D
:103E4000BD46F0BDF0B585B004AF00F0CBFE064630
:103E50004FF0000000F0DAFE05464FF0000000F0E1
:103E600067FD044647F65843C0F60003009348F642
:103E70006803C0F60003019347F68873C0F6000399
:103E80000293304648F64C01C0F600012A4623460C
:103E900002F0B6FE07F10407BD46F0BDF0B587B0ED
:103EA00004AF7860396040F6C003C2F200031B68BB
:103EB0001A4640F6EC03C2F200035B689A4227D22E
:103EC00000F090FE06464FF0000000F09FFE054611
:103ED0004FF0000000F02CFD044647F65843C0F6B2
:103EE0000003009348F67C03C0F60003019348F6F4
:103EF0009003C0F600030293304647F6A441C0F693
:103F000000012A46234602F07BFE4FF0010326E023
:103F100000F068FE06464FF0000000F077FE054610
:103F20004FF0000000F004FD044647F65843C0F689
:103F30000003009348F67C03C0F60003019348F6A3
:103F4000B403C0F600030293304647F6A441C0F61E
:103F500000012A46234602F053FE4FF000031846A4
:103F600007F10C07BD46F0BDF0B587B004AF78602F
:103F7000396000F037FE06464FF0000000F046FEC4
:103F800005464FF0000000F0D3FC044647F65843C6
:103F9000C0F60003009348F6D003C0F60003019377
:103FA00047F68873C0F600030293304648F64C018A
:103FB000C0F600012A46234602F022FE4FF000031D
:103FC000184607F10C07BD46F0BD00BF80B483B0B2
:103FD00000AF78607B689B7B002B0CBF0023012324
:103FE000DBB2184607F10C07BD4680BC704700BF26
:103FF00080B584B000AF7860396000F0F3FD024610
:104000007B681B69D31AFB603B6893F82F303A68D2
:10401000D26902FB03F2FB689A422CBF0023012302
:10402000DBB2184607F11007BD4680BD80B483B0EF
:1040300000AF786039607B681A683B681B699A42F8
:104040002CBF00230123DBB2184607F10C07BD4645
:1040500080BC704780B584B000AF7860396000F0F4
:10406000C1FD02467B685B68D31AFB603B6893F82E
:1040700030303A68926902FB03F2FB689A422CBF27
:1040800000230123DBB2184607F11007BD4680BDAF
:1040900080B584B000AF7860396000F0A3FD0246BF
:1040A0007B68DB68D31AFB603B6893F82C303A6876
:1040B000126A02FB03F2FB689A422CBF0023012321
:1040C000DBB2184607F11007BD4680BD80B584B04D
:1040D00000AF7860396000F085FD02467B68DB6BDD
:1040E000D31AFB603B6893F831303A68526A02FB9E
:1040F00003F2FB689A422CBF00230123DBB218466F
:1041000007F11007BD4680BD80B584B000AF786070
:10411000396000F067FD02467B689B68D31AFB603C
:104120003B6893F82E303A68926A02FB03F2FB6810
:104130009A422CBF00230123DBB2184607F1100777
:10414000BD4680BD80B584B000AF7860396000F0B6
:1041500049FD02467B68DB68D31AFB603B6893F835
:104160002D303A68926A02FB03F2FB689A422CBF38
:1041700000230123DBB2184607F11007BD4680BDBE
:10418000F0B585B004AF00F02DFD06464FF00000FD
:1041900000F03CFD05464FF0000000F0C9FB04466E
:1041A00047F65843C0F60003009348F6E403C0F610
:1041B0000003019347F68873C0F60003029330466C
:1041C00048F64C01C0F600012A46234602F018FDCD
:1041D0004FF00003184607F10407BD46F0BD00BFCD
:1041E00080B584B000AFF860B9607A603B60F86871
:1041F000F969FFF7FDFE0346002B0AD03B6A5B8896
:1042000043F001039AB23B6A5A80386AFFF734FBE5
:1042100006E03B6A5B8823F001039AB23B6A5A804E
:10422000B868F969FFF716FF0346002B0AD03B6A0E
:104230005B8843F080039AB23B6A5A80386AFFF782
:104240001BFB06E03B6A5B8823F080039AB23B6A63
:104250005A807868F969FFF71BFF0346002B0AD0E4
:104260003B6A5B8843F004039AB23B6A5A80386A1F
:10427000FFF702FB06E03B6A5B8823F004039AB277
:104280003B6A5A803868F969FFF720FF0346002B24
:1042900007D03B6A5B8843F010039AB23B6A5A80AE
:1042A00006E03B6A5B8823F010039AB23B6A5A80AF
:1042B000B869F969FFF728FF0346002B0AD03B6A6B
:1042C0005B8843F400739AB23B6A5A80386AFFF7FE
:1042D000D3FA06E03B6A5B8823F400739AB23B6A28
:1042E0005A80B869F969FFF72DFF0346002B12D0F9
:1042F0003B6A5B8843F040039AB23B6A5A80BA69D2
:1043000047F6E823C0F600031B681360BB69184634
:10431000FFF766FB06E03B6A5B8823F040039AB236
:104320003B6A5A80386AFFF779FC07F11007BD46EF
:1043300080BD00BF80B582B000AF786039607B6817
:104340001B681A463B68DA603868FFF7DDFB07F147
:104350000807BD4680BD00BFF0B587B004AF7860E8
:1043600000F040FC06464FF0000000F04FFC054610
:104370004FF0000000F0DCFA044647F65843C0F660
:104380000003009348F6F803C0F60003019347F6D4
:104390008873C0F600030293304648F64C01C0F61D
:1043A00000012A46234602F02BFC07F10C07BD460C
:1043B000F0BD00BFB0B584B004AF00F013FC0546FB
:1043C0004FF0000000F0B4FA044647F65843C0F638
:1043D0000003009348F60C13C0F60003019348F65F
:1043E0001813C0F600030293284647F6A441C0F60E
:1043F000000147F65442C0F60002234602F000FCDA
:10440000FDF7F0FCBD46B0BDB0B584B004AF00F020
:10441000E9FB05464FF0000000F08AFA044647F633
:104420005843C0F60003009348F62413C0F6000377
:10443000019347F68873C0F600030293284648F6B6
:104440004C01C0F6000147F65442C0F60002234674
:1044500002F0D6FB30BFBD46B0BD00BFF0B58DB099
:1044600004AFF860B9603B601346FB80FB68002B2B
:104470001ED100F0B7FB024648F64013C0F6000319
:10448000009348F65013C0F60003019348F66013FA
:10449000C0F600030293104648F63411C0F600013E
:1044A00048F63C12C0F600024FF0000302F0A8FBF1
:1044B000BB6B042B1ED900F095FB024648F6401357
:1044C000C0F60003009348F65013C0F600030193B2
:1044D00048F66013C0F600030293104648F6341104
:1044E000C0F6000148F63C12C0F600024FF000038F
:1044F00002F086FBFB881846396C01F035F8B8618C
:10450000BB69002B00F00F81BB691A6BFB8803F1BC
:10451000FF334FEA8303D3187B617B6923F00703E2
:104520007B617B6903F00703002B1ED000F05AFB70
:10453000024648F64013C0F60003009348F65013B5
:10454000C0F60003019348F66013C0F6000302931F
:10455000104648F63411C0F6000148F63C12C0F689
:1045600000024FF0000302F04BFBFB880093B86998
:10457000B968BA6B7B6C00F021FF7869F9683A681A
:1045800001F060FD0246BB691A60BB691B6803F05D
:104590000703002B1ED000F025FB024648F640130F
:1045A000C0F60003009348F65013C0F600030193D1
:1045B00048F66013C0F600030293104648F6341123
:1045C000C0F6000148F63C12C0F600024FF00003AE
:1045D00002F016FBFB6B002B02D0FB6BBA691A6072
:1045E00001F0B4FD40F6D013C2F200031B6803F1E2
:1045F000010240F6D013C2F200031A6040F6201305
:10460000C2F200031B68002B0FD140F62013C2F248
:104610000003BA691A6040F6D013C2F200031B68A7
:10462000012B18D100F00EFF15E040F6E013C2F2A6
:1046300000031B68002B0ED140F62013C2F20003CA
:104640001B68DA6ABB6B9A4205D840F62013C2F2A7
:104650000003BA691A60BB69DA6A40F6D813C2F27D
:1046600000031B689A4206D9BB69DA6A40F6D81380
:10467000C2F200031A6040F6F413C2F200031B6892
:1046800003F1010240F6F413C2F200031A60BB69A1
:10469000DA6A40F6DC13C2F200031B689A4206D9BC
:1046A000BB69DA6A40F6DC13C2F200031A60BB6928
:1046B000DA6A13464FEA83039B184FEA830340F6F6
:1046C0002412C2F200029A18BB6903F104031046D7
:1046D000194601F0A3F94FF00103FB6100F082FAE3
:1046E0000646BB6903F13405B86900F021F90446B8
:1046F00048F64013C0F60003009348F67413C0F662
:104700000003019348F68813C0F600030293304675
:1047100048F66C11C0F600012A46234602F070FAF2
:1047200001F02AFD21E04FF0FF33FB6100F05AFA5F
:10473000024648F64013C0F60003009348F6A4135F
:10474000C0F60003019348F6C013C0F600030293BD
:10475000104648F63411C0F6000148F63C12C0F687
:1047600000024FF0000302F04BFAFB69012B11D15C
:1047700040F6E013C2F200031B68002B0AD040F69B
:104780002013C2F200031B68DA6ABB6B9A4201D2A3
:1047900001F0D0FCFB69184607F12407BD46F0BDC7
:1047A000F0B58BB004AF786039604FF000037B61E7
:1047B0007B68002B1ED100F015FA024648F6401324
:1047C000C0F60003009348F65013C0F600030193AF
:1047D00048F66013C0F600030293104648F6341101
:1047E000C0F6000148F63C12C0F600024FF000038C
:1047F00002F006FA3B68002B1ED100F0F3F90246E6
:1048000048F64013C0F60003009348F65013C0F674
:104810000003019348F66013C0F6000302931046AC
:1048200048F63411C0F6000148F63C12C0F600020A
:104830004FF0000302F0E4F900F0F4F87B681A6826
:104840003B68D3183B617B681A6840F6D413C2F208
:1048500000031B689A4210D97B681A683B699A4228
:104860001BD940F6D413C2F200031B683A699A427E
:1048700013D94FF001037B610FE07B681A683B6935
:104880009A4207D840F6D413C2F200031B683A6973
:104890009A4202D94FF001037B617B683A691A6042
:1048A0007B69002B37D000F09DF9064640F62013B7
:1048B000C2F200031B6803F1340540F62013C2F274
:1048C00000031B68184600F033F8044648F640130E
:1048D000C0F60003009348F6D813C0F60003019316
:1048E00048F6F013C0F600030293304648F66C1108
:1048F000C0F600012A46234602F082F940F6201352
:10490000C2F200031B6803F10403184601F0E8F843
:10491000386900F0E3FD00F097F8F860FB68002BC1
:1049200001D101F007FC07F11C07BD46F0BD00BF37
:1049300080B584B000AF786001F008FC7B68002B84
:1049400005D140F62013C2F200031B6800E07B682B
:10495000FB60FB68DB6ABB6001F00EFCBB681846BD
:1049600007F11007BD4680BD80B586B004AF4FF09B
:104970000003009340F6CC13C2F2000301934FF002
:10498000000302934FF00003039345F2A930C0F6F1
:10499000000048F60821C0F600014FF480724FF085
:1049A0000003FFF75BFD78607B68012B13D14FF0AC
:1049B000BF0080F3118840F6E013C2F200034FF00D
:1049C00001021A6040F6D413C2F200034FF0000255
:1049D0001A6001F085FB7B68002B1ED100F002F904
:1049E000024648F64013C0F60003009348F6501301
:1049F000C0F60003019348F66013C0F6000302936B
:104A0000104648F63411C0F6000148F63C12C0F6D4
:104A100000024FF0000302F0F3F807F10807BD466B
:104A200080BD00BF80B400AF40F6E413C2F20003C3
:104A30001B6803F1010240F6E413C2F200031A609E
:104A4000BD4680BC704700BF90B587B004AF4FF043
:104A500000037B6040F6E413C2F200031B68002BE6
:104A60001ED100F0BFF8024648F64013C0F600031E
:104A7000009348F65013C0F60003019348F6601304
:104A8000C0F600030293104648F63411C0F6000148
:104A900048F63C12C0F600024FF0000302F0B0F8F6
:104AA00001F054FB40F6E413C2F200031B6803F16B
:104AB000FF3240F6E413C2F200031A6040F6E4133A
:104AC000C2F200031B68002B40F0848040F6D01334
:104AD000C2F200031B68002B7CD04FF000033B6048
:104AE0003BE040F6B813C2F20003DB68DC6804F177
:104AF0001803184600F0F4FF04F10403184600F010
:104B0000EFFFE26A40F6DC13C2F200031B689A4230
:104B100005D9E26A40F6DC13C2F200031A60E26AC9
:104B200013464FEA83039B184FEA830340F624128F
:104B3000C2F200029A1804F104031046194600F06C
:104B40006DFFE26A40F62013C2F200031B68DB6AC5
:104B50009A4202D34FF001033B6040F6B813C2F211
:104B600000031B68002BBCD140F6E813C2F200031F
:104B70001B68002B18D00DE000F082F840F6E81317
:104B8000C2F200031B6803F1FF3240F6E813C2F2E1
:104B900000031A6040F6E813C2F200031B68002B02
:104BA000EAD14FF001033B603B68012B06D040F691
:104BB000EC13C2F200031B68012B0BD14FF0010371
:104BC0007B6040F6EC13C2F200034FF000021A6063
:104BD00001F0B0FA01F0D0FA7B68184607F10C0733
:104BE000BD4690BD80B582B000AF01F0AFFA40F68F
:104BF000D413C2F200031B687B6001F0BDFA7B682E
:104C0000184607F10807BD4680BD00BF80B588B0D3
:104C100004AF78607B68002B05D140F62013C2F208
:104C200000031B6800E07B68FB60FB68002B1ED163
:104C3000FFF7D8FF024648F64013C0F60003009382
:104C400048F65013C0F60003019348F66013C0F60F
:104C500000030293104648F63411C0F6000148F6EE
:104C60003C12C0F600024FF0000301F0C9FFFB68E0
:104C700003F13403184607F11007BD4680BD00BF9D
:104C800080B588B004AF40F6E413C2F200031B689D
:104C9000002B40F0E68040F6D413C2F200031B68FC
:104CA00003F1010240F6D413C2F200031A6040F689
:104CB000D413C2F200031B68002B67D140F6B01377
:104CC000C2F200031B681B68002B1ED0FFF78AFF8F
:104CD000024648F64013C0F60003009348F650130E
:104CE000C0F60003019348F66013C0F60003029378
:104CF000104648F63411C0F6000148F63C12C0F6E2
:104D000000024FF0000301F07BFF40F6B013C2F247
:104D100000031B68FB6040F6B413C2F200031A687C
:104D200040F6B013C2F200031A6040F6B413C2F2A8
:104D30000003FA681A6040F6F013C2F200031B6821
:104D400003F1010240F6F013C2F200031A6040F6CC
:104D5000B013C2F200031B681B68002B07D140F29E
:104D60004043C2F200034FF0FF321A600EE040F6FB
:104D7000B013C2F200031B68DB68DB68BB60BB6872
:104D80005A6840F24043C2F200031A6040F6D4135E
:104D9000C2F200031A6840F24043C2F200031B68EB
:104DA0009A426AD340F6B013C2F200031B681B6834
:104DB000002B07D140F24043C2F200034FF0FF3214
:104DC0001A605AE040F6B013C2F200031B68DB68B9
:104DD000DB68BB60BB685B687B6040F6D413C2F2E3
:104DE00000031A687B689A4206D240F24043C2F23E
:104DF00000037A681A6040E0BB6803F104031846B8
:104E000000F06EFEBB689B6A002B05D0BB6803F107
:104E10001803184600F064FEBB68DA6A40F6DC133B
:104E2000C2F200031B689A4206D9BB68DA6A40F6F0
:104E3000DC13C2F200031A60BB68DA6A13464FEA59
:104E400083039B184FEA830340F62412C2F2000248
:104E50009A18BB6803F104031046194600F0DEFD02
:104E6000A0E740F6E813C2F200031B6803F1010259
:104E700040F6E813C2F200031A6007F11007BD46BE
:104E800080BD00BFF0B587B004AF40F6E413C2F2B6
:104E900000031B68002B07D040F6EC13C2F200039E
:104EA0004FF001021A60DAE0FFF79CFE064640F67A
:104EB0002013C2F200031B6803F1340540F62013EF
:104EC000C2F200031B681846FFF732FD044648F69D
:104ED0004013C0F60003009348F61423C0F6000305
:104EE000019348F63023C0F600030293304648F69B
:104EF0006C11C0F600012A46234601F081FE40F6FF
:104F00002013C2F200031A68516C40F62C23C2F23F
:104F100000031B687868C31ACB18536440F62C232F
:104F2000C2F200037A681A6031E040F6DC13C2F284
:104F300000031B68002B1ED1FFF754FE024648F603
:104F40004013C0F60003009348F65013C0F6000368
:104F5000019348F66013C0F600030293104648F62A
:104F60003411C0F6000148F63C12C0F600024FF0C2
:104F7000000301F045FE40F6DC13C2F200031B689B
:104F800003F1FF3240F6DC13C2F200031A6040F670
:104F9000DC13C2F20003196840F62412C2F20002C8
:104FA0000B464FEA83035B184FEA8303D3181B6851
:104FB000002BBAD040F6DC13C2F200031A68134685
:104FC0004FEA83039B184FEA830340F62412C2F290
:104FD00000029B183B603B685B685A683B685A60FC
:104FE0003B685A683B6803F108039A4204D13B6866
:104FF0005B685A683B685A603B685B68DA6840F6F1
:105000002013C2F200031A60FFF7ECFD064640F6DB
:105010002013C2F200031B6803F1340540F620138D
:10502000C2F200031B681846FFF782FC044648F6EC
:105030004013C0F60003009348F65423C0F6000363
:10504000019348F66C23C0F600030293304648F6FD
:105050006C11C0F600012A46234601F0D1FD07F18C
:105060000C07BD46F0BD00BF80B588B004AF7860C6
:1050700039607B68002B1ED1FFF7B4FD024648F66D
:105080004013C0F60003009348F65013C0F6000327
:10509000019348F66013C0F600030293104648F6E9
:1050A0003411C0F6000148F63C12C0F600024FF081
:1050B000000301F0A5FD40F62013C2F200031B68B7
:1050C00003F118037868194600F0D0FC40F620136D
:1050D000C2F200031B6803F10403184600F000FD50
:1050E00040F6D413C2F200031A683B68D318FB6081
:1050F000F86800F0F3F907F11007BD4680BD00BF66
:1051000080B588B004AF78607B68DB68DB68BB6023
:10511000BB68002B1ED1FFF765FD024648F6401321
:10512000C0F60003009348F65013C0F60003019345
:1051300048F66013C0F600030293104648F6341197
:10514000C0F6000148F63C12C0F600024FF0000322
:1051500001F056FDBB6803F11803184600F0C0FCCF
:1051600040F6E413C2F200031B68002B2AD1BB688F
:1051700003F10403184600F0B3FCBB68DA6A40F69A
:10518000DC13C2F200031B689A4206D9BB68DA6AD4
:1051900040F6DC13C2F200031A60BB68DA6A1346F9
:1051A0004FEA83039B184FEA830340F62412C2F2AE
:1051B00000029A18BB6803F104031046194600F078
:1051C0002DFC09E0BB6803F1180340F6B810C2F2E9
:1051D0000000194600F022FCBB68DA6A40F6201392
:1051E000C2F200031B68DB6A9A4203D34FF001034B
:1051F000FB6002E04FF00003FB60FB68184607F11C
:105200001007BD4680BD00BF80B586B004AF786092
:105210007B68002B1ED1FFF7E5FC024648F64013E1
:10522000C0F60003009348F65013C0F60003019344
:1052300048F66013C0F600030293104648F6341196
:10524000C0F6000148F63C12C0F600024FF0000321
:1052500001F0D6FC40F6F013C2F200031A687B6836
:105260001A6040F6D413C2F200031A687B685A60D1
:1052700007F10807BD4680BD80B588B004AF7860EF
:1052800039607B68002B1ED1FFF7ACFC024648F664
:105290004013C0F60003009348F65013C0F6000315
:1052A000019348F66013C0F600030293104648F6D7
:1052B0003411C0F6000148F63C12C0F600024FF06F
:1052C000000301F09DFC3B68002B1ED1FFF78AFC18
:1052D000024648F64013C0F60003009348F6501308
:1052E000C0F60003019348F66013C0F60003029372
:1052F000104648F63411C0F6000148F63C12C0F6DC
:1053000000024FF0000301F07BFC00F01FFF7B6800
:105310001A6840F6F013C2F200031B689A420CD0E0
:105320007B685A6840F6D413C2F200031B689A42A5
:1053300003D84FF00103FB6022E040F6D413C2F221
:1053400000031A687B685B68D21A3B681B689A4244
:1053500013D23B681A687B68596840F6D413C2F2CE
:1053600000031B68CB1AD2183B681A607868FFF7F5
:105370004BFF4FF00003FB6002E04FF00103FB60C6
:1053800000F0FAFEFB68184607F11007BD4680BD25
:1053900080B400AF40F6EC13C2F200034FF00102FC
:1053A0001A60BD4680BC704780B582B000AF78609F
:1053B00000F08EF8FDF754FEFAE700BF80B584B028
:1053C00000AFF860B9607A603B60FB6803F13403BA
:1053D0001846B9684FF0050202F05CF8FB684FF020
:1053E000000283F838207B68042B02D94FF00403B5
:1053F0007B60FB687A68DA62FB687A68DA63FB686C
:1054000003F10403184600F0FBFAFB6803F11803EC
:10541000184600F0F5FAFB68FA681A617B68C3F178
:105420000502FB689A61FB68FA685A62FB684FF0F4
:1054300000021A64FB684FF000025A6407F110077B
:10544000BD4680BD80B582B000AF4FF000037B60E9
:1054500012E07A6813464FEA83039B184FEA8303EE
:1054600040F62412C2F200029B18184600F0A8FA77
:105470007B6803F101037B607B68042BE9D940F66C
:105480008810C2F2000000F09BFA40F69C10C2F2B5
:10549000000000F095FA40F6B810C2F2000000F0EB
:1054A0008FFA40F6B013C2F2000340F68812C2F23F
:1054B00000021A6040F6B413C2F2000340F69C12D8
:1054C000C2F200021A6007F10807BD4680BD00BFA6
:1054D00080B400AFBD4680BC704700BF80B582B0CD
:1054E00000AF786040F62013C2F200031B687A68B0
:1054F0005A6040F6D413C2F200031B687A689A42DD
:1055000010D240F6B413C2F200031A6840F620131A
:10551000C2F200031B6803F104031046194600F0B1
:10552000A5FA1DE040F6B013C2F200031A6840F677
:105530002013C2F200031B6803F10403104619464E
:1055400000F094FA40F24043C2F200031B687A680C
:105550009A4205D240F24043C2F200037A681A60D0
:1055600007F10807BD4680BD80B584B000AF034693
:105570003960FB804FF0480001F080FB0346FB6080
:10558000FB68002B23D03B68002B07D1FB884FEA38
:105590008303184601F072FB034600E03B68FA689B
:1055A0001363FB681B6B002B06D1F86801F06EFBE0
:1055B0004FF00003FB600AE0FB681A6BFB884FEAC0
:1055C000830310464FF0A5011A4601F0B7FEFB68B1
:1055D000184607F11007BD4680BD00BF80B483B0F8
:1055E00000AF40F62013C2F200031B687B607B68AB
:1055F000184607F10C07BD4680BC704780B588B0DF
:1056000004AF78607B68FB607B68002B1ED1FFF7DE
:10561000E9FA024648F64013C0F60003009348F644
:105620005013C0F60003019348F66013C0F6000360
:105630000293104648F63411C0F6000148F63C12B9
:10564000C0F600024FF0000301F0DAFAFB68DA6AF4
:1056500040F62013C2F200031B68DB6A9A4255D25F
:1056600040F62013C2F200031B68DB6AC3F1050297
:10567000FB689A61FB685969FB68DA6A13464FEA6E
:1056800083039B184FEA830340F62412C2F2000200
:105690009B18994232D1FB6803F10403184600F0CD
:1056A0001FFA40F62013C2F200031B68DA6AFB6897
:1056B000DA62FB68DA6A40F6DC13C2F200031B68A8
:1056C0009A4206D9FB68DA6A40F6DC13C2F200039C
:1056D0001A60FB68DA6A13464FEA83039B184FEAA5
:1056E000830340F62412C2F200029A18FB6803F109
:1056F00004031046194600F091F907E040F6201324
:10570000C2F200031B68DA6AFB68DA6207F110076D
:10571000BD4680BD80B584B000AF78607B68FB601B
:105720007B68002B39D0FB68DA6AFB68DB6B9A4236
:1057300033D0FB6803F10403184600F0D1F9FB688D
:10574000DA6BFB68DA62FB68DB6AC3F10502FB68AF
:105750009A61FB68DA6A40F6DC13C2F200031B6848
:105760009A4206D9FB68DA6A40F6DC13C2F20003FB
:105770001A60FB68DA6A13464FEA83039B184FEA04
:10578000830340F62412C2F200029A18FB6803F168
:1057900004031046194600F041F907F11007BD4611
:1057A00080BD00BF80B487B000AF786039604FF033
:1057B00000037B614FF000033B614FF00003FB608F
:1057C0004FF000037B6186E07B694FF0010202FA33
:1057D00003F33B613B681A683B691340FB60FA685E
:1057E0003B699A4273D17B681A687B694FEA43032D
:1057F0004FF0030101FA03F36FEA03031A407B68D9
:105800001A607B681A683B681B7919467B694FEA06
:10581000430301FA03F31A437B681A603B681B7960
:10582000012B03D03B681B79022B34D17B689A682B
:105830007B694FEA43034FF0030101FA03F36FEA78
:1058400003031A407B689A607B689A683B685B79BF
:1058500019467B694FEA430301FA03F31A437B6855
:105860009A607B685A687B699BB24FF0010101FA2C
:1058700003F36FEA03031A407B685A607B685A6837
:105880003B689B7919467B699BB201FA03F39BB293
:105890001A437B685A607B68DA687B699BB24FEA7F
:1058A00043034FF0030101FA03F36FEA03031A40C5
:1058B0007B68DA607B68DA683B68DB7919467B696C
:1058C0004FEA430301FA03F31A437B68DA607B690A
:1058D00003F101037B617B690F2B7FF675AF07F145
:1058E0001C07BD4680BC704780B485B000AF7860AF
:1058F00013460A467A807B704FF00003FB604FF03E
:105900000003BB607A787B8803F007034FEA8303C8
:1059100002FA03F3FB607B884FEAD3039BB21A467B
:105920007B884FEAD3039BB219467B6801F10801DB
:1059300053F821107B8803F007034FEA83034FF0ED
:105940000F0000FA03F36FEA030319407B6802F1CA
:10595000080243F822107B884FEAD3039BB21A4611
:105960007B6802F1080253F82220FB681343BB60F6
:105970007B884FEAD3039BB21A467B6802F1080288
:10598000B96843F8221007F11407BD4680BC704780
:10599000ABBE00F002B800207047002A00F0018082
:1059A00010600120704706980188044A914240F037
:1059B0000380043006907047FEE70000ABBE000095
:1059C00080B483B000AF78607B6803F108027B6825
:1059D0005A607B684FF0FF329A607B6803F10802DF
:1059E0007B68DA607B6803F108027B681A617B6878
:1059F0004FF000021A6007F10C07BD4680BC7047EB
:105A000080B483B000AF78607B684FF000021A6109
:105A100007F10C07BD4680BC704700BF80B485B05D
:105A200000AF786039607B685B68FB60FB685A6830
:105A30003B685A607B685A683B689A60FB685B68A1
:105A40003A689A60FB683A685A607B683A685A60BC
:105A50003B687A681A617B681B6803F101027B6806
:105A60001A6007F11407BD4680BC704780B485B04A
:105A700000AF786039603B681B68BB60BB68B3F1FE
:105A8000FF3F03D17B681B69FB600DE07B6803F17E
:105A90000803FB6002E0FB685B68FB60FB685B6817
:105AA0001A68BB689A42F6D9FB685A683B685A6024
:105AB0003B685B683A689A603B68FA689A60FB6882
:105AC0003A685A603B687A681A617B681B6803F120
:105AD00001027B681A6007F11407BD4680BC70475D
