:020000040800F2
:10000000D8120020F11700086D1800087764000866
:100010006D1800086D1800086D1800080000000039
:10002000000000000000000000000000A96E0008B1
:100030006D18000800000000AD6F00080570000892
:100040006D1800086D1800086D1800086D1800087C
:100050006D1800086D1800086D1800086D1800086C
:100060006D1800086D1800086D1800086D1800085C
:100070006D1800086D1800086D1800086D1800084C
:100080006D1800086D1800086D1800086D1800083C
:100090006D1800086D1800086D1800086D1800082C
:1000A0006D1800086D1800086D1800086D1800081C
:1000B0006D1800086D1800086D1800086D1800080C
:1000C0006D1800086D1800086D1800086D180008FC
:1000D0006D1800086D1800086D180008DD0900088B
:1000E0006D1800086D1800086D1800086D180008DC
:1000F0006D1800086D1800086D1800086D180008CC
:100100006D1800086D1800086D1800086D180008BB
:100110006D1800086D1800086D1800086D180008AB
:100120006D1800086D1800086D1800086D1800089B
:100130006D1800086D1800086D1800086D1800088B
:100140006D1800086D1800086D1800086D1800087B
:100150006D1800086D1800086D1800086D1800086B
:100160006D1800086D1800086D1800086D1800085B
:100170006D1800086D1800086D1800086D1800084B
:100180006D1800086D18000880B584B004AF05F044
:1001900091FA024648F2C063C0F60003009348F2A9
:1001A000D063C0F60003019348F2DC63C0F600039D
:1001B0000293104648F2B061C0F6000148F2B862FE
:1001C000C0F600024FF0000307F018FC00F02AF917
:1001D000BD4680BD80B584B004AF05F06BFA024621
:1001E00048F2C063C0F60003009348F20873C0F6FB
:1001F0000003019348F21873C0F6000302931046FF
:1002000048F20071C0F6000148F2B862C0F6000280
:100210004FF0000307F0F2FB4FF000031846BD4615
:1002200080BD00BFF0B587B004AF786005F042FA3A
:1002300006464FF0000005F051FA05464FF0000069
:1002400005F0DEF8044648F2C063C0F600030093F0
:1002500048F23873C0F60003019348F24873C0F6C1
:1002600000030293304648F2B061C0F600012A460E
:10027000234607F0C3FB786800F0B8F907F10C07D4
:10028000BD46F0BDF0B589B004AF78604FF0000313
:10029000FB73786800F060F803461C46786800F04D
:1002A00077F803462343DAB2FB7B1343FB73FB7BF4
:1002B000002B25D105F0FEF906464FF0000005F0B1
:1002C0000DFA05464FF0000005F09AF8044648F292
:1002D000C063C0F60003009348F26473C0F60003E5
:1002E000019348F27473C0F600030293304648F25B
:1002F000B061C0F600012A46234607F07FFB24E0E8
:1003000005F0D8F906464FF0000005F0E7F905467C
:100310004FF0000005F074F8044648F2C063C0F6E0
:100320000003009348F26473C0F60003019348F29F
:100330009C73C0F600030293304648F29471C0F6F5
:1003400000012A46234607F059FBFB7B184607F1BC
:100350001407BD46F0BD00BF80B485B000AF786023
:100360004FF00003FB737B681B68B3F1004F04D1AF
:10037000FB7B43F00103FB7303E0FB7B23F00103F2
:10038000FB73FB7B184607F11407BD4680BC704722
:1003900080B485B000AF78604FF00003FB737B68DA
:1003A0009B881BB2B42B05DC7B689B881BB213F1C6
:1003B000B40F04DAFB7B43F00203FB7303E0FB7B27
:1003C00023F00203FB737B68DB881BB2B42B05DCD4
:1003D0007B68DB881BB213F1B40F04DAFB7B43F0BC
:1003E0000403FB7303E0FB7B23F00403FB737B68D4
:1003F0001B891BB2B42B05DC7B681B891BB213F174
:10040000B40F04DAFB7B43F00803FB7303E0FB7BD0
:1004100023F00803FB73FB7B184607F11407BD4666
:1004200080BC704780B588B000AF4FF008004FF037
:10043000010101F005FB4FF480204FF0010101F0B4
:1004400029FB4FF44060C4F202004FF008014FF066
:10045000070205F0B1FF4FF00003BB774FF0010337
:10046000FB774FF002033B774FF002037B7707F1F6
:1004700018034FF44060C4F20200194605F0FAFE7A
:100480004FF44060C4F202004FF009014FF0070240
:1004900005F092FF4FF002033B774FF002037B77AA
:1004A0004FF40073BB6107F118034FF44060C4F2CE
:1004B0000200194605F0DEFE4FF4E133BB604FF059
:1004C0000003BB814FF00003FB814FF000033B8230
:1004D0004FF00003BB824FF004037B8207F1080357
:1004E0004FF49040C4F20000194600F08FFA4FF428
:1004F0009040C4F2000040F225514FF0010200F09C
:10050000A1FB4FF027033B714FF000037B714FF0CD
:100510000003BB714FF00103FB7107F104031846A0
:1005200007F0AAFA4FF49040C4F200004FF0010126
:1005300000F042FB07F12007BD4680BD80B582B0C8
:1005400000AF40F6A803C2F200031B781A4640F63B
:100550006C03C2F2000333F812309BB2532B3AD033
:1005600040F6A803C2F200031B781D2B33D84FF4CA
:100570009040C4F2000000F053FB0346FB8040F6BD
:10058000A803C2F200031B78002B09D0FB88522B72
:1005900006D140F6A803C2F200034FF000021A7021
:1005A00040F6A803C2F200031B781A4640F66C031B
:1005B000C2F20003F98823F8121040F6A803C2F231
:1005C00000031B7803F10103DAB240F6A803C2F27C
:1005D00000031A7006E040F6A803C2F200034FF0D1
:1005E00000021A7007F10807BD4680BD80B485B0CF
:1005F00000AF78604FF00003FB737B684FF00002A0
:100600009A807B684FF00002DA807B684FF000022E
:100610001A817B684FF000021A604FF00003FB73F1
:10062000FA7B40F66C03C2F2000333F812309BB23F
:10063000522B40F0CD81FB7B03F10103FB73FA7B6E
:1006400040F66C03C2F2000333F812309BB22D2B3C
:1006500058D1FB7B03F10103FB731DE07B689B8892
:100660009BB21A464FEA8202D3184FEA43039AB26A
:10067000F97B40F66C03C2F2000333F811309BB2F1
:10068000D3189BB2A3F130039BB29AB27B689A80D5
:10069000FB7B03F10103FB73FA7B40F66C03C2F2B0
:1006A000000333F812309BB2502B02D0FB7B1D2B82
:1006B000D4D97B689B889BB2C3F100039BB29AB2EA
:1006C0007B689A802CE07B689B889BB21A464FEA35
:1006D0008202D3184FEA43039AB2F97B40F66C03C7
:1006E000C2F2000333F811309BB2D3189BB2A3F1CE
:1006F00030039BB29AB27B689A80FB7B03F10103C3
:10070000FB7300E000BFFA7B40F66C03C2F200030B
:1007100033F812309BB2502B02D0FB7B1D2BD2D969
:10072000FB7B03F10103FB73FA7B40F66C03C2F21F
:10073000000333F812309BB22D2B58D1FB7B03F111
:100740000103FB731DE07B68DB889BB21A464FEA0E
:100750008202D3184FEA43039AB2F97B40F66C0346
:10076000C2F2000333F811309BB2D3189BB2A3F14D
:1007700030039BB29AB27B68DA80FB7B03F1010302
:10078000FB73FA7B40F66C03C2F2000333F81230BD
:100790009BB2592B02D0FB7B1D2BD4D97B68DB8805
:1007A0009BB2C3F100039BB29AB27B68DA802CE063
:1007B0007B68DB889BB21A464FEA8202D3184FEA65
:1007C00043039AB2F97B40F66C03C2F2000333F89C
:1007D00011309BB2D3189BB2A3F130039BB29AB2F3
:1007E0007B68DA80FB7B03F10103FB7300E000BF51
:1007F000FA7B40F66C03C2F2000333F812309BB26E
:10080000592B02D0FB7B1D2BD2D9FB7B03F10103BB
:10081000FB73FA7B40F66C03C2F2000333F812302C
:100820009BB22D2B58D1FB7B03F10103FB731DE021
:100830007B681B899BB21A464FEA8202D3184FEAA3
:1008400043039AB2F97B40F66C03C2F2000333F81B
:1008500011309BB2D3189BB2A3F130039BB29AB272
:100860007B681A81FB7B03F10103FB73FA7B40F683
:100870006C03C2F2000333F812309BB2412B02D05A
:10088000FB7B1D2BD4D97B681B899BB2C3F1000372
:100890009BB29AB27B681A812CE07B681B899BB261
:1008A0001A464FEA8202D3184FEA43039AB2F97B01
:1008B00040F66C03C2F2000333F811309BB2D31838
:1008C0009BB2A3F130039BB29AB27B681A81FB7B87
:1008D00003F10103FB7300E000BFFA7B40F66C03F9
:1008E000C2F2000333F812309BB2412B02D0FB7BE3
:1008F0001D2BD2D9FB7B03F10103FB73FA7B40F67E
:100900006C03C2F2000333F812309BB22D2B51D18D
:10091000FB7B03F10103FB731BE07B681A68134642
:100920004FEA83039B184FEA43031A46F97B40F6CC
:100930006C03C2F2000333F811309BB29BB21BB2BE
:10094000D318A3F130027B681A60FB7B03F101032B
:10095000FB73FA7B40F66C03C2F2000333F81230EB
:100960009BB2532B02D0FB7B1D2BD6D97B681B6817
:10097000C3F100027B681A602AE07B681A6813469C
:100980004FEA83039B184FEA43031A46F97B40F66C
:100990006C03C2F2000333F811309BB29BB21BB25E
:1009A000D318A3F130027B681A60FB7B03F10103CB
:1009B000FB7300E000BFFA7B40F66C03C2F2000359
:1009C00033F812309BB2532B02D0FB7B1D2BD4D9B2
:1009D00007F11407BD4680BC704700BF80B500AF6B
:1009E0004FF49040C4F2000040F2255100F09CF911
:1009F0000346012B09D1FFF7A1FD4FF49040C4F24B
:100A0000000040F2255100F0F1F980BD80B58AB0B8
:100A100000AF786039604FF000037B624FF0000355
:100A20003B624FF00003FB614FF00003BB617B684A
:100A30001B8A9BB27B627B6A23F440537B623B68D8
:100A4000DB887A6A13437B627B6A9AB27B681A827C
:100A50007B689B899BB27B627B6A23F4B05323F053
:100A60000C037B623B689A883B681B8913439AB2EC
:100A70003B685B8913439BB27A6A13437B627B6A50
:100A80009AB27B689A817B689B8A9BB27B627B6A05
:100A900023F440737B623B689B897A6A13437B62D1
:100AA0007B6A9AB27B689A8207F10803184600F0C5
:100AB000E1FE7A684FF48053C4F201039A4206D0F3
:100AC0007A684FF4A053C4F201039A4202D17B69C1
:100AD0003B6201E03B693B627B689B899BB29BB2B6
:100AE0001BB2002B0FDA3A6A13464FEA83039B18B6
:100AF0004FEA83029A183B681B684FEA4303B2FB34
:100B0000F3F3FB610EE03A6A13464FEA83039B1846
:100B10004FEA83029A183B681B684FEA8303B2FBD3
:100B2000F3F3FB61FA6948F21F53C5F2EB13A3FB21
:100B300002134FEA53134FEA03137B627B6A4FEAB7
:100B400013134FF0640202FB03F3FA69D31ABB617B
:100B50007B689B899BB29BB21BB2002B12DABB69EC
:100B60004FEAC30303F1320248F21F53C5F2EB13FD
:100B7000A3FB02134FEA531303F007037A6A1343EC
:100B80007B6211E0BB694FEA031303F1320248F2C2
:100B90001F53C5F2EB13A3FB02134FEA531303F0E9
:100BA0000F037A6A13437B627B6A9AB27B681A816D
:100BB00007F12807BD4680BD80B483B000AF7860E0
:100BC0000B46FB70FB78002B08D07B689B899BB29F
:100BD00043F400539AB27B689A8107E07B689B8953
:100BE0009BB223F400539AB27B689A8107F10C07F9
:100BF000BD4680BC704700BF80B483B000AF786052
:100C00000B467B807B884FEAC3534FEAD3539AB29B
:100C10007B689A8007F10C07BD4680BC704700BF17
:100C200080B483B000AF78607B689B889BB24FEA4A
:100C3000C3534FEAD3539BB2184607F10C07BD4686
:100C400080BC704780B487B000AF786013460A4616
:100C50007A807B704FF000033B614FF00003FB6034
:100C60004FF00003BB604FF000037B617B687B614A
:100C70007B88DBB24FEA5313DBB23B617B8803F026
:100C80001F03FB60FB684FF0010202FA03F3BB6035
:100C90003B69012B04D17B6903F10C037B610BE001
:100CA0003B69022B04D17B6903F110037B6103E0F4
:100CB0007B6903F114037B617B78002B06D07B6991
:100CC0007A691168BA680A431A6007E07B697A6931
:100CD0001168BA686FEA02020A401A6007F11C073D
:100CE000BD4680BC704700BF80B485B000AF78605F
:100CF0000B467B804FF00003FB737B681B889AB226
:100D00007B8813409BB2002B03D04FF00103FB7391
:100D100002E04FF00003FB73FB7B184607F114075A
:100D2000BD4680BC704700BF80B487B000AF78601C
:100D30000B467B804FF00003FB604FF000037B61AC
:100D40004FF00003BB604FF00003FB747B88DBB205
:100D50004FEA5313DBB2BB607B8803F01F037B6158
:100D60007B694FF0010202FA03F37B61BB68012B40
:100D700006D17B689B899BB27A6913407B610FE047
:100D8000BB68022B06D17B681B8A9BB27A69134031
:100D90007B6105E07B689B8A9BB27A6913407B612B
:100DA0007B884FEA13239BB2FB60FB684FF0010284
:100DB00002FA03F3FB607B681B889BB2FA6813405E
:100DC000FB607B69002B06D0FB68002B03D04FF043
:100DD0000103FB7402E04FF00003FB74FB7C184638
:100DE00007F11C07BD4680BC704700BF80B485B0CA
:100DF00000AF78600B467B804FF00003FB814FF023
:100E00000003BB817B884FEA1323FB81FB894FF0F2
:100E1000010202FA03F3BB81BB896FEA03039AB2B2
:100E20007B681A8007F11407BD4680BC704700BF7D
:100E300080B584B004AF04F03DFC024648F2D073A4
:100E4000C0F60003009348F2E073C0F6000301937C
:100E500048F2F073C0F600030293104648F2C071E6
:100E6000C0F6000148F2C872C0F600024FF000035D
:100E700006F0C4FDBD4680BD80B584B004AF04F06B
:100E800019FC024648F2D073C0F60003009348F6FE
:100E90000403C0F60003019348F2F073C0F60003A8
:100EA0000293104648F2C071C0F6000148F2C872C1
:100EB000C0F600024FF0000306F0A0FD4FF0000363
:100EC0001846BD4680BD00BFF0B587B004AF78605E
:100ED00004F0F0FB06464FF0000004F0FFFB05466F
:100EE0004FF0000004F08CFA044648F2D073C0F6CC
:100EF0000003009348F63803C0F60003019348F25C
:100F0000F073C0F600030293304648F2C071C0F699
:100F100000012A46234606F071FD07F10C07BD4685
:100F2000F0BD00BFF0B589B004AF78604FF4FA733C
:100F3000FB814FF03203BB817B681B881A46FB891B
:100F400003F59C5303F108039A4207DC7B681B8876
:100F50001A46BB89C3F596739A4227DA04F0AAFBB6
:100F600006464FF0000004F0B9FB05464FF00000C4
:100F700004F046FA044648F65403C0F60003009312
:100F800048F66403C0F60003019348F67C03C0F6FC
:100F900000030293304648F64C01C0F600012A4691
:100FA000234606F02BFD4FF0000326E004F082FB01
:100FB00006464FF0000004F091FB05464FF000009C
:100FC00004F01EFA044648F65403C0F600030093EA
:100FD00048F66403C0F60003019348F6A403C0F684
:100FE00000030293304648F69C01C0F600012A46F1
:100FF000234606F003FD4FF00103184607F11407DE
:10100000BD46F0BD80B5A0B004AF04F053FB02466E
:1010100048F65403C0F60003009348F6C403C0F634
:101020000003019348F6D803C0F60003029310466C
:1010300048F69C01C0F6000148F6BC02C0F600026A
:101040004FF0000306F0DAFC4FF480004FF001018E
:1010500000F0F6FC46F21040C4F2020005F0D4FCA9
:101060004FF000037B6342F24C03C4F20103BB6305
:1010700040F6AC03C2F20003FB634FF000033B6495
:101080004FF008037B644FF00003BB644FF48063B0
:10109000FB644FF400633B654FF400537B654FF4F2
:1010A0008073BB654FF40033FB654FF000033B6674
:1010B0004FF001037B664FF00003BB664FF0000367
:1010C000FB6607F1340346F21040C4F202001946F1
:1010D00005F0BCFD46F21040C4F202004FF00101E1
:1010E00005F00CFE4FF001004FF0010100F0A8FCEC
:1010F0004FF002004FF0010100F0A2FC4FF004009D
:101100004FF0010100F09CFC4FF480704FF00101A2
:1011100000F0EAFC4FF0E003FB624FF0030387F8B6
:1011200030304FF0000387F8333007F12C034FF0D5
:101130000000C4F20200194605F09CF84FF00103CC
:10114000FB624FF0030387F830304FF0000387F85D
:10115000333007F12C034FF48060C4F202001946CB
:1011600005F088F84FF03903FB624FF0030387F86E
:1011700030304FF0000387F8333007F12C034FF481
:101180008060C4F20200194605F074F84FF00003C5
:101190007B604FF00003BB604FF00003FB604FF03B
:1011A00000033B6107F10403184600F023FD4FF0F4
:1011B00080737B614FF001033B764FF001037B7638
:1011C0004FF00003FB614FF000033B624FF0000360
:1011D0007B624FF0080387F8283007F114034FF4BF
:1011E0000050C4F20100194600F0A8FC4FF4005072
:1011F000C4F201004FF005014FF001024FF0070368
:1012000000F042FD4FF40050C4F201004FF006011F
:101210004FF002024FF0070300F036FD4FF400508C
:10122000C4F201004FF007014FF003024FF0070333
:1012300000F02AFD4FF40050C4F201004FF00E01FF
:101240004FF004024FF0070300F01EFD4FF4005072
:10125000C4F201004FF00F014FF005024FF00703F9
:1012600000F012FD4FF40050C4F201004FF00801ED
:101270004FF006024FF0070300F006FD4FF4005058
:10128000C4F201004FF00D014FF007024FF00703C9
:1012900000F0FAFC4FF40050C4F201004FF00A01D4
:1012A0004FF008024FF0070300F0EEFC4FF400503F
:1012B000C4F201004FF0010100F0F0FD4FF40050C6
:1012C000C4F201004FF0010100F0CCFD4FF40050DA
:1012D000C4F201004FF0010100F0BAFC4FF40050DD
:1012E000C4F2010000F0AEFD07F17007BD4680BDFD
:1012F00080B584B004AF04F0DDF9024648F654032B
:10130000C0F60003009348F6F803C0F6000301930B
:1013100048F61013C0F600030293104648F6F00199
:10132000C0F6000148F6BC02C0F600024FF0000310
:1013300006F064FB4FF000031846BD4680BD00BFB9
:10134000F0B589B004AF0346FB71FB79184600F095
:101350000BF90346002B02D14FF00003FB8104F090
:10136000A9F906464FF0000004F0B8F905464FF021
:10137000000004F045F8044648F65403C0F60003A4
:10138000009348F63813C0F60003019348F6501353
:10139000C0F600030293304648F69C01C0F60001F7
:1013A0002A46234606F02AFBFB7903F1FF333F2B45
:1013B00000F2D18001A252F823F000BFBD14000852
:1013C00015150008571500082B15000857150008BB
:1013D0005715000857150008E914000857150008AC
:1013E000571500085715000857150008571500082D
:1013F0005715000857150008FF1400085715000876
:10140000571500085715000857150008571500080C
:1014100057150008571500085715000857150008FC
:1014200057150008571500085715000857150008EC
:101430005715000857150008D31400085715000861
:1014400057150008571500085715000857150008CC
:1014500057150008571500085715000857150008BC
:1014600057150008571500085715000857150008AC
:10147000571500085715000857150008571500089C
:10148000571500085715000857150008571500088C
:10149000571500085715000857150008571500087C
:1014A000571500085715000857150008571500086C
:1014B00057150008571500084115000840F6AC0301
:1014C000C2F200031B889BB21A464FEA8202D3186D
:1014D000FB8140F6AC03C2F200035B889BB21A4664
:1014E0004FEA8202D318FB8140F6AC03C2F200033C
:1014F0009B889BB21A464FEA8202D318FB8140F6C2
:10150000AC03C2F20003DB889BB21A464FEA8202A8
:10151000D318FB8140F6AC03C2F200031B899BB2D7
:101520001A464FEA8202D318FB8140F6AC03C2F29E
:1015300000035B899BB21A464FEA8202D318FB81F3
:1015400040F6AC03C2F200039B899BB21A464FEAF5
:101550008202D318FB814FF00003FB81FB89184600
:1015600007F11407BD46F0BDF0B587B004AF0346E0
:10157000FB71FB79012B11D0FB79022B0ED0FB798B
:10158000042B0BD0FB79082B08D0FB79102B05D04E
:10159000FB79202B02D0FB79402B27D104F08AF86D
:1015A00006464FF0000004F099F805464FF00000A1
:1015B00003F026FF044648F65403C0F600030093E8
:1015C00048F66413C0F60003019348F67C13C0F696
:1015D00000030293304648F69C01C0F600012A46FB
:1015E000234606F00BFA4FF0010326E004F062F800
:1015F00006464FF0000004F071F805464FF0000079
:1016000003F0FEFE044648F65403C0F600030093C0
:1016100048F66413C0F60003019348F69013C0F631
:1016200000030293304648F64C01C0F600012A46FA
:10163000234606F0E3F94FF00003184607F10C07C4
:10164000BD46F0BDF0B587B004AF78607B68184642
:10165000FFF768FC0346002B5DD07B6803F10203B3
:101660001846FFF75FFC0346002B54D07B6803F15C
:1016700004031846FFF756FC0346002B4BD07B684B
:1016800003F106031846FFF74DFC0346002B42D03A
:101690007B6803F108031846FFF744FC0346002B60
:1016A00039D07B6803F10A031846FFF73BFC034679
:1016B000002B30D07B6803F10C031846FFF732FC97
:1016C0000346002B27D003F0F5FF06464FF000003D
:1016D00004F004F805464FF0000003F091FE0446C4
:1016E00048F65403C0F60003009348F6AC13C0F666
:1016F0000003019348F6C413C0F60003029330467A
:1017000048F69C01C0F600012A46234606F076F909
:101710004FF0010326E003F0CDFF06464FF0000036
:1017200003F0DCFF05464FF0000003F069FE0446BD
:1017300048F65403C0F60003009348F6AC13C0F615
:101740000003019348F6D413C0F600030293304619
:1017500048F64C01C0F600012A46234606F04EF931
:101760004FF00003184607F10C07BD46F0BD00BF5F
:1017700080B582B000AF78604FF00100FFF7E0FD68
:1017800003461A467B681A804FF00200FFF7D8FD27
:1017900003461A467B685A804FF00400FFF7D0FDDD
:1017A00003461A467B689A804FF00800FFF7C8FD91
:1017B00003461A467B68DA804FF01000FFF7C0FD41
:1017C00003461A467B681A814FF02000FFF7B8FDE8
:1017D00003461A467B685A814FF04000FFF7B0FD80
:1017E00003461A467B689A8107F10807BD4680BD0B
:1017F00080B582B000AF4AF27813C0F600037B6078
:1018000040F20003C2F200033B600BE07B681A6801
:101810003B681A603B6803F104033B607B6803F19B
:1018200004037B603A6840F66C03C2F200039A42FC
:10183000ECD30B480B494FF000028842B8BF40F888
:10184000042BFFF6FAAFDFF82000016841F47001C5
:10185000016001F0C9F807F10807BD4680BD00002E
:101860006C080020D40A002088ED00E080B400AFAE
:10187000FEE700BF80B489B000AF78604FF000038E
:10188000BB614FF000037B614FF00003FB614FF041
:1018900002033B614FF00003FB604FF00203BB60AB
:1018A0004FF46053C4F202039B6803F00C03BB6166
:1018B000BB69042B0AD0082B0FD0002B60D17A68AB
:1018C0004FF41053C0F2F403136060E07A684FF4F1
:1018D0009053C0F27A03136059E04FF46053C4F29E
:1018E00002035B6803F480034FEA9353FB604FF4F9
:1018F0006053C4F202035B6803F03F03BB60FB6804
:10190000002B14D04FF49053C0F27A03BA68B3FBA3
:10191000F2F24FF46053C4F20203596847F6C07301
:101920000B404FEA931303FB02F3FB6113E04FF408
:101930001053C0F2F403BA68B3FBF2F24FF46053F1
:10194000C4F20203596847F6C0730B404FEA931381
:1019500003FB02F3FB614FF46053C4F202035B68C4
:1019600003F440334FEA134303F101034FEA430307
:101970003B61FA693B69B2FBF3F27B681A6006E0EF
:101980007A684FF41053C0F2F403136000BF4FF4B1
:101990006053C4F202039B6803F0F003BB61BB69B0
:1019A0004FEA1313BB6140F20003C2F20003BA69AD
:1019B0009B181B78DBB27B617B681A687B6922FA13
:1019C00003F27B685A604FF46053C4F202039B68D1
:1019D00003F4E053BB61BB694FEA9323BB6140F260
:1019E0000003C2F20003BA699B181B78DBB27B616B
:1019F0007B685A687B6922FA03F27B689A604FF42D
:101A00006053C4F202039B6803F46043BB61BB698B
:101A10004FEA5333BB6140F20003C2F20003BA69DC
:101A20009B181B78DBB27B617B685A687B6922FA62
:101A300003F27B68DA6007F12407BD4680BC70477B
:101A400080B483B000AF78600B46FB70FB78002B4E
:101A50000CD04FF46053C4F202034FF46052C4F24E
:101A60000202116B7A680A431A630DE04FF4605367
:101A7000C4F202034FF46052C4F20202116B7A689E
:101A80006FEA02020A401A6307F10C07BD4680BCE8
:101A9000704700BF80B483B000AF78600B46FB7026
:101AA000FB78002B0CD04FF46053C4F202034FF4C8
:101AB0006052C4F20202116C7A680A431A640DE0A3
:101AC0004FF46053C4F202034FF46052C4F20202B6
:101AD000116C7A686FEA02020A401A6407F10C0777
:101AE000BD4680BC704700BF80B483B000AF786053
:101AF0000B46FB70FB78002B0CD04FF46053C4F204
:101B000002034FF46052C4F20202516C7A680A4335
:101B10005A640DE04FF46053C4F202034FF4605274
:101B2000C4F20202516C7A686FEA02020A405A64F7
:101B300007F10C07BD4680BC704700BF80B485B07C
:101B400000AF786039604FF00003FB604FF0000396
:101B5000FB727B685B68FB60FB6823F0407323F4D7
:101B60008073FB603B681B794FEA03223B681B686C
:101B70001343FA681343FB607B68FA685A607B681A
:101B80009B68FB60FA684FF2FD73CCF2FF031340D1
:101B9000FB603B681A693B68DB681A433B689B68DB
:101BA0001A433B685B794FEA43031343FA681343D4
:101BB000FB607B68FA689A607B68DB6AFB60FB68A5
:101BC00023F47003FB603B681B7D03F1FF33DAB243
:101BD000FB7A1343FB72FB7A4FEA0353FA68134311
:101BE000FB607B68FA68DA6207F11407BD4680BCC7
:101BF000704700BF80B485B000AF78604FF000033D
:101C0000FB604FF40C53C4F201035B68FB60FA689D
:101C100043F2E003CFF6FC731340FB607B681A6865
:101C20007B685B681A437B689B681A437B68DB6848
:101C30001343FA681343FB604FF40C53C4F20103DF
:101C4000FA685A6007F11407BD4680BC704700BFB0
:101C500080B483B000AF78600B46FB70FB78002B3C
:101C600006D07B689B6843F001027B689A6005E0C0
:101C70007B689B6823F001027B689A6007F10C0780
:101C8000BD4680BC704700BF80B485B000AF7860AF
:101C9000F970BA707B704FF00003FB604FF00003E7
:101CA000BB60FB78092B27D97B68DB68FB60FA787F
:101CB00013464FEA43039B18A3F11E034FF007029C
:101CC00002FA03F3BB60BB686FEA0303FA681340D0
:101CD000FB607978FA7813464FEA43039B18A3F127
:101CE0001E0301FA03F3BB60FA68BB681343FB6091
:101CF0007B68FA68DA6022E07B681B69FB60FA782F
:101D000013464FEA43039B184FF0070202FA03F30E
:101D1000BB60BB686FEA0303FA681340FB60797825
:101D2000FA7813464FEA43039B1801FA03F3BB60AA
:101D3000FA68BB681343FB607B68FA681A61BB787A
:101D4000062B27D87B685B6BFB60BB7803F1FF3207
:101D500013464FEA83039B184FF01F0202FA03F366
:101D6000BB60BB686FEA0303FA681340FB60F97855
:101D7000BB7803F1FF3213464FEA83039B1801FA45
:101D800003F3BB60FA68BB681343FB607B68FA68C7
:101D90005A6351E0BB780C2B27D87B681B6BFB6028
:101DA000BA7813464FEA83039B18A3F123034FF03D
:101DB0001F0202FA03F3BB60BB686FEA0303FA6811
:101DC0001340FB60F978BA7813464FEA83039B18F7
:101DD000A3F1230301FA03F3BB60FA68BB68134362
:101DE000FB607B68FA681A6326E07B68DB6AFB604D
:101DF000BA7813464FEA83039B18A3F141034FF0CF
:101E00001F0202FA03F3BB60BB686FEA0303FA68C0
:101E10001340FB60F978BA7813464FEA83039B18A6
:101E2000A3F1410301FA03F3BB60FA68BB681343F3
:101E3000FB607B68FA68DA6207F11407BD4680BC74
:101E4000704700BF80B483B000AF78607B689B6848
:101E500043F080427B689A6007F10C07BD4680BC66
:101E6000704700BF80B483B000AF78600B46FB7052
:101E7000FB78002B06D07B689B6843F480727B68FC
:101E80009A6005E07B689B6823F480727B689A60A7
:101E900007F10C07BD4680BC704700BF80B483B01B
:101EA00000AF78600B46FB70FB78002B06D07B6898
:101EB0009B6843F400727B689A6005E07B689B68CE
:101EC00023F400727B689A6007F10C07BD4680BC62
:101ED000704700BFF0B587B004AF78607B681B78AF
:101EE0005BB213F1020F4DDB7B681B785BB2022BF8
:101EF00048DC7B685B785BB213F1020F42DB7B68E6
:101F00005B785BB2022B3DDC7B689B785BB213F1A4
:101F1000020F37DB7B689B785BB2022B32DC7B687D
:101F2000DB785BB213F1020F2CDB7B68DB785BB2F2
:101F3000022B27DC03F0BEFB06464FF0000003F047
:101F4000CDFB05464FF0000003F05AFA044648F670
:101F50000C23C0F60003009348F61C23C0F60003D0
:101F6000019348F63023C0F600030293304648F64A
:101F70000421C0F600012A46234605F03FFD4FF03C
:101F8000010326E003F096FB06464FF0000003F045
:101F9000A5FB05464FF0000003F032FA044648F670
:101FA0000C23C0F60003009348F61C23C0F6000380
:101FB000019348F65C23C0F600030293304648F6CE
:101FC0005421C0F600012A46234605F017FD4FF0C4
:101FD0000003184607F10C07BD46F0BDF0B589B007
:101FE00004AFF860B9607A603B6003F063FB0646BB
:101FF0004FF0000003F072FB05464FF0000003F0C5
:10200000FFF9044648F60C23C0F60003009348F697
:102010008C23C0F60003019348F6A023C0F600030A
:102020000293304648F68421C0F600012A46234632
:1020300005F0E4FC07F11407BD46F0BDF0B589B02A
:1020400004AFF860B9607A6003F034FB06464FF0E5
:10205000000003F043FB05464FF0000003F0D0F909
:10206000044648F60C23C0F60003009348F6B42358
:10207000C0F60003019348F6A023C0F600030293C4
:10208000304648F68421C0F600012A46234605F072
:10209000B5FC07F11407BD46F0BD00BFF0B589B02F
:1020A00004AFF860B9607A6003F004FB06464FF0B5
:1020B000000003F013FB05464FF0000003F0A0F909
:1020C000044648F60C23C0F60003009348F6C823E4
:1020D000C0F60003019348F6A023C0F60003029364
:1020E000304648F68421C0F600012A46234605F012
:1020F00085FC4FF00003184607F11407BD46F0BDFC
:10210000F0B589B004AFF860B9607A603B6003F065
:10211000D1FA06464FF0000003F0E0FA05464FF012
:10212000000003F06DF9044648F60C23C0F60003E6
:10213000009348F6E023C0F60003019348F6A0237D
:10214000C0F600030293304648F68421C0F6000131
:102150002A46234605F052FC07F11407BD46F0BDA0
:10216000F0B587B004AF786003F0A4FA06464FF0EC
:10217000000003F0B3FA05464FF0000003F040F909
:10218000044648F60C23C0F60003009348F6F423F7
:10219000C0F60003019348F6A023C0F600030293A3
:1021A000304648F68421C0F600012A46234605F051
:1021B00025FC07F10C07BD46F0BD00BF80B582B01D
:1021C00000AF0346FB71FB79184605F037FC07F1B9
:1021D0000807BD4680BD00BF80B483B000AF786003
:1021E0000B46FB707B68FA781A704FF001031846B3
:1021F00007F10C07BD4680BC704700BF80B485B0B6
:1022000000AF786039604FF00003FB600FE03B687F
:102210001A787B681A707B6803F101037B603B6866
:1022200003F101033B60FB6803F10103FB603B68C2
:102230001B78002BEBD1FB68184607F11407BD464D
:1022400080BC704780B586B000AFF8607A603B60B4
:102250000B46FB724FF000037B617B6803F1FF3399
:102260007B603B68092B25D93A684CF6CD43CCF608
:10227000CC43A3FB02134FEAD303FA7AF868114662
:102280007A68FFF7DFFF78617B69FA68D318FB6033
:1022900013E0FB7AF8681946FFF79EFFFB6803F12D
:1022A0000103FB607B6903F101037B617B6803F140
:1022B000FF337B607B68002BEBDC39684CF6CD4349
:1022C000CCF6CC43A3FB01234FEAD30213464FEADB
:1022D00083039B184FEA4303CA1AD3B203F13003B6
:1022E000DBB2F8681946FFF777FF03467A69D3181F
:1022F0007B617B69184607F11807BD4680BD00BFAA
:1023000080B586B000AFF8607A603B600B46FB7228
:102310004FF000037B613B68002B04DA3B68C3F19C
:1023200000033B6101E03B683B617B6803F1FF33E5
:102330007B603B69092B2AD93B68002B12DA3A698A
:102340004CF6CD43CCF6CC43A3FB02134FEAD303A8
:10235000C3F10003FA7AF86811467A68FFF7D0FFF4
:1023600078610FE03A694CF6CD43CCF6CC43A3FB41
:1023700002134FEAD303FA7AF86811467A68FFF736
:10238000BFFF78617B69FA68D318FB602BE03B687C
:10239000002B15DA7B6803F1FF337B6010E0FB7ADA
:1023A000F8681946FFF718FFFB6803F10103FB60AB
:1023B0007B6903F101037B617B6803F1FF337B6081
:1023C0007B68002BEBDC3B68002B0CDAF8684FF0E5
:1023D0002D01FFF701FF03467A69D3187B61FB6883
:1023E00003F10103FB6039694CF6CD43CCF6CC43D5
:1023F000A3FB01234FEAD30213464FEA83039B1842
:102400004FEA4303CA1AD3B203F13003DBB2F868D0
:102410001946FFF7E1FE03467A69D3187B617B69B1
:10242000184607F11807BD4680BD00BF80B588B0CB
:1024300002AFF8607A600A46FA72BB724FF000038E
:102440007B617B6803F1FF337B603B6A4FEA1313C8
:10245000002B24D03B6A4FEA1311FA7ABB7A009121
:10246000F86811467A68FFF7E1FF03467A69D318E6
:102470007B617B69FA68D318FB6013E0FB7AF8682C
:102480001946FFF7A9FEFB6803F10103FB607B69B6
:1024900003F101037B617B6803F1FF337B607B68A1
:1024A000002BEBDC3B6A03F00F03092B0CD83B6AD3
:1024B000DBB203F00F03DBB203F13003DBB2F868E9
:1024C0001946FFF789FE1BE0BB7A002B0CD03B6A54
:1024D000DBB203F00F03DBB203F13703DBB2F868C2
:1024E0001946FFF779FE0BE03B6ADBB203F00F03FE
:1024F000DBB203F15703DBB2F8681946FFF76CFE55
:102500007B6903F101037B617B69184607F11807BA
:10251000BD4680BD80B58AB002AFF860B9607A6010
:102520003B604FF00003BB614FF000037B61FB6831
:10253000002B00F01C81FB684FF000021A7016E1BE
:102540007B681B78252B10D07B681A78FB681A7083
:10255000FB6803F10103FB607B6803F101037B600F
:102560007B6903F101037B6102E17B6803F10103F5
:102570001B78252B10D1FB684FF025021A70FB68E1
:1025800003F10103FB607B6803F102037B607B695D
:1025900003F101037B61EBE04FF02003FB774FF089
:1025A0000003BB777B6803F101037B607B681B78CA
:1025B000302B1BD14FF03003FB777B6803F1010315
:1025C0007B6013E0BB7F1A464FEA8202D3184FEAC2
:1025D0004303DAB27B681B78D318DBB2A3F1300374
:1025E000BB777B6803F101037B6000E000BF7B6881
:1025F0001B782F2B03D97B681B78392BE2D9BA7F44
:102600007B69D3181A46BB689A4205D9BB68DAB20F
:102610007B69DBB2D31ABB777B681B78A3F15803C5
:10262000202B00F2948001A252F823F00127000829
:102630004F2700084F2700084F2700084F270008A2
:102640004F2700084F2700084F2700084F27000892
:102650004F2700084F27000837270008B126000839
:102660004F2700084F2700084F2700084F27000872
:10267000B12600084F2700084F2700084F27000801
:102680004F2700084F2700084F2700084F27000852
:102690004F2700084F270008212700084F27000870
:1026A000C92600084F2700084F270008E126000828
:1026B000BA7F3B6803F1040139601B68F97FF86851
:1026C000FFF71EFEB86145E0BA7F3B6803F10401E5
:1026D00039601B68F97FF868FFF7B4FDB86139E02D
:1026E000BA7F3B6803F1040139601968FB7F0091F0
:1026F000F86819464FF00003FFF798FEB86129E02B
:10270000BA7F3B6803F1040139601968FB7F0091CF
:10271000F86819464FF00103FFF788FEB86119E029
:102720003B6803F104023A601B68F8681946FFF73A
:1027300065FDB8610EE03B6803F104023A601B6876
:10274000DBB2F8681946FFF747FDB86102E04FF0C9
:10275000FF332CE07B6803F101037B60BB69FA68FF
:10276000D318FB607A69BB69D3187B6100E000BFB6
:102770007B681B78002B04D07A69BB689A42FFF40F
:10278000DFAE7A69BB689A4204D2FB684FF0000260
:102790001A700BE0FB6803F1FF33FB60FB684FF03E
:1027A00000021A707B6903F1FF337B617B69184675
:1027B00007F12007BD4680BD80B584B000AFF8604A
:1027C000B9607A60F8684FF0C801BA687B68FFF7B3
:1027D000A1FE0346184607F11007BD4680BD00BFA5
:1027E000B0B5C0B000AFF860B9607A6048F60833A1
:1027F000C0F6000307F114041D460FCD0FC40FCD22
:102800000FC42B68236007F138031846B9687A684B
:10281000FFF7D2FF0346C72B0CDD40F23843C2F26C
:1028200000031B68DB6807F114021046194600F02C
:1028300073F8FEE707F138031846F96800F06CF802
:102840000346184607F58077BD46B0BD80B582B017
:1028500000AF7860396040F23843C2F200031B6871
:102860009B68184679683A68FFF7BAFF034618462E
:1028700007F10807BD4680BD0FB480B582B000AF38
:1028800007F114033B6038693968FFF7DFFF7860B0
:102890007B68184607F10807BD46BDE8804004B0D4
:1028A000704700BF80B582B000AF786040F2384317
:1028B000C2F200031B689B687868194600F02CF888
:1028C0000346184607F10807BD4680BD80B582B0B3
:1028D00000AF7860396040F23843C2F200031B68F1
:1028E0009A683B689A4208D040F23843C2F200032B
:1028F0001B68DA683B689A4206D17B68DBB21846EF
:10290000FFF75CFC7B6801E04FF0FF33184607F1EE
:102910000807BD4680BD00BF80B584B000AF7860B9
:1029200039604FF00003FB6014E07B681B781846A9
:102930003968FFF7CBFF0346B3F1FF3F02D14FF0F9
:10294000FF330CE0FB6803F10103FB607B6803F1DC
:1029500001037B607B681B78002BE6D1FB6818467F
:1029600007F11007BD4680BD80B485B000AF786028
:102970007B6803F00703FB604FF46D43CEF2000366
:10298000DB68BB60BA684FF6FF031340BB60FB68AF
:102990004FEA0322BB68134343F0BF6343F40033A1
:1029A000BB604FF46D43CEF20003BA68DA6007F102
:1029B0001407BD4680BC704780B400AFBFF34F8F93
:1029C0004FF46D42CEF200024FF46D43CEF200039D
:1029D000DB6803F4E0614FF00403C0F2FA530B43E9
:1029E000D360BFF34F8FFEE780B594B004AF01F022
:1029F000BFF904F083FF01F079F901F0E7F901F084
:102A0000F3F903461A4640F6C423C2F200035A8083
:102A100040F6C423C2F200035B88002B4CD040F682
:102A2000C423C2F200035B88102B45D002F042FEA3
:102A3000024648F67433C0F60003009348F6843328
:102A4000C0F60003019348F68C33C0F600030293EE
:102A5000104648F66431C0F6000148F66C32C0F604
:102A600000024FF0000304F0C9FF40F6C423C2F295
:102A700000034FF002021A7040F6C420C2F20000B8
:102A800001F048FA07F104031846FEF71DFA3B79F6
:102A9000002BF1D13B79012BEED13B79002B02D0F9
:102AA000012B03D005E001F0E1FF05E002F008F89A
:102AB00002E002F005F800BF02F0FCFD024648F615
:102AC0007433C0F60003009348F68433C0F6000365
:102AD000019348F6C833C0F600030293104648F647
:102AE000C031C0F6000148F66C32C0F600024FF06B
:102AF000000304F083FF4FF001004FF0000104F0E9
:102B0000BDFA024640F6BC03C2F200031A6040F66A
:102B1000BC03C2F200031B68002B54D102F0CAFDB3
:102B2000024648F67433C0F60003009348F6843337
:102B3000C0F60003019348F6E033C0F600030293A9
:102B4000104648F66431C0F6000148F66C32C0F613
:102B500000024FF0000304F051FF40F6C423C2F21C
:102B600000034FF002021A7040F6C423C2F20003C1
:102B70005B886FEA43436FEA53439AB240F6C4233B
:102B8000C2F200035A8040F6C420C2F2000001F0F5
:102B9000C1F907F104031846FEF796F93B79002BBB
:102BA000F1D13B79012BEED13B79002B02D0012BE7
:102BB00003D005E001F05AFF05E001F081FF02E0DB
:102BC00001F07EFF00BF02F075FD024648F6743347
:102BD000C0F60003009348F68433C0F60003019367
:102BE00048F60443C0F600030293104648F6C0318D
:102BF000C0F6000148F66C32C0F600024FF0000348
:102C000004F0FCFE4FF00403009340F6B823C2F238
:102C1000000301934FF0000302934FF0000303936E
:102C200043F20100C0F6000048F62441C0F600015E
:102C30004FF480724FF0000302F078F902F03AFD91
:102C4000024648F67433C0F60003009348F6843316
:102C5000C0F60003019348F62C43C0F6000302932C
:102C6000104648F6C031C0F6000148F66C32C0F696
:102C700000024FF0000304F0C1FE4FF00403009384
:102C800040F6C023C2F2000301934FF00003029309
:102C90004FF00003039343F6A910C0F6000048F676
:102CA0005041C0F600014FF480724FF0000302F073
:102CB0003DF902F0FFFC024648F67433C0F600030B
:102CC000009348F68433C0F60003019348F6584356
:102CD000C0F600030293104648F6C031C0F600016A
:102CE00048F66C32C0F600024FF0000304F086FE96
:102CF0004FF00303009340F6BC23C2F2000301939C
:102D00004FF0000302934FF00003039343F2ED10E2
:102D1000C0F6000048F67441C0F600014FF480721E
:102D20004FF0000302F002F902F0C4FC024648F63C
:102D30007433C0F60003009348F68433C0F60003F2
:102D4000019348F67C43C0F600030293104648F610
:102D5000C031C0F6000148F66C32C0F600024FF0F8
:102D6000000304F04BFE4FF00203009340F6CC2327
:102D7000C2F2000301934FF0000302934FF00003EF
:102D8000039343F28150C0F6000048F69C41C0F620
:102D900000014FF480724FF0000302F0C7F802F018
:102DA00089FC024648F67433C0F60003009348F6E7
:102DB0008433C0F60003019348F6A443C0F6000331
:102DC0000293104648F6C031C0F6000148F66C3256
:102DD000C0F600024FF0000304F010FE4FF00203B3
:102DE000009340F6C823C2F2000301934FF00003A2
:102DF00002934FF00003039343F63930C0F600000E
:102E000048F6C041C0F600014FF480724FF0000355
:102E100002F08CF840F6B823C2F200031B68002BC6
:102E20001BD040F6BC23C2F200031B68002B14D059
:102E300040F6CC23C2F200031B68002B0DD040F6F5
:102E4000C023C2F200031B68002B06D040F6C82343
:102E5000C2F200031B68002B54D102F02BFC024687
:102E600048F67433C0F60003009348F68433C0F686
:102E70000003019348F6C843C0F6000302931046CE
:102E800048F66431C0F6000148F66C32C0F6000224
:102E90004FF0000304F0B2FD40F6C423C2F2000379
:102EA0004FF002021A7040F6C423C2F200035B889E
:102EB0006FEA43436FEA53439AB240F6C423C2F227
:102EC00000035A8040F6C420C2F2000001F022F84C
:102ED00007F104031846FDF7F7FF3B79002BF1D10A
:102EE0003B79012BEED13B79002B02D0012B03D093
:102EF00005E001F0BBFD05E001F0E2FD02E001F0BC
:102F0000DFFD00BF40F6C423C2F200034FF0010210
:102F10001A7002F0CFFB024648F67433C0F6000385
:102F2000009348F68433C0F60003019348F6E0436B
:102F3000C0F600030293104648F6C031C0F6000107
:102F400048F66C32C0F600024FF0000304F056FD64
:102F500002F072FA02F0AEFB024648F67433C0F695
:102F60000003009348F68433C0F60003019348F64B
:102F7000F443C0F600030293104648F66431C0F6ED
:102F8000000148F66C32C0F600024FF0000304F076
:102F900035FD40F6C423C2F200034FF002021A705E
:102FA00040F6C423C2F200035B886FEA43436FEA32
:102FB00053439AB240F6C423C2F200035A8040F64B
:102FC000C420C2F2000000F0A5FF07F10403184678
:102FD000FDF77AFF3B79002BF1D13B79012BEED144
:102FE0003B79002B02D0012B03D005E001F03EFD20
:102FF00005E001F065FD02E001F062FD00BFFEE7C3
:1030000080B596B000AF786002F054FB03467B6554
:1030100007F11003184601F005FA07F10C031846F2
:1030200001F034FA07F144031846FEF7A1FB07F15B
:1030300044031846FEF706FB0346002B00F0C4804D
:10304000FB8923F002039BB2FB8107F10C031846B6
:1030500001F048F9B7F84420BB8C9A4207D297F8A0
:10306000523043F00103DBB287F8523006E097F8A4
:10307000523023F00103DBB287F85230B7F84E200C
:10308000BB8C9A4207D297F8523043F02003DBB250
:1030900087F8523006E097F8523023F02003DBB275
:1030A00087F85230B7F84820BB8C9A4207D297F87D
:1030B000523043F00403DBB287F8523006E097F851
:1030C000523023F00403DBB287F85230B7F84620C1
:1030D000BB8C9A4207D297F8523043F00203DBB21E
:1030E00087F8523006E097F8523023F00203DBB243
:1030F00087F85230B7F84C20BB8C9A4207D297F829
:10310000523043F01003DBB287F8523006E097F8F4
:10311000523023F01003DBB287F85230B7F84A2060
:10312000BB8C9A4207D297F8523043F00803DBB2C7
:1031300087F8523006E097F8523023F00803DBB2EC
:1031400087F8523040F6C423C2F200031B78012BEB
:1031500006D140F6C423C2F200031B78072B14D01B
:10316000B7F850203B8B9A4207D297F8523043F081
:103170004003DBB287F852300EE097F8523023F06C
:103180004003DBB287F8523006E097F8523023F064
:103190004003DBB287F8523007F14403184601F0D0
:1031A00057F897F85230002B18D040F6BC03C2F203
:1031B00000031B6818464FF000014FF000024FF06B
:1031C000000304F025F809E0FB8943F002039BB2F9
:1031D000FB8107F10C03184601F084F8FB6A07F144
:1031E00054021046194602F043F811E7F0B5BBB09F
:1031F00004AF786048F6E813C0F6000307F108044E
:103200001D460FCD0FC495E8030084E8030040F687
:10321000BC03C2F200031B68002B24D102F04AFA5F
:1032200006464FF0000002F059FA05464FF0000044
:1032300002F0E6F8044648F67433C0F60003009343
:1032400048F60C53C0F60003019348F62053C0F62D
:1032500000030293304648F66431C0F600012A4666
:10326000234604F0CBFB02F025FA06464FF000009F
:1032700002F034FA05464FF0000002F0C1F80446AF
:1032800048F67433C0F60003009348F60C53C0F6BA
:103290000003019348F63C53C0F600030293304606
:1032A00048F6C031C0F600012A46234604F0A6FBCA
:1032B00007F1C003184601F0E9F807F17803184652
:1032C00001F0B0F807F1C4031846FCF7ABFF07F1B3
:1032D000C4031846FCF7D6FF034687F8D73097F8A3
:1032E000D730002B11D007F1C403184601F03AF88B
:1032F000B7F8C23043F008039BB2A7F8C23007F119
:10330000C003184600F0EEFF10E007F1C4031846B2
:1033100000F036FEB7F8C23023F008039BB2A7F8DE
:10332000C23007F1C003184600F0DCFF07F1C0030C
:10333000184601F0EFFB07F1C403184601F0A2FCA8
:1033400007F1AC03184601F089F807F1700318463D
:1033500001F052F807F13003184601F019F807F1AF
:103360002003184601F032F807F1AC0007F17001B4
:1033700007F1C40207F1300307F12004009407F1BC
:103380007804019407F1C004029401F085FA97F8DB
:10339000C03003F1FF33062B00F2A08001A252F8E7
:1033A00023F000BFC1330008DD340008CD3300082E
:1033B00043340008133400089B34000859340008D3
:1033C00007F1AC03184601F065F98AE007F1C40281
:1033D00007F178031046194601F0C4F80346002BA4
:1033E0000DD140F63C13C2F200035B6807F1080000
:1033F00007F1C40107F1AC02FEF7F0FD71E04FF0F8
:10340000040387F8C03007F1C003184600F06AFFD4
:1034100067E007F1080107F1C40207F1AC030846B1
:1034200011461A46FEF73AFE0346002B58D04FF0DD
:10343000040387F8C03007F1C003184600F052FFBC
:103440004EE007F1080007F1C40107F1AC0207F1F3
:103450002003FEF755FE44E007F1C40207F17803AC
:103460001046194601F0E4F80346002B0BD107F192
:10347000080107F1C40207F1AC03084611461A46D9
:10348000FEF7DCFD2DE04FF0010387F8C03007F1B7
:10349000C003184600F026FF23E007F1C40207F13D
:1034A00078031046194601F0C3F80346002B0BD1F0
:1034B00007F1080107F1C40207F1AC030846114601
:1034C0001A46FEF7BBFD0CE04FF0020387F8C03050
:1034D00007F1C003184600F005FF02E000BF00E05E
:1034E00000BF40F6C423C2F200031B78002B12D0A9
:1034F00040F6C423C2F200031B78012B0BD040F628
:10350000C423C2F200031B78022B04D007F1080386
:103510001846FEF725FE02F0CDF806464FF00000F3
:1035200002F0DCF805464FF0000001F069FF0446A8
:1035300048F67433C0F60003009348F60C53C0F607
:103540000003019348F64853C0F600030293304647
:1035500048F6C031C0F600012A46234604F04EFA70
:1035600040F6BC03C2F200031A68D7F89830104640
:103570004FF000011A464FF0000303F067FF72E6B8
:10358000F0B5C5B004AF786002F094F80346C7F810
:10359000FC3002F08FF806464FF0000002F09EF873
:1035A00005464FF0000001F02BFF044648F6743347
:1035B000C0F60003009348F66853C0F60003019379
:1035C00048F63C53C0F600030293304648F6C0313B
:1035D000C0F600012A46234604F010FA07F1B003B2
:1035E0001846FDF771FC07F17C03184600F01AFF3E
:1035F00007F17803184600F049FF97F8B030A3F1BF
:1036000002030A2B00F27E8101A252F823F000BFD0
:103610001B3700083937000857370008B53700084E
:10362000F937000837380008A93600085138000873
:103630008B3800083D360008AF380008B7F87A30FC
:1036400023F400639BB2A7F87A3007F17803184699
:1036500000F048FE07F16803184600F083FE07F10A
:103660002803184600F094FE07F10C03184600F0FA
:10367000F5FE07F12003184600F0BEFE07F1EC034B
:10368000184600F0A3FE07F1780007F1680107F182
:10369000EC0207F1280307F10C04009407F1200461
:1036A000019400F019FC3AE197F87830012B27D10A
:1036B00007F1B00303F10403184600F0CFFB034603
:1036C000002B0ED007F1B00303F10403184600F0FD
:1036D0007FFDB7F87A3023F480639BB2A7F87A3085
:1036E00006E0B7F87A3043F480639BB2A7F87A30EB
:1036F000B7F87A3023F400639BB2A7F87A3006E07B
:10370000B7F87A3043F400639BB2A7F87A3007F138
:103710007803184600F0E6FD01E100F0CBFEB7F8B3
:103720007A3023F400639BB2A7F87A3007F178036C
:10373000184600F0D7FDF2E000F0E8FEB7F87A3066
:1037400023F400639BB2A7F87A3007F17803184698
:1037500000F0C8FDE3E097F87830012B1DD107F1A8
:103760006803184600F0FEFD07F1680207F17C03CC
:103770001046194601F03AF94FF0030387F8783004
:10378000B7F87A3023F400639BB2A7F87A3007F1D8
:103790007803184600F0A6FDC1E0B7F87A3043F48C
:1037A00000639BB2A7F87A3007F17803184600F05F
:1037B00099FDB4E097F87830042B10D14FF007034F
:1037C00087F87830B7F87A3023F400639BB2A7F813
:1037D0007A3007F17803184600F084FD9FE0B7F8CF
:1037E0007A3043F400639BB2A7F87A3007F178038C
:1037F000184600F077FD92E097F87830042B10D14E
:103800004FF0050387F87830B7F87A3023F4006377
:103810009BB2A7F87A3007F17803184600F062FDF2
:103820007DE04FF40063A7F87A3007F1780318467B
:1038300000F058FD73E0B7F87A3023F400639BB2D0
:10384000A7F87A3007F17803184600F04BFD66E0E0
:1038500097F87830012B0ED100F068FBB7F87A307A
:1038600023F400639BB2A7F87A3007F17803184677
:1038700000F038FD53E04FF40063A7F87A3007F109
:103880007803184600F02EFD49E007F17C03184646
:1038900000F0FCFAB7F87A3023F400639BB2A7F883
:1038A0007A3007F17803184600F01CFD37E007F185
:1038B000B00303F104031846FEF70CFB0346002B8C
:1038C00013D007F1B00303F10403184600F0ECFB3A
:1038D000B7F87A3023F400639BB2A7F87A3007F187
:1038E0007803184600F0FEFC19E0B7F87A3043F48C
:1038F00000639BB2A7F87A3007F17803184600F00E
:10390000F1FC0CE0B7F87A3043F400639BB2A7F8FF
:103910007A3007F17803184600F0E4FC00BFB7F8EE
:103920007A3003F400639BB2A7F87A30B7F87A30A4
:10393000002B0BD103F008FB01F0BCFE024640F661
:103940000013C2F200039A6003F014FB01F0B2FE10
:1039500006464FF0000001F0C1FE05464FF00000A2
:1039600001F04EFD044648F67433C0F600030093A0
:1039700048F66853C0F60003019348F68053C0F63A
:1039800000030293304648F6C031C0F600012A46D3
:10399000234604F033F8D7F8A43007F1FC021046B0
:1039A000194601F065FCF4E5F0B599B004AF786014
:1039B00001F080FE0346FB6401F07CFE06464FF0FA
:1039C000000001F08BFE05464FF0000001F018FDED
:1039D000044648F67433C0F60003009348F6885353
:1039E000C0F60003019348F63C53C0F6000302936F
:1039F000304648F6C031C0F600012A46234603F09F
:103A0000FDFF07F10C03184601F002F807F1480327
:103A1000184600F03BFD07F10C03184600F02AFAA7
:103A20000346002B0CD007F10C03184600F08CFB6A
:103A3000B7F84A3023F480739BB2A7F84A300BE002
:103A4000B7F84A3043F480739BB2A7F84A3007F1C5
:103A50000C03184600F0D0FC07F14803184600F0AC
:103A600041FC07F11403184600F0DCFC07F10C02DE
:103A700007F114031046194600F03CFE0346002BE4
:103A80002DD001F017FE06464FF0000001F026FE93
:103A900005464FF0000001F0B3FC044648F67433CD
:103AA000C0F60003009348F68853C0F60003019364
:103AB00048F6A453C0F600030293304648F6C031DE
:103AC000C0F600012A46234603F098FF4FF0060394
:103AD00087F8483007F14803184600F003FC01F06E
:103AE000E9FD06464FF0000001F0F8FD05464FF0F5
:103AF000000001F085FC044648F67433C0F600036C
:103B0000009348F68853C0F60003019348F68053AB
:103B1000C0F600030293304648F6C031C0F60001FB
:103B20002A46234603F06AFFFB6A07F14C0210465F
:103B3000194601F09DFB3FE7F0B5A7B004AF7860F0
:103B400001F0B8FD0346C7F8843001F0B3FD064626
:103B50004FF0000001F0C2FD05464FF0000001F0FB
:103B60004FFC044648F67433C0F60003009348F651
:103B7000C453C0F60003019348F63C53C0F600035B
:103B80000293304648F6C031C0F600012A4623466B
:103B900003F034FF07F14403184603F017F907F167
:103BA0000C03184600F09EFB07F14403184603F08F
:103BB0003BF90346002B0AD107F14403184600F0F5
:103BC00025FAFB8923F020039BB2FB8104E0FB89EB
:103BD00043F020039BB2FB8107F10C03184600F071
:103BE00081FB07F11003184600F01CFC01F062FD98
:103BF00006464FF0000001F071FD05464FF0000051
:103C000001F0FEFB044648F67433C0F6000300934F
:103C100048F6C453C0F60003019348F68053C0F63B
:103C200000030293304648F6C031C0F600012A4630
:103C3000234603F0E3FE7B6B07F18402104619462E
:103C400001F016FB81E700BFF0B585B004AF01F0CD
:103C500031FD06464FF0000001F040FD05464FF0F3
:103C6000000001F0CDFB044648F67433C0F60003B3
:103C7000009348F6D853C0F60003019348F6F0537A
:103C8000C0F600030293304648F6C031C0F600018A
:103C90002A46234603F0B2FE01F00CFD06464FF023
:103CA000000001F01BFD05464FF0000001F0A8FBED
:103CB000044648F67433C0F60003009348F6D85320
:103CC000C0F60003019348F60463C0F600030293B4
:103CD000304648F6C031C0F600012A46234603F0BC
:103CE0008DFE30BF07F10407BD46F0BDB0B584B00E
:103CF00004AF40F63C12C2F2000248F62C33C0F684
:103D0000000314461D460FCD0FC40FCD0FC40FCDB9
:103D10000FC42B68236040F6C423C2F200034FF0A7
:103D200000021A7040F6C423C2F200034FF00002F2
:103D30005A8048F67433C0F60003009348F61C63BB
:103D4000C0F60003019348F63463C0F60003029303
:103D50004FF0000048F6C031C0F6000148F66C3262
:103D6000C0F600024FF0000303F048FEBD46B0BDB0
:103D700080B500AF4FF44070FEF7F6FD02F042FC54
:103D800002F098FC80BD00BF80B584B004AF48F657
:103D90007433C0F60003009348F67863C0F600035E
:103DA000019348F68C63C0F6000302934FF00000C5
:103DB00048F67061C0F6000148F66C32C0F60002A9
:103DC0004FF0000303F01AFEBD4680BD80B500AF82
:103DD00002F0B0FFFCF7D8F9FDF72AF8FDF712F969
:103DE000FFF7D2FF80BD00BF80B582B000AF4FF0BB
:103DF0000003FB8002F0C2FF0346002B03D0FB88C8
:103E000043F01003FB80FCF7E5F90346002B03D0D9
:103E1000FB8843F00403FB80FDF72EF80346002BDC
:103E200003D0FB8843F40073FB80FDF761FA03467F
:103E3000002B03D0FB8843F00103FB8000F004FD5E
:103E40000346002B03D0FB8843F08003FB80FB88F4
:103E5000184607F10807BD4680BD00BF80B483B097
:103E600000AF78604FF00103184607F10C07BD461C
:103E700080BC704780B483B000AF78604FF001031E
:103E8000184607F10C07BD4680BC704780B586B068
:103E900004AF786048F67433C0F60003009348F628
:103EA000A063C0F60003019348F68C63C0F60003DC
:103EB00002934FF0000048F67061C0F6000148F62A
:103EC0006C32C0F600024FF0000303F097FD07F1DB
:103ED0000807BD4680BD00BF80B584B000AFF86064
:103EE000B9607A603B60F86800F014FEB86800F0D2
:103EF000C9FEB86900F06EFF386800F053FF7868BB
:103F000000F0FEFEF86900F0F1FF07F11007BD4672
:103F100080BD00BF80B582B000AF7860786800F0E7
:103F2000F9FD07F10807BD4680BD00BF80B500AFB1
:103F300048F62C30C0F6000000F04AF980BD00BF02
:103F400080B483B000AF78607B681B78072B0CD8F7
:103F50004FF0010202FA03F303F0B803002B04D080
:103F60007B684FF006021A7004E07B684FF0020293
:103F70001A7000BF07F10C07BD4680BC704700BF38
:103F8000F0B587B004AF786002F0DEFF40F61013A2
:103F9000C2F200037A6807CA83E8070001F08AFBCF
:103FA00003464FF0320202FB03F240F61013C2F256
:103FB0000003DA6002F0DEFF01F07CFB06464FF002
:103FC000000001F08BFB05464FF0000001F018FAED
:103FD000044648F67433C0F60003009348F6B06315
:103FE000C0F60003019348F6C463C0F600030293D1
:103FF000304648F6C031C0F600012A46234603F099
:10400000FDFC07F10C07BD46F0BD00BFF0B587B061
:1040100004AF786002F098FF40F6C003C2F20003DC
:104020007A681C4615460FCD0FC40FCD0FC40FCDB7
:104030000FC495E8070084E8070001F03BFB034646
:104040004FF0320202FB03F240F6C003C2F200035B
:10405000DA6302F08FFF01F02DFB06464FF00000FF
:1040600001F03CFB05464FF0000001F0C9F90446A1
:1040700048F67433C0F60003009348F6D863C0F6E0
:104080000003019348F6EC63C0F600030293304648
:1040900048F6C031C0F600012A46234603F0AEFCC4
:1040A00007F10C07BD46F0BDF0B587B004AF7860EE
:1040B00002F04AFF40F60013C2F200037A6810686B
:1040C000186001F0F7FA03464FF0320202FB03F2E8
:1040D00040F60013C2F20003DA6001F0EBFA034687
:1040E0004FF0320202FB03F240F60013C2F200036B
:1040F0009A6002F03FFF01F0DDFA06464FF0000043
:1041000001F0ECFA05464FF0000001F079F90446A1
:1041100048F67433C0F60003009348F60073C0F607
:104120000003019348F61473C0F60003029330466F
:1041300048F6C031C0F600012A46234603F05EFC73
:1041400007F10C07BD46F0BDF0B587B004AF78604D
:1041500002F0FAFE7B681A6840F62013C2F20003F0
:104160001A6001F0A7FA03464FF0320202FB03F295
:1041700040F62013C2F200035A6002F0FBFE01F089
:1041800099FA06464FF0000001F0A8FA05464FF0F4
:10419000000001F035F9044648F67433C0F6000318
:1041A000009348F62873C0F60003019348F6407365
:1041B000C0F600030293304648F6C031C0F6000155
:1041C0002A46234603F01AFC07F10C07BD46F0BD52
:1041D000F0B587B004AF786002F0B6FE40F63C134D
:1041E000C2F200037A681C4615460FCD0FC40FCDEE
:1041F0000FC40FCD0FC42B68236002F0BBFE01F08B
:1042000059FA06464FF0000001F068FA05464FF0F3
:10421000000001F0F5F8044648F67433C0F60003D8
:10422000009348F65473C0F60003019348F66C738C
:10423000C0F600030293304648F6C031C0F60001D4
:104240002A46234603F0DAFB07F10C07BD46F0BD12
:10425000F0B587B004AF786002F076FE40F6281320
:10426000C2F200037A681C461346186859689A68B7
:10427000DB680FC401F01EFA03464FF0320202FB66
:1042800003F240F62813C2F200031A6102F072FE34
:1042900001F010FA06464FF0000001F01FFA054643
:1042A0004FF0000001F0ACF8044648F67433C0F655
:1042B0000003009348F68473C0F60003019348F6A8
:1042C000A073C0F600030293304648F6C031C0F632
:1042D00000012A46234603F091FB07F10C07BD4677
:1042E000F0BD00BFF0B587B004AF786002F02CFEDF
:1042F0007B681A7840F6C423C2F200031A707B6808
:104300005A8840F6C423C2F200035A8002F032FEFB
:1043100001F0D0F906464FF0000001F0DFF9054644
:104320004FF0000001F06CF8044648F67433C0F614
:104330000003009348F6B873C0F60003019348F6F3
:10434000D073C0F600030293304648F6C031C0F681
:1043500000012A46234603F051FB07F10C07BD4636
:10436000F0BD00BF90B583B000AF786002F0ECFD07
:104370007A6840F61013C2F2000314460FCB84E8AB
:104380000F0002F0F7FD07F10C07BD4690BD00BF1E
:10439000B0B582B000AF786002F0D6FD7A6840F622
:1043A000C003C2F2000314461D460FCD0FC40FCD4B
:1043B0000FC40FCD0FC495E80F0084E80F0002F082
:1043C000D9FD07F10807BD46B0BD00BF90B583B069
:1043D00000AF786002F0B8FD7A6840F60013C2F2D0
:1043E000000314460FCB84E80F0002F0C3FD07F171
:1043F0000C07BD4690BD00BF80B582B000AF7860AD
:1044000002F0A2FD7A6840F62013C2F2000393E89E
:10441000030082E8030002F0ADFD07F10807BD4686
:1044200080BD00BFB0B582B000AF786002F08CFDF7
:104430007A6840F63C13C2F2000314461D460FCDC5
:104440000FC40FCD0FC40FCD0FC42B68236002F033
:1044500091FD07F10807BD46B0BD00BFB0B582B001
:1044600000AF786002F070FD7A6840F62813C2F25F
:10447000000314461D460FCD0FC42B68236002F0C5
:1044800079FD07F10807BD46B0BD00BF80B582B019
:1044900000AF786002F058FD7A6840F6C423C2F29B
:1044A00000031868106002F065FD07F10807BD46BB
:1044B00080BD00BFF0B585B004AF01F0FBF8064643
:1044C0004FF0000001F00AF905464FF0000000F03F
:1044D00097FF044648F67433C0F60003009348F68D
:1044E000E473C0F60003019348F68C63C0F6000342
:1044F0000293304648F67061C0F600012A46234612
:1045000003F07CFA07F10407BD46F0BDF0B585B0B5
:1045100004AF01F0CFF806464FF0000001F0DEF8DE
:1045200005464FF0000000F06BFF044648F6743378
:10453000C0F60003009348F6F873C0F60003019339
:1045400048F68C63C0F600030293304648F670616B
:10455000C0F600012A46234603F050FA07F104078B
:10456000BD46F0BDF0B587B004AF7860396040F665
:104570001013C2F200031B681A4640F63C13C2F245
:1045800000035B689A4227D201F094F806464FF088
:10459000000001F0A3F805464FF0000000F030FFE6
:1045A000044648F67433C0F60003009349F20C0346
:1045B000C0F60003019349F22003C0F60003029302
:1045C000304648F6C031C0F600012A46234603F0C3
:1045D00015FA4FF0010326E001F06CF806464FF0A3
:1045E000000001F07BF805464FF0000000F008FFE6
:1045F000044648F67433C0F60003009349F20C03F6
:10460000C0F60003019349F24403C0F6000302938D
:10461000304648F6C031C0F600012A46234603F072
:10462000EDF94FF00003184607F10C07BD46F0BD49
:10463000F0B587B004AF7860396001F03BF806460A
:104640004FF0000001F04AF805464FF0000000F07E
:10465000D7FE044648F67433C0F60003009349F2CF
:104660006003C0F60003019348F68C63C0F60003B4
:104670000293304648F67061C0F600012A46234690
:1046800003F0BCF94FF00003184607F10C07BD46D4
:10469000F0BD00BF80B483B000AF78607B689B7BC7
:1046A000002B0CBF00230123DBB2184607F10C07D7
:1046B000BD4680BC704700BF80B584B000AF786055
:1046C000396000F0F7FF02467B681B69D31AFB6074
:1046D0003B6893F82F303A68D26902FB03F2FB681B
:1046E0009A422CBF00230123DBB2184607F11007C2
:1046F000BD4680BD80B483B000AF786039607B6810
:104700001A683B681B699A422CBF00230123DBB265
:10471000184607F10C07BD4680BC704780B584B0D1
:1047200000AF7860396000F0C5FF02467B685B68C7
:10473000D31AFB603B6893F830303A68926902FB09
:1047400003F2FB689A422CBF00230123DBB2184618
:1047500007F11007BD4680BD80B584B000AF78601A
:10476000396000F0A7FF02467B68DB68D31AFB6064
:104770003B6893F82C303A68126A02FB03F2FB683C
:104780009A422CBF00230123DBB2184607F1100721
:10479000BD4680BD80B584B000AF7860396000F060
:1047A00089FF02467B68DB6BD31AFB603B6893F89A
:1047B00031303A68526A02FB03F2FB689A422CBF1E
:1047C00000230123DBB2184607F11007BD4680BD68
:1047D00080B584B000AF7860396000F06BFF0246AE
:1047E0007B689B68D31AFB603B6893F82E303A686D
:1047F000926A02FB03F2FB689A422CBF002301235A
:10480000DBB2184607F11007BD4680BD80B584B005
:1048100000AF7860396000F04DFF02467B68DB68CE
:10482000D31AFB603B6893F82D303A68926A02FB1A
:1048300003F2FB689A422CBF00230123DBB2184627
:1048400007F11007BD4680BD80B584B004AF00F00D
:1048500031FF024648F67433C0F60003009349F274
:104860007403C0F60003019348F68C63C0F600039E
:104870000293104648F67061C0F6000148F66C32AB
:10488000C0F600024FF0000303F0B8F84FF0000349
:104890001846BD4680BD00BF80B584B000AFF8604B
:1048A000B9607A603B60F868F969FFF705FF034675
:1048B000002B0AD03B6A5B8843F001039AB23B6A43
:1048C0005A80386AFFF73CFB06E03B6A5B8823F0BE
:1048D00001039AB23B6A5A80B868F969FFF71EFF74
:1048E0000346002B0AD03B6A5B8843F080039AB2F0
:1048F0003B6A5A80386AFFF723FB06E03B6A5B8815
:1049000023F080039AB23B6A5A807868F969FFF70E
:1049100023FF0346002B0AD03B6A5B8843F0040365
:104920009AB23B6A5A80386AFFF70AFB06E03B6A94
:104930005B8823F004039AB23B6A5A803868F969AD
:10494000FFF728FF0346002B07D03B6A5B8843F044
:1049500010039AB23B6A5A8006E03B6A5B8823F0F8
:1049600010039AB23B6A5A80B869F969FFF730FFC1
:104970000346002B0AD03B6A5B8843F400739AB26B
:104980003B6A5A80386AFFF7DBFA06E03B6A5B88CD
:1049900023F400739AB23B6A5A80B869F969FFF749
:1049A00035FF0346002B12D03B6A5B8843F040037F
:1049B0009AB23B6A5A80BA6948F60023C0F60003EF
:1049C0001B681360BB691846FFF76EFB06E03B6A85
:1049D0005B8823F040039AB23B6A5A80386AFFF73B
:1049E00081FC07F11007BD4680BD00BF80B582B0D5
:1049F00000AF786039607B681B681A463B68DA60F4
:104A00003868FFF7E5FB07F10807BD4680BD00BF2A
:104A1000F0B587B004AF786000F04CFE06464FF06A
:104A2000000000F05BFE05464FF0000000F0E8FCDF
:104A3000044648F67433C0F60003009349F28C0331
:104A4000C0F60003019348F68C63C0F6000302939E
:104A5000304648F67061C0F600012A46234602F04F
:104A6000CDFF07F10C07BD46F0BD00BFB0B584B067
:104A700004AF00F01FFE05464FF0000000F0C0FC40
:104A8000044648F67433C0F60003009349F2A003CD
:104A9000C0F60003019349F2AC03C0F60003029391
:104AA000284648F6C031C0F6000148F66C32C0F620
:104AB0000002234602F0A2FFFDF77EFFBD46B0BD17
:104AC000B0B584B004AF00F0F5FD05464FF000002E
:104AD00000F096FC044648F67433C0F600030093D9
:104AE00049F2B803C0F60003019348F68C63C0F6A0
:104AF00000030293284648F67061C0F6000148F6AC
:104B00006C32C0F60002234602F078FF30BFBD468B
:104B1000B0BD00BF80B582B000AF78607B681B7805
:104B2000072B4BD801A252F823F000BF4D4B0008D1
:104B30005B4B0008694B0008774B0008854B000869
:104B4000934B0008A14B0008AF4B000849F2C80086
:104B5000C0F60000FDF790FE37E049F2F400C0F621
:104B60000000FDF789FE30E049F22410C0F6000095
:104B7000FDF782FE29E049F25410C0F60000FDF76F
:104B80007BFE22E049F28010C0F60000FDF774FEC3
:104B90001BE049F2AC10C0F60000FDF76DFE14E01A
:104BA00049F2DC10C0F60000FDF766FE0DE049F2A8
:104BB0000C20C0F60000FDF75FFE06E049F2382049
:104BC000C0F60000FDF758FE00BF7B685B88002B35
:104BD00006D149F26020C0F60000FDF74DFE4DE021
:104BE00049F28C20C0F60000FDF746FE49F2BC20D9
:104BF000C0F60000FDF740FE49F2EC20C0F60000D0
:104C0000FDF73AFE49F22030C0F60000FDF734FE11
:104C100049F25030C0F60000FDF72EFE49F27C301C
:104C2000C0F60000FDF728FE49F2AC30C0F60000E7
:104C3000FDF722FE49F2DC30C0F60000FDF71CFE55
:104C400049F20C40C0F60000FDF716FE49F23C4068
:104C5000C0F60000FDF710FE49F26C40C0F60000FF
:104C6000FDF70AFE49F29C40C0F60000FDF704FE85
:104C700049F2C840C0F60000FDF7FEFD07F1080745
:104C8000BD4680BD80B582B000AF786049F2F84083
:104C9000C0F60000FDF706FE7B681B6849F2FC4089
:104CA000C0F600001946FDF7E7FD7B689B881BB244
:104CB00049F21050C0F600001946FDF7DDFD7B6893
:104CC000DB881BB249F22450C0F600001946FDF7FC
:104CD000D3FD7B681B891BB249F23850C0F6000037
:104CE0001946FDF7C9FD7B68DB6849F24C50C0F6F8
:104CF00000001946FDF7C0FD07F10807BD4680BD5D
:104D000080B582B000AF786049F2F840C0F600008C
:104D1000FDF7C8FD7B681B785BB249F26050C0F6B6
:104D200000001946FDF7A8FD7B685B785BB249F28D
:104D30007850C0F600001946FDF79EFD7B689B7811
:104D40005BB249F29050C0F600001946FDF794FDA1
:104D50007B68DB785BB249F2A850C0F600001946C8
:104D6000FDF78AFD7B68DB6849F2C050C0F60000A1
:104D70001946FDF781FD7B689B6849F2D850C0F663
:104D800000001946FDF778FD7B681B7949F2F05069
:104D9000C0F600001946FDF76FFD07F10807BD4694
:104DA00080BD00BF80B582B000AF786049F2F840A6
:104DB000C0F60000FDF776FD7B68DB6B49F20C6006
:104DC000C0F600001946FDF757FD07F10807BD467C
:104DD00080BD00BF80B582B000AF786049F2F84076
:104DE000C0F60000FDF75EFD7B689B7B002B06D1C3
:104DF00049F22060C0F60000FDF73EFD29E049F2CF
:104E00004860C0F60000FDF737FD49F27060C0F65B
:104E10000000FDF731FD49F29C60C0F60000FDF78F
:104E20002BFD49F2C860C0F60000FDF725FD49F2F0
:104E3000F060C0F60000FDF71FFD49F21C70C0F6DF
:104E40000000FDF719FD49F24870C0F60000FDF7BB
:104E500013FD7B681B8849F27070C0F6000019468C
:104E6000FDF70AFD7B685B8849F28C70C0F6000094
:104E70001946FDF701FD7B68DB8849F2A870C0F692
:104E800000001946FDF7F8FC7B685B8949F2C470A5
:104E9000C0F600001946FDF7EFFC7B689B8849F2DD
:104EA000E070C0F600001946FDF7E6FC7B681B8940
:104EB00049F2FC70C0F600001946FDF7DDFC7B6886
:104EC0009B8949F61800C0F600001946FDF7D4FC8E
:104ED0007B681B6949F63400C0F600001946FDF7EF
:104EE000CBFC07F10807BD4680BD00BF80B582B08E
:104EF00000AF786049F2F840C0F60000FDF7D2FC40
:104F00007B681B6849F65000C0F600001946FDF7A3
:104F1000B3FC7B685B6849F66800C0F60000194680
:104F2000FDF7AAFC07F10807BD4680BDF0B58DB0BE
:104F300004AFF860B9603B601346FB80FB68002B50
:104F40001ED100F0B7FB024649F69003C0F60003FD
:104F5000009349F6A003C0F60003019349F6B0039D
:104F6000C0F600030293104649F68001C0F6000126
:104F700049F68802C0F600024FF0000302F03EFD41
:104F8000BB6B042B1ED900F095FB024649F690033B
:104F9000C0F60003009349F6A003C0F60003019396
:104FA00049F6CC03C0F600030293104649F680018F
:104FB000C0F6000149F68802C0F600024FF0000377
:104FC00002F01CFDFB881846396C01F035F8B86119
:104FD000BB69002B00F00F81BB691A6BFB8803F1E2
:104FE000FF334FEA8303D3187B617B6923F0070308
:104FF0007B617B6903F00703002B1ED000F05AFB96
:10500000024649F69003C0F60003009349F6A00358
:10501000C0F60003019349F60013C0F600030293A3
:10502000104649F68001C0F6000149F68802C0F634
:1050300000024FF0000302F0E1FCFB880093B86926
:10504000B968BA6B7B6C00F021FF7869F9683A683F
:1050500001F0F6FE0246BB691A60BB691B6803F0EB
:105060000703002B1ED000F025FB024649F69003F3
:10507000C0F60003009349F6A003C0F600030193B5
:1050800049F66813C0F600030293104649F6800102
:10509000C0F6000149F68802C0F600024FF0000396
:1050A00002F0ACFCFB6B002B02D0FB6BBA691A6000
:1050B00001F04AFF40F62023C2F200031B6803F10F
:1050C000010240F62023C2F200031A6040F670137A
:1050D000C2F200031B68002B0FD140F67013C2F21E
:1050E0000003BA691A6040F62023C2F200031B686D
:1050F000012B18D100F00EFF15E040F63023C2F26C
:1051000000031B68002B0ED140F67013C2F200039F
:105110001B68DA6ABB6B9A4205D840F67013C2F27C
:105120000003BA691A60BB69DA6A40F62823C2F242
:1051300000031B689A4206D9BB69DA6A40F6282345
:10514000C2F200031A6040F64423C2F200031B6857
:1051500003F1010240F64423C2F200031A60BB6966
:10516000DA6A40F62C23C2F200031B689A4206D981
:10517000BB69DA6A40F62C23C2F200031A60BB69ED
:10518000DA6A13464FEA83039B184FEA830340F61B
:105190007412C2F200029A18BB6903F104031046AC
:1051A000194601F0A3F94FF00103FB6100F082FA08
:1051B0000646BB6903F13405B86900F021F90446DD
:1051C00049F69003C0F60003009349F6E413C0F6D5
:1051D0000003019349F6F813C0F60003029330462A
:1051E00049F6DC11C0F600012A46234602F006FC0F
:1051F00001F0C0FE21E04FF0FF33FB6100F05AFAEE
:10520000024649F69003C0F60003009349F61423C2
:10521000C0F60003019349F63023C0F60003029361
:10522000104649F68001C0F6000149F68802C0F632
:1052300000024FF0000302F0E1FBFB69012B11D1EA
:1052400040F63023C2F200031B68002B0AD040F660
:105250007013C2F200031B68DA6ABB6B9A4201D278
:1052600001F066FEFB69184607F12407BD46F0BD54
:10527000F0B58BB004AF786039604FF000037B610C
:105280007B68002B1ED100F015FA024649F6900308
:10529000C0F60003009349F6A003C0F60003019393
:1052A00049F64823C0F600030293104649F68001F0
:1052B000C0F6000149F68802C0F600024FF0000374
:1052C00002F09CFB3B68002B1ED100F0F3F9024674
:1052D00049F69003C0F60003009349F6A003C0F618
:1052E0000003019349F66C23C0F6000302931046B5
:1052F00049F68001C0F6000149F68802C0F60002B6
:105300004FF0000302F07AFB00F0F4F87B681A68B3
:105310003B68D3183B617B681A6840F62423C2F2CD
:1053200000031B689A4210D97B681A683B699A424D
:105330001BD940F62423C2F200031B683A699A4243
:1053400013D94FF001037B610FE07B681A683B695A
:105350009A4207D840F62423C2F200031B683A6938
:105360009A4202D94FF001037B617B683A691A6067
:105370007B69002B37D000F09DF9064640F670138C
:10538000C2F200031B6803F1340540F67013C2F249
:1053900000031B68184600F033F8044649F69003F2
:1053A000C0F60003009349F69423C0F6000301936E
:1053B00049F6AC23C0F600030293304649F6DC11EF
:1053C000C0F600012A46234602F018FB40F670138F
:1053D000C2F200031B6803F10403184601F0E8F869
:1053E000386900F0E3FD00F097F8F860FB68002BE7
:1053F00001D101F09DFD07F11C07BD46F0BD00BFC6
:1054000080B584B000AF786001F09EFD7B68002B12
:1054100005D140F67013C2F200031B6800E07B6800
:10542000FB60FB68DB6ABB6001F0A4FDBB6818464B
:1054300007F11007BD4680BD80B586B004AF4FF0C0
:105440000003009340F61C23C2F2000301934FF0C7
:10545000000302934FF00003039345F67960C0F612
:10546000000049F6C421C0F600014FF480724FF0ED
:105470000003FFF75BFD78607B68012B13D14FF0D1
:10548000BF0080F3118840F63023C2F200034FF0D2
:1054900001021A6040F62423C2F200034FF000021A
:1054A0001A6001F01BFD7B68002B1ED100F002F991
:1054B000024649F69003C0F60003009349F6A003A4
:1054C000C0F60003019349F6CC23C0F60003029313
:1054D000104649F68001C0F6000149F68802C0F680
:1054E00000024FF0000302F089FA07F10807BD46F9
:1054F00080BD00BF80B400AF40F63423C2F2000389
:105500001B6803F1010240F63423C2F200031A6063
:10551000BD4680BC704700BF90B587B004AF4FF068
:1055200000037B6040F63423C2F200031B68002BAB
:105530001ED100F0BFF8024649F69003C0F6000302
:10554000009349F6A003C0F60003019349F6E42353
:10555000C0F600030293104649F68001C0F6000130
:1055600049F68802C0F600024FF0000302F046FA46
:1055700001F0EAFC40F63423C2F200031B6803F199
:10558000FF3240F63423C2F200031A6040F634239F
:10559000C2F200031B68002B40F0848040F62023F9
:1055A000C2F200031B68002B7CD04FF000033B606D
:1055B0003BE040F60823C2F20003DB68DC6804F13C
:1055C0001803184600F0F4FF04F10403184600F035
:1055D000EFFFE26A40F62C23C2F200031B689A42F6
:1055E00005D9E26A40F62C23C2F200031A60E26A8F
:1055F00013464FEA83039B184FEA830340F6741265
:10560000C2F200029A1804F104031046194600F091
:105610006DFFE26A40F67013C2F200031B68DB6A9A
:105620009A4202D34FF001033B6040F60823C2F2D6
:1056300000031B68002BBCD140F63823C2F20003E4
:105640001B68002B18D00DE000F082F840F63823DC
:10565000C2F200031B6803F1FF3240F63823C2F2A6
:1056600000031A6040F63823C2F200031B68002BC7
:10567000EAD14FF001033B603B68012B06D040F6B6
:105680003C23C2F200031B68012B0BD14FF0010336
:105690007B6040F63C23C2F200034FF000021A6028
:1056A00001F046FC01F066FC7B68184607F10C0728
:1056B000BD4690BD80B582B000AF01F045FC40F61C
:1056C0002423C2F200031B687B6001F053FC7B685B
:1056D000184607F10807BD4680BD00BF80B588B0F9
:1056E00004AF78607B68002B05D140F67013C2F2DE
:1056F00000031B6800E07B68FB60FB68002B1ED189
:10570000FFF7D8FF024649F69003C0F60003009366
:1057100049F6A003C0F60003019349F60833C0F62A
:1057200000030293104649F68001C0F6000149F6D5
:105730008802C0F600024FF0000302F05FF9FB6838
:1057400003F13403184607F11007BD4680BD00BFC2
:1057500080B588B004AF40F63423C2F200031B6862
:10576000002B40F0E68040F62423C2F200031B68C1
:1057700003F1010240F62423C2F200031A6040F64E
:105780002423C2F200031B68002B67D140F60023DC
:10579000C2F200031B681B68002B1ED0FFF78AFFB4
:1057A000024649F69003C0F60003009349F6A003B1
:1057B000C0F60003019349F64C33C0F60003029390
:1057C000104649F68001C0F6000149F68802C0F68D
:1057D00000024FF0000302F011F940F60023C2F27C
:1057E00000031B68FB6040F60423C2F200031A6842
:1057F00040F60023C2F200031A6040F60423C2F20E
:105800000003FA681A6040F64023C2F200031B68E6
:1058100003F1010240F64023C2F200031A6040F691
:105820000023C2F200031B681B68002B07D140F263
:105830004043C2F200034FF0FF321A600EE040F620
:105840000023C2F200031B68DB68DB68BB60BB6837
:105850005A6840F24043C2F200031A6040F6242323
:10586000C2F200031A6840F24043C2F200031B6810
:105870009A426AD340F60023C2F200031B681B68F9
:10588000002B07D140F24043C2F200034FF0FF3239
:105890001A605AE040F60023C2F200031B68DB687E
:1058A000DB68BB60BB685B687B6040F62423C2F2A8
:1058B00000031A687B689A4206D240F24043C2F263
:1058C00000037A681A6040E0BB6803F104031846DD
:1058D00000F06EFEBB689B6A002B05D0BB6803F12D
:1058E0001803184600F064FEBB68DA6A40F62C2301
:1058F000C2F200031B689A4206D9BB68DA6A40F616
:105900002C23C2F200031A60BB68DA6A13464FEA1E
:1059100083039B184FEA830340F67412C2F200021D
:105920009A18BB6803F104031046194600F0DEFD27
:10593000A0E740F63823C2F200031B6803F101021E
:1059400040F63823C2F200031A6007F11007BD4683
:1059500080BD00BFF0B587B004AF40F63423C2F27B
:1059600000031B68002B07D040F63C23C2F2000363
:105970004FF001021A60DAE0FFF79CFE064640F69F
:105980007013C2F200031B6803F1340540F6701374
:10599000C2F200031B681846FFF732FD044649F6C1
:1059A0009003C0F60003009349F68833C0F6000365
:1059B000019349F6A433C0F600030293304649F63A
:1059C000DC11C0F600012A46234602F017F840F623
:1059D0007013C2F200031A68516C40F67C23C2F2C5
:1059E00000031B687868C31ACB18536440F67C2305
:1059F000C2F200037A681A6031E040F62C23C2F24A
:105A000000031B68002B1ED1FFF754FE024649F627
:105A10009003C0F60003009349F6A003C0F600030C
:105A2000019349F6C833C0F600030293104649F6C5
:105A30008001C0F6000149F68802C0F600024FF06E
:105A4000000301F0DBFF40F62C23C2F200031B68C9
:105A500003F1FF3240F62C23C2F200031A6040F635
:105A60002C23C2F20003196840F67412C2F200023D
:105A70000B464FEA83035B184FEA8303D3181B6876
:105A8000002BBAD040F62C23C2F200031A6813464A
:105A90004FEA83039B184FEA830340F67412C2F265
:105AA00000029B183B603B685B685A683B685A6021
:105AB0003B685A683B6803F108039A4204D13B688B
:105AC0005B685A683B685A603B685B68DA6840F616
:105AD0007013C2F200031A60FFF7ECFD064640F6B1
