:020000040800F2
:1000000088120020E90F000865100008C759000891
:100010006510000865100008651000080000000069
:10002000000000000000000000000000CD6000089B
:100030006510000800000000D16100082962000876
:1000400065100008651000086510000865100008BC
:1000500065100008651000086510000865100008AC
:10006000651000086510000865100008651000089C
:10007000651000086510000865100008651000088C
:10008000651000086510000865100008651000087C
:10009000651000086510000865100008651000086C
:1000A000651000086510000865100008651000085C
:1000B000651000086510000865100008651000084C
:1000C000651000086510000865100008651000083C
:1000D000651000086510000865100008651000082C
:1000E000651000086510000865100008651000081C
:1000F000651000086510000865100008651000080C
:1001000065100008651000086510000865100008FB
:1001100065100008651000086510000865100008EB
:1001200065100008651000086510000865100008DB
:1001300065100008651000086510000865100008CB
:1001400065100008651000086510000865100008BB
:1001500065100008651000086510000865100008AB
:10016000651000086510000865100008651000089B
:10017000651000086510000865100008651000088B
:10018000651000086510000880B584B004AF04F065
:1001900039FD024647F2FC73C0F60003009347F6B0
:1001A0000C03C0F60003019347F61803C0F60003E2
:1001B0000293104647F2F071C0F6000147F2F87260
:1001C000C0F600024FF0000306F02AFD00F01EF911
:1001D000BD4680BD80B584B004AF04F013FD024677
:1001E00047F2FC73C0F60003009347F64403C0F6E1
:1001F0000003019347F65403C0F600030293104630
:1002000047F63C01C0F6000147F2F872C0F6000262
:100210004FF0000306F004FD4FF000031846BD4602
:1002200080BD00BFF0B597B004AF786004F0EAFC81
:1002300006464FF0000004F0F9FC05464FF00000C0
:1002400004F086FB044647F2FC73C0F600030093FB
:1002500047F67403C0F60003019347F68403C0F623
:1002600000030293304647F2F071C0F600012A46BF
:10027000234606F0D5FC07F10C03184600F036F9CA
:1002800007F10C031846796800F07EF907F14C0776
:10029000BD46F0BDF0B589B004AF78604FF0000303
:1002A000FB73786800F060F803461C46786800F03D
:1002B00071F803462343DAB2FB7B1343FB73FB7BEA
:1002C000002B25D104F09EFC06464FF0000004F000
:1002D000ADFC05464FF0000004F03AFB044647F23F
:1002E000FC73C0F60003009347F6A003C0F60003BA
:1002F000019347F6B003C0F600030293304647F27D
:10030000F071C0F600012A46234606F089FC24E07D
:1003100004F078FC06464FF0000004F087FC054628
:100320004FF0000004F014FB044647F2FC73C0F6E3
:100330000003009347F6A003C0F60003019347F6BD
:10034000D803C0F600030293304647F6D001C0F64A
:1003500000012A46234606F063FCFB7B184607F1A2
:100360001407BD46F0BD00BF80B485B000AF786013
:100370004FF00003FB737B681B68002B02DA4FF021
:100380000103FB73FB7B184607F11407BD4680BCD5
:10039000704700BF80B485B000AF78604FF00003B5
:1003A000FB737B689B881BB2B42B05DC7B689B8846
:1003B0001BB213F1B40F03DAFB7B43F00203FB73B0
:1003C0007B68DB881BB2B42B05DC7B68DB881BB247
:1003D00013F1B40F03DAFB7B43F00403FB737B6878
:1003E0001B891BB2B42B05DC7B681B891BB213F184
:1003F000B40F03DAFB7B43F00803FB73FB7B184667
:1004000007F11407BD4680BC704700BF80B586B0B9
:1004100000AF4FF008004FF0010100F00DFF4FF466
:1004200080204FF0010100F031FF4FF44060C4F232
:1004300002004FF008014FF0070205F065FA4FF097
:100440000003BB754FF00103FB754FF002033B75D2
:100450004FF002037B7507F110034FF44060C4F2C4
:100460000200194605F0AEF94FF44060C4F20200F4
:100470004FF009014FF0070205F046FA4FF0020372
:100480003B754FF002037B754FF400733B6107F13E
:1004900010034FF44060C4F20200194605F092F9CF
:1004A0004FF4E1333B604FF00003BB804FF000039B
:1004B000FB804FF000033B814FF00003BB814FF006
:1004C00004037B813B464FF49040C4F20000194680
:1004D00000F010FA4FF49040C4F200004FF0010118
:1004E00000F0DEFA07F11807BD4680BD90B585B073
:1004F00000AF78604FF00003FB7338E000BF4FF4AB
:100500009040C4F200004FF0200100F00FFB0346C2
:10051000002BF4D0FB7B002B18D04FF49040C4F29A
:10052000000000F0F1FA0346522B0FD14FF0000308
:10053000FB73FB7B4FEA43037A68D4184FF4904077
:10054000C4F2000000F0E0FA03462380FB7B4FEA90
:1005500043037A68D4184FF49040C4F2000000F0CE
:10056000D3FA03462380FB7B03F10103FB73FB7B80
:100570004FEA43037A68D3181B88532BBED107F187
:100580001407BD4690BD00BF80B485B000AF786051
:1005900039604FF00003FB733B684FF000029A8014
:1005A0003B684FF00002DA803B684FF000021A818E
:1005B0003B684FF000021A604FF00003FB73FB7BB7
:1005C0004FEA43037A68D3181B88522B40F08D8181
:1005D000FB7B03F10103FB73FB7B4FEA43037A6868
:1005E000D3181B882D2B4FD1FB7B03F10103FB7329
:1005F0001BE03B689B889BB21A464FEA8202D318E5
:100600004FEA43039AB2FB7B4FEA43037968CB1866
:100610001B88D3189BB2A3F130039BB29AB23B68FC
:100620009A80FB7B03F10103FB73FB7B4FEA4303DF
:100630007A68D3181B88502BDBD13B689B889BB210
:10064000C3F100039BB29AB23B689A8025E03B68F5
:100650009B889BB21A464FEA8202D3184FEA4303A3
:100660009AB2FB7B4FEA43037968CB181B88D318F7
:100670009BB2A3F130039BB29AB23B689A80FB7B9A
:1006800003F10103FB7300E000BFFB7B4FEA430370
:100690007A68D3181B88502BD9D1FB7B03F1010357
:1006A000FB73FB7B4FEA43037A68D3181B882D2B1F
:1006B0004FD1FB7B03F10103FB731BE03B68DB883D
:1006C0009BB21A464FEA8202D3184FEA43039AB20A
:1006D000FB7B4FEA43037968CB181B88D3189BB286
:1006E000A3F130039BB29AB23B68DA80FB7B03F143
:1006F0000103FB73FB7B4FEA43037A68D3181B8823
:10070000592BDBD13B68DB889BB2C3F100039BB262
:100710009AB23B68DA8025E03B68DB889BB21A46D8
:100720004FEA8202D3184FEA43039AB2FB7B4FEAA7
:1007300043037968CB181B88D3189BB2A3F130030D
:100740009BB29AB23B68DA80FB7B03F10103FB7337
:1007500000E000BFFB7B4FEA43037A68D3181B8895
:10076000592BD9D1FB7B03F10103FB73FB7B4FEAD0
:1007700043037A68D3181B882D2B4FD1FB7B03F1E1
:100780000103FB731BE03B681B899BB21A464FEACF
:100790008202D3184FEA43039AB2FB7B4FEA43032A
:1007A0007968CB181B88D3189BB2A3F130039BB296
:1007B0009AB23B681A81FB7B03F10103FB73FB7B5D
:1007C0004FEA43037A68D3181B88412BDBD13B687F
:1007D0001B899BB2C3F100039BB29AB23B681A819A
:1007E00025E03B681B899BB21A464FEA8202D31868
:1007F0004FEA43039AB2FB7B4FEA43037968CB1875
:100800001B88D3189BB2A3F130039BB29AB23B680A
:100810001A81FB7B03F10103FB7300E000BFFB7B4C
:100820004FEA43037A68D3181B88412BD9D1FB7B4D
:1008300003F10103FB73FB7B4FEA43037A68D31890
:100840001B882D2B48D1FB7B03F10103FB7319E0BF
:100850003B681A6813464FEA83039B184FEA430329
:100860001A46FB7B4FEA43037968CB181B889BB27F
:100870001BB2D318A3F130023B681A60FB7B03F173
:100880000103FB73FB7B4FEA43037A68D3181B8891
:10089000532BDDD13B681B68C3F100023B681A6033
:1008A00023E03B681A6813464FEA83039B184FEA1C
:1008B00043031A46FB7B4FEA43037968CB181B8836
:1008C0009BB21BB2D318A3F130023B681A60FB7BCA
:1008D00003F10103FB7300E000BFFB7B4FEA43031E
:1008E0007A68D3181B88532BDBD107F11407BD4658
:1008F00080BC704780B58AB000AF786039604FF037
:1009000000037B624FF000033B624FF00003FB618A
:100910004FF00003BB617B681B8A9BB27B627B6AE2
:1009200023F440537B623B68DB887A6A13437B6223
:100930007B6A9AB27B681A827B689B899BB27B62D6
:100940007B6A23F4B05323F00C037B623B689A88E4
:100950003B681B8913439AB23B685B8913439BB284
:100960007A6A13437B627B6A9AB27B689A817B685E
:100970009B8A9BB27B627B6A23F440737B623B68F9
:100980009B897A6A13437B627B6A9AB27B689A82FC
:1009900007F10803184600F069FB7A684FF48053AA
:1009A000C4F201039A4206D07A684FF4A053C4F20D
:1009B00001039A4202D17B693B6201E03B693B62E1
:1009C0007B689B899BB29BB21BB2002B0FDA3A6A01
:1009D00013464FEA83039B184FEA83029A183B6839
:1009E0001B684FEA4303B2FBF3F3FB610EE03A6A84
:1009F00013464FEA83039B184FEA83029A183B6819
:100A00001B684FEA8303B2FBF3F3FB61FA6948F218
:100A10001F53C5F2EB13A3FB02134FEA53134FEA24
:100A200003137B627B6A4FEA13134FF0640202FBED
:100A300003F3FA69D31ABB617B689B899BB29BB2B3
:100A40001BB2002B12DABB694FEAC30303F1320277
:100A500048F21F53C5F2EB13A3FB02134FEA5313E3
:100A600003F007037A6A13437B6211E0BB694FEA24
:100A7000031303F1320248F21F53C5F2EB13A3FB39
:100A800002134FEA531303F00F037A6A13437B6296
:100A90007B6A9AB27B681A8107F12807BD4680BD40
:100AA00080B483B000AF78600B46FB70FB78002BFE
:100AB00008D07B689B899BB243F400539AB27B6851
:100AC0009A8107E07B689B899BB223F400539AB21A
:100AD0007B689A8107F10C07BD4680BC704700BF58
:100AE00080B483B000AF78600B467B807B884FEA90
:100AF000C3534FEAD3539AB27B689A8007F10C072D
:100B0000BD4680BC704700BF80B483B000AF786042
:100B10007B689B889BB24FEAC3534FEAD3539BB287
:100B2000184607F10C07BD4680BC704780B485B0FD
:100B300000AF78600B467B804FF00003FB737B684F
:100B40001B889AB27B8813409BB2002B03D04FF0D6
:100B50000103FB7302E04FF00003FB73FB7B1846BD
:100B600007F11407BD4680BC704700BF80B584B054
:100B700004AF04F047F8024647F60813C0F6000336
:100B8000009347F61813C0F60003019347F62813A5
:100B9000C0F600030293104647F6FC01C0F60001C0
:100BA00047F60412C0F600024FF0000306F038F8D2
:100BB000BD4680BD80B584B004AF04F023F8024682
:100BC00047F60813C0F60003009347F63C13C0F63F
:100BD0000003019347F62813C0F600030293104662
:100BE00047F6FC01C0F6000147F60412C0F6000209
:100BF0004FF0000306F014F84FF000031846BD460E
:100C000080BD00BFF0B587B004AF786003F0FAFF95
:100C100006464FF0000004F009F805464FF00000CA
:100C200003F096FE044647F60813C0F6000300934F
:100C300047F67013C0F60003019347F62813C0F679
:100C400000030293304647F6FC01C0F600012A4635
:100C5000234605F0E5FF07F10C07BD46F0BD00BFD8
:100C6000F0B589B004AF78604FF4FA73FB814FF0B0
:100C70003203BB817B681B881A46FB8903F59C53B2
:100C800003F108039A4207DC7B681B881A46BB897C
:100C900003F596739A4227DA03F0B4FF06464FF045
:100CA000000003F0C3FF05464FF0000003F050FEC4
:100CB000044647F68C13C0F60003009347F69C13D6
:100CC000C0F60003019347F6B413C0F60003029385
:100CD000304647F68411C0F600012A46234605F047
:100CE0009FFF4FF0000326E003F08CFF06464FF015
:100CF000000003F09BFF05464FF0000003F028FEC4
:100D0000044647F68C13C0F60003009347F69C1385
:100D1000C0F60003019347F6DC13C0F6000302930C
:100D2000304647F6D411C0F600012A46234605F0A6
:100D300077FF4FF00103184607F11407BD46F0BDD9
:100D400080B584B004AF03F05DFF024647F68C1314
:100D5000C0F60003009347F60023C0F6000301939A
:100D600047F61423C0F600030293104647F6F41129
:100D7000C0F6000147F6FC12C0F600024FF0000377
:100D800005F04EFFBD4680BD80B584B004AF03F0D2
:100D900039FF024647F68C13C0F60003009347F66E
:100DA0002823C0F60003019347F61423C0F600037E
:100DB0000293104647F6F411C0F6000147F6FC1204
:100DC000C0F600024FF0000305F02AFF4FF00003C9
:100DD0001846BD4680BD00BFF0B587B004AF0346DE
:100DE000FB7103F00FFF06464FF0000003F01EFFFB
:100DF00005464FF0000003F0ABFD044647F68C13A8
:100E0000C0F60003009347F65423C0F60003019395
:100E100047F61423C0F600030293304647F6F41158
:100E2000C0F600012A46234605F0FAFE4FF0000303
:100E3000184607F10C07BD46F0BD00BFF0B587B0FE
:100E400004AF78607B681846FFF70AFF0346002B63
:100E50005DD07B6803F102031846FFF701FF0346EC
:100E6000002B54D07B6803F104031846FFF7F8FE0B
:100E70000346002B4BD07B6803F106031846FFF7AF
:100E8000EFFE0346002B42D07B6803F108031846AF
:100E9000FFF7E6FE0346002B39D07B6803F10A0317
:100EA0001846FFF7DDFE0346002B30D07B6803F1C8
:100EB0000C031846FFF7D4FE0346002B27D003F09F
:100EC000A1FE06464FF0000003F0B0FE05464FF0CD
:100ED000000003F03DFD044647F68C13C0F6000306
:100EE000009347F6B423C0F60003019347F6CC23E2
:100EF000C0F600030293304647F6D411C0F6000155
:100F00002A46234605F08CFE4FF0010326E003F04D
:100F100079FE06464FF0000003F088FE05464FF0CC
:100F2000000003F015FD044647F68C13C0F60003DD
:100F3000009347F6B423C0F60003019347F6DC2381
:100F4000C0F600030293304647F68411C0F6000154
:100F50002A46234605F064FE4FF00003184607F1C9
:100F60000C07BD46F0BD00BF80B582B000AF786011
:100F70004FF00100FFF730FF03461A467B681A80E6
:100F80004FF00200FFF728FF03461A467B685A809D
:100F90004FF00400FFF720FF03461A467B689A8053
:100FA0004FF00800FFF718FF03461A467B68DA8007
:100FB0004FF01000FFF710FF03461A467B681A81B6
:100FC0004FF02000FFF708FF03461A467B685A815E
:100FD0004FF04000FFF700FF03461A467B689A81F6
:100FE00007F10807BD4680BD80B582B000AF48F666
:100FF0003463C0F600037B6040F20003C2F20003DA
:101000003B600BE07B681A683B681A603B6803F141
:1010100004033B607B6803F104037B603A6840F69D
:101020006C03C2F200039A42ECD30B480B494FF019
:1010300000028842B8BF40F8042BFFF6FAAFDFF891
:101040002000016841F47001016000F0FDFE07F12D
:101050000807BD4680BD00006C080020840A0020FF
:1010600088ED00E080B400AFFEE700BF80B489B037
:1010700000AF78604FF00003BB614FF000037B616D
:101080004FF00003FB614FF002033B614FF00003A0
:10109000FB604FF00203BB604FF46053C4F20203E5
:1010A0009B6803F00C03BB61BB69042B0AD0082BBF
:1010B0000FD0002B60D17A684FF41053C0F2F403C4
:1010C000136060E07A684FF49053C0F27A031360C3
:1010D00059E04FF46053C4F202035B6803F48003E9
:1010E0004FEA9353FB604FF46053C4F202035B6812
:1010F00003F03F03BB60FB68002B14D04FF4905308
:10110000C0F27A03BA68B3FBF2F24FF46053C4F250
:101110000203596847F6C0730B404FEA931303FB71
:1011200002F3FB6113E04FF41053C0F2F403BA680A
:10113000B3FBF2F24FF46053C4F20203596847F66E
:10114000C0730B404FEA931303FB02F3FB614FF4B0
:101150006053C4F202035B6803F440334FEA134365
:1011600003F101034FEA43033B61FA693B69B2FBB8
:10117000F3F27B681A6006E07A684FF41053C0F20D
:10118000F403136000BF4FF46053C4F202039B6882
:1011900003F0F003BB61BB694FEA1313BB6140F27C
:1011A0000003C2F20003BA699B181B78DBB27B61B3
:1011B0007B681A687B6922FA03F27B685A604FF4F5
:1011C0006053C4F202039B6803F4E053BB61BB6944
:1011D0004FEA9323BB6140F20003C2F20003BA69F5
:1011E0009B181B78DBB27B617B685A687B6922FAAB
:1011F00003F27B689A604FF46053C4F202039B6869
:1012000003F46043BB61BB694FEA5333BB6140F2F7
:101210000003C2F20003BA699B181B78DBB27B6142
:101220007B685A687B6922FA03F27B68DA6007F10F
:101230002407BD4680BC704780B483B000AF78609F
:101240000B46FB70FB78002B0CD04FF46053C4F2BC
:1012500002034FF46052C4F20202116B7A680A432F
:101260001A630DE04FF46053C4F202034FF460526E
:10127000C4F20202116B7A686FEA02020A401A6332
:1012800007F10C07BD4680BC704700BF80B483B037
:1012900000AF78600B46FB70FB78002B0CD04FF44E
:1012A0006053C4F202034FF46052C4F20202116CA4
:1012B0007A680A431A640DE04FF46053C4F20203E3
:1012C0004FF46052C4F20202116C7A686FEA0202B3
:1012D0000A401A6407F10C07BD4680BC704700BF86
:1012E00080B483B000AF78600B46FB70FB78002BB6
:1012F0000CD04FF46053C4F202034FF46052C4F2B6
:101300000202516C7A680A435A640DE04FF460534C
:10131000C4F202034FF46052C4F20202516C7A68C4
:101320006FEA02020A405A6407F10C07BD4680BC0E
:10133000704700BFF0B587B004AF78607B681B785A
:101340005BB213F1020F4DDB7B681B785BB2022BA3
:1013500048DC7B685B785BB213F1020F42DB7B6891
:101360005B785BB2022B3DDC7B689B785BB213F150
:10137000020F37DB7B689B785BB2022B32DC7B6829
:10138000DB785BB213F1020F2CDB7B68DB785BB29E
:10139000022B27DC03F036FC06464FF0000003F07A
:1013A00045FC05464FF0000003F0D2FA044647F62C
:1013B0001433C0F60003009347F62433C0F600034D
:1013C000019347F63833C0F600030293304647F6E0
:1013D0000C31C0F600012A46234605F021FC4FF0EF
:1013E000010326E003F00EFC06464FF0000003F078
:1013F0001DFC05464FF0000003F0AAFA044647F62C
:101400001433C0F60003009347F62433C0F60003FC
:10141000019347F66433C0F600030293304647F663
:101420005C31C0F600012A46234605F0F9FB4FF077
:101430000003184607F10C07BD46F0BDF0B589B0B2
:1014400004AFF860B9607A603B6003F0DBFB0646EE
:101450004FF0000003F0EAFB05464FF0000003F0F8
:1014600077FA044647F61433C0F60003009347F6B4
:101470009433C0F60003019347F6A833C0F6000387
:101480000293304647F68C31C0F600012A462346C7
:1014900005F0C6FB07F11407BD46F0BDF0B589B0F5
:1014A00004AFF860B9607A6003F0ACFB06464FF019
:1014B000000003F0BBFB05464FF0000003F048FAC4
:1014C000044647F61433C0F60003009347F6BC33D6
:1014D000C0F60003019347F6A833C0F60003029359
:1014E000304647F68C31C0F600012A46234605F007
:1014F00097FB07F11407BD46F0BD00BFF0B589B0FA
:1015000004AFF860B9607A6003F07CFB06464FF0E8
:10151000000003F08BFB05464FF0000003F018FAC3
:10152000044647F61433C0F60003009347F6D03361
:10153000C0F60003019347F6A833C0F600030293F8
:10154000304647F68C31C0F600012A46234605F0A6
:1015500067FB4FF00003184607F11407BD46F0BDC6
:10156000F0B589B004AFF860B9607A603B6003F011
:1015700049FB06464FF0000003F058FB05464FF0CC
:10158000000003F0E5F9044647F61433C0F6000303
:10159000009347F6E833C0F60003019347F6A833FB
:1015A000C0F600030293304647F68C31C0F60001C6
:1015B0002A46234605F034FB07F11407BD46F0BD6B
:1015C000F0B587B004AF786003F01CFB06464FF01F
:1015D000000003F02BFB05464FF0000003F0B8F9C4
:1015E000044647F61433C0F60003009347F6FC3375
:1015F000C0F60003019347F6A833C0F60003029338
:10160000304647F68C31C0F600012A46234605F0E5
:1016100007FB07F10C07BD46F0BD00BF80B582B0E7
:1016200000AF0346FB71FB79184605F019FB07F183
:101630000807BD4680BD00BF80B483B000AF7860AE
:101640000B46FB707B68FA781A704FF0010318465E
:1016500007F10C07BD4680BC704700BF80B485B061
:1016600000AF786039604FF00003FB600FE03B682B
:101670001A787B681A707B6803F101037B603B6812
:1016800003F101033B60FB6803F10103FB603B686E
:101690001B78002BEBD1FB68184607F11407BD46F9
:1016A00080BC704780B586B000AFF8607A603B6060
:1016B0000B46FB724FF000037B617B6803F1FF3345
:1016C0007B603B68092B25D93A684CF6CD43CCF6B4
:1016D000CC43A3FB02134FEAD303FA7AF86811460E
:1016E0007A68FFF7DFFF78617B69FA68D318FB60DF
:1016F00013E0FB7AF8681946FFF79EFFFB6803F1D9
:101700000103FB607B6903F101037B617B6803F1EB
:10171000FF337B607B68002BEBDC39684CF6CD43F4
:10172000CCF6CC43A3FB01234FEAD30213464FEA86
:1017300083039B184FEA4303CA1AD3B203F1300361
:10174000DBB2F8681946FFF777FF03467A69D318CA
:101750007B617B69184607F11807BD4680BD00BF55
:1017600080B586B000AFF8607A603B600B46FB72D4
:101770004FF000037B613B68002B04DA3B68C3F148
:1017800000033B6101E03B683B617B6803F1FF3391
:101790007B603B69092B2AD93B68002B12DA3A6936
:1017A0004CF6CD43CCF6CC43A3FB02134FEAD30354
:1017B000C3F10003FA7AF86811467A68FFF7D0FFA0
:1017C00078610FE03A694CF6CD43CCF6CC43A3FBED
:1017D00002134FEAD303FA7AF86811467A68FFF7E2
:1017E000BFFF78617B69FA68D318FB602BE03B6828
:1017F000002B15DA7B6803F1FF337B6010E0FB7A86
:10180000F8681946FFF718FFFB6803F10103FB6056
:101810007B6903F101037B617B6803F1FF337B602C
:101820007B68002BEBDC3B68002B0CDAF8684FF090
:101830002D01FFF701FF03467A69D3187B61FB682E
:1018400003F10103FB6039694CF6CD43CCF6CC4380
:10185000A3FB01234FEAD30213464FEA83039B18ED
:101860004FEA4303CA1AD3B203F13003DBB2F8687C
:101870001946FFF7E1FE03467A69D3187B617B695D
:10188000184607F11807BD4680BD00BF80B588B077
:1018900002AFF8607A600A46FA72BB724FF000033A
:1018A0007B617B6803F1FF337B603B6A4FEA131374
:1018B000002B24D03B6A4FEA1311FA7ABB7A0091CD
:1018C000F86811467A68FFF7E1FF03467A69D31892
:1018D0007B617B69FA68D318FB6013E0FB7AF868D8
:1018E0001946FFF7A9FEFB6803F10103FB607B6962
:1018F00003F101037B617B6803F1FF337B607B684D
:10190000002BEBDC3B6A03F00F03092B0CD83B6A7E
:10191000DBB203F00F03DBB203F13003DBB2F86894
:101920001946FFF789FE1BE0BB7A002B0CD03B6AFF
:10193000DBB203F00F03DBB203F13703DBB2F8686D
:101940001946FFF779FE0BE03B6ADBB203F00F03A9
:10195000DBB203F15703DBB2F8681946FFF76CFE00
:101960007B6903F101037B617B69184607F1180766
:10197000BD4680BD80B58AB002AFF860B9607A60BC
:101980003B604FF00003BB614FF000037B61FB68DD
:10199000002B00F01C81FB684FF000021A7016E16A
:1019A0007B681B78252B10D07B681A78FB681A702F
:1019B000FB6803F10103FB607B6803F101037B60BB
:1019C0007B6903F101037B6102E17B6803F10103A1
:1019D0001B78252B10D1FB684FF025021A70FB688D
:1019E00003F10103FB607B6803F102037B607B6909
:1019F00003F101037B61EBE04FF02003FB774FF035
:101A00000003BB777B6803F101037B607B681B7875
:101A1000302B1BD14FF03003FB777B6803F10103C0
:101A20007B6013E0BB7F1A464FEA8202D3184FEA6D
:101A30004303DAB27B681B78D318DBB2A3F130031F
:101A4000BB777B6803F101037B6000E000BF7B682C
:101A50001B782F2B03D97B681B78392BE2D9BA7FEF
:101A60007B69D3181A46BB689A4205D9BB68DAB2BB
:101A70007B69DBB2D31ABB777B681B78A3F1580371
:101A8000202B00F2948001A252F823F0611B000881
:101A9000AF1B0008AF1B0008AF1B0008AF1B0008FE
:101AA000AF1B0008AF1B0008AF1B0008AF1B0008EE
:101AB000AF1B0008AF1B0008971B0008111B000894
:101AC000AF1B0008AF1B0008AF1B0008AF1B0008CE
:101AD000111B0008AF1B0008AF1B0008AF1B00085C
:101AE000AF1B0008AF1B0008AF1B0008AF1B0008AE
:101AF000AF1B0008AF1B0008811B0008AF1B0008CC
:101B0000291B0008AF1B0008AF1B0008411B000881
:101B1000BA7F3B6803F1040139601B68F97FF868FC
:101B2000FFF71EFEB86145E0BA7F3B6803F1040190
:101B300039601B68F97FF868FFF7B4FDB86139E0D8
:101B4000BA7F3B6803F1040139601968FB7F00919B
:101B5000F86819464FF00003FFF798FEB86129E0D6
:101B6000BA7F3B6803F1040139601968FB7F00917B
:101B7000F86819464FF00103FFF788FEB86119E0D5
:101B80003B6803F104023A601B68F8681946FFF7E6
:101B900065FDB8610EE03B6803F104023A601B6822
:101BA000DBB2F8681946FFF747FDB86102E04FF075
:101BB000FF332CE07B6803F101037B60BB69FA68AB
:101BC000D318FB607A69BB69D3187B6100E000BF62
:101BD0007B681B78002B04D07A69BB689A42FFF4BB
:101BE000DFAE7A69BB689A4204D2FB684FF000020C
:101BF0001A700BE0FB6803F1FF33FB60FB684FF0EA
:101C000000021A707B6903F1FF337B617B69184620
:101C100007F12007BD4680BD80B584B000AFF860F5
:101C2000B9607A60F8684FF0C801BA687B68FFF75E
:101C3000A1FE0346184607F11007BD4680BD00BF50
:101C4000B0B5C0B000AFF860B9607A6047F6104335
:101C5000C0F6000307F114041D460FCD0FC40FCDCD
:101C60000FC42B68236007F138031846B9687A68F7
:101C7000FFF7D2FF0346C72B0CDD40F23843C2F218
:101C800000031B68DB6807F114021046194600F0D8
:101C900073F8FEE707F138031846F96800F06CF8AE
:101CA0000346184607F58077BD46B0BD80B582B0C3
:101CB00000AF7860396040F23843C2F200031B681D
:101CC0009B68184679683A68FFF7BAFF03461846DA
:101CD00007F10807BD4680BD0FB480B582B000AFE4
:101CE00007F114033B6038693968FFF7DFFF78605C
:101CF0007B68184607F10807BD46BDE8804004B080
:101D0000704700BF80B582B000AF786040F23843C2
:101D1000C2F200031B689B687868194600F02CF833
:101D20000346184607F10807BD4680BD80B582B05E
:101D300000AF7860396040F23843C2F200031B689C
:101D40009A683B689A4208D040F23843C2F20003D6
:101D50001B68DA683B689A4206D17B68DBB218469A
:101D6000FFF75CFC7B6801E04FF0FF33184607F19A
:101D70000807BD4680BD00BF80B584B000AF786065
:101D800039604FF00003FB6014E07B681B78184655
:101D90003968FFF7CBFF0346B3F1FF3F02D14FF0A5
:101DA000FF330CE0FB6803F10103FB607B6803F188
:101DB00001037B607B681B78002BE6D1FB6818462B
:101DC00007F11007BD4680BD80B485B000AF7860D4
:101DD0007B6803F00703FB604FF46D43CEF2000312
:101DE000DB68BB60BA684FF6FF031340BB60FB685B
:101DF0004FEA0322BB68134343F0BF6343F400334D
:101E0000BB604FF46D43CEF20003BA68DA6007F1AD
:101E10001407BD4680BC704780B400AFBFF34F8F3E
:101E20004FF46D42CEF200024FF46D43CEF2000348
:101E3000DB6803F4E0614FF00403C0F2FA530B4394
:101E4000D360BFF34F8FFEE780B594B004AF01F0CD
:101E5000D1F904F065FE01F08BF901F0F9F901F018
:101E600005FA03461A4640F67423C2F200035A806C
:101E700040F67423C2F200035B88002B4CD040F67E
:101E80007423C2F200035B88102B45D002F0BAFE27
:101E9000024647F67843C0F60003009347F68843AE
:101EA000C0F60003019347F69043C0F60003029387
:101EB000104647F66C41C0F6000147F67442C0F682
:101EC00000024FF0000304F0ABFE40F67423C2F2B0
:101ED00000034FF002021A7040F67420C2F20000B4
:101EE00001F020FC07F104031846FEF78BFE3B7956
:101EF000002BF1D13B79012BEED13B79002B02D0A5
:101F0000012B03D005E002F065FA05E002F08CFA3F
:101F100002E002F089FA00BF02F074FE024647F6C2
:101F20007843C0F60003009347F68843C0F60003E9
:101F3000019347F6CC43C0F600030293104647F6E0
:101F4000C441C0F6000147F67442C0F600024FF0EB
:101F5000000304F065FE4FF001004FF0000104F0B3
:101F60009FF9024640F66C03C2F200031A6040F685
:101F70006C03C2F200031B68002B54D102F042FE36
:101F8000024647F67843C0F60003009347F68843BD
:101F9000C0F60003019347F6E443C0F60003029342
:101FA000104647F66C41C0F6000147F67442C0F691
:101FB00000024FF0000304F033FE40F67423C2F237
:101FC00000034FF002021A7040F67423C2F20003BD
:101FD0005B886FEA43436FEA53439AB240F6742337
:101FE000C2F200035A8040F67420C2F2000001F0F1
:101FF00099FB07F104031846FEF704FE3B79002B1A
:10200000F1D13B79012BEED13B79002B02D0012B92
:1020100003D005E002F0DEF905E002F005FA02E087
:1020200002F002FA00BF02F0EDFD024647F67843E7
:10203000C0F60003009347F68843C0F600030193FF
:1020400047F60853C0F600030293104647F6C44112
:10205000C0F6000147F67442C0F600024FF00003DC
:1020600004F0DEFD4FF00403009340F66823C2F253
:10207000000301934FF0000302934FF0000303931A
:1020800042F29940C0F6000047F62851C0F6000120
:102090004FF480724FF0000302F0F0F902F0B2FD4D
:1020A000024647F67843C0F60003009347F688439C
:1020B000C0F60003019347F62C53C0F600030293C9
:1020C000104647F6C441C0F6000147F67442C0F618
:1020D00000024FF0000304F0A3FD4FF0040300934F
:1020E00040F67023C2F2000301934FF00003029305
:1020F0004FF00003039342F62D60C0F6000047F650
:102100005051C0F600014FF480724FF0000302F00E
:10211000B5F902F077FD024647F67843C0F60003B2
:10212000009347F68843C0F60003019347F65453E3
:10213000C0F600030293104647F6C441C0F6000102
:1021400047F67442C0F600024FF0000304F068FD49
:102150004FF00303009340F66C23C2F20003019397
:102160004FF0000302934FF00003039342F28560A7
:10217000C0F6000047F67051C0F600014FF48072BF
:102180004FF0000302F07AF902F03CFD024647F6F8
:102190007843C0F60003009347F68843C0F6000377
:1021A000019347F67453C0F600030293104647F6B6
:1021B000C441C0F6000147F67442C0F600024FF079
:1021C000000304F02DFD4FF00203009340F67C2342
:1021D000C2F2000301934FF0000302934FF000039B
:1021E000039342F60520C0F6000047F69451C0F66E
:1021F00000014FF480724FF0000302F03FF902F04B
:1022000001FD024647F67843C0F60003009347F607
:102210008843C0F60003019347F69853C0F60003C5
:102220000293104647F6C441C0F6000147F67442D7
:10223000C0F600024FF0000304F0F2FC40F67423F5
:10224000C2F200034FF001021A704FF00203009334
:1022500040F67823C2F2000301934FF0000302938B
:102260004FF00003039342F6BD70C0F6000047F63E
:10227000B451C0F600014FF480724FF0000302F039
:10228000FDF840F66823C2F200031B68002B1BD048
:1022900040F66C23C2F200031B68002B14D040F6FA
:1022A0007C23C2F200031B68002B0DD040F6702384
:1022B000C2F200031B68002B06D040F67823C2F25E
:1022C00000031B68002B54D102F09CFC024647F629
:1022D0007843C0F60003009347F68843C0F6000336
:1022E000019347F6B853C0F600030293104647F631
:1022F0006C41C0F6000147F67442C0F600024FF090
:10230000000304F08DFC40F67423C2F200034FF08A
:1023100002021A7040F67423C2F200035B886FEA6F
:1023200043436FEA53439AB240F67423C2F2000368
:102330005A8040F67420C2F2000001F0F3F907F170
:1023400004031846FEF75EFC3B79002BF1D13B7984
:10235000012BEED13B79002B02D0012B03D005E0FD
:1023600002F038F805E002F05FF802E002F05CF8F5
:1023700000BF40F6D803C2F20003009340F6D0033A
:10238000C2F20003019340F67420C2F2000040F64E
:10239000C001C2F2000140F6B002C2F2000240F6F3
:1023A0007003C2F2000300F0D9FF02F02BFC0246DA
:1023B00047F67843C0F60003009347F68843C0F61B
:1023C0000003019347F6D053C0F600030293104672
:1023D00047F6C441C0F6000147F67442C0F6000259
:1023E0004FF0000304F01CFC02F0CEFA02F00AFCED
:1023F000024647F67843C0F60003009347F6884349
:10240000C0F60003019347F6E453C0F600030293BD
:10241000104647F66C41C0F6000147F67442C0F61C
:1024200000024FF0000304F0FBFB40F67423C2F2FD
:1024300000034FF002021A7040F67423C2F2000348
:102440005B886FEA43436FEA53439AB240F67423C2
:10245000C2F200035A8040F67420C2F2000001F07C
:1024600061F907F104031846FEF7CCFB3B79002B1A
:10247000F1D13B79012BEED13B79002B02D0012B1E
:1024800003D005E001F0A6FF05E001F0CDFF02E07A
:1024900001F0CAFF00BFFEE780B596B000AF7860DC
:1024A00002F0B0FB03467B6507F11003184601F00C
:1024B0006DFC07F10C03184601F09CFC07F1440386
:1024C0001846FEF751FD07F144031846FEF7B6FC27
:1024D0000346002B00F0C480FB8923F002039BB26B
:1024E000FB8107F10C03184601F0B0FBB7F844205C
:1024F000BB8C9A4207D297F8523043F00103DBB20B
:1025000087F8523006E097F8523023F00103DBB22F
:1025100087F85230B7F84E20BB8C9A4207D297F812
:10252000523043F02003DBB287F8523006E097F8D0
:10253000523023F02003DBB287F85230B7F848203E
:10254000BB8C9A4207D297F8523043F00403DBB2B7
:1025500087F8523006E097F8523023F00403DBB2DC
:1025600087F85230B7F84620BB8C9A4207D297F8CA
:10257000523043F00203DBB287F8523006E097F89E
:10258000523023F00203DBB287F85230B7F84C2008
:10259000BB8C9A4207D297F8523043F01003DBB25B
:1025A00087F8523006E097F8523023F01003DBB280
:1025B00087F85230B7F84A20BB8C9A4207D297F876
:1025C000523043F00803DBB287F8523006E097F848
:1025D000523023F00803DBB287F8523040F6742300
:1025E000C2F200031B78012B06D140F67423C2F21D
:1025F00000031B78072B14D0B7F850203B8B9A426E
:1026000007D297F8523043F04003DBB287F85230DC
:102610000EE097F8523023F04003DBB287F85230D7
:1026200006E097F8523023F04003DBB287F85230CF
:1026300007F14403184601F0BFFA97F85230002B17
:1026400018D040F66C03C2F200031B6818464FF026
:1026500000014FF000024FF0000303F0EBFE09E031
:10266000FB8943F002039BB2FB8107F10C03184680
:1026700001F0ECFAFB6A07F154021046194602F029
:102680009FF811E7F0B5BBB004AF786047F6F023D0
:10269000C0F6000307F108041D460FCD0FC495E8EE
:1026A000030084E8030040F66C03C2F200031B68D9
:1026B000002B24D102F0A6FA06464FF0000002F0EB
:1026C000B5FA05464FF0000002F042F9044647F61D
:1026D0007843C0F60003009347F6FC53C0F60003AE
:1026E000019347F61063C0F600030293304647F6A5
:1026F0006C41C0F600012A46234604F091FA02F02C
:1027000081FA06464FF0000002F090FA05464FF0BD
:10271000000002F01DF9044647F67843C0F60003B6
:10272000009347F6FC53C0F60003019347F62C6371
:10273000C0F600030293304647F6C441C0F60001DC
:102740002A46234604F06CFA07F1C003184601F04C
:1027500051FB07F17803184601F018FB07F1C40399
:102760001846FDF75FFD07F1C4031846FDF792FD1B
:10277000034687F8D73097F8D730002B11D007F1F0
:10278000C403184601F0A2FAB7F8C23043F00803B8
:102790009BB2A7F8C23007F1C003184601F056FA01
:1027A00010E007F1C403184601F09EF8B7F8C230F4
:1027B00023F008039BB2A7F8C23007F1C003184604
:1027C00001F044FA07F1AC03184601F0FBFA07F1F7
:1027D0007003184601F0C4FA07F13003184601F0FF
:1027E0008BFA07F12003184601F0A4FA07F1AC00B8
:1027F00007F1700107F1C40207F1300307F120046B
:10280000009407F17804019407F1C004029401F0E8
:10281000F7FC97F8C03003F1FF33062B00F2A080DD
:1028200001A252F823F000BF4528000861290008E2
:1028300051280008C7280008972800081F29000809
:10284000DD28000807F1AC03184601F0D7FB8AE049
:1028500007F1C40207F178031046194601F036FB70
:102860000346002B0DD140F6EC03C2F200035B6877
:1028700007F1080007F1C40107F1AC02FEF7DEFD25
:1028800071E04FF0040387F8C03007F1C003184629
:1028900001F0DCF967E007F1080107F1C40207F174
:1028A000AC03084611461A46FEF728FE0346002BE5
:1028B00058D04FF0040387F8C03007F1C003184622
:1028C00001F0C4F94EE007F1080007F1C40107F177
:1028D000AC0207F12003FEF743FE44E007F1C40217
:1028E00007F178031046194601F056FB0346002B0A
:1028F0000BD107F1080107F1C40207F1AC03084648
:1029000011461A46FEF7CAFD2DE04FF0010387F885
:10291000C03007F1C003184601F098F923E007F131
:10292000C40207F178031046194601F035FB03464F
:10293000002B0BD107F1080107F1C40207F1AC032A
:10294000084611461A46FEF7A9FD0CE04FF00203B7
:1029500087F8C03007F1C003184601F077F902E0AC
:1029600000BF00E000BF40F67423C2F200031B78F2
:10297000002B12D040F67423C2F200031B78012B07
:102980000BD040F67423C2F200031B78022B04D054
:1029900007F108031846FEF713FE02F033F9064666
:1029A0004FF0000002F042F905464FF0000001F040
:1029B000CFFF044647F67843C0F60003009347F67E
:1029C000FC53C0F60003019347F63863C0F60003DA
:1029D0000293304647F6C441C0F600012A4623461A
:1029E00004F01EF940F66C03C2F200031A68D7F82F
:1029F000983010464FF000011A464FF0000303F0E4
:102A000037FE7CE6F0B5C5B004AF786002F0FAF8A6
:102A10000346C7F8FC3002F0F5F806464FF0000018
:102A200002F004F905464FF0000001F091FF044662
:102A300047F67843C0F60003009347F65863C0F6A4
:102A40000003019347F62C63C0F60003029330465F
:102A500047F6C441C0F600012A46234604F0E0F8D8
:102A600007F1B0031846FEF7CDF807F17C031846CE
:102A700001F08CF907F17803184601F0BBF997F8DB
:102A8000B030A3F102030A2B00F27E8101A252F8BA
:102A900023F000BF9F2B0008BD2B0008DB2B000894
:102AA000392C00087D2C0008BB2C00082D2B0008B9
:102AB000D52C00080F2D0008C12A0008332D00086E
:102AC000B7F87A3023F400639BB2A7F87A3007F1A5
:102AD0007803184601F0BAF807F16803184601F0C8
:102AE000F5F807F12803184601F006F907F10C0381
:102AF000184601F067F907F12003184601F030F994
:102B000007F1EC03184601F015F907F1780007F119
:102B1000680107F1EC0207F1280307F10C040094A7
:102B200007F12004019400F019FC3AE197F878309D
:102B3000012B27D107F1B00303F10403184600F07D
:102B4000CFFB0346002B0ED007F1B00303F10403C3
:102B5000184600F0F1FFB7F87A3023F480639BB297
:102B6000A7F87A3006E0B7F87A3043F480639BB276
:102B7000A7F87A30B7F87A3023F400639BB2A7F84D
:102B80007A3006E0B7F87A3043F400639BB2A7F8D6
:102B90007A3007F17803184601F058F801E101F0A6
:102BA0003DF9B7F87A3023F400639BB2A7F87A3086
:102BB00007F17803184601F049F8F2E001F05AF9FC
:102BC000B7F87A3023F400639BB2A7F87A3007F1A4
:102BD0007803184601F03AF8E3E097F87830012BD3
:102BE0001DD107F16803184601F070F807F168027B
:102BF00007F17C031046194601F0ACFB4FF00303CC
:102C000087F87830B7F87A3023F400639BB2A7F8DE
:102C10007A3007F17803184601F018F8C1E0B7F8E8
:102C20007A3043F400639BB2A7F87A3007F1780357
:102C3000184601F00BF8B4E097F87830042B10D167
:102C40004FF0070387F87830B7F87A3023F4006341
:102C50009BB2A7F87A3007F17803184600F0F6FF28
:102C60009FE0B7F87A3043F400639BB2A7F87A305C
:102C700007F17803184600F0E9FF92E097F8783002
:102C8000042B10D14FF0050387F87830B7F87A306D
:102C900023F400639BB2A7F87A3007F17803184653
:102CA00000F0D4FF7DE04FF40063A7F87A3007F11D
:102CB0007803184600F0CAFF73E0B7F87A3023F4BF
:102CC00000639BB2A7F87A3007F17803184600F04A
:102CD000BDFF66E097F87830012B0ED100F0DAFDE9
:102CE000B7F87A3023F400639BB2A7F87A3007F183
:102CF0007803184600F0AAFF53E04FF40063A7F8EA
:102D00007A3007F17803184600F0A0FF49E007F198
:102D10007C03184600F0FCFAB7F87A3023F400631D
:102D20009BB2A7F87A3007F17803184600F08EFFBF
:102D300037E007F1B00303F104031846FEF7FAFA8F
:102D40000346002B13D007F1B00303F10403184628
:102D500000F05EFEB7F87A3023F400639BB2A7F868
:102D60007A3007F17803184600F070FF19E0B7F8E1
:102D70007A3043F400639BB2A7F87A3007F1780306
:102D8000184600F063FF0CE0B7F87A3043F40063B4
:102D90009BB2A7F87A3007F17803184600F056FF87
:102DA00000BFB7F87A3003F400639BB2A7F87A301B
:102DB000B7F87A30002B0BD103F0D8F901F022FFDD
:102DC000024640F6B003C2F200039A6003F0E4F951
:102DD00001F018FF06464FF0000001F027FF0546FE
:102DE0004FF0000001F0B4FD044647F67843C0F60A
:102DF0000003009347F65863C0F60003019347F6BB
:102E00007063C0F600030293304647F6C441C0F633
:102E100000012A46234603F003FFD7F8A43007F148
:102E2000FC021046194601F0CBFCF4E5F0B599B070
:102E300004AF786001F0E6FE0346FB6401F0E2FEB9
:102E400006464FF0000001F0F1FE05464FF000008D
:102E500001F07EFD044647F67843C0F60003009378
:102E600047F67863C0F60003019347F62C63C0F67B
:102E700000030293304647F6C441C0F600012A46DB
:102E8000234603F0CDFE07F10C03184601F074FA57
:102E900007F14803184600F0ADFF07F10C03184690
:102EA00000F02AFA0346002B0CD007F10C03184659
:102EB00000F0FEFDB7F84A3023F480739BB2A7F808
:102EC0004A300BE0B7F84A3043F480739BB2A7F85E
:102ED0004A3007F10C03184600F042FF07F148039F
:102EE000184600F0B3FE07F11403184600F04EFF39
:102EF00007F10C0207F114031046194601F0AEF871
:102F00000346002B2DD001F07DFE06464FF0000059
:102F100001F08CFE05464FF0000001F019FD04465B
:102F200047F67843C0F60003009347F67863C0F68F
:102F30000003019347F69463C0F600030293304602
:102F400047F6C441C0F600012A46234603F068FE56
:102F50004FF0060387F8483007F14803184600F0A1
:102F600075FE01F04FFE06464FF0000001F05EFED8
:102F700005464FF0000001F0EBFC044647F67843AD
:102F8000C0F60003009347F67863C0F60003019390
:102F900047F67063C0F600030293304647F6C4411B
:102FA000C0F600012A46234603F03AFEFB6A07F109
:102FB0004C021046194601F003FC3FE7F0B5A7B0FC
:102FC00004AF786001F01EFE0346C7F8843001F0BC
:102FD00019FE06464FF0000001F028FE05464FF0AE
:102FE000000001F0B5FC044647F67843C0F6000344
:102FF000009347F6B463C0F60003019347F62C63D1
:10300000C0F600030293304647F6C441C0F6000103
:103010002A46234603F004FE07F14403184602F053
:10302000E7FF07F10C03184600F010FE07F1440318
:10303000184603F00BF80346002B0AD107F14403AE
:10304000184600F097FCFB8923F020039BB2FB811C
:1030500004E0FB8943F020039BB2FB8107F10C03E2
:10306000184600F0F3FD07F11003184600F08EFE3D
:1030700001F0C8FD06464FF0000001F0D7FD0546FF
:103080004FF0000001F064FC044647F67843C0F6B8
:103090000003009347F6B463C0F60003019347F6BC
:1030A0007063C0F600030293304647F6C441C0F691
:1030B00000012A46234603F0B3FD7B6B07F184022F
:1030C0001046194601F07CFB81E700BFF0B585B0E2
:1030D00004AF01F097FD06464FF0000001F0A6FD99
:1030E00005464FF0000001F033FC044647F67843F4
:1030F000C0F60003009347F6C863C0F600030193CF
:1031000047F6E063C0F600030293304647F6C44139
:10311000C0F600012A46234603F082FD01F072FD4D
:1031200006464FF0000001F081FD05464FF000001B
:1031300001F00EFC044647F67843C0F60003009306
:1031400047F6C863C0F60003019347F6F463C0F680
:1031500000030293304647F6C441C0F600012A46F8
:10316000234603F05DFD30BF07F10407BD46F0BD07
:10317000B0B584B004AF40F6EC02C2F2000247F6EC
:103180003443C0F6000314461D460FCD0FC40FCDC7
:103190000FC40FCD0FC42B68236040F67423C2F216
:1031A00000034FF000021A7040F67423C2F20003CD
:1031B0004FF000025A8047F67843C0F600030093B0
:1031C00047F60C73C0F60003019347F62473C0F66C
:1031D000000302934FF0000047F6C441C0F600011F
:1031E00047F67442C0F600024FF0000303F018FDEA
:1031F000BD46B0BD80B500AF4FF00000FEF7E4FD66
:1032000002F0A8FC02F0FEFC80BD00BF80B584B0D7
:1032100004AF47F67843C0F60003009347F668739F
:10322000C0F60003019347F67C73C0F600030293D7
:103230004FF0000047F66071C0F6000147F6744297
:10324000C0F600024FF0000303F0EAFCBD4680BD6B
:1032500080B500AF02F080FEFCF796FFFDF786FC1C
:10326000FDF76EFDFFF7D2FF80BD00BF80B582B0D5
:1032700000AF4FF00003FB8002F092FE0346002BEC
:1032800003D0FB8843F01003FB80FCF7A3FF034649
:10329000002B03D0FB8843F00403FB80FDF78AFC7E
:1032A0000346002B03D0FB8843F40073FB80FDF73B
:1032B0006BFD0346002B03D0FB8843F00103FB802A
:1032C00000F076FF0346002B03D0FB8843F0800319
:1032D000FB80FB88184607F10807BD4680BD00BF8C
:1032E00080B483B000AF78604FF00103184607F157
:1032F0000C07BD4680BC704780B483B000AF7860D7
:103300004FF00103184607F10C07BD4680BC70471B
:1033100080B586B004AF786047F67843C0F6000306
:10332000009347F69073C0F60003019347F67C7351
:10333000C0F6000302934FF0000047F66071C0F63C
:10334000000147F67442C0F600024FF0000303F09C
:1033500067FC07F10807BD4680BD00BF80B584B09B
:1033600000AFF860B9607A603B60FB681B78072BA0
:103370004AD801A252F823F099330008A733000875
:10338000B5330008C3330008D1330008DF33000829
:10339000ED330008FB33000847F6A070C0F60000CC
:1033A000FEF79AFC37E047F6CC70C0F60000FEF757
:1033B00093FC30E047F6FC70C0F60000FEF78CFC92
:1033C00029E048F22C00C0F60000FEF785FC22E060
:1033D00048F25800C0F60000FEF77EFC1BE048F201
:1033E0008400C0F60000FEF777FC14E048F2B40059
:1033F000C0F60000FEF770FC0DE048F2E400C0F6F5
:103400000000FEF769FC06E048F21010C0F600006C
:10341000FEF762FC00BFFB685B88002B06D148F218
:103420003810C0F60000FEF757FC4DE048F264107B
:10343000C0F60000FEF750FC48F29410C0F6000001
:10344000FEF74AFC48F2C410C0F60000FEF744FC48
:1034500048F2F810C0F60000FEF73EFC48F22820C3
:10346000C0F60000FEF738FC48F25420C0F6000019
:10347000FEF732FC48F28420C0F60000FEF72CFC78
:1034800048F2B420C0F60000FEF726FC48F2E42023
:10349000C0F60000FEF720FC48F21430C0F6000031
:1034A000FEF71AFC48F24430C0F60000FEF714FCA8
:1034B00048F27430C0F60000FEF70EFC48F2A0306F
:1034C000C0F60000FEF708FC48F2D030C0F600005D
:1034D000FEF718FCBB681B6848F2D430C0F6000049
:1034E0001946FEF7F9FBBB689B881BB248F2E8302F
:1034F000C0F600001946FEF7EFFBBB68DB881BB285
:1035000048F2FC30C0F600001946FEF7E5FBBB6848
:103510001B891BB248F21040C0F600001946FEF7A6
:10352000DBFBBB68DB6848F22440C0F600001946AC
:10353000FEF7D2FB48F2D030C0F60000FEF7E2FB07
:103540007B681B785BB248F23840C0F60000194631
:10355000FEF7C2FB7B685B785BB248F25040C0F676
:1035600000001946FEF7B8FB7B689B785BB248F217
:103570006840C0F600001946FEF7AEFB7B68DB78BA
:103580005BB248F28040C0F600001946FEF7A4FB8B
:103590007B68DB6848F29840C0F600001946FEF7E9
:1035A0009BFB7B689B6848F2B040C0F60000194660
:1035B000FEF792FB7B681B7948F2C840C0F600001A
:1035C0001946FEF789FB48F2D030C0F60000FEF73E
:1035D00099FB3B68DB6B48F2E440C0F600001946FB
:1035E000FEF77AFB48F2D030C0F60000FEF78AFB07
:1035F000BB699B7B002B06D148F2F840C0F6000067
:10360000FEF76AFB29E048F22050C0F60000FEF702
:1036100063FB48F24850C0F60000FEF75DFB48F23D
:103620007450C0F60000FEF757FB48F2A050C0F6F9
:103630000000FEF751FB48F2C850C0F60000FEF74C
:103640004BFB48F2F450C0F60000FEF745FB48F291
:103650002060C0F60000FEF73FFBBB691B8848F204
:103660004860C0F600001946FEF736FBBB695B8870
:1036700048F26460C0F600001946FEF72DFBBB69F6
:10368000DB8848F28060C0F600001946FEF724FB94
:10369000BB695B8948F29C60C0F600001946FEF7E2
:1036A0001BFBBB699B8848F2B860C0F60000194656
:1036B000FEF712FBBB691B8948F2D460C0F600001C
:1036C0001946FEF709FBBB699B8948F2F060C0F61A
:1036D00000001946FEF700FBBB691B6948F20C703D
:1036E000C0F600001946FEF7F7FA48F2D030C0F6EF
:1036F0000000FEF707FBFB691B6848F22870C0F664
:1037000000001946FEF7E8FAFB695B6848F2407072
:10371000C0F600001946FEF7DFFA07F11007BD46B4
:1037200080BD00BF80B582B000AF78607B681B7839
:10373000072B4BD801A252F823F000BF5D370008D9
:103740006B3700087937000887370008953700087D
:10375000A3370008B1370008BF37000847F6A0704C
:10376000C0F60000FEF7B8FA37E047F6CC70C0F6B6
:103770000000FEF7B1FA30E047F6FC70C0F600003A
:10378000FEF7AAFA29E048F22C00C0F60000FEF786
:10379000A3FA22E048F25800C0F60000FEF79CFAB7
:1037A0001BE048F28400C0F60000FEF795FA14E032
:1037B00048F2B400C0F60000FEF78EFA0DE048F2C1
:1037C000E400C0F60000FEF787FA06E048F21010A9
:1037D000C0F60000FEF780FA00BF7B685B88002B14
:1037E00006D148F23810C0F60000FEF775FA4DE039
:1037F00048F26410C0F60000FEF76EFA48F294102A
:10380000C0F60000FEF768FA48F2C410C0F60000E7
:10381000FEF762FA48F2F810C0F60000FEF75CFA14
:1038200048F22820C0F60000FEF756FA48F254206D
:10383000C0F60000FEF750FA48F28420C0F60000FF
:10384000FEF74AFA48F2B420C0F60000FEF744FA48
:1038500048F2E420C0F60000FEF73EFA48F21430C9
:10386000C0F60000FEF738FA48F24430C0F6000017
:10387000FEF732FA48F27430C0F60000FEF72CFA78
:1038800048F2A030C0F60000FEF726FA07F108075C
:10389000BD4680BD80B500AF47F63440C0F600009D
:1038A00000F04AF980BD00BF80B483B000AF7860FB
:1038B0007B681B78072B0CD84FF0010202FA03F348
:1038C00003F0B803002B04D07B684FF006021A7097
:1038D00004E07B684FF002021A7000BF07F10C078A
:1038E000BD4680BC704700BFF0B587B004AF7860BC
:1038F00002F03CFC40F6C003C2F200037A6807CA3B
:1039000083E8070001F07EF903464FF0320202FB24
:1039100003F240F6C003C2F20003DA6002F03CFC9E
:1039200001F070F906464FF0000001F07FF90546FE
:103930004FF0000001F00CF8044647F67843C0F65B
:103940000003009348F25873C0F60003019348F255
:103950006C73C0F600030293304647F6C441C0F6CC
:1039600000012A46234603F05BF907F10C07BD4628
:10397000F0BD00BFF0B587B004AF786002F0F6FB91
:1039800040F67003C2F200037A681C4615460FCD5C
:103990000FC40FCD0FC40FCD0FC495E8070084E806
:1039A000070001F02FF903464FF0320202FB03F249
:1039B00040F67003C2F20003DA6302F0EDFB01F09F
:1039C00021F906464FF0000001F030F905464FF0AE
:1039D000000000F0BDFF044647F67843C0F6000340
:1039E000009348F28073C0F60003019348F2947389
:1039F000C0F600030293304647F6C441C0F600010A
:103A00002A46234603F00CF907F10C07BD46F0BD2A
:103A1000F0B587B004AF786002F0A8FB40F6B003C1
:103A2000C2F200037A681068186001F0EBF80346F0
:103A30004FF0320202FB03F240F6B003C2F2000381
:103A4000DA6001F0DFF803464FF0320202FB03F2C6
:103A500040F6B003C2F200039A6002F09DFB01F051
:103A6000D1F806464FF0000001F0E0F805464FF0AF
:103A7000000000F06DFF044647F67843C0F60003EF
:103A8000009348F2A873C0F60003019348F2BC7398
:103A9000C0F600030293304647F6C441C0F6000169
:103AA0002A46234603F0BCF807F10C07BD46F0BDDB
:103AB000F0B587B004AF786002F058FB7B681A68F5
:103AC00040F6D003C2F200031A6001F09BF80346EF
:103AD0004FF0320202FB03F240F6D003C2F20003C1
:103AE0005A6002F059FB01F08DF806464FF00000D5
:103AF00001F09CF805464FF0000000F029FF044655
:103B000047F67843C0F60003009348F2D073C0F63E
:103B10000003019348F2E873C0F6000302933046B5
:103B200047F6C441C0F600012A46234603F078F860
:103B300007F10C07BD46F0BDF0B587B004AF786063
:103B400002F014FB40F6EC03C2F200037A681C4654
:103B500015460FCD0FC40FCD0FC40FCD0FC42B686A
:103B6000236002F019FB01F04DF806464FF000000B
:103B700001F05CF805464FF0000000F0E9FE044655
:103B800047F67843C0F60003009348F2FC73C0F692
:103B90000003019348F61403C0F600030293304675
:103BA00047F6C441C0F600012A46234603F038F820
:103BB00007F10C07BD46F0BDF0B587B004AF7860E3
:103BC00002F0D4FA40F6D803C2F200037A681C4629
:103BD0001346186859689A68DB680FC401F012F838
:103BE00003464FF0320202FB03F240F6D803C2F262
:103BF00000031A6102F0D0FA01F004F806464FF013
:103C0000000001F013F805464FF0000000F0A0FEA0
:103C1000044647F67843C0F60003009348F62C03A9
:103C2000C0F60003019348F64803C0F60003029370
:103C3000304647F6C441C0F600012A46234602F04A
:103C4000EFFF07F10C07BD46F0BD00BFF0B587B030
:103C500004AF786002F08AFA7B681A7840F6742321
:103C6000C2F200031A707B685A8840F67423C2F2CD
:103C700000035A8002F090FA00F0C4FF06464FF0AD
:103C8000000000F0D3FF05464FF0000000F060FE9A
:103C9000044647F67843C0F60003009348F66003F5
:103CA000C0F60003019348F67803C0F600030293C0
:103CB000304647F6C441C0F600012A46234602F0CA
:103CC000AFFF07F10C07BD46F0BD00BF90B583B054
:103CD00000AF786002F04AFA7A6840F6C003C2F298
:103CE000000314460FCB84E80F0002F055FA07F1E9
:103CF0000C07BD4690BD00BFB0B582B000AF786084
:103D000002F034FA7A6840F67003C2F200031446F7
:103D10001D460FCD0FC40FCD0FC40FCD0FC495E8B6
:103D20000F0084E80F0002F037FA07F10807BD46DC
:103D3000B0BD00BF90B583B000AF786002F016FA56
:103D40007A6840F6B003C2F2000314460FCB84E851
:103D50000F0002F021FA07F10C07BD4690BD00BF2D
:103D600080B582B000AF786002F000FA7A6840F661
:103D7000D003C2F2000393E8030082E8030002F0DC
:103D80000BFA07F10807BD4680BD00BFB0B582B091
:103D900000AF786002F0EAF97A6840F6EC03C2F20C
:103DA000000314461D460FCD0FC40FCD0FC40FCD19
:103DB0000FC42B68236002F0EFF907F10807BD4636
:103DC000B0BD00BFB0B582B000AF786002F0CEF9F0
:103DD0007A6840F6D803C2F2000314461D460FCDA0
:103DE0000FC42B68236002F0D7F907F10807BD461E
:103DF000B0BD00BF80B582B000AF786002F0B6F908
:103E00007A6840F67423C2F200031868106002F06A
:103E1000C3F907F10807BD4680BD00BFF0B585B006
:103E200004AF00F0EFFE06464FF0000000F0FEFE8B
:103E300005464FF0000000F08BFD044647F678433E
:103E4000C0F60003009348F68C03C0F6000301930C
:103E500047F67C73C0F600030293304647F6607164
:103E6000C0F600012A46234602F0DAFE07F10407F5
:103E7000BD46F0BDF0B585B004AF00F0C3FE064608
:103E80004FF0000000F0D2FE05464FF0000000F0B9
:103E90005FFD044647F67843C0F60003009348F6FA
:103EA000A003C0F60003019347F67C73C0F600033D
:103EB0000293304647F66071C0F600012A46234659
:103EC00002F0AEFE07F10407BD46F0BDF0B587B0C5
:103ED00004AF7860396040F6C003C2F200031B688B
:103EE0001A4640F6EC03C2F200035B689A4227D2FE
:103EF00000F088FE06464FF0000000F097FE0546F1
:103F00004FF0000000F024FD044647F67843C0F669
:103F10000003009348F6B403C0F60003019348F68B
:103F2000C803C0F600030293304647F6C441C0F60A
:103F300000012A46234602F073FE4FF0010326E0FB
:103F400000F060FE06464FF0000000F06FFE0546F0
:103F50004FF0000000F0FCFC044647F67843C0F642
:103F60000003009348F6B403C0F60003019348F63B
:103F7000EC03C0F600030293304647F6C441C0F696
:103F800000012A46234602F04BFE4FF0000318467C
:103F900007F10C07BD46F0BDF0B587B004AF7860FF
:103FA000396000F02FFE06464FF0000000F03EFEA4
:103FB00005464FF0000000F0CBFC044647F678437E
:103FC000C0F60003009348F60813C0F600030193FF
:103FD00047F67C73C0F600030293304647F66071E3
:103FE000C0F600012A46234602F01AFE4FF00003F5
:103FF000184607F10C07BD46F0BD00BF80B483B082
:1040000000AF78607B689B7B002B0CBF00230123F3
:10401000DBB2184607F10C07BD4680BC704700BFF5
:1040200080B584B000AF7860396000F0EBFD0246E7
:104030007B681B69D31AFB603B6893F82F303A68A2
:10404000D26902FB03F2FB689A422CBF00230123D2
:10405000DBB2184607F11007BD4680BD80B483B0BF
:1040600000AF786039607B681A683B681B699A42C8
:104070002CBF00230123DBB2184607F10C07BD4615
:1040800080BC704780B584B000AF7860396000F0C4
:10409000B9FD02467B685B68D31AFB603B6893F806
:1040A00030303A68926902FB03F2FB689A422CBFF7
:1040B00000230123DBB2184607F11007BD4680BD7F
:1040C00080B584B000AF7860396000F09BFD024697
:1040D0007B68DB68D31AFB603B6893F82C303A6846
:1040E000126A02FB03F2FB689A422CBF00230123F1
:1040F000DBB2184607F11007BD4680BD80B584B01D
:1041000000AF7860396000F07DFD02467B68DB6BB4
:10411000D31AFB603B6893F831303A68526A02FB6D
:1041200003F2FB689A422CBF00230123DBB218463E
:1041300007F11007BD4680BD80B584B000AF786040
:10414000396000F05FFD02467B689B68D31AFB6014
:104150003B6893F82E303A68926A02FB03F2FB68E0
:104160009A422CBF00230123DBB2184607F1100747
:10417000BD4680BD80B584B000AF7860396000F086
:1041800041FD02467B68DB68D31AFB603B6893F80D
:104190002D303A68926A02FB03F2FB689A422CBF08
:1041A00000230123DBB2184607F11007BD4680BD8E
:1041B00080B584B004AF00F025FD024647F6784391
:1041C000C0F60003009348F61C13C0F600030193E9
:1041D00047F67C73C0F600030293104647F6607101
:1041E000C0F6000147F67442C0F600024FF000032B
:1041F00002F016FD4FF000031846BD4680BD00BF1B
:1042000080B584B000AFF860B9607A603B60F86850
:10421000F969FFF705FF0346002B0AD03B6A5B886C
:1042200043F001039AB23B6A5A80386AFFF73CFBBD
:1042300006E03B6A5B8823F001039AB23B6A5A802E
:10424000B868F969FFF71EFF0346002B0AD03B6AE6
:104250005B8843F080039AB23B6A5A80386AFFF762
:1042600023FB06E03B6A5B8823F080039AB23B6A3B
:104270005A807868F969FFF723FF0346002B0AD0BC
:104280003B6A5B8843F004039AB23B6A5A80386AFF
:10429000FFF70AFB06E03B6A5B8823F004039AB24F
:1042A0003B6A5A803868F969FFF728FF0346002BFC
:1042B00007D03B6A5B8843F010039AB23B6A5A808E
:1042C00006E03B6A5B8823F010039AB23B6A5A808F
:1042D000B869F969FFF730FF0346002B0AD03B6A43
:1042E0005B8843F400739AB23B6A5A80386AFFF7DE
:1042F000DBFA06E03B6A5B8823F400739AB23B6A00
:104300005A80B869F969FFF735FF0346002B12D0D0
:104310003B6A5B8843F040039AB23B6A5A80BA69B1
:1043200047F60833C0F600031B681360BB691846E4
:10433000FFF76EFB06E03B6A5B8823F040039AB20E
:104340003B6A5A80386AFFF781FC07F11007BD46C7
:1043500080BD00BF80B582B000AF786039607B68F7
:104360001B681A463B68DA603868FFF7E5FB07F11F
:104370000807BD4680BD00BFF0B587B004AF7860C8
:1043800000F040FC06464FF0000000F04FFC0546F0
:104390004FF0000000F0DCFA044647F67843C0F620
:1043A0000003009348F63413C0F60003019347F668
:1043B0007C73C0F600030293304647F66071C0F686
:1043C00000012A46234602F02BFC07F10C07BD46EC
:1043D000F0BD00BFB0B584B004AF00F013FC0546DB
:1043E0004FF0000000F0B4FA044647F67843C0F6F8
:1043F0000003009348F64813C0F60003019348F603
:104400005413C0F600030293284647F6C441C0F691
:10441000000147F67442C0F60002234602F000FC99
:10442000FDF7FAFCBD46B0BDB0B584B004AF00F0F6
:10443000E9FB05464FF0000000F08AFA044647F613
:104440007843C0F60003009348F66013C0F60003FB
:10445000019347F67C73C0F600030293284647F6A3
:104460006071C0F6000147F67442C0F600022346B0
:1044700002F0D6FB30BFBD46B0BD00BFF0B58DB079
:1044800004AFF860B9603B601346FB80FB68002B0B
:104490001ED100F0B7FB024648F67C13C0F60003BD
:1044A000009348F68C13C0F60003019348F69C1362
:1044B000C0F600030293104648F67011C0F60001E2
:1044C00048F67812C0F600024FF0000302F0A8FB95
:1044D000BB6B042B1ED900F095FB024648F67C13FB
:1044E000C0F60003009348F68C13C0F60003019356
:1044F00048F69C13C0F600030293104648F670116C
:10450000C0F6000148F67812C0F600024FF0000332
:1045100002F086FBFB881846396C01F035F8B8616B
:10452000BB69002B00F00F81BB691A6BFB8803F19C
:10453000FF334FEA8303D3187B617B6923F00703C2
:104540007B617B6903F00703002B1ED000F05AFB50
:10455000024648F67C13C0F60003009348F68C131D
:10456000C0F60003019348F69C13C0F600030293C3
:10457000104648F67011C0F6000148F67812C0F6F1
:1045800000024FF0000302F04BFBFB880093B86978
:10459000B968BA6B7B6C00F021FF7869F9683A68FA
:1045A00001F060FD0246BB691A60BB691B6803F03D
:1045B0000703002B1ED000F025FB024648F67C13B3
:1045C000C0F60003009348F68C13C0F60003019375
:1045D00048F69C13C0F600030293104648F670118B
:1045E000C0F6000148F67812C0F600024FF0000352
:1045F00002F016FBFB6B002B02D0FB6BBA691A6052
:1046000001F0B4FD40F6D013C2F200031B6803F1C1
:10461000010240F6D013C2F200031A6040F62013E4
:10462000C2F200031B68002B0FD140F62013C2F228
:104630000003BA691A6040F6D013C2F200031B6887
:10464000012B18D100F00EFF15E040F6E013C2F286
:1046500000031B68002B0ED140F62013C2F20003AA
:104660001B68DA6ABB6B9A4205D840F62013C2F287
:104670000003BA691A60BB69DA6A40F6D813C2F25D
:1046800000031B689A4206D9BB69DA6A40F6D81360
:10469000C2F200031A6040F6F413C2F200031B6872
:1046A00003F1010240F6F413C2F200031A60BB6981
:1046B000DA6A40F6DC13C2F200031B689A4206D99C
:1046C000BB69DA6A40F6DC13C2F200031A60BB6908
:1046D000DA6A13464FEA83039B184FEA830340F6D6
:1046E0002412C2F200029A18BB6903F104031046B7
:1046F000194601F0A3F94FF00103FB6100F082FAC3
:104700000646BB6903F13405B86900F021F9044697
:1047100048F67C13C0F60003009348F6B013C0F6C9
:104720000003019348F6C413C0F600030293304619
:1047300048F6A811C0F600012A46234602F070FA96
:1047400001F02AFD21E04FF0FF33FB6100F05AFA3F
:10475000024648F67C13C0F60003009348F6E013C7
:10476000C0F60003019348F6FC13C0F60003029361
:10477000104648F67011C0F6000148F67812C0F6EF
:1047800000024FF0000302F04BFAFB69012B11D13C
:1047900040F6E013C2F200031B68002B0AD040F67B
:1047A0002013C2F200031B68DA6ABB6B9A4201D283
:1047B00001F0D0FCFB69184607F12407BD46F0BDA7
:1047C000F0B58BB004AF786039604FF000037B61C7
:1047D0007B68002B1ED100F015FA024648F67C13C8
:1047E000C0F60003009348F68C13C0F60003019353
:1047F00048F69C13C0F600030293104648F6701169
:10480000C0F6000148F67812C0F600024FF000032F
:1048100002F006FA3B68002B1ED100F0F3F90246C5
:1048200048F67C13C0F60003009348F68C13C0F6DC
:104830000003019348F69C13C0F600030293104650
:1048400048F67011C0F6000148F67812C0F6000272
:104850004FF0000302F0E4F900F0F4F87B681A6806
:104860003B68D3183B617B681A6840F6D413C2F2E8
:1048700000031B689A4210D97B681A683B699A4208
:104880001BD940F6D413C2F200031B683A699A425E
:1048900013D94FF001037B610FE07B681A683B6915
:1048A0009A4207D840F6D413C2F200031B683A6953
:1048B0009A4202D94FF001037B617B683A691A6022
:1048C0007B69002B37D000F09DF9064640F6201397
:1048D000C2F200031B6803F1340540F62013C2F254
:1048E00000031B68184600F033F8044648F67C13B2
:1048F000C0F60003009348F61423C0F600030193AA
:1049000048F62C23C0F600030293304648F6A8115F
:10491000C0F600012A46234602F082F940F6201331
:10492000C2F200031B6803F10403184601F0E8F823
:10493000386900F0E3FD00F097F8F860FB68002BA1
:1049400001D101F007FC07F11C07BD46F0BD00BF17
:1049500080B584B000AF786001F008FC7B68002B64
:1049600005D140F62013C2F200031B6800E07B680B
:10497000FB60FB68DB6ABB6001F00EFCBB6818469D
:1049800007F11007BD4680BD80B586B004AF4FF07B
:104990000003009340F6CC13C2F2000301934FF0E2
:1049A000000302934FF00003039345F2C930C0F6B1
:1049B000000048F64421C0F600014FF480724FF029
:1049C0000003FFF75BFD78607B68012B13D14FF08C
:1049D000BF0080F3118840F6E013C2F200034FF0ED
:1049E00001021A6040F6D413C2F200034FF0000235
:1049F0001A6001F085FB7B68002B1ED100F002F9E4
:104A0000024648F67C13C0F60003009348F68C1368
:104A1000C0F60003019348F69C13C0F6000302930E
:104A2000104648F67011C0F6000148F67812C0F63C
:104A300000024FF0000302F0F3F807F10807BD464B
:104A400080BD00BF80B400AF40F6E413C2F20003A3
:104A50001B6803F1010240F6E413C2F200031A607E
:104A6000BD4680BC704700BF90B587B004AF4FF023
:104A700000037B6040F6E413C2F200031B68002BC6
:104A80001ED100F0BFF8024648F67C13C0F60003C2
:104A9000009348F68C13C0F60003019348F69C136C
:104AA000C0F600030293104648F67011C0F60001EC
:104AB00048F67812C0F600024FF0000302F0B0F89A
:104AC00001F054FB40F6E413C2F200031B6803F14B
:104AD000FF3240F6E413C2F200031A6040F6E4131A
:104AE000C2F200031B68002B40F0848040F6D01314
:104AF000C2F200031B68002B7CD04FF000033B6028
:104B00003BE040F6B813C2F20003DB68DC6804F156
:104B10001803184600F0F4FF04F10403184600F0EF
:104B2000EFFFE26A40F6DC13C2F200031B689A4210
:104B300005D9E26A40F6DC13C2F200031A60E26AA9
:104B400013464FEA83039B184FEA830340F624126F
:104B5000C2F200029A1804F104031046194600F04C
:104B60006DFFE26A40F62013C2F200031B68DB6AA5
:104B70009A4202D34FF001033B6040F6B813C2F2F1
:104B800000031B68002BBCD140F6E813C2F20003FF
:104B90001B68002B18D00DE000F082F840F6E813F7
:104BA000C2F200031B6803F1FF3240F6E813C2F2C1
:104BB00000031A6040F6E813C2F200031B68002BE2
:104BC000EAD14FF001033B603B68012B06D040F671
:104BD000EC13C2F200031B68012B0BD14FF0010351
:104BE0007B6040F6EC13C2F200034FF000021A6043
:104BF00001F0B0FA01F0D0FA7B68184607F10C0713
:104C0000BD4690BD80B582B000AF01F0AFFA40F66E
:104C1000D413C2F200031B687B6001F0BDFA7B680D
:104C2000184607F10807BD4680BD00BF80B588B0B3
:104C300004AF78607B68002B05D140F62013C2F2E8
:104C400000031B6800E07B68FB60FB68002B1ED143
:104C5000FFF7D8FF024648F67C13C0F60003009326
:104C600048F68C13C0F60003019348F69C13C0F677
:104C700000030293104648F67011C0F6000148F692
:104C80007812C0F600024FF0000301F0C9FFFB6884
:104C900003F13403184607F11007BD4680BD00BF7D
:104CA00080B588B004AF40F6E413C2F200031B687D
:104CB000002B40F0E68040F6D413C2F200031B68DC
:104CC00003F1010240F6D413C2F200031A6040F669
:104CD000D413C2F200031B68002B67D140F6B01357
:104CE000C2F200031B681B68002B1ED0FFF78AFF6F
:104CF000024648F67C13C0F60003009348F68C1376
:104D0000C0F60003019348F69C13C0F6000302931B
:104D1000104648F67011C0F6000148F67812C0F649
:104D200000024FF0000301F07BFF40F6B013C2F227
:104D300000031B68FB6040F6B413C2F200031A685C
:104D400040F6B013C2F200031A6040F6B413C2F288
:104D50000003FA681A6040F6F013C2F200031B6801
:104D600003F1010240F6F013C2F200031A6040F6AC
:104D7000B013C2F200031B681B68002B07D140F27E
:104D80004043C2F200034FF0FF321A600EE040F6DB
:104D9000B013C2F200031B68DB68DB68BB60BB6852
:104DA0005A6840F24043C2F200031A6040F6D4133E
:104DB000C2F200031A6840F24043C2F200031B68CB
:104DC0009A426AD340F6B013C2F200031B681B6814
:104DD000002B07D140F24043C2F200034FF0FF32F4
:104DE0001A605AE040F6B013C2F200031B68DB6899
:104DF000DB68BB60BB685B687B6040F6D413C2F2C3
:104E000000031A687B689A4206D240F24043C2F21D
:104E100000037A681A6040E0BB6803F10403184697
:104E200000F06EFEBB689B6A002B05D0BB6803F1E7
:104E30001803184600F064FEBB68DA6A40F6DC131B
:104E4000C2F200031B689A4206D9BB68DA6A40F6D0
:104E5000DC13C2F200031A60BB68DA6A13464FEA39
:104E600083039B184FEA830340F62412C2F2000228
:104E70009A18BB6803F104031046194600F0DEFDE2
:104E8000A0E740F6E813C2F200031B6803F1010239
:104E900040F6E813C2F200031A6007F11007BD469E
:104EA00080BD00BFF0B587B004AF40F6E413C2F296
:104EB00000031B68002B07D040F6EC13C2F200037E
:104EC0004FF001021A60DAE0FFF79CFE064640F65A
:104ED0002013C2F200031B6803F1340540F62013CF
:104EE000C2F200031B681846FFF732FD044648F67D
:104EF0007C13C0F60003009348F65023C0F600036D
:104F0000019348F66C23C0F600030293304648F63E
:104F1000A811C0F600012A46234601F081FE40F6A2
:104F20002013C2F200031A68516C40F62C23C2F21F
:104F300000031B687868C31ACB18536440F62C230F
:104F4000C2F200037A681A6031E040F6DC13C2F264
:104F500000031B68002B1ED1FFF754FE024648F6E3
:104F60007C13C0F60003009348F68C13C0F60003D0
:104F7000019348F69C13C0F600030293104648F6CE
:104F80007011C0F6000148F67812C0F600024FF02A
:104F9000000301F045FE40F6DC13C2F200031B687B
:104FA00003F1FF3240F6DC13C2F200031A6040F650
:104FB000DC13C2F20003196840F62412C2F20002A8
:104FC0000B464FEA83035B184FEA8303D3181B6831
:104FD000002BBAD040F6DC13C2F200031A68134665
:104FE0004FEA83039B184FEA830340F62412C2F270
:104FF00000029B183B603B685B685A683B685A60DC
:105000003B685A683B6803F108039A4204D13B6845
:105010005B685A683B685A603B685B68DA6840F6D0
:105020002013C2F200031A60FFF7ECFD064640F6BB
:105030002013C2F200031B6803F1340540F620136D
:10504000C2F200031B681846FFF782FC044648F6CC
:105050007C13C0F60003009348F69023C0F60003CB
:10506000019348F6A823C0F600030293304648F6A1
:10507000A811C0F600012A46234601F0D1FD07F130
:105080000C07BD46F0BD00BF80B588B004AF7860A6
:1050900039607B68002B1ED1FFF7B4FD024648F64D
:1050A0007C13C0F60003009348F68C13C0F600038F
:1050B000019348F69C13C0F600030293104648F68D
:1050C0007011C0F6000148F67812C0F600024FF0E9
:1050D000000301F0A5FD40F62013C2F200031B6897
:1050E00003F118037868194600F0D0FC40F620134D
:1050F000C2F200031B6803F10403184600F000FD30
:1051000040F6D413C2F200031A683B68D318FB6060
:10511000F86800F0F3F907F11007BD4680BD00BF45
:1051200080B588B004AF78607B68DB68DB68BB6003
:10513000BB68002B1ED1FFF765FD024648F67C13C5
:10514000C0F60003009348F68C13C0F600030193E9
:1051500048F69C13C0F600030293104648F67011FF
:10516000C0F6000148F67812C0F600024FF00003C6
:1051700001F056FDBB6803F11803184600F0C0FCAF
:1051800040F6E413C2F200031B68002B2AD1BB686F
:1051900003F10403184600F0B3FCBB68DA6A40F67A
:1051A000DC13C2F200031B689A4206D9BB68DA6AB4
:1051B00040F6DC13C2F200031A60BB68DA6A1346D9
:1051C0004FEA83039B184FEA830340F62412C2F28E
:1051D00000029A18BB6803F104031046194600F058
:1051E0002DFC09E0BB6803F1180340F6B810C2F2C9
:1051F0000000194600F022FCBB68DA6A40F6201372
:10520000C2F200031B68DB6A9A4203D34FF001032A
:10521000FB6002E04FF00003FB60FB68184607F1FB
:105220001007BD4680BD00BF80B586B004AF786072
:105230007B68002B1ED1FFF7E5FC024648F67C1385
:10524000C0F60003009348F68C13C0F600030193E8
:1052500048F69C13C0F600030293104648F67011FE
:10526000C0F6000148F67812C0F600024FF00003C5
:1052700001F0D6FC40F6F013C2F200031A687B6816
:105280001A6040F6D413C2F200031A687B685A60B1
:1052900007F10807BD4680BD80B588B004AF7860CF
:1052A00039607B68002B1ED1FFF7ACFC024648F644
:1052B0007C13C0F60003009348F68C13C0F600037D
:1052C000019348F69C13C0F600030293104648F67B
:1052D0007011C0F6000148F67812C0F600024FF0D7
:1052E000000301F09DFC3B68002B1ED1FFF78AFCF8
:1052F000024648F67C13C0F60003009348F68C1370
:10530000C0F60003019348F69C13C0F60003029315
:10531000104648F67011C0F6000148F67812C0F643
:1053200000024FF0000301F07BFC00F01FFF7B68E0
:105330001A6840F6F013C2F200031B689A420CD0C0
:105340007B685A6840F6D413C2F200031B689A4285
:1053500003D84FF00103FB6022E040F6D413C2F201
:1053600000031A687B685B68D21A3B681B689A4224
:1053700013D23B681A687B68596840F6D413C2F2AE
:1053800000031B68CB1AD2183B681A607868FFF7D5
:105390004BFF4FF00003FB6002E04FF00103FB60A6
:1053A00000F0FAFEFB68184607F11007BD4680BD05
:1053B00080B400AF40F6EC13C2F200034FF00102DC
:1053C0001A60BD4680BC704780B582B000AF78607F
:1053D00000F08EF8FDF77AFEFAE700BF80B584B0E2
:1053E00000AFF860B9607A603B60FB6803F134039A
:1053F0001846B9684FF0050202F05CF8FB684FF000
:10540000000283F838207B68042B02D94FF0040394
:105410007B60FB687A68DA62FB687A68DA63FB684B
:1054200003F10403184600F0FBFAFB6803F11803CC
:10543000184600F0F5FAFB68FA681A617B68C3F158
:105440000502FB689A61FB68FA685A62FB684FF0D4
:1054500000021A64FB684FF000025A6407F110075B
:10546000BD4680BD80B582B000AF4FF000037B60C9
:1054700012E07A6813464FEA83039B184FEA8303CE
:1054800040F62412C2F200029B18184600F0A8FA57
:105490007B6803F101037B607B68042BE9D940F64C
:1054A0008810C2F2000000F09BFA40F69C10C2F295
:1054B000000000F095FA40F6B810C2F2000000F0CB
:1054C0008FFA40F6B013C2F2000340F68812C2F21F
:1054D00000021A6040F6B413C2F2000340F69C12B8
:1054E000C2F200021A6007F10807BD4680BD00BF86
:1054F00080B400AFBD4680BC704700BF80B582B0AD
:1055000000AF786040F62013C2F200031B687A688F
:105510005A6040F6D413C2F200031B687A689A42BC
:1055200010D240F6B413C2F200031A6840F62013FA
:10553000C2F200031B6803F104031046194600F091
:10554000A5FA1DE040F6B013C2F200031A6840F657
:105550002013C2F200031B6803F10403104619462E
:1055600000F094FA40F24043C2F200031B687A68EC
:105570009A4205D240F24043C2F200037A681A60B0
:1055800007F10807BD4680BD80B584B000AF034673
:105590003960FB804FF0480001F080FB0346FB6060
:1055A000FB68002B23D03B68002B07D1FB884FEA18
:1055B0008303184601F072FB034600E03B68FA687B
:1055C0001363FB681B6B002B06D1F86801F06EFBC0
:1055D0004FF00003FB600AE0FB681A6BFB884FEAA0
:1055E000830310464FF0A5011A4601F0B7FEFB6891
:1055F000184607F11007BD4680BD00BF80B483B0D8
:1056000000AF40F62013C2F200031B687B607B688A
:10561000184607F10C07BD4680BC704780B588B0BE
:1056200004AF78607B68FB607B68002B1ED1FFF7BE
:10563000E9FA024648F67C13C0F60003009348F6E8
:105640008C13C0F60003019348F69C13C0F60003C8
:105650000293104648F67011C0F6000148F6781221
:10566000C0F600024FF0000301F0DAFAFB68DA6AD4
:1056700040F62013C2F200031B68DB6A9A4255D23F
:1056800040F62013C2F200031B68DB6AC3F1050277
:10569000FB689A61FB685969FB68DA6A13464FEA4E
:1056A00083039B184FEA830340F62412C2F20002E0
:1056B0009B18994232D1FB6803F10403184600F0AD
:1056C0001FFA40F62013C2F200031B68DA6AFB6877
:1056D000DA62FB68DA6A40F6DC13C2F200031B6888
:1056E0009A4206D9FB68DA6A40F6DC13C2F200037C
:1056F0001A60FB68DA6A13464FEA83039B184FEA85
:10570000830340F62412C2F200029A18FB6803F1E8
:1057100004031046194600F091F907E040F6201303
:10572000C2F200031B68DA6AFB68DA6207F110074D
:10573000BD4680BD80B584B000AF78607B68FB60FB
:105740007B68002B39D0FB68DA6AFB68DB6B9A4216
:1057500033D0FB6803F10403184600F0D1F9FB686D
:10576000DA6BFB68DA62FB68DB6AC3F10502FB688F
:105770009A61FB68DA6A40F6DC13C2F200031B6828
:105780009A4206D9FB68DA6A40F6DC13C2F20003DB
:105790001A60FB68DA6A13464FEA83039B184FEAE4
:1057A000830340F62412C2F200029A18FB6803F148
:1057B00004031046194600F041F907F11007BD46F1
:1057C00080BD00BF80B487B000AF786039604FF013
:1057D00000037B614FF000033B614FF00003FB606F
:1057E0004FF000037B6186E07B694FF0010202FA13
:1057F00003F33B613B681A683B691340FB60FA683E
:105800003B699A4273D17B681A687B694FEA43030C
:105810004FF0030101FA03F36FEA03031A407B68B8
:105820001A607B681A683B681B7919467B694FEAE6
:10583000430301FA03F31A437B681A603B681B7940
:10584000012B03D03B681B79022B34D17B689A680B
:105850007B694FEA43034FF0030101FA03F36FEA58
:1058600003031A407B689A607B689A683B685B799F
:1058700019467B694FEA430301FA03F31A437B6835
:105880009A607B685A687B699BB24FF0010101FA0C
:1058900003F36FEA03031A407B685A607B685A6817
:1058A0003B689B7919467B699BB201FA03F39BB273
:1058B0001A437B685A607B68DA687B699BB24FEA5F
:1058C00043034FF0030101FA03F36FEA03031A40A5
:1058D0007B68DA607B68DA683B68DB7919467B694C
:1058E0004FEA430301FA03F31A437B68DA607B69EA
:1058F00003F101037B617B690F2B7FF675AF07F125
:105900001C07BD4680BC704780B485B000AF78608E
:1059100013460A467A807B704FF00003FB604FF01D
:105920000003BB607A787B8803F007034FEA8303A8
:1059300002FA03F3FB607B884FEAD3039BB21A465B
:105940007B884FEAD3039BB219467B6801F10801BB
:1059500053F821107B8803F007034FEA83034FF0CD
:105960000F0000FA03F36FEA030319407B6802F1AA
:10597000080243F822107B884FEAD3039BB21A46F1
:105980007B6802F1080253F82220FB681343BB60D6
:105990007B884FEAD3039BB21A467B6802F1080268
:1059A000B96843F8221007F11407BD4680BC704760
:1059B000ABBE00F002B800207047002A00F0018062
:1059C00010600120704706980188044A914240F017
:1059D0000380043006907047FEE70000ABBE000075
:1059E00080B483B000AF78607B6803F108027B6805
:1059F0005A607B684FF0FF329A607B6803F10802BF
:105A00007B68DA607B6803F108027B681A617B6857
:105A10004FF000021A6007F10C07BD4680BC7047CA
:105A200080B483B000AF78607B684FF000021A61E9
:105A300007F10C07BD4680BC704700BF80B485B03D
:105A400000AF786039607B685B68FB60FB685A6810
:105A50003B685A607B685A683B689A60FB685B6881
:105A60003A689A60FB683A685A607B683A685A609C
:105A70003B687A681A617B681B6803F101027B68E6
:105A80001A6007F11407BD4680BC704780B485B02A
:105A900000AF786039603B681B68BB60BB68B3F1DE
:105AA000FF3F03D17B681B69FB600DE07B6803F15E
:105AB0000803FB6002E0FB685B68FB60FB685B68F7
:105AC0001A68BB689A42F6D9FB685A683B685A6004
:105AD0003B685B683A689A603B68FA689A60FB6862
