:020000040800F2
:1000000050120020B50F0008311000088359000875
:100010003110000831100008311000080000000005
:1000200000000000000000000000000089600008DF
:1000300031100008000000008D610008E561000833
:10004000311000083110000831100008311000088C
:10005000311000083110000831100008311000087C
:10006000311000083110000831100008311000086C
:10007000311000083110000831100008311000085C
:10008000311000083110000831100008311000084C
:10009000311000083110000831100008311000083C
:1000A000311000083110000831100008311000082C
:1000B000311000083110000831100008311000081C
:1000C000311000083110000831100008311000080C
:1000D00031100008311000083110000831100008FC
:1000E00031100008311000083110000831100008EC
:1000F00031100008311000083110000831100008DC
:1001000031100008311000083110000831100008CB
:1001100031100008311000083110000831100008BB
:1001200031100008311000083110000831100008AB
:10013000311000083110000831100008311000089B
:10014000311000083110000831100008311000088B
:10015000311000083110000831100008311000087B
:10016000311000083110000831100008311000086B
:10017000311000083110000831100008311000085B
:10018000311000083110000880B584B004AF04F0CD
:1001900017FD024647F2B873C0F60003009347F21A
:1001A000C873C0F60003019347F2D473C0F600038E
:1001B0000293104647F2AC71C0F6000147F2B472E8
:1001C000C0F600024FF0000306F008FD00F01AF937
:1001D000BD4680BD80B584B004AF04F0F1FC02469A
:1001E00047F2B873C0F60003009347F60003C0F669
:1001F0000003019347F61003C0F600030293104674
:1002000047F2F871C0F6000147F2B472C0F600027E
:100210004FF0000306F0E2FC4FF000031846BD4625
:1002200080BD00BFF0B587B004AF786004F0C8FCB3
:1002300006464FF0000004F0D7FC05464FF00000E2
:1002400004F064FB044647F2B873C0F60003009361
:1002500047F63003C0F60003019347F64003C0F6AB
:1002600000030293304647F2AC71C0F600012A4603
:10027000234606F0B3FC05F057FF786800F032F92A
:1002800005F068FF07F10C07BD46F0BDF0B589B079
:1002900004AF78604FF00003FB73786800F060F8FB
:1002A00003461C46786800F071F803462343DAB22F
:1002B000FB7B1343FB73FB7B002B25D104F080FCFD
:1002C00006464FF0000004F08FFC05464FF000009A
:1002D00004F01CFB044647F2B873C0F60003009319
:1002E00047F65C03C0F60003019347F66C03C0F6C3
:1002F00000030293304647F2AC71C0F600012A4673
:10030000234606F06BFC24E004F05AFC06464FF04E
:10031000000004F069FC05464FF0000004F0F6FA16
:10032000044647F2B873C0F60003009347F65C0337
:10033000C0F60003019347F69403C0F6000302934E
:10034000304647F68C01C0F600012A46234606F0E7
:1003500045FCFB7B184607F11407BD46F0BD00BF06
:1003600080B485B000AF78604FF00003FB737B680A
:100370001B68002B02DA4FF00103FB73FB7B18466E
:1003800007F11407BD4680BC704700BF80B485B03C
:1003900000AF78604FF00003FB737B689B881BB253
:1003A000B42B05DC7B689B881BB213F1B40F03DA16
:1003B000FB7B43F00203FB737B68DB881BB2B42B2F
:1003C00005DC7B68DB881BB213F1B40F03DAFB7B1F
:1003D00043F00403FB737B681B891BB2B42B05DC61
:1003E0007B681B891BB213F1B40F03DAFB7B43F06C
:1003F0000803FB73FB7B184607F11407BD4680BC5E
:10040000704700BF80B586B000AF4FF008004FF0D6
:10041000010100F0F7FE4FF480204FF0010100F0E1
:100420001BFF4FF44060C4F202004FF008014FF090
:10043000070205F047FA4FF00003BB754FF00103C8
:10044000FB754FF002033B754FF002037B7507F11C
:1004500010034FF44060C4F20200194605F090F911
:100460004FF44060C4F202004FF009014FF0070260
:1004700005F028FA4FF002033B754FF002037B753D
:100480004FF400733B6107F110034FF44060C4F276
:100490000200194605F074F94FF4E1333B604FF068
:1004A0000003BB804FF00003FB804FF000033B8153
:1004B0004FF00003BB814FF004037B813B464FF4B8
:1004C0009040C4F20000194600F0FAF94FF4904051
:1004D000C4F200004FF0010100F0C8FA07F118075C
:1004E000BD4680BD90B58FB000AF78604FF000037F
:1004F00087F8373044E000BF4FF49040C4F200006A
:100500004FF0200100F0F8FA0346002BF4D097F8E2
:100510003730002B1DD04FF49040C4F2000000F0A3
:10052000D9FA0346522B14D14FF0000387F8373025
:1005300097F837404FF49040C4F2000000F0CAFA38
:1005400003461A464FEA440307F13801CB1823F853
:100550002C2C97F837404FF49040C4F2000000F084
:10056000B9FA03461A464FEA440307F13801CB189B
:1005700023F82C2C97F8373003F1010387F8373034
:1005800097F837304FEA430307F13802D31833F8AE
:100590002C3C532BAFD17B684FF000029A807B68D4
:1005A0004FF00002DA807B684FF000021A814FF0B2
:1005B000000387F8373097F837304FEA430307F1E5
:1005C0003801CB1833F82C3C522B40F0748197F84B
:1005D000373003F1010387F8373097F837304FEAA7
:1005E000430307F13802D31833F82C3C2D2B5ED18E
:1005F00097F8373003F1010387F8373020E07B6844
:100600009B889BB21A464FEA8202D3184FEA4303F3
:100610009AB297F837304FEA430307F13801CB1805
:1006200033F82C3CD3189BB2A3F130039BB29AB29F
:100630007B689A8097F8373003F1010387F83730E9
:1006400097F837304FEA430307F13802D31833F8ED
:100650002C3C502BD3D17B689B889BB2C3F1000309
:100660009BB29AB27B689A802DE07B689B889BB294
:100670001A464FEA8202D3184FEA43039AB297F818
:1006800037304FEA430307F13801CB1833F82C3CDD
:10069000D3189BB2A3F130039BB29AB27B689A80C5
:1006A00097F8373003F1010387F8373000E000BFD7
:1006B00097F837304FEA430307F13802D31833F87D
:1006C0002C3C502BD1D197F8373003F1010387F838
:1006D000373097F837304FEA430307F13801CB182A
:1006E00033F82C3C2D2B5ED197F8373003F1010302
:1006F00087F8373020E07B68DB889BB21A464FEAE8
:100700008202D3184FEA43039AB297F837304FEA80
:10071000430307F13801CB1833F82C3CD3189BB2B4
:10072000A3F130039BB29AB27B68DA8097F8373036
:1007300003F1010387F8373097F837304FEA430366
:1007400007F13802D31833F82C3C592BD3D17B68EE
:10075000DB889BB2C3F100039BB29AB27B68DA805C
:100760002DE07B68DB889BB21A464FEA8202D318E1
:100770004FEA43039AB297F837304FEA430307F141
:100780003801CB1833F82C3CD3189BB2A3F13003BB
:100790009BB29AB27B68DA8097F8373003F1010395
:1007A00087F8373000E000BF97F837304FEA43034F
:1007B00007F13802D31833F82C3C592BD1D197F8D4
:1007C000373003F1010387F8373097F837304FEAB5
:1007D000430307F13801CB1833F82C3C2D2B5ED1A5
:1007E00097F8373003F1010387F8373020E07B6852
:1007F0001B899BB21A464FEA8202D3184FEA430381
:100800009AB297F837304FEA430307F13801CB1813
:1008100033F82C3CD3189BB2A3F130039BB29AB2AD
:100820007B681A8197F8373003F1010387F8373076
:1008300097F837304FEA430307F13802D31833F8FB
:100840002C3C532BD3D17B681B899BB2C3F1000393
:100850009BB29AB27B681A812DE07B681B899BB2A0
:100860001A464FEA8202D3184FEA43039AB297F826
:1008700037304FEA430307F13801CB1833F82C3CEB
:10088000D3189BB2A3F130039BB29AB27B681A8152
:1008900097F8373003F1010387F8373000E000BFE5
:1008A00097F837304FEA430307F13802D31833F88B
:1008B0002C3C532BD1D107F13C07BD4690BD00BF66
:1008C00080B58AB000AF786039604FF000037B627A
:1008D0004FF000033B624FF00003FB614FF0000359
:1008E000BB617B681B8A9BB27B627B6A23F44053AB
:1008F0007B623B68DB887A6A13437B627B6A9AB2CD
:100900007B681A827B689B899BB27B627B6A23F43B
:10091000B05323F00C037B623B689A883B681B89C9
:1009200013439AB23B685B8913439BB27A6A1343C1
:100930007B627B6A9AB27B689A817B689B8A9BB256
:100940007B627B6A23F440737B623B689B897A6A93
:1009500013437B627B6A9AB27B689A8207F1080331
:10096000184600F069FB7A684FF48053C4F2010323
:100970009A4206D07A684FF4A053C4F201039A4217
:1009800002D17B693B6201E03B693B627B689B89EA
:100990009BB29BB21BB2002B0FDA3A6A13464FEAA6
:1009A00083039B184FEA83029A183B681B684FEA3F
:1009B0004303B2FBF3F3FB610EE03A6A13464FEADE
:1009C00083039B184FEA83029A183B681B684FEA1F
:1009D0008303B2FBF3F3FB61FA6948F21F53C5F2DC
:1009E000EB13A3FB02134FEA53134FEA03137B628B
:1009F0007B6A4FEA13134FF0640202FB03F3FA69B8
:100A0000D31ABB617B689B899BB29BB21BB2002B44
:100A100012DABB694FEAC30303F1320248F21F53F3
:100A2000C5F2EB13A3FB02134FEA531303F00703C2
:100A30007A6A13437B6211E0BB694FEA031303F147
:100A4000320248F21F53C5F2EB13A3FB02134FEA25
:100A5000531303F00F037A6A13437B627B6A9AB2E3
:100A60007B681A8107F12807BD4680BD80B483B03A
:100A700000AF78600B46FB70FB78002B08D07B68DA
:100A80009B899BB243F400539AB27B689A8107E03A
:100A90007B689B899BB223F400539AB27B689A814E
:100AA00007F10C07BD4680BC704700BF80B483B01F
:100AB00000AF78600B467B807B884FEAC3534FEAD8
:100AC000D3539AB27B689A8007F10C07BD4680BC6D
:100AD000704700BF80B483B000AF78607B689B88AC
:100AE0009BB24FEAC3534FEAD3539BB2184607F168
:100AF0000C07BD4680BC704780B485B000AF7860FD
:100B00000B467B804FF00003FB737B681B889AB217
:100B10007B8813409BB2002B03D04FF00103FB7383
:100B200002E04FF00003FB73FB7B184607F114074C
:100B3000BD4680BC704700BF80B584B004AF04F0F0
:100B40003FF8024647F6C403C0F60003009347F699
:100B5000D403C0F60003019347F6E403C0F6000394
:100B60000293104647F6B801C0F6000147F6C002EE
:100B7000C0F600024FF0000306F030F8BD4680BD1D
:100B800080B584B004AF04F01BF8024647F6C403F6
:100B9000C0F60003009347F6F803C0F60003019384
:100BA00047F6E403C0F600030293104647F6B80187
:100BB000C0F6000147F6C002C0F600024FF0000385
:100BC00006F00CF84FF000031846BD4680BD00BF8C
:100BD000F0B587B004AF786003F0F2FF06464FF03F
:100BE000000004F001F805464FF0000003F08EFE0F
:100BF000044647F6C403C0F60003009347F62C13DF
:100C0000C0F60003019347F6E403C0F60003029325
:100C1000304647F6B801C0F600012A46234605F0E3
:100C2000DDFF07F10C07BD46F0BD00BFF0B589B090
:100C300004AF78604FF4FA73FB814FF03203BB814D
:100C40007B681B881A46FB8903F59C5303F1080354
:100C50009A4207DC7B681B881A46BB8903F59673AA
:100C60009A4227DA03F0ACFF06464FF0000003F08B
:100C7000BBFF05464FF0000003F048FE044647F670
:100C80004813C0F60003009347F65813C0F600035C
:100C9000019347F67013C0F600030293304647F6FF
:100CA0004011C0F600012A46234605F097FF4FF099
:100CB000000326E003F084FF06464FF0000003F037
:100CC00093FF05464FF0000003F020FE044647F670
:100CD0004813C0F60003009347F65813C0F600030C
:100CE000019347F69813C0F600030293304647F687
:100CF0009011C0F600012A46234605F06FFF4FF021
:100D00000103184607F11407BD46F0BD80B584B055
:100D100004AF03F055FF024647F64813C0F6000340
:100D2000009347F6BC13C0F60003019347F6D013B7
:100D3000C0F600030293104647F6B011C0F600015A
:100D400047F6B812C0F600024FF0000305F046FF68
:100D5000BD4680BD80B584B004AF03F031FF0246CC
:100D600047F64813C0F60003009347F6E413C0F6B5
:100D70000003019347F6D013C0F600030293104618
:100D800047F6B011C0F6000147F6B812C0F60002EF
:100D90004FF0000305F022FF4FF000031846BD4658
:100DA00080BD00BFF0B587B004AF0346FB7103F010
:100DB00007FF06464FF0000003F016FF05464FF010
:100DC000000003F0A3FD044647F64813C0F60003F5
:100DD000009347F61023C0F60003019347F6D013A3
:100DE000C0F600030293304647F6B011C0F600018A
:100DF0002A46234605F0F2FE4FF00003184607F19D
:100E00000C07BD46F0BD00BFF0B587B004AF7860F9
:100E10007B681846FFF70AFF0346002B5DD07B680E
:100E200003F102031846FFF701FF0346002B54D0DD
:100E30007B6803F104031846FFF7F8FE0346002B16
:100E40004BD07B6803F106031846FFF7EFFE03461D
:100E5000002B42D07B6803F108031846FFF7E6FE3B
:100E60000346002B39D07B6803F10A031846FFF7CD
:100E7000DDFE0346002B30D07B6803F10C031846DF
:100E8000FFF7D4FE0346002B27D003F099FE064659
:100E90004FF0000003F0A8FE05464FF0000003F0FD
:100EA00035FD044647F64813C0F60003009347F6A5
:100EB0007023C0F60003019347F68823C0F60003B1
:100EC0000293304647F69011C0F600012A462346A9
:100ED00005F084FE4FF0010326E003F071FE0646A4
:100EE0004FF0000003F080FE05464FF0000003F0D5
:100EF0000DFD044647F64813C0F60003009347F67D
:100F00007023C0F60003019347F69823C0F6000350
:100F10000293304647F64011C0F600012A462346A8
:100F200005F05CFE4FF00003184607F10C07BD46C4
:100F3000F0BD00BF80B582B000AF78604FF0010017
:100F4000FFF730FF03461A467B681A804FF0020015
:100F5000FFF728FF03461A467B685A804FF00400CB
:100F6000FFF720FF03461A467B689A804FF008007F
:100F7000FFF718FF03461A467B68DA804FF010002F
:100F8000FFF710FF03461A467B681A814FF02000D6
:100F9000FFF708FF03461A467B685A814FF040006E
:100FA000FFF700FF03461A467B689A8107F108079E
:100FB000BD4680BD80B582B000AF48F6F053C0F6A4
:100FC00000037B6040F20003C2F200033B600BE0D1
:100FD0007B681A683B681A603B6803F104033B6056
:100FE0007B6803F104037B603A6840F66C03C2F24D
:100FF00000039A42ECD30B480B494FF000028842A1
:10100000B8BF40F8042BFFF6FAAFDFF82000016804
:1010100041F47001016000F0FDFE07F10807BD46D4
:1010200080BD00006C080020500A002088ED00E020
:1010300080B400AFFEE700BF80B489B000AF786035
:101040004FF00003BB614FF000037B614FF00003E2
:10105000FB614FF002033B614FF00003FB604FF078
:101060000203BB604FF46053C4F202039B6803F0B9
:101070000C03BB61BB69042B0AD0082B0FD0002BDB
:1010800060D17A684FF41053C0F2F403136060E04B
:101090007A684FF49053C0F27A03136059E04FF42A
:1010A0006053C4F202035B6803F480034FEA935376
:1010B000FB604FF46053C4F202035B6803F03F032C
:1010C000BB60FB68002B14D04FF49053C0F27A033E
:1010D000BA68B3FBF2F24FF46053C4F202035968EA
:1010E00047F6C0730B404FEA931303FB02F3FB6117
:1010F00013E04FF41053C0F2F403BA68B3FBF2F2FA
:101100004FF46053C4F20203596847F6C0730B40B2
:101110004FEA931303FB02F3FB614FF46053C4F2F5
:1011200002035B6803F440334FEA134303F1010306
:101130004FEA43033B61FA693B69B2FBF3F27B6818
:101140001A6006E07A684FF41053C0F2F40313609B
:1011500000BF4FF46053C4F202039B6803F0F00336
:10116000BB61BB694FEA1313BB6140F20003C2F2DB
:101170000003BA699B181B78DBB27B617B681A6835
:101180007B6922FA03F27B685A604FF46053C4F221
:1011900002039B6803F4E053BB61BB694FEA9323EE
:1011A000BB6140F20003C2F20003BA699B181B78CE
:1011B000DBB27B617B685A687B6922FA03F27B6849
:1011C0009A604FF46053C4F202039B6803F46043D7
:1011D000BB61BB694FEA5333BB6140F20003C2F20B
:1011E0000003BA699B181B78DBB27B617B685A6885
:1011F0007B6922FA03F27B68DA6007F12407BD46B7
:1012000080BC704780B483B000AF78600B46FB7041
:10121000FB78002B0CD04FF46053C4F202034FF460
:101220006052C4F20202116B7A680A431A630DE03D
:101230004FF46053C4F202034FF46052C4F202024E
:10124000116B7A686FEA02020A401A6307F10C0711
:10125000BD4680BC704700BF80B483B000AF7860EB
:101260000B46FB70FB78002B0CD04FF46053C4F29C
:1012700002034FF46052C4F20202116C7A680A430E
:101280001A640DE04FF46053C4F202034FF460524D
:10129000C4F20202116C7A686FEA02020A401A6410
:1012A00007F10C07BD4680BC704700BF80B483B017
:1012B00000AF78600B46FB70FB78002B0CD04FF42E
:1012C0006053C4F202034FF46052C4F20202516C44
:1012D0007A680A435A640DE04FF46053C4F2020383
:1012E0004FF46052C4F20202516C7A686FEA020253
:1012F0000A405A6407F10C07BD4680BC704700BF26
:10130000F0B587B004AF78607B681B785BB213F1EF
:10131000020F4DDB7B681B785BB2022B48DC7B68DD
:101320005B785BB213F1020F42DB7B685B785BB2E8
:10133000022B3DDC7B689B785BB213F1020F37DB3D
:101340007B689B785BB2022B32DC7B68DB785BB21C
:1013500013F1020F2CDB7B68DB785BB2022B27DCFE
:1013600003F02EFC06464FF0000003F03DFC05465E
:101370004FF0000003F0CAFA044647F6D023C0F647
:101380000003009347F6E023C0F60003019347F6FD
:10139000F423C0F600030293304647F6C821C0F696
:1013A00000012A46234605F019FC4FF0010326E010
:1013B00003F006FC06464FF0000003F015FC05465E
:1013C0004FF0000003F0A2FA044647F6D023C0F61F
:1013D0000003009347F6E023C0F60003019347F6AD
:1013E0002033C0F600030293304647F61831C0F6AA
:1013F00000012A46234605F0F1FB4FF00003184692
:1014000007F10C07BD46F0BDF0B589B004AFF86038
:10141000B9607A603B6003F0D3FB06464FF00000F2
:1014200003F0E2FB05464FF0000003F06FFA0446BC
:1014300047F6D023C0F60003009347F65033C0F6BA
:101440000003019347F66433C0F60003029330466D
:1014500047F64831C0F600012A46234605F0BEFB98
:1014600007F11407BD46F0BDF0B589B004AFF860D0
:10147000B9607A6003F0A4FB06464FF0000003F069
:10148000B3FB05464FF0000003F040FA044647F670
:10149000D023C0F60003009347F67833C0F600036C
:1014A000019347F66433C0F600030293304647F6D3
:1014B0004831C0F600012A46234605F08FFB07F1AC
:1014C0001407BD46F0BD00BFF0B589B004AFF860A9
:1014D000B9607A6003F074FB06464FF0000003F039
:1014E00083FB05464FF0000003F010FA044647F670
:1014F000D023C0F60003009347F68C33C0F60003F8
:10150000019347F66433C0F600030293304647F672
:101510004831C0F600012A46234605F05FFB4FF034
:101520000003184607F11407BD46F0BDF0B589B0B9
:1015300004AFF860B9607A603B6003F041FB064697
:101540004FF0000003F050FB05464FF0000003F0A1
:10155000DDF9044647F6D023C0F60003009347F6B2
:10156000A433C0F60003019347F66433C0F60003CA
:101570000293304647F64831C0F600012A4623461A
:1015800005F02CFB07F11407BD46F0BDF0B587B0A0
:1015900004AF786003F014FB06464FF0000003F040
:1015A00023FB05464FF0000003F0B0F9044647F670
:1015B000D023C0F60003009347F6CC33C0F60003F7
:1015C000019347F66433C0F600030293304647F6B2
:1015D0004831C0F600012A46234605F0FFFA07F11C
:1015E0000C07BD46F0BD00BF80B582B000AF03461A
:1015F000FB71FB79184605F011FB07F10807BD46A2
:1016000080BD00BF80B483B000AF78600B46FB7034
:101610007B68FA781A704FF00103184607F10C073F
:10162000BD4680BC704700BF80B485B000AF786015
:1016300039604FF00003FB600FE03B681A787B686D
:101640001A707B6803F101037B603B6803F10103BF
:101650003B60FB6803F10103FB603B681B78002BD8
:10166000EBD1FB68184607F11407BD4680BC7047F4
:1016700080B586B000AFF8607A603B600B46FB72C5
:101680004FF000037B617B6803F1FF337B603B68B5
:10169000092B25D93A684CF6CD43CCF6CC43A3FBB5
:1016A00002134FEAD303FA7AF86811467A68FFF713
:1016B000DFFF78617B69FA68D318FB6013E0FB7A7F
:1016C000F8681946FFF79EFFFB6803F10103FB6012
:1016D0007B6903F101037B617B6803F1FF337B606E
:1016E0007B68002BEBDC39684CF6CD43CCF6CC4361
:1016F000A3FB01234FEAD30213464FEA83039B184F
:101700004FEA4303CA1AD3B203F13003DBB2F868DD
:101710001946FFF777FF03467A69D3187B617B6927
:10172000184607F11807BD4680BD00BF80B586B0DA
:1017300000AFF8607A603B600B46FB724FF000032D
:101740007B613B68002B04DA3B68C3F100033B611B
:1017500001E03B683B617B6803F1FF337B603B69E1
:10176000092B2AD93B68002B12DA3A694CF6CD4393
:10177000CCF6CC43A3FB02134FEAD303C3F100031F
:10178000FA7AF86811467A68FFF7D0FF78610FE0BF
:101790003A694CF6CD43CCF6CC43A3FB02134FEA97
:1017A000D303FA7AF86811467A68FFF7BFFF7861C9
:1017B0007B69FA68D318FB602BE03B68002B15DAD5
:1017C0007B6803F1FF337B6010E0FB7AF868194611
:1017D000FFF718FFFB6803F10103FB607B6903F16E
:1017E00001037B617B6803F1FF337B607B68002B27
:1017F000EBDC3B68002B0CDAF8684FF02D01FFF7AB
:1018000001FF03467A69D3187B61FB6803F101038A
:10181000FB6039694CF6CD43CCF6CC43A3FB0123E6
:101820004FEAD30213464FEA83039B184FEA430360
:10183000CA1AD3B203F13003DBB2F8681946FFF7D6
:10184000E1FE03467A69D3187B617B69184607F18C
:101850001807BD4680BD00BF80B588B002AFF860F4
:101860007A600A46FA72BB724FF000037B617B68B4
:1018700003F1FF337B603B6A4FEA1313002B24D044
:101880003B6A4FEA1311FA7ABB7A0091F868114665
:101890007A68FFF7E1FF03467A69D3187B617B69B9
:1018A000FA68D318FB6013E0FB7AF8681946FFF773
:1018B000A9FEFB6803F10103FB607B6903F10103EF
:1018C0007B617B6803F1FF337B607B68002BEBDC83
:1018D0003B6A03F00F03092B0CD83B6ADBB203F021
:1018E0000F03DBB203F13003DBB2F8681946FFF7F0
:1018F00089FE1BE0BB7A002B0CD03B6ADBB203F005
:101900000F03DBB203F13703DBB2F8681946FFF7C8
:1019100079FE0BE03B6ADBB203F00F03DBB203F1AD
:101920005703DBB2F8681946FFF76CFE7B6903F1D9
:1019300001037B617B69184607F11807BD4680BD2E
:1019400080B58AB002AFF860B9607A603B604FF052
:101950000003BB614FF000037B61FB68002B00F0CC
:101960001C81FB684FF000021A7016E17B681B783F
:10197000252B10D07B681A78FB681A70FB6803F17E
:101980000103FB607B6803F101037B607B6903F16A
:1019900001037B6102E17B6803F101031B78252BC6
:1019A00010D1FB684FF025021A70FB6803F10103A8
:1019B000FB607B6803F102037B607B6903F1010339
:1019C0007B61EBE04FF02003FB774FF00003BB7728
:1019D0007B6803F101037B607B681B78302B1BD194
:1019E0004FF03003FB777B6803F101037B6013E06A
:1019F000BB7F1A464FEA8202D3184FEA4303DAB29A
:101A00007B681B78D318DBB2A3F13003BB777B680C
:101A100003F101037B6000E000BF7B681B782F2B84
:101A200003D97B681B78392BE2D9BA7F7B69D3183D
:101A30001A46BB689A4205D9BB68DAB27B69DBB249
:101A4000D31ABB777B681B78A3F15803202B00F2D5
:101A5000948001A252F823F02D1B00087B1B000884
:101A60007B1B00087B1B00087B1B00087B1B0008FE
:101A70007B1B00087B1B00087B1B00087B1B0008EE
:101A80007B1B0008631B0008DD1A00087B1B000895
:101A90007B1B00087B1B00087B1B0008DD1A00086D
:101AA0007B1B00087B1B00087B1B00087B1B0008BE
:101AB0007B1B00087B1B00087B1B00087B1B0008AE
:101AC0007B1B00084D1B00087B1B0008F51A000853
:101AD0007B1B00087B1B00080D1B0008BA7F3B68BE
:101AE00003F1040139601B68F97FF868FFF71EFEF7
:101AF000B86145E0BA7F3B6803F1040139601B68B7
:101B0000F97FF868FFF7B4FDB86139E0BA7F3B6848
:101B100003F1040139601968FB7F0091F8681946E8
:101B20004FF00003FFF798FEB86129E0BA7F3B68E9
:101B300003F1040139601968FB7F0091F8681946C8
:101B40004FF00103FFF788FEB86119E03B6803F12D
:101B500004023A601B68F8681946FFF765FDB86132
:101B60000EE03B6803F104023A601B68DBB2F868E0
:101B70001946FFF747FDB86102E04FF0FF332CE054
:101B80007B6803F101037B60BB69FA68D318FB60D3
:101B90007A69BB69D3187B6100E000BF7B681B7862
:101BA000002B04D07A69BB689A42FFF4DFAE7A69F1
:101BB000BB689A4204D2FB684FF000021A700BE037
:101BC000FB6803F1FF33FB60FB684FF000021A7003
:101BD0007B6903F1FF337B617B69184607F12007BE
:101BE000BD4680BD80B584B000AFF860B9607A6052
:101BF000F8684FF0C801BA687B68FFF7A1FE03469A
:101C0000184607F11007BD4680BD00BFB0B5C0B093
:101C100000AFF860B9607A6047F6E033C0F60003C1
:101C200007F114041D460FCD0FC40FCD0FC42B6850
:101C3000236007F138031846B9687A68FFF7D2FFC6
:101C40000346C72B0CDD40F23843C2F200031B6889
:101C5000DB6807F114021046194600F073F8FEE73E
:101C600007F138031846F96800F06CF80346184687
:101C700007F58077BD46B0BD80B582B000AF786013
:101C8000396040F23843C2F200031B689B68184673
:101C900079683A68FFF7BAFF0346184607F1080764
:101CA000BD4680BD0FB480B582B000AF07F114030C
:101CB0003B6038693968FFF7DFFF78607B6818465A
:101CC00007F10807BD46BDE8804004B0704700BF7B
:101CD00080B582B000AF786040F23843C2F20003B2
:101CE0001B689B687868194600F02CF80346184674
:101CF00007F10807BD4680BD80B582B000AF7860AF
:101D0000396040F23843C2F200031B689A683B68AE
:101D10009A4208D040F23843C2F200031B68DA68E6
:101D20003B689A4206D17B68DBB21846FFF75CFC41
:101D30007B6801E04FF0FF33184607F10807BD4606
:101D400080BD00BF80B584B000AF786039604FF0CF
:101D50000003FB6014E07B681B7818463968FFF7C6
:101D6000CBFF0346B3F1FF3F02D14FF0FF330CE04E
:101D7000FB6803F10103FB607B6803F101037B60F7
:101D80007B681B78002BE6D1FB68184607F110072B
:101D9000BD4680BD80B485B000AF78607B6803F03D
:101DA0000703FB604FF46D43CEF20003DB68BB60BA
:101DB000BA684FF6FF031340BB60FB684FEA03228B
:101DC000BB68134343F0BF6343F40033BB604FF47D
:101DD0006D43CEF20003BA68DA6007F11407BD461E
:101DE00080BC704780B400AFBFF34F8F4FF46D429B
:101DF000CEF200024FF46D43CEF20003DB6803F431
:101E0000E0614FF00403C0F2FA530B43D360BFF319
:101E10004F8FFEE780B594B004AF01F0B1F904F044
:101E20005DFE01F069F901F0F7F901F003FA0346EC
:101E30001A4640F64023C2F200035A8040F640237F
:101E4000C2F200035B88002B4BD040F64023C2F265
:101E500000035B88102B44D002F0B2FE024647F626
:101E60004C43C0F60003009347F65C43C0F6000302
:101E7000019347F66443C0F600030293104647F609
:101E80004041C0F6000147F64842C0F600024FF05C
:101E9000000304F0A3FE40F64023C2F200034FF01B
:101EA00002021A7040F64020C2F2000001F01EFC4F
:101EB0003B461846FEF78CFE3B78002BF2D13B7870
:101EC000012BEFD13B78002B02D0012B03D005E092
:101ED00002F05EFA05E002F085FA02E002F082FA12
:101EE00000BF02F06DFE024647F64C43C0F6000309
:101EF000009347F65C43C0F60003019347F6A04306
:101F0000C0F600030293104647F69841C0F6000160
:101F100047F64842C0F600024FF0000304F05EFEB0
:101F20004FF001004FF0000104F098F9024640F62E
:101F30006C03C2F200031A6040F66C03C2F20003A5
:101F40001B68002B53D102F03BFE024647F64C4380
:101F5000C0F60003009347F65C43C0F6000301930C
:101F600047F6B843C0F600030293104647F64041D7
:101F7000C0F6000147F64842C0F600024FF00003E9
:101F800004F02CFE40F64023C2F200034FF00202A0
:101F90001A7040F64023C2F200035B886FEA4343A5
:101FA0006FEA53439AB240F64023C2F200035A80CC
:101FB00040F64020C2F2000001F098FB3B46184674
:101FC000FEF706FE3B78002BF2D13B78012BEFD1D8
:101FD0003B78002B02D0012B03D005E002F0D8F9AA
:101FE00005E002F0FFF902E002F0FCF900BF02F0A8
:101FF000E7FD024647F64C43C0F60003009347F660
:102000005C43C0F60003019347F6DC43C0F60003CF
:102010000293104647F69841C0F6000147F6484241
:10202000C0F600024FF0000304F0D8FD4FF00403A7
:10203000009340F63423C2F2000301934FF00003F3
:1020400002934FF00003039342F22540C0F60000D4
:1020500047F6FC41C0F600014FF480724FF00003D8
:1020600002F0EAF902F0ACFD024647F64C43C0F636
:102070000003009347F65C43C0F60003019347F664
:102080000053C0F600030293104647F69841C0F68D
:10209000000147F64842C0F600024FF0000304F08A
:1020A0009DFD4FF00403009340F63C23C2F2000371
:1020B00001934FF0000302934FF00003039342F6A5
:1020C000B950C0F6000047F62451C0F600014FF4A5
:1020D00080724FF0000302F0AFF902F071FD02468A
:1020E00047F64C43C0F60003009347F65C43C0F646
:1020F0000003019347F62853C0F6000302931046ED
:1021000047F69841C0F6000147F64842C0F6000283
:102110004FF0000304F062FD4FF00303009340F61C
:102120003823C2F2000301934FF0000302934FF0F3
:102130000003039342F21160C0F6000047F64451D9
:10214000C0F600014FF480724FF0000302F074F902
:1021500002F036FD024647F64C43C0F600030093FA
:1021600047F65C43C0F60003019347F64853C0F6B8
:1021700000030293104647F69841C0F6000147F667
:102180004842C0F600024FF0000304F027FD4FF074
:102190000203009340F64823C2F2000301934FF07C
:1021A000000302934FF00003039342F69110C0F630
:1021B000000047F66851C0F600014FF480724FF0FE
:1021C000000302F039F902F0FBFC024647F64C43EB
:1021D000C0F60003009347F65C43C0F6000301938A
:1021E00047F66C53C0F600030293104647F6984139
:1021F000C0F6000147F64842C0F600024FF0000367
:1022000004F0ECFC40F64023C2F200034FF0010260
:102210001A704FF00203009340F64423C2F2000309
:1022200001934FF0000302934FF00003039342F633
:102230004970C0F6000047F68851C0F600014FF41F
:1022400080724FF0000302F0F7F840F63423C2F238
:1022500000031B68002B1BD040F63823C2F200039A
:102260001B68002B14D040F64823C2F200031B6801
:10227000002B0DD040F63C23C2F200031B68002B5C
:1022800006D040F64423C2F200031B68002B53D152
:1022900002F096FC024647F64C43C0F6000300935A
:1022A00047F65C43C0F60003019347F68C53C0F633
:1022B00000030293104647F64041C0F6000147F67E
:1022C0004842C0F600024FF0000304F087FC40F6DD
:1022D0004023C2F200034FF002021A7040F640237E
:1022E000C2F200035B886FEA43436FEA53439AB23A
:1022F00040F64023C2F200035A8040F64020C2F26A
:10230000000001F0F3F93B461846FEF761FC3B780C
:10231000002BF2D13B78012BEFD13B78002B02D080
:10232000012B03D005E002F033F805E002F05AF883
:1023300002E002F057F800BF02F042FC024647F606
:102340004C43C0F60003009347F65C43C0F600031D
:10235000019347F6A453C0F600030293104647F6D4
:102360009841C0F6000147F64842C0F600024FF01F
:10237000000304F033FC02F0E5FA02F021FC02460F
:1023800047F64C43C0F60003009347F65C43C0F6A3
:102390000003019347F6B853C0F6000302931046BA
:1023A00047F64041C0F6000147F64842C0F6000239
:1023B0004FF0000304F012FC40F64023C2F2000389
:1023C0004FF002021A7040F64023C2F200035B880D
:1023D0006FEA43436FEA53439AB240F64023C2F296
:1023E00000035A8040F64020C2F2000001F07EF95E
:1023F0003B461846FEF7ECFB3B78002BF2D13B78CE
:10240000012BEFD13B78002B02D0012B03D005E04C
:1024100001F0BEFF05E001F0E5FF02E001F0E2FFA0
:1024200000BFFEE780B596B000AF786002F0C8FB51
:1024300003467B6507F10C03184601F07BFC07F1AE
:102440000803184601F0ACFC07F144031846FEF7F8
:1024500071FD07F144031846FEF7D6FC0346002B36
:1024600000F0C4807B8923F002039BB27B8107F1DB
:102470000803184601F0C6FBB7F844203B8C9A428B
:1024800007D297F8523043F00103DBB287F852309D
:1024900006E097F8523023F00103DBB287F85230A0
:1024A000B7F84E203B8C9A4207D297F8523043F04F
:1024B0002003DBB287F8523006E097F8523023F061
:1024C0002003DBB287F85230B7F848203B8C9A42A1
:1024D00007D297F8523043F00403DBB287F852304A
:1024E00006E097F8523023F00403DBB287F852304D
:1024F000B7F846203B8C9A4207D297F8523043F007
:102500000203DBB287F8523006E097F8523023F02E
:102510000203DBB287F85230B7F84C203B8C9A426A
:1025200007D297F8523043F01003DBB287F85230ED
:1025300006E097F8523023F01003DBB287F85230F0
:10254000B7F84A203B8C9A4207D297F8523043F0B2
:102550000803DBB287F8523006E097F8523023F0D8
:102560000803DBB287F8523040F64023C2F2000382
:102570001B78012B06D140F64023C2F200031B78E2
:10258000072B14D0B7F85020BB8A9A4207D297F88D
:10259000523043F04003DBB287F852300EE097F838
:1025A000523023F04003DBB287F8523006E097F850
:1025B000523023F04003DBB287F8523007F1440376
:1025C000184601F0D5FA97F85230002B18D040F693
:1025D0006C03C2F200031B6818464FF000014FF075
:1025E00000024FF0000303F003FF09E07B8943F092
:1025F00002039BB27B8107F10803184601F002FB3E
:10260000FB6A07F154021046194602F0B7F811E7C9
:10261000F0B5AFB004AF786047F6AC23C0F6000366
:1026200007F10C041D460FCD0FC495E8030084E8A4
:10263000030040F66C03C2F200031B68002B24D198
:1026400002F0BEFA06464FF0000002F0CDFA054651
:102650004FF0000002F05AF9044647F64C43C0F62A
:102660000003009347F6D053C0F60003019347F6EA
:10267000E453C0F600030293304647F64041C0F6EB
:1026800000012A46234604F0A9FA02F099FA064608
:102690004FF0000002F0A8FA05464FF0000002F0EB
:1026A00035F9044647F64C43C0F60003009347F65D
:1026B000D053C0F60003019347F60063C0F6000351
:1026C0000293304647F69841C0F600012A46234659
:1026D00004F084FA07F19003184601F061FB07F15A
:1026E0004403184601F026FB07F194031846FDF752
:1026F00099FD07F194031846FDF7C8FD034687F8D6
:10270000A73097F8A730002B11D007F19403184693
:1027100001F0B8FAB7F8923043F008039BB2A7F87B
:10272000923007F19003184601F06CFA10E007F1BF
:102730009403184601F0BCF8B7F8923023F0080370
:102740009BB2A7F8923007F19003184601F05AFAAD
:1027500007F17C03184601F00BFB07F13C03184618
:1027600001F0D2FA07F13403184601F0A1FA07F19B
:102770002403184601F0B2FA07F17C0007F13C018E
:1027800007F1940207F1340307F12404009407F1E0
:102790004404019407F19004029401F00FFD97F8AE
:1027A000903003F1FF33062B00F2A08001A252F813
:1027B00023F000BFD1270008ED280008DD2700081E
:1027C0005328000823280008AB28000869280008BF
:1027D00007F17C03184601F0E7FB8AE007F1940259
:1027E00007F144031046194601F046FB0346002B4F
:1027F0000DD140F6B403C2F200035B6807F10C0090
:1028000007F1940107F17C02FEF7FEFD71E04FF045
:10281000040387F8903007F19003184601F0F2F9AD
:1028200067E007F10C0107F1940207F17C03084609
:1028300011461A46FEF748FE0346002B58D04FF0CB
:10284000040387F8903007F19003184601F0DAF995
:102850004EE007F10C0007F1940107F17C0207F14B
:102860002403FEF763FE44E007F1940207F14403FA
:102870001046194601F066FB0346002B0BD107F109
:102880000C0107F1940207F17C03084611461A4631
:10289000FEF7EAFD2DE04FF0010387F8903007F1D5
:1028A0009003184601F0AEF923E007F1940207F116
:1028B00044031046194601F045FB0346002B0BD19B
:1028C00007F10C0107F1940207F17C030846114659
:1028D0001A46FEF7C9FD0CE04FF0020387F890306E
:1028E00007F19003184601F08DF902E000BF00E007
:1028F00000BF40F64023C2F200031B78002B12D029
:1029000040F64023C2F200031B78012B0BD040F6A7
:102910004023C2F200031B78022B04D007F10C0302
:102920001846FEF733FE02F04BF906464FF0000062
:1029300002F05AF905464FF0000001F0E7FF0446A7
:1029400047F64C43C0F60003009347F6D053C0F659
:102950000003019347F60C63C0F600030293304670
:1029600047F69841C0F600012A46234604F036F99E
:1029700040F66C03C2F200031A68BB6E10464FF0BB
:1029800000011A464FF0000303F050FE7DE600BF41
:10299000F0B5B9B004AF786002F012F90346C7F899
:1029A000CC3002F00DF906464FF0000002F01CF9A1
:1029B00005464FF0000001F0A9FF044647F64C43DE
:1029C000C0F60003009347F62C63C0F600030193A2
:1029D00047F60063C0F600030293304647F698417D
:1029E000C0F600012A46234604F0F8F807F17C03FC
:1029F0001846FEF7EDF807F14403184601F09AF97E
:102A000007F14003184601F0CBF997F87C30A3F1A9
:102A100002030A2B00F27E8101A252F823F000BFCC
:102A20002B2B0008492B0008672B0008C52B00083A
:102A3000092C0008472C0008B92A0008612C00085E
:102A40009B2C00084D2A0008BF2C0008B7F8423024
:102A500023F400639BB2A7F8423007F14003184605
:102A600001F0D0F807F13003184601F00BF907F137
:102A70002803184601F01CF907F10C03184601F071
:102A800077F907F12003184601F03EF907F1BC037E
:102A9000184601F023F907F1400007F1300107F172
:102AA000BC0207F1280307F10C04009407F120048D
:102AB000019400F037FC3AE197F84030012B27D120
:102AC00007F17C0303F10403184600F0EDFB034615
:102AD000002B0ED007F17C0303F10403184601F02C
:102AE00005F8B7F8423023F480639BB2A7F8423070
:102AF00006E0B7F8423043F480639BB2A7F8423057
:102B0000B7F8423023F400639BB2A7F8423006E0E6
:102B1000B7F8423043F400639BB2A7F8423007F1A4
:102B20004003184601F06EF801E101F04DF9B7F8E5
:102B3000423023F400639BB2A7F8423007F1400310
:102B4000184601F05FF8F2E001F06AF9B7F8423098
:102B500023F400639BB2A7F8423007F14003184604
:102B600001F050F8E3E097F84030012B1DD107F158
:102B70003003184601F086F807F1300207F14403EC
:102B80001046194601F0C4FB4FF0030387F84030AC
:102B9000B7F8423023F400639BB2A7F8423007F144
:102BA0004003184601F02EF8C1E0B7F8423043F474
:102BB00000639BB2A7F8423007F14003184601F0CA
:102BC00021F8B4E097F84030042B10D14FF0070300
:102BD00087F84030B7F8423023F400639BB2A7F87F
:102BE000423007F14003184601F00CF89FE0B7F8B7
:102BF000423043F400639BB2A7F8423007F1400330
:102C0000184600F0FFFF92E097F84030042B10D1F7
:102C10004FF0050387F84030B7F8423023F40063E3
:102C20009BB2A7F8423007F14003184600F0EAFFD4
:102C30007DE04FF40063A7F8423007F140031846E7
:102C400000F0E0FF73E0B7F8423023F400639BB27A
:102C5000A7F8423007F14003184600F0D3FF66E0C2
:102C600097F84030012B0ED100F0F8FDB7F8423054
:102C700023F400639BB2A7F8423007F140031846E3
:102C800000F0C0FF53E04FF40063A7F8423007F1B3
:102C90004003184600F0B6FF49E007F14403184628
:102CA00000F01AFBB7F8423023F400639BB2A7F898
:102CB000423007F14003184600F0A4FF37E007F167
:102CC0007C0303F104031846FEF71AFB0346002BAE
:102CD00013D007F17C0303F10403184600F072FEE1
:102CE000B7F8423023F400639BB2A7F8423007F1F3
:102CF0004003184600F086FF19E0B7F8423043F46D
:102D000000639BB2A7F8423007F14003184600F079
:102D100079FF0CE0B7F8423043F400639BB2A7F8A8
:102D2000423007F14003184600F06CFF00BFB7F8CF
:102D3000423003F400639BB2A7F84230B7F8423048
:102D4000002B0BD103F0F0F901F03AFF024640F6F8
:102D50007803C2F200039A6003F0FCF901F030FF3F
:102D600006464FF0000001F03FFF05464FF000001F
:102D700001F0CCFD044647F64C43C0F60003009337
:102D800047F62C63C0F60003019347F64463C0F690
:102D900000030293304647F69841C0F600012A46E8
:102DA000234603F01BFF3B6F07F1CC021046194688
:102DB00001F0E4FCF5E500BFF0B599B004AF786030
:102DC00001F0FEFE0346FB6401F0FAFE06464FF0FA
:102DD000000001F009FF05464FF0000001F096FDEC
:102DE000044647F64C43C0F60003009347F64C6395
:102DF000C0F60003019347F60063C0F60003029398
:102E0000304647F69841C0F600012A46234603F0B3
:102E1000E5FE07F10803184601F08CFA07F14803B4
:102E2000184600F0BDFF07F10803184600F048FA05
:102E30000346002B0CD007F10803184600F012FEE1
:102E4000B7F84A3023F480739BB2A7F84A300BE0FE
:102E5000B7F84A3043F480739BB2A7F84A3007F1C1
:102E60000803184600F050FF07F14803184600F029
:102E7000C9FE07F11003184600F05CFF07F10802D5
:102E800007F110031046194601F0BEF80346002B67
:102E90002DD001F095FE06464FF0000001F0A4FE93
:102EA00005464FF0000001F031FD044647F64C4363
:102EB000C0F60003009347F64C63C0F6000301938D
:102EC00047F66863C0F600030293304647F6984120
:102ED000C0F600012A46234603F080FE4FF00603A9
:102EE00087F8483007F14803184600F08BFE01F0E0
:102EF00067FE06464FF0000001F076FE05464FF0F3
:102F0000000001F003FD044647F64C43C0F6000301
:102F1000009347F64C63C0F60003019347F6446301
:102F2000C0F600030293304647F69841C0F6000110
:102F30002A46234603F052FEFB6A07F14C02104674
:102F4000194601F01BFC3FE7F0B599B004AF78607B
:102F500001F036FE0346FB6401F032FE06464FF0F8
:102F6000000001F041FE05464FF0000001F0CEFCEC
:102F7000044647F64C43C0F60003009347F68863C7
:102F8000C0F60003019347F60063C0F60003029306
:102F9000304647F69841C0F600012A46234603F022
:102FA0001DFE07F14403184603F000F807F108037B
:102FB000184600F027FE07F14403184603F024F8F2
:102FC0000346002B0AD107F14403184600F0B6FC73
:102FD0007B8923F020039BB27B8104E07B8943F053
:102FE00020039BB27B8107F10803184600F00AFE1C
:102FF00007F10C03184600F09DFE01F0E1FD0646C6
:103000004FF0000001F0F0FD05464FF0000001F028
:103010007DFC044647F64C43C0F60003009347F698
:103020008863C0F60003019347F64463C0F60003CB
:103030000293304647F69841C0F600012A462346DF
:1030400003F0CCFD7B6B07F14C021046194601F0F2
:1030500095FB81E7F0B585B004AF01F0B1FD064600
:103060004FF0000001F0C0FD05464FF0000001F0F8
:103070004DFC044647F64C43C0F60003009347F668
:103080009C63C0F60003019347F6B463C0F60003E7
:103090000293304647F69841C0F600012A4623467F
:1030A00003F09CFD01F08CFD06464FF0000001F09E
:1030B0009BFD05464FF0000001F028FC044647F652
:1030C0004C43C0F60003009347F69C63C0F6000330
:1030D000019347F6C863C0F600030293304647F6F3
:1030E0009841C0F600012A46234603F077FD30BF21
:1030F00007F10407BD46F0BDB0B584B004AF40F69B
:10310000B402C2F2000247F60443C0F600031446BC
:103110001D460FCD0FC40FCD0FC40FCD0FC495E8C2
:10312000030084E8030040F64023C2F200034FF09E
:1031300000021A7040F64023C2F200034FF0000272
:103140005A8047F64C43C0F60003009347F6E86305
:10315000C0F60003019347F60073C0F60003029324
:103160004FF0000047F6E061C0F6000147F6484224
:10317000C0F600024FF0000303F030FDBD46B0BDC5
:1031800080B584B004AF4FF00000FEF703FE02F0FC
:10319000BFFC02F015FD47F64C43C0F60003009358
:1031A00047F63C73C0F60003019347F65073C0F630
:1031B000000302934FF0000047F6E061C0F6000103
:1031C00047F64842C0F600024FF0000303F006FD48
:1031D000BD4680BD80B584B004AF47F64C43C0F611
:1031E0000003009347F66873C0F60003019347F6A7
:1031F0007C73C0F6000302934FF0000047F6607145
:10320000C0F6000147F64842C0F600024FF0000346
:1032100003F0E4FCBD4680BD80B500AF02F07AFE4D
:10322000FCF7B2FFFDF788FCFDF770FDFFF7D2FF5A
:1032300080BD00BF80B582B000AF4FF00003FB80BF
:1032400002F08CFE0346002B03D0FB8843F01003F2
:10325000FB80FCF7BFFF0346002B03D0FB8843F045
:103260000403FB80FDF78CFC0346002B03D0FB8896
:1032700043F40073FB80FDF76DFD0346002B03D084
:10328000FB8843F00103FB8000F068FF0346002B3E
:1032900003D0FB8843F08003FB80FB88184607F1CE
:1032A0000807BD4680BD00BF80B483B000AF786022
:1032B0004FF00103184607F10C07BD4680BC70476C
:1032C00080B483B000AF78604FF00103184607F177
:1032D0000C07BD4680BC704780B586B004AF7860EF
:1032E00047F64C43C0F60003009347F69073C0F6D0
:1032F0000003019347F67C73C0F6000302934FF07E
:10330000000047F66071C0F6000147F64842C0F67B
:1033100000024FF0000303F061FC07F10807BD460F
:1033200080BD00BF80B584B000AFF860B9607A603E
:103330003B60FB681B78072B4AD801A252F823F0A8
:10334000613300086F3300087D3300088B330008B9
:1033500099330008A7330008B5330008C3330008C9
:1033600047F6A070C0F60000FEF79CFC37E047F679
:10337000CC70C0F60000FEF795FC30E047F6F87020
:10338000C0F60000FEF78EFC29E048F22400C0F6EB
:103390000000FEF787FC22E048F25000C0F6000073
:1033A000FEF780FC1BE048F27800C0F60000FEF754
:1033B00079FC14E048F2A400C0F60000FEF772FCAD
:1033C0000DE048F2D000C0F60000FEF76BFC06E00E
:1033D00048F2FC00C0F60000FEF764FC00BFFB688A
:1033E0005B88002B06D148F22010C0F60000FEF7E3
:1033F00059FC4DE048F24C10C0F60000FEF752FCBC
:1034000048F27C10C0F60000FEF74CFC48F2AC100D
:10341000C0F60000FEF746FC48F2DC10C0F60000E3
:10342000FEF740FC48F20C20C0F60000FEF73AFC24
:1034300048F23420C0F60000FEF734FC48F2642065
:10344000C0F60000FEF72EFC48F29020C0F6000007
:10345000FEF728FC48F2C020C0F60000FEF722FC70
:1034600048F2F020C0F60000FEF71CFC48F22030C5
:10347000C0F60000FEF716FC48F25030C0F600001F
:10348000FEF710FC48F27C30C0F60000FEF70AFCA4
:1034900048F2A830C0F60000FEF71AFCBB681B68B3
:1034A00048F2AC30C0F600001946FEF7FBFBBB68E3
:1034B0009B881BB248F2C030C0F600001946FEF7E8
:1034C000F1FBBB68DB881BB248F2D430C0F60000C9
:1034D0001946FEF7E7FBBB681B891BB248F2E830D0
:1034E000C0F600001946FEF7DDFBBB68DB6848F25A
:1034F000FC30C0F600001946FEF7D4FB48F2A830B5
:10350000C0F60000FEF7E4FB7B681B785BB248F274
:103510001040C0F600001946FEF7C4FB7B685B78DC
:103520005BB248F22840C0F600001946FEF7BAFB2D
:103530007B689B785BB248F24040C0F600001946B9
:10354000FEF7B0FB7B68DB785BB248F25840C0F610
:1035500000001946FEF7A6FB7B68DB6848F2704066
:10356000C0F600001946FEF79DFB7B689B6848F299
:103570008840C0F600001946FEF794FB7B685B6844
:1035800048F2A040C0F600001946FEF78BFB48F257
:10359000A830C0F60000FEF79BFB3B685B6848F272
:1035A000BC40C0F600001946FEF77CFB48F2A8308C
:1035B000C0F60000FEF78CFBBB699B7B002B06D19D
:1035C00048F2D040C0F60000FEF76CFB29E048F25C
:1035D000F440C0F60000FEF765FB48F21850C0F654
:1035E0000000FEF75FFB48F24050C0F60000FEF717
:1035F00059FB48F26850C0F60000FEF753FB48F252
:103600008C50C0F60000FEF74DFB48F2B450C0F6F7
:103610000000FEF747FB48F2DC50C0F60000FEF762
:1036200041FBBB691B8848F20060C0F600001946E8
:10363000FEF738FBBB695B8848F21C60C0F60000EF
:103640001946FEF72FFBBB69DB8848F23860C0F6ED
:1036500000001946FEF726FBBB695B8948F25460FF
:10366000C0F600001946FEF71DFBBB699B8848F2B7
:103670007060C0F600001946FEF714FBBB691B8999
:1036800048F28C60C0F600001946FEF70BFBBB69E0
:103690009B8948F2A860C0F600001946FEF702FBBD
:1036A000BB691B6948F2C460C0F600001946FEF70A
:1036B000F9FA48F2A830C0F60000FEF709FBFB69F2
:1036C0001B6848F2E060C0F600001946FEF7EAFA0F
:1036D000FB695B6848F2F460C0F600001946FEF72B
:1036E000E1FA07F11007BD4680BD00BF80B582B08A
:1036F00000AF78607B681B78072B4BD801A252F88B
:1037000023F000BF25370008333700084137000891
:103710004F3700085D3700086B370008793700081D
:103720008737000847F6A070C0F60000FEF7BAFA27
:1037300037E047F6CC70C0F60000FEF7B3FA30E091
:1037400047F6F870C0F60000FEF7ACFA29E048F240
:103750002400C0F60000FEF7A5FA22E048F250006F
:10376000C0F60000FEF79EFA1BE048F27800C0F6B3
:103770000000FEF797FA14E048F2A400C0F600003B
:10378000FEF790FA0DE048F2D000C0F60000FEF718
:1037900089FA06E048F2FC00C0F60000FEF782FA63
:1037A00000BF7B685B88002B06D148F22010C0F672
:1037B0000000FEF777FA4DE048F24C10C0F600002A
:1037C000FEF770FA48F27C10C0F60000FEF76AFAC5
:1037D00048F2AC10C0F60000FEF764FA48F2DC10C4
:1037E000C0F60000FEF75EFA48F20C20C0F60000BA
:1037F000FEF758FA48F23420C0F60000FEF752FAFD
:1038000048F26420C0F60000FEF74CFA48F290201F
:10381000C0F60000FEF746FA48F2C020C0F60000ED
:10382000FEF740FA48F2F020C0F60000FEF73AFA40
:1038300048F22030C0F60000FEF734FA48F250306B
:10384000C0F60000FEF72EFA48F27C30C0F6000009
:10385000FEF728FA07F10807BD4680BD80B500AF26
:1038600047F60440C0F6000000F040F980BD00BFFC
:1038700080B483B000AF78607B681B78072B0CD8CE
:103880004FF0010202FA03F303F0B803002B04D057
:103890007B684FF006021A7004E07B684FF002026A
:1038A0001A7000BF07F10C07BD4680BC704700BF0F
:1038B000F0B587B004AF786002F036FC40F68803BC
:1038C000C2F200037A6807CA83E8070001F078F9BA
:1038D00003464FF0320202FB03F240F68803C2F2C5
:1038E0000003DA6002F036FC01F06AF906464FF098
:1038F000000001F079F905464FF0000001F006F8EC
:10390000044647F64C43C0F60003009348F20C739C
:10391000C0F60003019348F22073C0F6000302933F
:10392000304647F69841C0F600012A46234603F088
:1039300055F907F10C07BD46F0BD00BFF0B587B0E3
:1039400004AF786002F0F0FB40F67003C2F20003AF
:103950007A6812681A6001F033F903464FF03202B8
:1039600002FB03F240F67003C2F200035A6002F059
:10397000F1FB01F025F906464FF0000001F034F9A3
:1039800005464FF0000000F0C1FF044647F64C43E7
:10399000C0F60003009348F23473C0F600030193AD
:1039A00048F24873C0F600030293304647F6984148
:1039B000C0F600012A46234603F010F907F10C0770
:1039C000BD46F0BDF0B587B004AF786002F0ACFB47
:1039D00040F67803C2F200037A681068186001F0BC
:1039E000EFF803464FF0320202FB03F240F6780391
:1039F000C2F20003DA6001F0E3F803464FF032024E
:103A000002FB03F240F67803C2F200039A6002F070
:103A1000A1FB01F0D5F806464FF0000001F0E4F8F4
:103A200005464FF0000000F071FF044647F64C4396
:103A3000C0F60003009348F25C73C0F600030193E4
:103A400048F27073C0F600030293304647F698417F
:103A5000C0F600012A46234603F0C0F807F10C0720
:103A6000BD46F0BDF0B587B004AF786002F05CFBF6
:103A70007B681A6840F69803C2F200031A6001F0EE
:103A80009FF803464FF0320202FB03F240F6980320
:103A9000C2F200035A6002F05DFB01F091F80646A5
:103AA0004FF0000001F0A0F805464FF0000000F0D4
:103AB0002DFF044647F64C43C0F60003009348F23E
:103AC0008473C0F60003019348F29C73C0F60003B0
:103AD0000293304647F69841C0F600012A46234635
:103AE00003F07CF807F10C07BD46F0BDF0B587B0D8
:103AF00004AF786002F018FB40F6B403C2F2000392
:103B00007A681C4615460FCD0FC40FCD0FC40FCDDC
:103B10000FC495E8030084E8030002F01BFB01F0EA
:103B20004FF806464FF0000001F05EF805464FF0F2
:103B3000000000F0EBFE044647F64C43C0F60003DD
:103B4000009348F2B073C0F60003019348F2C873C3
:103B5000C0F600030293304647F69841C0F60001D4
:103B60002A46234603F03AF807F10C07BD46F0BD9C
:103B7000F0B587B004AF786002F0D6FA40F6A00343
:103B8000C2F200037A681C461346186859689A689E
:103B9000DB680FC401F014F803464FF0320202FB59
:103BA00003F240F6A003C2F200031A6102F0D2FA57
:103BB00001F006F806464FF0000001F015F8054642
:103BC0004FF0000000F0A2FE044647F64C43C0F65A
:103BD0000003009348F2E073C0F60003019348F23B
:103BE000FC73C0F600030293304647F69841C0F6D6
:103BF00000012A46234602F0F1FF07F10C07BD46FB
:103C0000F0BD00BFF0B587B004AF786002F08CFA69
:103C10007B681A7840F64023C2F200031A707B6872
:103C20005A8840F64023C2F200035A8002F092FA0A
:103C300000F0C6FF06464FF0000000F0D5FF054635
:103C40004FF0000000F062FE044647F64C43C0F619
:103C50000003009348F61403C0F60003019348F6EE
:103C60002C03C0F600030293304647F69841C0F695
:103C700000012A46234602F0B1FF07F10C07BD46BA
:103C8000F0BD00BF90B583B000AF786002F04CFA91
:103C90007A6840F68803C2F2000314460FCB84E82A
:103CA0000F0002F057FA07F10C07BD4690BD00BFA8
:103CB00080B582B000AF786002F036FA7A6840F6DC
:103CC0007003C2F2000393E8030082E8030002F0ED
:103CD00041FA07F10807BD4680BD00BF90B583B02B
:103CE00000AF786002F020FA7A6840F67803C2F2FA
:103CF000000314460FCB84E80F0002F02BFA07F103
:103D00000C07BD4690BD00BF80B582B000AF7860A3
:103D100002F00AFA7A6840F69803C2F2000393E8C8
:103D2000030082E8030002F015FA07F10807BD4618
:103D300080BD00BFB0B582B000AF786002F0F4F98A
:103D40007A6840F6B403C2F2000314461D460FCD54
:103D50000FC40FCD0FC40FCD0FC495E8030084E846
:103D6000030002F0F7F907F10807BD46B0BD00BF38
:103D7000B0B582B000AF786002F0D6F97A6840F64C
:103D8000A003C2F2000314461D460FCD0FC42B68DA
:103D9000236002F0DFF907F10807BD46B0BD00BFA0
:103DA00080B582B000AF786002F0BEF97A6840F664
:103DB0004023C2F200031868106002F0CBF907F14B
:103DC0000807BD4680BD00BFF0B585B004AF00F068
:103DD000F7FE06464FF0000000F006FF05464FF0E4
:103DE000000000F093FD044647F64C43C0F6000384
:103DF000009348F64803C0F60003019347F67C732E
:103E0000C0F600030293304648F64001C0F60001B8
:103E10002A46234602F0E2FE07F10407BD46F0BD44
:103E2000F0B585B004AF00F0CBFE06464FF00000C1
:103E300000F0DAFE05464FF0000000F067FD044692
:103E400047F64C43C0F60003009348F65C03C0F607
:103E50000003019347F67C73C0F6000302933046DB
:103E600048F64001C0F600012A46234602F0B6FE9D
:103E700007F10407BD46F0BDF0B587B004AF786028
:103E8000396040F68803C2F200031B681A4640F608
:103E9000B403C2F200035B689A4227D200F090FE9E
:103EA00006464FF0000000F09FFE05464FF0000070
:103EB00000F02CFD044647F64C43C0F60003009387
:103EC00048F67003C0F60003019348F68403C0F679
:103ED00000030293304647F69841C0F600012A4697
:103EE000234602F07BFE4FF0010326E000F068FE5F
:103EF00006464FF0000000F077FE05464FF0000048
:103F000000F004FD044647F64C43C0F6000300935E
:103F100048F67003C0F60003019348F6A803C0F604
:103F200000030293304647F69841C0F600012A4646
:103F3000234602F053FE4FF00003184607F10C072A
:103F4000BD46F0BDF0B587B004AF7860396000F0D1
:103F500037FE06464FF0000000F046FE05464FF0E3
:103F6000000000F0D3FC044647F64C43C0F60003C3
:103F7000009348F6C403C0F60003019347F67C7330
:103F8000C0F600030293304648F64001C0F6000137
:103F90002A46234602F022FE4FF00003184607F19E
:103FA0000C07BD46F0BD00BF80B483B000AF7860A1
:103FB0007B689B7B002B0CBF00230123DBB21846E0
:103FC00007F10C07BD4680BC704700BF80B584B0C8
:103FD00000AF7860396000F0F3FD02467B681B6932
:103FE000D31AFB603B6893F833303A68126A02FBDD
:103FF00003F2FB689A422CBF00230123DBB2184670
:1040000007F11007BD4680BD80B483B000AF786073
:1040100039607B681A683B681B699A422CBF002391
:104020000123DBB2184607F10C07BD4680BC704780
:1040300080B584B000AF7860396000F0C1FD024601
:104040007B685B68D31AFB603B6893F834303A684E
:10405000D26902FB03F2FB689A422CBF00230123C2
:10406000DBB2184607F11007BD4680BD80B584B0AD
:1040700000AF7860396000F0A3FD02467B68DB6822
:10408000D31AFB603B6893F830303A68526A02FBFF
:1040900003F2FB689A422CBF00230123DBB21846CF
:1040A00007F11007BD4680BD80B584B000AF7860D1
:1040B000396000F085FD02467B685B68D31AFB60BF
:1040C0003B6893F835303A68926A02FB03F2FB686A
:1040D0009A422CBF00230123DBB2184607F11007D8
:1040E000BD4680BD80B584B000AF7860396000F017
:1040F00067FD02467B689B68D31AFB603B6893F8B8
:1041000032303A68D26A02FB03F2FB689A422CBF53
:1041100000230123DBB2184607F11007BD4680BD1E
:1041200080B584B000AF7860396000F049FD024688
:104130007B68DB68D31AFB603B6893F831303A68E0
:10414000D26A02FB03F2FB689A422CBF00230123D0
:10415000DBB2184607F11007BD4680BDF0B585B04B
:1041600004AF00F02DFD06464FF0000000F03CFDCE
:1041700005464FF0000000F0C9FB044647F64C43EB
:10418000C0F60003009348F6D803C0F6000301937D
:1041900047F67C73C0F600030293304648F64001B0
:1041A000C0F600012A46234602F018FD4FF0000336
:1041B000184607F10407BD46F0BD00BF80B584B0C6
:1041C00000AFF860B9607A603B60F868F969FFF7A2
:1041D000FDFE0346002B0AD03B6A5B8843F00103D7
:1041E0009AB23B6A5A80386AFFF742FB06E03B6AA4
:1041F0005B8823F001039AB23B6A5A80B868F96978
:10420000FFF716FF0346002B0AD03B6A5B8843F09A
:1042100080039AB23B6A5A80386AFFF729FB06E0AE
:104220003B6A5B8823F080039AB23B6A5A807868C5
:10423000F969FFF71BFF0346002B0AD03B6A5B8836
:1042400043F004039AB23B6A5A80386AFFF710FBC6
:1042500006E03B6A5B8823F004039AB23B6A5A800B
:104260003868F969FFF720FF0346002B07D03B6A47
:104270005B8843F010039AB23B6A5A8006E03B6ABF
:104280005B8823F010039AB23B6A5A80B869F969D7
:10429000FFF728FF0346002B0AD03B6A5B8843F4F4
:1042A00000739AB23B6A5A80386AFFF7E1FA06E077
:1042B0003B6A5B8823F400739AB23B6A5A80B86900
:1042C000F969FFF72DFF0346002B12D03B6A5B888C
:1042D00043F040039AB23B6A5A80BA6947F6C42356
:1042E000C0F600031B681360BB691846FFF76AFB42
:1042F00006E03B6A5B8823F040039AB23B6A5A802F
:10430000386AFFF77FFC07F11007BD4680BD00BF8C
:1043100080B582B000AF786039607B681B681A4650
:104320003B68DA603868FFF7E1FB07F10807BD4634
:1043300080BD00BFF0B587B004AF786000F040FCEE
:1043400006464FF0000000F04FFC05464FF000001D
:1043500000F0DCFA044647F64C43C0F60003009335
:1043600048F6EC03C0F60003019347F67C73C0F6F1
:1043700000030293304648F64001C0F600012A4689
:10438000234602F02BFC07F10C07BD46F0BD00BF31
:10439000B0B584B004AF00F013FC05464FF0000048
:1043A00000F0B4FA044647F64C43C0F6000300930D
:1043B00048F60013C0F60003019348F60C13C0F64C
:1043C00000030293284647F69841C0F6000147F6DD
:1043D0004842C0F60002234602F000FCFDF702FD51
:1043E000BD46B0BDB0B584B004AF00F0E9FB0546F2
:1043F0004FF0000000F08AFA044647F64C43C0F63E
:104400000003009348F61813C0F60003019347F623
:104410007C73C0F600030293284648F64001C0F6BC
:10442000000147F64842C0F60002234602F0D6FBE0
:1044300030BFBD46B0BD00BFF0B58DB004AFF86071
:10444000B9603B601346FB80FB68002B1ED100F077
:10445000B7FB024648F63413C0F60003009348F653
:104460004413C0F60003019348F65413C0F600034A
:104470000293104648F62811C0F6000148F63012A3
:10448000C0F600024FF0000302F0A8FBBB6B042B48
:104490001ED900F095FB024648F63413C0F600031F
:1044A000009348F64413C0F60003019348F65413F2
:1044B000C0F600030293104648F62811C0F600012A
:1044C00048F63012C0F600024FF0000302F086FBFF
:1044D000FB881846396C01F035F8B861BB69002BD0
:1044E00000F00F81BB691A6BFB8803F1FF334FEAC1
:1044F0008303D3187B617B6923F007037B617B69AE
:1045000003F00703002B1ED000F05AFB024648F6CA
:104510003413C0F60003009348F64413C0F60003BA
:10452000019348F65413C0F600030293104648F670
:104530002811C0F6000148F63012C0F600024FF014
:10454000000302F04BFBFB880093B869B968BA6BB3
:104550007B6C00F021FF7869F9683A6801F060FD32
:104560000246BB691A60BB691B6803F00703002B96
:104570001ED000F025FB024648F63413C0F60003B7
:10458000009348F64413C0F60003019348F6541311
:10459000C0F600030293104648F62811C0F6000149
:1045A00048F63012C0F600024FF0000302F016FB8E
:1045B000FB6B002B02D0FB6BBA691A6001F0B4FDF3
:1045C00040F69C13C2F200031B6803F1010240F69F
:1045D0009C13C2F200031A6040F6EC03C2F200031F
:1045E0001B68002B0FD140F6EC03C2F20003BA693E
:1045F0001A6040F69C13C2F200031B68012B18D10D
:1046000000F00EFF15E040F6AC13C2F200031B6889
:10461000002B0ED140F6EC03C2F200031B68DA6AED
:10462000BB6B9A4205D840F6EC03C2F20003BA69AC
:104630001A60BB69DA6A40F6A413C2F200031B6871
:104640009A4206D9BB69DA6A40F6A413C2F20003A3
:104650001A6040F6C013C2F200031B6803F10102A6
:1046600040F6C013C2F200031A60BB69DA6A40F672
:10467000A813C2F200031B689A4206D9BB69DA6A22
:1046800040F6A813C2F200031A60BB69DA6A134647
:104690004FEA83039B184FEA830340F6F002C2F20D
:1046A00000029A18BB6903F104031046194601F091
:1046B000A3F94FF00103FB6100F082FA0646BB69E3
:1046C00003F13405B86900F021F9044648F63413C3
:1046D000C0F60003009348F66813C0F60003019388
:1046E00048F67C13C0F600030293304648F660118A
:1046F000C0F600012A46234602F070FA01F02AFDB6
:1047000021E04FF0FF33FB6100F05AFA024648F611
:104710003413C0F60003009348F69813C0F6000364
:10472000019348F6B413C0F600030293104648F60E
:104730002811C0F6000148F63012C0F600024FF012
:10474000000302F04BFAFB69012B11D140F6AC13C8
:10475000C2F200031B68002B0AD040F6EC03C2F241
:1047600000031B68DA6ABB6B9A4201D201F0D0FCED
:10477000FB69184607F12407BD46F0BDF0B58BB0C4
:1047800004AF786039604FF000037B617B68002BD9
:104790001ED100F015FA024648F63413C0F60003A5
:1047A000009348F64413C0F60003019348F65413EF
:1047B000C0F600030293104648F62811C0F6000127
:1047C00048F63012C0F600024FF0000302F006FA7D
:1047D0003B68002B1ED100F0F3F9024648F6341373
:1047E000C0F60003009348F64413C0F6000301939B
:1047F00048F65413C0F600030293104648F62811F9
:10480000C0F6000148F63012C0F600024FF0000377
:1048100002F0E4F900F0F4F87B681A683B68D318FA
:104820003B617B681A6840F6A013C2F200031B6864
:104830009A4210D97B681A683B699A421BD940F6A4
:10484000A013C2F200031B683A699A4213D94FF0D1
:1048500001037B610FE07B681A683B699A4207D8C5
:1048600040F6A013C2F200031B683A699A4202D9CB
:104870004FF001037B617B683A691A607B69002B0A
:1048800037D000F09DF9064640F6EC03C2F2000373
:104890001B6803F1340540F6EC03C2F200031B6809
:1048A000184600F033F8044648F63413C0F6000307
:1048B000009348F6CC13C0F60003019348F6E413C6
:1048C000C0F600030293304648F66011C0F60001BE
:1048D0002A46234602F082F940F6EC03C2F20003B6
:1048E0001B6803F10403184601F0E8F8386900F08A
:1048F000E3FD00F097F8F860FB68002B01D101F0B0
:1049000007FC07F11C07BD46F0BD00BF80B584B0B1
:1049100000AF786001F008FC7B68002B05D140F601
:10492000EC03C2F200031B6800E07B68FB60FB68DD
:10493000DB6ABB6001F00EFCBB68184607F110078C
:10494000BD4680BD80B586B004AF4FF00003009334
:1049500040F69813C2F2000301934FF00003029354
:104960004FF00003039345F28530C0F6000048F68F
:10497000FC11C0F600014FF480724FF00003FFF706
:104980005BFD78607B68012B13D14FF0BF0080F393
:10499000118840F6AC13C2F200034FF001021A6016
:1049A00040F6A013C2F200034FF000021A6001F0BB
:1049B00085FB7B68002B1ED100F002F9024648F609
:1049C0003413C0F60003009348F64413C0F6000306
:1049D000019348F65413C0F600030293104648F6BC
:1049E0002811C0F6000148F63012C0F600024FF060
:1049F000000302F0F3F807F10807BD4680BD00BFD1
:104A000080B400AF40F6B013C2F200031B6803F19C
:104A1000010240F6B013C2F200031A60BD4680BC2A
:104A2000704700BF90B587B004AF4FF000037B60C4
:104A300040F6B013C2F200031B68002B1ED100F039
:104A4000BFF8024648F63413C0F60003009348F658
:104A50004413C0F60003019348F65413C0F6000354
:104A60000293104648F62811C0F6000148F63012AD
:104A7000C0F600024FF0000302F0B0F801F054FB62
:104A800040F6B013C2F200031B6803F1FF3240F698
:104A9000B013C2F200031A6040F6B013C2F2000372
:104AA0001B68002B40F0848040F69C13C2F2000388
:104AB0001B68002B7CD04FF000033B603BE040F6CE
:104AC0008413C2F20003DB68DC6804F118031846A3
:104AD00000F0F4FF04F10403184600F0EFFFE26A6F
:104AE00040F6A813C2F200031B689A4205D9E26A95
:104AF00040F6A813C2F200031A60E26A13464FEAB6
:104B000083039B184FEA830340F6F002C2F20002CF
:104B10009A1804F104031046194600F06DFFE26A8A
:104B200040F6EC03C2F200031B68DB6A9A4202D330
:104B30004FF001033B6040F68413C2F200031B6890
:104B4000002BBCD140F6B413C2F200031B68002B4B
:104B500018D00DE000F082F840F6B413C2F2000362
:104B60001B6803F1FF3240F6B413C2F200031A606F
:104B700040F6B413C2F200031B68002BEAD14FF0D9
:104B800001033B603B68012B06D040F6B813C2F22C
:104B900000031B68012B0BD14FF001037B6040F633
:104BA000B813C2F200034FF000021A6001F0B0FA2D
:104BB00001F0D0FA7B68184607F10C07BD4690BD9E
:104BC00080B582B000AF01F0AFFA40F6A013C2F298
:104BD00000031B687B6001F0BDFA7B68184607F193
:104BE0000807BD4680BD00BF80B588B004AF7860BF
:104BF0007B68002B05D140F6EC03C2F200031B6872
:104C000000E07B68FB60FB68002B1ED1FFF7D8FF3C
:104C1000024648F63413C0F60003009348F64413E6
:104C2000C0F60003019348F65413C0F60003029344
:104C3000104648F62811C0F6000148F63012C0F6BA
:104C400000024FF0000301F0C9FFFB6803F13403D9
:104C5000184607F11007BD4680BD00BF80B588B07B
:104C600004AF40F6B013C2F200031B68002B40F003
:104C7000E68040F6A013C2F200031B6803F10102B4
:104C800040F6A013C2F200031A6040F6A013C2F26D
:104C900000031B68002B67D140F67C13C2F20003AF
:104CA0001B681B68002B1ED0FFF78AFF024648F6E0
:104CB0003413C0F60003009348F64413C0F6000313
:104CC000019348F65413C0F600030293104648F6C9
:104CD0002811C0F6000148F63012C0F600024FF06D
:104CE000000301F07BFF40F67C13C2F200031B6857
:104CF000FB6040F68013C2F200031A6840F67C1392
:104D0000C2F200031A6040F68013C2F20003FA6890
:104D10001A6040F6BC13C2F200031B6803F10102E3
:104D200040F6BC13C2F200031A6040F67C13C2F2D4
:104D300000031B681B68002B07D140F24043C2F2FE
:104D400000034FF0FF321A600EE040F67C13C2F20F
:104D500000031B68DB68DB68BB60BB685A6840F215
:104D60004043C2F200031A6040F6A013C2F20003EF
:104D70001A6840F24043C2F200031B689A426AD3A9
:104D800040F67C13C2F200031B681B68002B07D19E
:104D900040F24043C2F200034FF0FF321A605AE083
:104DA00040F67C13C2F200031B68DB68DB68BB6063
:104DB000BB685B687B6040F6A013C2F200031A6810
:104DC0007B689A4206D240F24043C2F200037A68FE
:104DD0001A6040E0BB6803F10403184600F06EFE61
:104DE000BB689B6A002B05D0BB6803F1180318460B
:104DF00000F064FEBB68DA6A40F6A813C2F2000352
:104E00001B689A4206D9BB68DA6A40F6A813C2F258
:104E100000031A60BB68DA6A13464FEA83039B18E3
:104E20004FEA830340F6F002C2F200029A18BB6810
:104E300003F104031046194600F0DEFDA0E740F63A
:104E4000B413C2F200031B6803F1010240F6B4136D
:104E5000C2F200031A6007F11007BD4680BD00BF13
:104E6000F0B587B004AF40F6B013C2F200031B6880
:104E7000002B07D040F6B813C2F200034FF0010236
:104E80001A60DAE0FFF79CFE064640F6EC03C2F239
:104E900000031B6803F1340540F6EC03C2F2000383
:104EA0001B681846FFF732FD044648F63413C0F677
:104EB0000003009348F60823C0F60003019348F668
:104EC0002423C0F600030293304648F66011C0F672
:104ED00000012A46234601F081FE40F6EC03C2F2AF
:104EE00000031A68516C40F6F813C2F200031B6805
:104EF0007868C31ACB18536440F6F813C2F2000363
:104F00007A681A6031E040F6A813C2F200031B6809
:104F1000002B1ED1FFF754FE024648F63413C0F6AC
:104F20000003009348F64413C0F60003019348F6CB
:104F30005413C0F600030293104648F62811C0F639
:104F4000000148F63012C0F600024FF0000301F0F5
:104F500045FE40F6A813C2F200031B6803F1FF32BE
:104F600040F6A813C2F200031A6040F6A813C2F27A
:104F70000003196840F6F002C2F200020B464FEA45
:104F800083035B184FEA8303D3181B68002BBAD046
:104F900040F6A813C2F200031A6813464FEA8303CF
:104FA0009B184FEA830340F6F002C2F200029B18FE
:104FB0003B603B685B685A683B685A603B685A686C
:104FC0003B6803F108039A4204D13B685B685A6866
:104FD0003B685A603B685B68DA6840F6EC03C2F2F3
:104FE00000031A60FFF7ECFD064640F6EC03C2F240
:104FF00000031B6803F1340540F6EC03C2F2000322
:105000001B681846FFF782FC044648F63413C0F6C6
:105010000003009348F64823C0F60003019348F6C6
:105020006023C0F600030293304648F66011C0F6D4
:1050300000012A46234601F0D1FD07F10C07BD46C9
:10504000F0BD00BF80B588B004AF786039607B6880
:10505000002B1ED1FFF7B4FD024648F63413C0F60C
:105060000003009348F64413C0F60003019348F68A
:105070005413C0F600030293104648F62811C0F6F8
:10508000000148F63012C0F600024FF0000301F0B4
:10509000A5FD40F6EC03C2F200031B6803F1180300
:1050A0007868194600F0D0FC40F6EC03C2F2000329
:1050B0001B6803F10403184600F000FD40F6A0133E
:1050C000C2F200031A683B68D318FB60F86800F06E
:1050D000F3F907F11007BD4680BD00BF80B588B069
:1050E00004AF78607B68DB68DB68BB60BB68002B63
:1050F0001ED1FFF765FD024648F63413C0F60003E3
:10510000009348F64413C0F60003019348F6541385
:10511000C0F600030293104648F62811C0F60001BD
:1051200048F63012C0F600024FF0000301F056FDC1
:10513000BB6803F11803184600F0C0FC40F6B0133A
:10514000C2F200031B68002B2AD1BB6803F10403E1
:10515000184600F0B3FCBB68DA6A40F6A813C2F246
:1051600000031B689A4206D9BB68DA6A40F6A813A6
:10517000C2F200031A60BB68DA6A13464FEA83037F
:105180009B184FEA830340F6F002C2F200029A181D
:10519000BB6803F104031046194600F02DFC09E03A
:1051A000BB6803F1180340F68410C2F200001946F0
:1051B00000F022FCBB68DA6A40F6EC03C2F200039E
:1051C0001B68DB6A9A4203D34FF00103FB6002E0E5
:1051D0004FF00003FB60FB68184607F11007BD465F
:1051E00080BD00BF80B586B004AF78607B68002BBF
:1051F0001ED1FFF7E5FC024648F63413C0F6000363
:10520000009348F64413C0F60003019348F6541384
:10521000C0F600030293104648F62811C0F60001BC
:1052200048F63012C0F600024FF0000301F0D6FC41
:1052300040F6BC13C2F200031A687B681A6040F69D
:10524000A013C2F200031A687B685A6007F10807CE
:10525000BD4680BD80B588B004AF786039607B689A
:10526000002B1ED1FFF7ACFC024648F63413C0F603
:105270000003009348F64413C0F60003019348F678
:105280005413C0F600030293104648F62811C0F6E6
:10529000000148F63012C0F600024FF0000301F0A2
:1052A0009DFC3B68002B1ED1FFF78AFC024648F6A6
:1052B0003413C0F60003009348F64413C0F600030D
:1052C000019348F65413C0F600030293104648F6C3
:1052D0002811C0F6000148F63012C0F600024FF067
:1052E000000301F07BFC00F01FFF7B681A6840F6AA
:1052F000BC13C2F200031B689A420CD07B685A6848
:1053000040F6A013C2F200031B689A4203D84FF084
:105310000103FB6022E040F6A013C2F200031A680A
:105320007B685B68D21A3B681B689A4213D23B6861
:105330001A687B68596840F6A013C2F200031B6824
:10534000CB1AD2183B681A607868FFF74BFF4FF012
:105350000003FB6002E04FF00103FB6000F0FAFE87
:10536000FB68184607F11007BD4680BD80B400AF4A
:1053700040F6B813C2F200034FF001021A60BD46B6
:1053800080BC704780B582B000AF786000F08EF8C6
:10539000FDF760FEFAE700BF80B584B000AFF860AB
:1053A000B9607A603B60FB6803F134031846B96862
:1053B0004FF0050202F05CF8FB684FF0000283F842
:1053C00038207B68042B02D94FF004037B60FB6814
:1053D0007A68DA62FB687A68DA63FB6803F10403CF
:1053E000184600F0FBFAFB6803F11803184600F0BA
:1053F000F5FAFB68FA681A617B68C3F10502FB687D
:105400009A61FB68FA685A62FB684FF000021A64FE
:10541000FB684FF000025A6407F11007BD4680BDDB
:1054200080B582B000AF4FF000037B6012E07A6875
:1054300013464FEA83039B184FEA830340F6F002BA
:10544000C2F200029B18184600F0A8FA7B6803F12C
:1054500001037B607B68042BE9D940F65410C2F24B
:10546000000000F09BFA40F66810C2F2000000F065
:1054700095FA40F68410C2F2000000F08FFA40F670
:105480007C13C2F2000340F65412C2F200021A600A
:1054900040F68013C2F2000340F66812C2F2000226
:1054A0001A6007F10807BD4680BD00BF80B400AF99
:1054B000BD4680BC704700BF80B582B000AF786049
:1054C00040F6EC03C2F200031B687A685A6040F6AB
:1054D000A013C2F200031B687A689A4210D240F609
:1054E0008013C2F200031A6840F6EC03C2F2000314
:1054F0001B6803F104031046194600F0A5FA1DE0ED
:1055000040F67C13C2F200031A6840F6EC03C2F2C4
:1055100000031B6803F104031046194600F094FAD7
:1055200040F24043C2F200031B687A689A4205D2F7
:1055300040F24043C2F200037A681A6007F108079C
:10554000BD4680BD80B584B000AF03463960FB80A6
:105550004FF0480001F080FB0346FB60FB68002B26
:1055600023D03B68002B07D1FB884FEA8303184602
:1055700001F072FB034600E03B68FA681363FB68C6
:105580001B6B002B06D1F86801F06EFB4FF0000397
:10559000FB600AE0FB681A6BFB884FEA8303104646
:1055A0004FF0A5011A4601F0B7FEFB68184607F157
:1055B0001007BD4680BD00BF80B483B000AF40F689
:1055C000EC03C2F200031B687B607B68184607F19E
:1055D0000C07BD4680BC704780B588B004AF7860CA
:1055E0007B68FB607B68002B1ED1FFF7E9FA02465F
:1055F00048F63413C0F60003009348F64413C0F68F
:105600000003019348F65413C0F6000302931046BA
:1056100048F62811C0F6000148F63012C0F6000224
:105620004FF0000301F0DAFAFB68DA6A40F6EC03A7
:10563000C2F200031B68DB6A9A4255D240F6EC03C3
:10564000C2F200031B68DB6AC3F10502FB689A61C2
:10565000FB685969FB68DA6A13464FEA83039B18B3
:105660004FEA830340F6F002C2F200029B1899420F
:1056700032D1FB6803F10403184600F01FFA40F62C
:10568000EC03C2F200031B68DA6AFB68DA62FB68AB
:10569000DA6A40F6A813C2F200031B689A4206D9E0
:1056A000FB68DA6A40F6A813C2F200031A60FB68CE
:1056B000DA6A13464FEA83039B184FEA830340F6E6
:1056C000F002C2F200029A18FB6803F104031046CC
:1056D000194600F091F907E040F6EC03C2F200032E
:1056E0001B68DA6AFB68DA6207F11007BD4680BD05
:1056F00080B584B000AF78607B68FB607B68002B6E
:1057000039D0FB68DA6AFB68DB6B9A4233D0FB68FE
:1057100003F10403184600F0D1F9FB68DA6BFB686B
:10572000DA62FB68DB6AC3F10502FB689A61FB6819
:10573000DA6A40F6A813C2F200031B689A4206D93F
:10574000FB68DA6A40F6A813C2F200031A60FB682D
:10575000DA6A13464FEA83039B184FEA830340F645
:10576000F002C2F200029A18FB6803F1040310462B
:10577000194600F041F907F11007BD4680BD00BF92
:1057800080B487B000AF786039604FF000037B6170
:105790004FF000033B614FF00003FB604FF000034C
:1057A0007B6186E07B694FF0010202FA03F33B6103
:1057B0003B681A683B691340FB60FA683B699A4290
:1057C00073D17B681A687B694FEA43034FF003018A
:1057D00001FA03F36FEA03031A407B681A607B68DF
:1057E0001A683B681B7919467B694FEA430301FA43
:1057F00003F31A437B681A603B681B79012B03D0C3
:105800003B681B79022B34D17B689A687B694FEA2D
:1058100043034FF0030101FA03F36FEA03031A4055
:105820007B689A607B689A683B685B7919467B69FC
:105830004FEA430301FA03F31A437B689A607B68DB
:105840005A687B699BB24FF0010101FA03F36FEADA
:1058500003031A407B685A607B685A683B689B79EF
:1058600019467B699BB201FA03F39BB21A437B682A
:105870005A607B68DA687B699BB24FEA43034FF05A
:10588000030101FA03F36FEA03031A407B68DA604D
:105890007B68DA683B68DB7919467B694FEA43032A
:1058A00001FA03F31A437B68DA607B6903F10103B1
:1058B0007B617B690F2B7FF675AF07F11C07BD4637
:1058C00080BC704780B485B000AF786013460A464C
:1058D0007A807B704FF00003FB604FF00003BB60E9
:1058E0007A787B8803F007034FEA830302FA03F315
:1058F000FB607B884FEAD3039BB21A467B884FEA52
:10590000D3039BB219467B6801F1080153F82110BB
:105910007B8803F007034FEA83034FF00F0000FA80
:1059200003F36FEA030319407B6802F1080243F8AE
:1059300022107B884FEAD3039BB21A467B6802F1A0
:10594000080253F82220FB681343BB607B884FEAB0
:10595000D3039BB21A467B6802F10802B96843F888
:10596000221007F11407BD4680BC7047ABBE00F0A3
:1059700002B800207047002A00F00180106001206A
:10598000704706980188044A914240F00380043031
:1059900006907047FEE70000ABBE000080B483B005
:1059A00000AF78607B6803F108027B685A607B680F
:1059B0004FF0FF329A607B6803F108027B68DA607F
:1059C0007B6803F108027B681A617B684FF0000274
:1059D0001A6007F10C07BD4680BC704780B483B0E5
:1059E00000AF78607B684FF000021A6107F10C0786
:1059F000BD4680BC704700BF80B485B000AF786002
:105A000039607B685B68FB60FB685A683B685A607A
:105A10007B685A683B689A60FB685B683A689A6082
:105A2000FB683A685A607B683A685A603B687A68F3
:105A30001A617B681B6803F101027B681A6007F139
:105A40001407BD4680BC704780B485B000AF786055
:105A500039603B681B68BB60BB68B3F1FF3F03D193
:105A60007B681B69FB600DE07B6803F10803FB604A
:105A700002E0FB685B68FB60FB685B681A68BB68F8
:105A80009A42F6D9FB685A683B685A603B685B6883
:105A90003A689A603B68FA689A60FB683A685A60AC
:105AA0003B687A681A617B681B6803F101027B68B6
:105AB0001A6007F11407BD4680BC704780B485B0FA
:105AC00000AF78607B685B687A6892689A607B68F0
:105AD0009B687A6852685A607B681B69FB60FB6848
