:020000040800F2
:1000000088120020B50F000831100008635900085D
:100010003110000831100008311000080000000005
:1000200000000000000000000000000069600008FF
:1000300031100008000000006D610008C561000873
:10004000311000083110000831100008311000088C
:10005000311000083110000831100008311000087C
:10006000311000083110000831100008311000086C
:10007000311000083110000831100008311000085C
:10008000311000083110000831100008311000084C
:10009000311000083110000831100008311000083C
:1000A000311000083110000831100008311000082C
:1000B000311000083110000831100008311000081C
:1000C000311000083110000831100008311000080C
:1000D00031100008311000083110000831100008FC
:1000E00031100008311000083110000831100008EC
:1000F00031100008311000083110000831100008DC
:1001000031100008311000083110000831100008CB
:1001100031100008311000083110000831100008BB
:1001200031100008311000083110000831100008AB
:10013000311000083110000831100008311000089B
:10014000311000083110000831100008311000088B
:10015000311000083110000831100008311000087B
:10016000311000083110000831100008311000086B
:10017000311000083110000831100008311000085B
:10018000311000083110000880B584B004AF04F0CD
:1001900007FD024647F29873C0F60003009347F24A
:1001A000A873C0F60003019347F2B473C0F60003CE
:1001B0000293104647F28C71C0F6000147F2947228
:1001C000C0F600024FF0000306F0F8FC00F016F94C
:1001D000BD4680BD80B584B004AF04F0E1FC0246AA
:1001E00047F29873C0F60003009347F2E073C0F63D
:1001F0000003019347F2F073C0F600030293104628
:1002000047F2D871C0F6000147F29472C0F60002BE
:100210004FF0000306F0D2FC4FF000031846BD4635
:1002200080BD00BFF0B587B004AF786004F0B8FCC3
:1002300006464FF0000004F0C7FC05464FF00000F2
:1002400004F054FB044647F29873C0F60003009391
:1002500047F61003C0F60003019347F62003C0F6EB
:1002600000030293304647F28C71C0F600012A4623
:10027000234606F0A3FC786800F030F907F10C077C
:10028000BD46F0BDF0B589B004AF78604FF0000313
:10029000FB73786800F060F803461C46786800F04D
:1002A00071F803462343DAB2FB7B1343FB73FB7BFA
:1002B000002B25D104F074FC06464FF0000004F03A
:1002C00083FC05464FF0000004F010FB044647F2A3
:1002D0009873C0F60003009347F63C03C0F6000392
:1002E000019347F64C03C0F600030293304647F2F1
:1002F0008C71C0F600012A46234606F05FFC24E01C
:1003000004F04EFC06464FF0000004F05DFC05468C
:100310004FF0000004F0EAFA044647F29873C0F682
:100320000003009347F63C03C0F60003019347F631
:100330007403C0F600030293304647F66C01C0F622
:1003400000012A46234606F039FCFB7B184607F1DC
:100350001407BD46F0BD00BF80B485B000AF786023
:100360004FF00003FB737B681B68002B02DA4FF031
:100370000103FB73FB7B184607F11407BD4680BCE5
:10038000704700BF80B485B000AF78604FF00003C5
:10039000FB737B689B881BB2B42B05DC7B689B8856
:1003A0001BB213F1B40F03DAFB7B43F00203FB73C0
:1003B0007B68DB881BB2B42B05DC7B68DB881BB257
:1003C00013F1B40F03DAFB7B43F00403FB737B6888
:1003D0001B891BB2B42B05DC7B681B891BB213F194
:1003E000B40F03DAFB7B43F00803FB73FB7B184677
:1003F00007F11407BD4680BC704700BF80B586B0CA
:1004000000AF4FF008004FF0010100F0FBFE4FF489
:1004100080204FF0010100F01FFF4FF44060C4F254
:1004200002004FF008014FF0070205F03BFA4FF0D1
:100430000003BB754FF00103FB754FF002033B75E2
:100440004FF002037B7507F110034FF44060C4F2D4
:100450000200194605F084F94FF44060C4F202002E
:100460004FF009014FF0070205F01CFA4FF00203AC
:100470003B754FF002037B754FF400733B6107F14E
:1004800010034FF44060C4F20200194605F068F909
:100490004FF4E1333B604FF00003BB804FF00003AB
:1004A000FB804FF000033B814FF00003BB814FF016
:1004B00004037B813B464FF49040C4F20000194690
:1004C00000F0FEF94FF49040C4F200004FF001013B
:1004D00000F0CCFA07F11807BD4680BD90B593B087
:1004E00000AF78604FF0000387F8473044E000BF6A
:1004F0004FF49040C4F200004FF0200100F0FCFAED
:100500000346002BF4D097F84730002B1DD04FF452
:100510009040C4F2000000F0DDFA0346522B14D1E3
:100520004FF0000387F8473097F847404FF490406A
:10053000C4F2000000F0CEFA03461A464FEA440324
:1005400007F14801CB1823F8402C97F847404FF4A7
:100550009040C4F2000000F0BDFA03461A464FEA8C
:10056000440307F14801CB1823F8402C97F8473093
:1005700003F1010387F8473097F847304FEA430308
:1005800007F14802D31833F8403C532BAFD17B68B6
:100590004FF000029A807B684FF00002DA807B689F
:1005A0004FF000021A817B684FF000021A604FF092
:1005B000000387F8473097F847304FEA430307F1C5
:1005C0004801CB1833F8403C522B40F0748197F827
:1005D000473003F1010387F8473097F847304FEA77
:1005E000430307F14802D31833F8403C2D2B5ED16A
:1005F00097F8473003F1010387F8473020E07B6824
:100600009B889BB21A464FEA8202D3184FEA4303F3
:100610009AB297F847304FEA430307F14801CB18E5
:1006200033F8403CD3189BB2A3F130039BB29AB28B
:100630007B689A8097F8473003F1010387F84730C9
:1006400097F847304FEA430307F14802D31833F8CD
:10065000403C502BD3D17B689B889BB2C3F10003F5
:100660009BB29AB27B689A802DE07B689B889BB294
:100670001A464FEA8202D3184FEA43039AB297F818
:1006800047304FEA430307F14801CB1833F8403CA9
:10069000D3189BB2A3F130039BB29AB27B689A80C5
:1006A00097F8473003F1010387F8473000E000BFB7
:1006B00097F847304FEA430307F14802D31833F85D
:1006C000403C502BD1D197F8473003F1010387F814
:1006D000473097F847304FEA430307F14801CB18FA
:1006E00033F8403C2D2B5ED197F8473003F10103DE
:1006F00087F8473020E07B68DB889BB21A464FEAD8
:100700008202D3184FEA43039AB297F847304FEA70
:10071000430307F14801CB1833F8403CD3189BB290
:10072000A3F130039BB29AB27B68DA8097F8473026
:1007300003F1010387F8473097F847304FEA430346
:1007400007F14802D31833F8403C592BD3D17B68CA
:10075000DB889BB2C3F100039BB29AB27B68DA805C
:100760002DE07B68DB889BB21A464FEA8202D318E1
:100770004FEA43039AB297F847304FEA430307F131
:100780004801CB1833F8403CD3189BB2A3F1300397
:100790009BB29AB27B68DA8097F8473003F1010385
:1007A00087F8473000E000BF97F847304FEA43032F
:1007B00007F14802D31833F8403C592BD1D197F8B0
:1007C000473003F1010387F8473097F847304FEA85
:1007D000430307F14801CB1833F8403C2D2B5ED181
:1007E00097F8473003F1010387F8473020E07B6832
:1007F0001B899BB21A464FEA8202D3184FEA430381
:100800009AB297F847304FEA430307F14801CB18F3
:1008100033F8403CD3189BB2A3F130039BB29AB299
:100820007B681A8197F8473003F1010387F8473056
:1008300097F847304FEA430307F14802D31833F8DB
:10084000403C532BD3D17B681B899BB2C3F100037F
:100850009BB29AB27B681A812DE07B681B899BB2A0
:100860001A464FEA8202D3184FEA43039AB297F826
:1008700047304FEA430307F14801CB1833F8403CB7
:10088000D3189BB2A3F130039BB29AB27B681A8152
:1008900097F8473003F1010387F8473000E000BFC5
:1008A00097F847304FEA430307F14802D31833F86B
:1008B000403C532BD1D107F14C07BD4690BD00BF42
:1008C00080B58AB000AF786039604FF000037B627A
:1008D0004FF000033B624FF00003FB614FF0000359
:1008E000BB617B681B8A9BB27B627B6A23F44053AB
:1008F0007B623B68DB887A6A13437B627B6A9AB2CD
:100900007B681A827B689B899BB27B627B6A23F43B
:10091000B05323F00C037B623B689A883B681B89C9
:1009200013439AB23B685B8913439BB27A6A1343C1
:100930007B627B6A9AB27B689A817B689B8A9BB256
:100940007B627B6A23F440737B623B689B897A6A93
:1009500013437B627B6A9AB27B689A8207F1080331
:10096000184600F069FB7A684FF48053C4F2010323
:100970009A4206D07A684FF4A053C4F201039A4217
:1009800002D17B693B6201E03B693B627B689B89EA
:100990009BB29BB21BB2002B0FDA3A6A13464FEAA6
:1009A00083039B184FEA83029A183B681B684FEA3F
:1009B0004303B2FBF3F3FB610EE03A6A13464FEADE
:1009C00083039B184FEA83029A183B681B684FEA1F
:1009D0008303B2FBF3F3FB61FA6948F21F53C5F2DC
:1009E000EB13A3FB02134FEA53134FEA03137B628B
:1009F0007B6A4FEA13134FF0640202FB03F3FA69B8
:100A0000D31ABB617B689B899BB29BB21BB2002B44
:100A100012DABB694FEAC30303F1320248F21F53F3
:100A2000C5F2EB13A3FB02134FEA531303F00703C2
:100A30007A6A13437B6211E0BB694FEA031303F147
:100A4000320248F21F53C5F2EB13A3FB02134FEA25
:100A5000531303F00F037A6A13437B627B6A9AB2E3
:100A60007B681A8107F12807BD4680BD80B483B03A
:100A700000AF78600B46FB70FB78002B08D07B68DA
:100A80009B899BB243F400539AB27B689A8107E03A
:100A90007B689B899BB223F400539AB27B689A814E
:100AA00007F10C07BD4680BC704700BF80B483B01F
:100AB00000AF78600B467B807B884FEAC3534FEAD8
:100AC000D3539AB27B689A8007F10C07BD4680BC6D
:100AD000704700BF80B483B000AF78607B689B88AC
:100AE0009BB24FEAC3534FEAD3539BB2184607F168
:100AF0000C07BD4680BC704780B485B000AF7860FD
:100B00000B467B804FF00003FB737B681B889AB217
:100B10007B8813409BB2002B03D04FF00103FB7383
:100B200002E04FF00003FB73FB7B184607F114074C
:100B3000BD4680BC704700BF80B584B004AF04F0F0
:100B40002FF8024647F6A403C0F60003009347F6C9
:100B5000B403C0F60003019347F6C403C0F60003D4
:100B60000293104647F69801C0F6000147F6A0022E
:100B7000C0F600024FF0000306F020F8BD4680BD2D
:100B800080B584B004AF04F00BF8024647F6A40326
:100B9000C0F60003009347F6D803C0F600030193A4
:100BA00047F6C403C0F600030293104647F69801C7
:100BB000C0F6000147F6A002C0F600024FF00003A5
:100BC00005F0FCFF4FF000031846BD4680BD00BF96
:100BD000F0B587B004AF786003F0E2FF06464FF04F
:100BE000000003F0F1FF05464FF0000003F07EFE29
:100BF000044647F6A403C0F60003009347F60C131F
:100C0000C0F60003019347F6C403C0F60003029345
:100C1000304647F69801C0F600012A46234605F003
:100C2000CDFF07F10C07BD46F0BD00BFF0B589B0A0
:100C300004AF78604FF4FA73FB814FF03203BB814D
:100C40007B681B881A46FB8903F59C5303F1080354
:100C50009A4207DC7B681B881A46BB8903F59673AA
:100C60009A4227DA03F09CFF06464FF0000003F09B
:100C7000ABFF05464FF0000003F038FE044647F690
:100C80002813C0F60003009347F63813C0F600039C
:100C9000019347F65013C0F600030293304647F61F
:100CA0002011C0F600012A46234605F087FF4FF0C9
:100CB000000326E003F074FF06464FF0000003F047
:100CC00083FF05464FF0000003F010FE044647F690
:100CD0002813C0F60003009347F63813C0F600034C
:100CE000019347F67813C0F600030293304647F6A7
:100CF0007011C0F600012A46234605F05FFF4FF051
:100D00000103184607F11407BD46F0BD80B584B055
:100D100004AF03F045FF024647F62813C0F6000370
:100D2000009347F69C13C0F60003019347F6B013F7
:100D3000C0F600030293104647F69011C0F600017A
:100D400047F69812C0F600024FF0000305F036FF98
:100D5000BD4680BD80B584B004AF03F021FF0246DC
:100D600047F62813C0F60003009347F6C413C0F6F5
:100D70000003019347F6B013C0F600030293104638
:100D800047F69011C0F6000147F69812C0F600022F
:100D90004FF0000305F012FF4FF000031846BD4668
:100DA00080BD00BFF0B587B004AF0346FB7103F010
:100DB000F7FE06464FF0000003F006FF05464FF031
:100DC000000003F093FD044647F62813C0F6000325
:100DD000009347F6F013C0F60003019347F6B013F3
:100DE000C0F600030293304647F69011C0F60001AA
:100DF0002A46234605F0E2FE4FF00003184607F1AD
:100E00000C07BD46F0BD00BFF0B587B004AF7860F9
:100E10007B681846FFF70AFF0346002B5DD07B680E
:100E200003F102031846FFF701FF0346002B54D0DD
:100E30007B6803F104031846FFF7F8FE0346002B16
:100E40004BD07B6803F106031846FFF7EFFE03461D
:100E5000002B42D07B6803F108031846FFF7E6FE3B
:100E60000346002B39D07B6803F10A031846FFF7CD
:100E7000DDFE0346002B30D07B6803F10C031846DF
:100E8000FFF7D4FE0346002B27D003F089FE064669
:100E90004FF0000003F098FE05464FF0000003F00D
:100EA00025FD044647F62813C0F60003009347F6D5
:100EB0005023C0F60003019347F66823C0F60003F1
:100EC0000293304647F67011C0F600012A462346C9
:100ED00005F074FE4FF0010326E003F061FE0646C4
:100EE0004FF0000003F070FE05464FF0000003F0E5
:100EF000FDFC044647F62813C0F60003009347F6AE
:100F00005023C0F60003019347F67823C0F6000390
:100F10000293304647F62011C0F600012A462346C8
:100F200005F04CFE4FF00003184607F10C07BD46D4
:100F3000F0BD00BF80B582B000AF78604FF0010017
:100F4000FFF730FF03461A467B681A804FF0020015
:100F5000FFF728FF03461A467B685A804FF00400CB
:100F6000FFF720FF03461A467B689A804FF008007F
:100F7000FFF718FF03461A467B68DA804FF010002F
:100F8000FFF710FF03461A467B681A814FF02000D6
:100F9000FFF708FF03461A467B685A814FF040006E
:100FA000FFF700FF03461A467B689A8107F108079E
:100FB000BD4680BD80B582B000AF48F68853C0F60C
:100FC00000037B6040F20003C2F200033B600BE0D1
:100FD0007B681A683B681A603B6803F104033B6056
:100FE0007B6803F104037B603A6840F66C03C2F24D
:100FF00000039A42ECD30B480B494FF000028842A1
:10100000B8BF40F8042BFFF6FAAFDFF82000016804
:1010100041F47001016000F0FDFE07F10807BD46D4
:1010200080BD00006C080020840A002088ED00E0EC
:1010300080B400AFFEE700BF80B489B000AF786035
:101040004FF00003BB614FF000037B614FF00003E2
:10105000FB614FF002033B614FF00003FB604FF078
:101060000203BB604FF46053C4F202039B6803F0B9
:101070000C03BB61BB69042B0AD0082B0FD0002BDB
:1010800060D17A684FF41053C0F2F403136060E04B
:101090007A684FF49053C0F27A03136059E04FF42A
:1010A0006053C4F202035B6803F480034FEA935376
:1010B000FB604FF46053C4F202035B6803F03F032C
:1010C000BB60FB68002B14D04FF49053C0F27A033E
:1010D000BA68B3FBF2F24FF46053C4F202035968EA
:1010E00047F6C0730B404FEA931303FB02F3FB6117
:1010F00013E04FF41053C0F2F403BA68B3FBF2F2FA
:101100004FF46053C4F20203596847F6C0730B40B2
:101110004FEA931303FB02F3FB614FF46053C4F2F5
:1011200002035B6803F440334FEA134303F1010306
:101130004FEA43033B61FA693B69B2FBF3F27B6818
:101140001A6006E07A684FF41053C0F2F40313609B
:1011500000BF4FF46053C4F202039B6803F0F00336
:10116000BB61BB694FEA1313BB6140F20003C2F2DB
:101170000003BA699B181B78DBB27B617B681A6835
:101180007B6922FA03F27B685A604FF46053C4F221
:1011900002039B6803F4E053BB61BB694FEA9323EE
:1011A000BB6140F20003C2F20003BA699B181B78CE
:1011B000DBB27B617B685A687B6922FA03F27B6849
:1011C0009A604FF46053C4F202039B6803F46043D7
:1011D000BB61BB694FEA5333BB6140F20003C2F20B
:1011E0000003BA699B181B78DBB27B617B685A6885
:1011F0007B6922FA03F27B68DA6007F12407BD46B7
:1012000080BC704780B483B000AF78600B46FB7041
:10121000FB78002B0CD04FF46053C4F202034FF460
:101220006052C4F20202116B7A680A431A630DE03D
:101230004FF46053C4F202034FF46052C4F202024E
:10124000116B7A686FEA02020A401A6307F10C0711
:10125000BD4680BC704700BF80B483B000AF7860EB
:101260000B46FB70FB78002B0CD04FF46053C4F29C
:1012700002034FF46052C4F20202116C7A680A430E
:101280001A640DE04FF46053C4F202034FF460524D
:10129000C4F20202116C7A686FEA02020A401A6410
:1012A00007F10C07BD4680BC704700BF80B483B017
:1012B00000AF78600B46FB70FB78002B0CD04FF42E
:1012C0006053C4F202034FF46052C4F20202516C44
:1012D0007A680A435A640DE04FF46053C4F2020383
:1012E0004FF46052C4F20202516C7A686FEA020253
:1012F0000A405A6407F10C07BD4680BC704700BF26
:10130000F0B587B004AF78607B681B785BB213F1EF
:10131000020F4DDB7B681B785BB2022B48DC7B68DD
:101320005B785BB213F1020F42DB7B685B785BB2E8
:10133000022B3DDC7B689B785BB213F1020F37DB3D
:101340007B689B785BB2022B32DC7B68DB785BB21C
:1013500013F1020F2CDB7B68DB785BB2022B27DCFE
:1013600003F01EFC06464FF0000003F02DFC05467E
:101370004FF0000003F0BAFA044647F6B023C0F677
:101380000003009347F6C023C0F60003019347F61D
:10139000D423C0F600030293304647F6A821C0F6D6
:1013A00000012A46234605F009FC4FF0010326E020
:1013B00003F0F6FB06464FF0000003F005FC05467F
:1013C0004FF0000003F092FA044647F6B023C0F64F
:1013D0000003009347F6C023C0F60003019347F6CD
:1013E0000033C0F600030293304647F6F821C0F6FA
:1013F00000012A46234605F0E1FB4FF000031846A2
:1014000007F10C07BD46F0BDF0B589B004AFF86038
:10141000B9607A603B6003F0C3FB06464FF0000002
:1014200003F0D2FB05464FF0000003F05FFA0446DC
:1014300047F6B023C0F60003009347F63033C0F6FA
:101440000003019347F64433C0F60003029330468D
:1014500047F62831C0F600012A46234605F0AEFBC8
:1014600007F11407BD46F0BDF0B589B004AFF860D0
:10147000B9607A6003F094FB06464FF0000003F079
:10148000A3FB05464FF0000003F030FA044647F690
:10149000B023C0F60003009347F65833C0F60003AC
:1014A000019347F64433C0F600030293304647F6F3
:1014B0002831C0F600012A46234605F07FFB07F1DC
:1014C0001407BD46F0BD00BFF0B589B004AFF860A9
:1014D000B9607A6003F064FB06464FF0000003F049
:1014E00073FB05464FF0000003F000FA044647F690
:1014F000B023C0F60003009347F66C33C0F6000338
:10150000019347F64433C0F600030293304647F692
:101510002831C0F600012A46234605F04FFB4FF064
:101520000003184607F11407BD46F0BDF0B589B0B9
:1015300004AFF860B9607A603B6003F031FB0646A7
:101540004FF0000003F040FB05464FF0000003F0B1
:10155000CDF9044647F6B023C0F60003009347F6E2
:101560008433C0F60003019347F64433C0F600030A
:101570000293304647F62831C0F600012A4623463A
:1015800005F01CFB07F11407BD46F0BDF0B587B0B0
:1015900004AF786003F004FB06464FF0000003F050
:1015A00013FB05464FF0000003F0A0F9044647F690
:1015B000B023C0F60003009347F69833C0F600034B
:1015C000019347F64433C0F600030293304647F6D2
:1015D0002831C0F600012A46234605F0EFFA07F14C
:1015E0000C07BD46F0BD00BF80B582B000AF03461A
:1015F000FB71FB79184605F001FB07F10807BD46B2
:1016000080BD00BF80B483B000AF78600B46FB7034
:101610007B68FA781A704FF00103184607F10C073F
:10162000BD4680BC704700BF80B485B000AF786015
:1016300039604FF00003FB600FE03B681A787B686D
:101640001A707B6803F101037B603B6803F10103BF
:101650003B60FB6803F10103FB603B681B78002BD8
:10166000EBD1FB68184607F11407BD4680BC7047F4
:1016700080B586B000AFF8607A603B600B46FB72C5
:101680004FF000037B617B6803F1FF337B603B68B5
:10169000092B25D93A684CF6CD43CCF6CC43A3FBB5
:1016A00002134FEAD303FA7AF86811467A68FFF713
:1016B000DFFF78617B69FA68D318FB6013E0FB7A7F
:1016C000F8681946FFF79EFFFB6803F10103FB6012
:1016D0007B6903F101037B617B6803F1FF337B606E
:1016E0007B68002BEBDC39684CF6CD43CCF6CC4361
:1016F000A3FB01234FEAD30213464FEA83039B184F
:101700004FEA4303CA1AD3B203F13003DBB2F868DD
:101710001946FFF777FF03467A69D3187B617B6927
:10172000184607F11807BD4680BD00BF80B586B0DA
:1017300000AFF8607A603B600B46FB724FF000032D
:101740007B613B68002B04DA3B68C3F100033B611B
:1017500001E03B683B617B6803F1FF337B603B69E1
:10176000092B2AD93B68002B12DA3A694CF6CD4393
:10177000CCF6CC43A3FB02134FEAD303C3F100031F
:10178000FA7AF86811467A68FFF7D0FF78610FE0BF
:101790003A694CF6CD43CCF6CC43A3FB02134FEA97
:1017A000D303FA7AF86811467A68FFF7BFFF7861C9
:1017B0007B69FA68D318FB602BE03B68002B15DAD5
:1017C0007B6803F1FF337B6010E0FB7AF868194611
:1017D000FFF718FFFB6803F10103FB607B6903F16E
:1017E00001037B617B6803F1FF337B607B68002B27
:1017F000EBDC3B68002B0CDAF8684FF02D01FFF7AB
:1018000001FF03467A69D3187B61FB6803F101038A
:10181000FB6039694CF6CD43CCF6CC43A3FB0123E6
:101820004FEAD30213464FEA83039B184FEA430360
:10183000CA1AD3B203F13003DBB2F8681946FFF7D6
:10184000E1FE03467A69D3187B617B69184607F18C
:101850001807BD4680BD00BF80B588B002AFF860F4
:101860007A600A46FA72BB724FF000037B617B68B4
:1018700003F1FF337B603B6A4FEA1313002B24D044
:101880003B6A4FEA1311FA7ABB7A0091F868114665
:101890007A68FFF7E1FF03467A69D3187B617B69B9
:1018A000FA68D318FB6013E0FB7AF8681946FFF773
:1018B000A9FEFB6803F10103FB607B6903F10103EF
:1018C0007B617B6803F1FF337B607B68002BEBDC83
:1018D0003B6A03F00F03092B0CD83B6ADBB203F021
:1018E0000F03DBB203F13003DBB2F8681946FFF7F0
:1018F00089FE1BE0BB7A002B0CD03B6ADBB203F005
:101900000F03DBB203F13703DBB2F8681946FFF7C8
:1019100079FE0BE03B6ADBB203F00F03DBB203F1AD
:101920005703DBB2F8681946FFF76CFE7B6903F1D9
:1019300001037B617B69184607F11807BD4680BD2E
:1019400080B58AB002AFF860B9607A603B604FF052
:101950000003BB614FF000037B61FB68002B00F0CC
:101960001C81FB684FF000021A7016E17B681B783F
:10197000252B10D07B681A78FB681A70FB6803F17E
:101980000103FB607B6803F101037B607B6903F16A
:1019900001037B6102E17B6803F101031B78252BC6
:1019A00010D1FB684FF025021A70FB6803F10103A8
:1019B000FB607B6803F102037B607B6903F1010339
:1019C0007B61EBE04FF02003FB774FF00003BB7728
:1019D0007B6803F101037B607B681B78302B1BD194
:1019E0004FF03003FB777B6803F101037B6013E06A
:1019F000BB7F1A464FEA8202D3184FEA4303DAB29A
:101A00007B681B78D318DBB2A3F13003BB777B680C
:101A100003F101037B6000E000BF7B681B782F2B84
:101A200003D97B681B78392BE2D9BA7F7B69D3183D
:101A30001A46BB689A4205D9BB68DAB27B69DBB249
:101A4000D31ABB777B681B78A3F15803202B00F2D5
:101A5000948001A252F823F02D1B00087B1B000884
:101A60007B1B00087B1B00087B1B00087B1B0008FE
:101A70007B1B00087B1B00087B1B00087B1B0008EE
:101A80007B1B0008631B0008DD1A00087B1B000895
:101A90007B1B00087B1B00087B1B0008DD1A00086D
:101AA0007B1B00087B1B00087B1B00087B1B0008BE
:101AB0007B1B00087B1B00087B1B00087B1B0008AE
:101AC0007B1B00084D1B00087B1B0008F51A000853
:101AD0007B1B00087B1B00080D1B0008BA7F3B68BE
:101AE00003F1040139601B68F97FF868FFF71EFEF7
:101AF000B86145E0BA7F3B6803F1040139601B68B7
:101B0000F97FF868FFF7B4FDB86139E0BA7F3B6848
:101B100003F1040139601968FB7F0091F8681946E8
:101B20004FF00003FFF798FEB86129E0BA7F3B68E9
:101B300003F1040139601968FB7F0091F8681946C8
:101B40004FF00103FFF788FEB86119E03B6803F12D
:101B500004023A601B68F8681946FFF765FDB86132
:101B60000EE03B6803F104023A601B68DBB2F868E0
:101B70001946FFF747FDB86102E04FF0FF332CE054
:101B80007B6803F101037B60BB69FA68D318FB60D3
:101B90007A69BB69D3187B6100E000BF7B681B7862
:101BA000002B04D07A69BB689A42FFF4DFAE7A69F1
:101BB000BB689A4204D2FB684FF000021A700BE037
:101BC000FB6803F1FF33FB60FB684FF000021A7003
:101BD0007B6903F1FF337B617B69184607F12007BE
:101BE000BD4680BD80B584B000AFF860B9607A6052
:101BF000F8684FF0C801BA687B68FFF7A1FE03469A
:101C0000184607F11007BD4680BD00BFB0B5C0B093
:101C100000AFF860B9607A6047F6AC33C0F60003F5
:101C200007F114041D460FCD0FC40FCD0FC42B6850
:101C3000236007F138031846B9687A68FFF7D2FFC6
:101C40000346C72B0CDD40F23843C2F200031B6889
:101C5000DB6807F114021046194600F073F8FEE73E
:101C600007F138031846F96800F06CF80346184687
:101C700007F58077BD46B0BD80B582B000AF786013
:101C8000396040F23843C2F200031B689B68184673
:101C900079683A68FFF7BAFF0346184607F1080764
:101CA000BD4680BD0FB480B582B000AF07F114030C
:101CB0003B6038693968FFF7DFFF78607B6818465A
:101CC00007F10807BD46BDE8804004B0704700BF7B
:101CD00080B582B000AF786040F23843C2F20003B2
:101CE0001B689B687868194600F02CF80346184674
:101CF00007F10807BD4680BD80B582B000AF7860AF
:101D0000396040F23843C2F200031B689A683B68AE
:101D10009A4208D040F23843C2F200031B68DA68E6
:101D20003B689A4206D17B68DBB21846FFF75CFC41
:101D30007B6801E04FF0FF33184607F10807BD4606
:101D400080BD00BF80B584B000AF786039604FF0CF
:101D50000003FB6014E07B681B7818463968FFF7C6
:101D6000CBFF0346B3F1FF3F02D14FF0FF330CE04E
:101D7000FB6803F10103FB607B6803F101037B60F7
:101D80007B681B78002BE6D1FB68184607F110072B
:101D9000BD4680BD80B485B000AF78607B6803F03D
:101DA0000703FB604FF46D43CEF20003DB68BB60BA
:101DB000BA684FF6FF031340BB60FB684FEA03228B
:101DC000BB68134343F0BF6343F40033BB604FF47D
:101DD0006D43CEF20003BA68DA6007F11407BD461E
:101DE00080BC704780B400AFBFF34F8F4FF46D429B
:101DF000CEF200024FF46D43CEF20003DB6803F431
:101E0000E0614FF00403C0F2FA530B43D360BFF319
:101E10004F8FFEE780B594B004AF01F0B5F904F040
:101E20004DFE01F06FF901F0DDF901F0E9F903462B
:101E30001A4640F67423C2F200035A8040F6742317
:101E4000C2F200035B88002B4CD040F67423C2F230
:101E500000035B88102B45D002F0A2FE024647F635
:101E60001443C0F60003009347F62443C0F6000372
:101E7000019347F62C43C0F600030293104647F641
:101E80000841C0F6000147F61042C0F600024FF0CC
:101E9000000304F093FE40F67423C2F200034FF0F7
:101EA00002021A7040F67420C2F2000001F004FC35
:101EB00007F104031846FEF78BFE3B79002BF1D1A6
:101EC0003B79012BEED13B79002B02D0012B03D0C3
:101ED00005E002F04DFA05E002F074FA02E002F0CB
:101EE00071FA00BF02F05CFE024647F61443C0F6EA
:101EF0000003009347F62443C0F60003019347F61E
:101F00006843C0F600030293104647F66041C0F6EE
:101F1000000147F61042C0F600024FF0000304F043
:101F20004DFE4FF001004FF0000104F087F902462A
:101F300040F66C03C2F200031A6040F66C03C2F272
:101F400000031B68002B54D102F02AFE024647F61C
:101F50001443C0F60003009347F62443C0F6000381
:101F6000019347F68043C0F600030293104647F6FC
:101F70000841C0F6000147F61042C0F600024FF0DB
:101F8000000304F01BFE40F67423C2F200034FF07E
:101F900002021A7040F67423C2F200035B886FEAF3
:101FA00043436FEA53439AB240F67423C2F20003EC
:101FB0005A8040F67420C2F2000001F07DFB07F168
:101FC00004031846FEF704FE3B79002BF1D13B7960
:101FD000012BEED13B79002B02D0012B03D005E081
:101FE00002F0C6F905E002F0EDF902E002F0EAF9CC
:101FF00000BF02F0D5FD024647F61443C0F60003C9
:10200000009347F62443C0F60003019347F6A44328
:10201000C0F600030293104647F66041C0F6000187
:1020200047F61042C0F600024FF0000304F0C6FD70
:102030004FF00403009340F66823C2F200030193BB
:102040004FF0000302934FF00003039342F22D4040
:10205000C0F6000047F6C441C0F600014FF480729C
:102060004FF0000302F0D8F902F09AFD024647F65D
:102070001443C0F60003009347F62443C0F6000360
:10208000019347F6C843C0F600030293104647F693
:102090006041C0F6000147F61042C0F600024FF062
:1020A000000304F08BFD4FF00403009340F670230F
:1020B000C2F2000301934FF0000302934FF00003BC
:1020C000039342F6C150C0F6000047F6EC41C0F65B
:1020D00000014FF480724FF0000302F09DF902F00E
:1020E0005FFD024647F61443C0F60003009347F62F
:1020F0002443C0F60003019347F6F043C0F6000303
:102100000293104647F66041C0F6000147F61042C0
:10211000C0F600024FF0000304F050FD4FF003033F
:10212000009340F66C23C2F2000301934FF00003CA
:1021300002934FF00003039342F21960C0F60000CF
:1021400047F60C51C0F600014FF480724FF00003C7
:1021500002F062F902F024FD024647F61443C0F68D
:102160000003009347F62443C0F60003019347F6AB
:102170001053C0F600030293104647F66041C0F6C4
:10218000000147F61042C0F600024FF0000304F0D1
:1021900015FD4FF00203009340F67C23C2F20003CA
:1021A00001934FF0000302934FF00003039342F6B4
:1021B0009910C0F6000047F63051C0F600014FF408
:1021C00080724FF0000302F027F902F0E9FC0246AA
:1021D00047F61443C0F60003009347F62443C0F6C5
:1021E0000003019347F63453C0F6000302931046F0
:1021F00047F66041C0F6000147F61042C0F6000203
:102200004FF0000304F0DAFC40F67423C2F200033E
:102210004FF001021A704FF00203009340F678234A
:10222000C2F2000301934FF0000302934FF000034A
:10223000039342F65170C0F6000047F65051C0F6C5
:1022400000014FF480724FF0000302F0E5F840F611
:102250006823C2F200031B68002B1BD040F66C23DE
:10226000C2F200031B68002B14D040F67C23C2F29C
:1022700000031B68002B0DD040F67023C2F2000350
:102280001B68002B06D040F67823C2F200031B68BF
:10229000002B54D102F084FC024647F61443C0F6EA
:1022A0000003009347F62443C0F60003019347F66A
:1022B0005453C0F600030293104647F60841C0F697
:1022C000000147F61042C0F600024FF0000304F090
:1022D00075FC40F67423C2F200034FF002021A703C
:1022E00040F67423C2F200035B886FEA43436FEA4F
:1022F00053439AB240F67423C2F200035A8040F668
:102300007420C2F2000001F0D7F907F10403184667
:10231000FEF75EFC3B79002BF1D13B79012BEED12E
:102320003B79002B02D0012B03D005E002F020F80E
:1023300005E002F047F802E002F044F800BF02F0C6
:102340002FFC024647F61443C0F60003009347F6FD
:102350002443C0F60003019347F66C53C0F6000314
:102360000293104647F66041C0F6000147F610425E
:10237000C0F600024FF0000304F020FC02F0D2FA95
:1023800002F00EFC024647F61443C0F60003009329
:1023900047F62443C0F60003019347F68053C0F686
:1023A00000030293104647F60841C0F6000147F6C5
:1023B0001042C0F600024FF0000304F0FFFB40F6AD
:1023C0007423C2F200034FF002021A7040F6742325
:1023D000C2F200035B886FEA43436FEA53439AB249
:1023E00040F67423C2F200035A8040F67420C2F211
:1023F000000001F061F907F104031846FEF7E8FB5D
:102400003B79002BF1D13B79012BEED13B79002BAD
:1024100002D0012B03D005E001F0AAFF05E001F096
:10242000D1FF02E001F0CEFF00BFFEE780B596B01D
:1024300000AF786002F0B4FB03467B6507F1100340
:10244000184601F06DFC07F10C03184601F09CFCE6
:1024500007F144031846FEF76DFD07F144031846E3
:10246000FEF7D2FC0346002B00F0C480FB8923F06A
:1024700002039BB2FB8107F10C03184601F0B0FB8D
:10248000B7F84420BB8C9A4207D297F8523043F0F9
:102490000103DBB287F8523006E097F8523023F0A0
:1024A0000103DBB287F85230B7F84E20BB8C9A425A
:1024B00007D297F8523043F02003DBB287F852304E
:1024C00006E097F8523023F02003DBB287F8523051
:1024D000B7F84820BB8C9A4207D297F8523043F0A5
:1024E0000403DBB287F8523006E097F8523023F04D
:1024F0000403DBB287F85230B7F84620BB8C9A420F
:1025000007D297F8523043F00203DBB287F852301B
:1025100006E097F8523023F00203DBB287F852301E
:10252000B7F84C20BB8C9A4207D297F8523043F050
:102530001003DBB287F8523006E097F8523023F0F0
:102540001003DBB287F85230B7F84A20BB8C9A42AE
:1025500007D297F8523043F00803DBB287F85230C5
:1025600006E097F8523023F00803DBB287F85230C8
:1025700040F67423C2F200031B78012B06D140F60B
:102580007423C2F200031B78072B14D0B7F8502035
:102590003B8B9A4207D297F8523043F04003DBB2AC
:1025A00087F852300EE097F8523023F04003DBB248
:1025B00087F8523006E097F8523023F04003DBB240
:1025C00087F8523007F14403184601F0BFFA97F834
:1025D0005230002B18D040F66C03C2F200031B6887
:1025E00018464FF000014FF000024FF0000303F0D7
:1025F000EFFE09E0FB8943F002039BB2FB8107F188
:102600000C03184601F0ECFAFB6A07F1540210467D
:10261000194602F0A3F811E7F0B5BBB004AF78603B
:1026200047F68C23C0F6000307F108041D460FCDC2
:102630000FC495E8030084E8030040F66C03C2F27F
:1026400000031B68002B24D102F0AAFA06464FF0C3
:10265000000002F0B9FA05464FF0000002F046F91A
:10266000044647F61443C0F60003009347F6985318
:10267000C0F60003019347F6AC53C0F60003029383
:10268000304647F60841C0F600012A46234604F0CA
:1026900095FA02F085FA06464FF0000002F094FA2F
:1026A00005464FF0000002F021F9044647F61443B6
:1026B000C0F60003009347F69853C0F60003019359
:1026C00047F6C853C0F600030293304647F6604110
:1026D000C0F600012A46234604F070FA07F1C00351
:1026E000184601F051FB07F17803184601F018FB7A
:1026F00007F1C4031846FDF795FD07F1C40318461A
:10270000FDF7C0FD034687F8D73097F8D730002B88
:1027100011D007F1C403184601F0A2FAB7F8C2308D
:1027200043F008039BB2A7F8C23007F1C003184674
:1027300001F056FA10E007F1C403184601F09EF8C4
:10274000B7F8C23023F008039BB2A7F8C23007F1F4
:10275000C003184601F044FA07F1AC03184601F033
:10276000FBFA07F17003184601F0C4FA07F13003D1
:10277000184601F08BFA07F12003184601F0A4FA7D
:1027800007F1AC0007F1700107F1C40207F1300353
:1027900007F12004009407F17804019407F1C004C4
:1027A000029401F0FBFC97F8C03003F1FF33062BD5
:1027B00000F2A08001A252F823F000BFD927000840
:1027C000F5280008E52700085B2800082B280008EA
:1027D000B32800087128000807F1AC03184601F07F
:1027E000D7FB8AE007F1C40207F1780310461946C7
:1027F00001F036FB0346002B0DD140F6EC03C2F28C
:1028000000035B6807F1080007F1C40107F1AC029F
:10281000FEF7FAFD71E04FF0040387F8C03007F1CE
:10282000C003184601F0DCF967E007F1080107F181
:10283000C40207F1AC03084611461A46FEF744FEEF
:102840000346002B58D04FF0040387F8C03007F13F
:10285000C003184601F0C4F94EE007F1080007F183
:10286000C40107F1AC0207F12003FEF75FFE44E06C
:1028700007F1C40207F178031046194601F056FB30
:102880000346002B0BD107F1080107F1C40207F141
:10289000AC03084611461A46FEF7E6FD2DE04FF060
:1028A000010387F8C03007F1C003184601F098F91A
:1028B00023E007F1C40207F178031046194601F03E
:1028C00035FB0346002B0BD107F1080107F1C402C9
:1028D00007F1AC03084611461A46FEF7C5FD0CE0A9
:1028E0004FF0020387F8C03007F1C003184601F02B
:1028F00077F902E000BF00E000BF40F67423C2F2A7
:1029000000031B78002B12D040F67423C2F20003A0
:102910001B78012B0BD040F67423C2F200031B7806
:10292000022B04D007F108031846FEF72FFE02F031
:1029300037F906464FF0000002F046F905464FF021
:10294000000001F0D3FF044647F61443C0F600032D
:10295000009347F69853C0F60003019347F6D4530B
:10296000C0F600030293304647F66041C0F600010E
:102970002A46234604F022F940F66C03C2F2000313
:102980001A68D7F8983010464FF000011A464FF0F9
:10299000000303F03BFE7CE6F0B5C5B004AF786001
:1029A00002F0FEF80346C7F8FC3002F0F9F80646DC
:1029B0004FF0000002F008F905464FF0000001F06A
:1029C00095FF044647F61443C0F60003009347F60C
:1029D000F453C0F60003019347F6C853C0F6000352
:1029E0000293304647F66041C0F600012A4623466E
:1029F00004F0E4F807F1B0031846FEF7E9F807F130
:102A00007C03184601F08CF907F17803184601F0B1
:102A1000BBF997F8B030A3F102030A2B00F27E81D4
:102A200001A252F823F000BF332B0008512B0008FD
:102A30006F2B0008CD2B0008112C00084F2C00082C
:102A4000C12A0008692C0008A32C0008552A000898
:102A5000C72C0008B7F87A3023F400639BB2A7F8BC
:102A60007A3007F17803184601F0BAF807F16803E5
:102A7000184601F0F5F807F12803184601F006F9A9
:102A800007F10C03184601F067F907F12003184617
:102A900001F030F907F1EC03184601F015F907F1E0
:102AA000780007F1680107F1EC0207F1280307F14C
:102AB0000C04009407F12004019400F019FC3AE1A1
:102AC00097F87830012B27D107F1B00303F1040305
:102AD000184600F0CFFB0346002B0ED007F1B003E1
:102AE00003F10403184600F0F1FFB7F87A3023F43D
:102AF00080639BB2A7F87A3006E0B7F87A3043F4E7
:102B000080639BB2A7F87A30B7F87A3023F4006379
:102B10009BB2A7F87A3006E0B7F87A3043F4006346
:102B20009BB2A7F87A3007F17803184601F058F8FD
:102B300001E101F03DF9B7F87A3023F400639BB26C
:102B4000A7F87A3007F17803184601F049F8F2E067
:102B500001F05AF9B7F87A3023F400639BB2A7F872
:102B60007A3007F17803184601F03AF8E3E097F875
:102B70007830012B1DD107F16803184601F070F879
:102B800007F1680207F17C031046194601F0B0FB1B
:102B90004FF0030387F87830B7F87A3023F40063F6
:102BA0009BB2A7F87A3007F17803184601F018F8BD
:102BB000C1E0B7F87A3043F400639BB2A7F87A30EB
:102BC00007F17803184601F00BF8B4E097F8783075
:102BD000042B10D14FF0070387F87830B7F87A301C
:102BE00023F400639BB2A7F87A3007F17803184604
:102BF00000F0F6FF9FE0B7F87A3043F400639BB231
:102C0000A7F87A3007F17803184600F0E9FF92E060
:102C100097F87830042B10D14FF0050387F87830FF
:102C2000B7F87A3023F400639BB2A7F87A3007F143
:102C30007803184600F0D4FF7DE04FF40063A7F856
:102C40007A3007F17803184600F0CAFF73E0B7F84E
:102C50007A3023F400639BB2A7F87A3007F1780347
:102C6000184600F0BDFF66E097F87830012B0ED1D2
:102C700000F0DAFDB7F87A3023F400639BB2A7F8CE
:102C80007A3007F17803184600F0AAFF53E04FF4BA
:102C90000063A7F87A3007F17803184600F0A0FF28
:102CA00049E007F17C03184600F0FCFAB7F87A30E7
:102CB00023F400639BB2A7F87A3007F17803184633
:102CC00000F08EFF37E007F1B00303F1040318466C
:102CD000FEF716FB0346002B13D007F1B00303F1F8
:102CE0000403184600F05EFEB7F87A3023F4006360
:102CF0009BB2A7F87A3007F17803184600F070FF0E
:102D000019E0B7F87A3043F400639BB2A7F87A3041
:102D100007F17803184600F063FF0CE0B7F87A304B
:102D200043F400639BB2A7F87A3007F178031846A2
:102D300000F056FF00BFB7F87A3003F400639BB28F
:102D4000A7F87A30B7F87A30002B0BD103F0DCF912
:102D500001F026FF024640F6B003C2F200039A607B
:102D600003F0E8F901F01CFF06464FF0000001F007
:102D70002BFF05464FF0000001F0B8FD044647F672
:102D80001443C0F60003009347F6F453C0F6000363
:102D9000019347F60C63C0F600030293304647F6F2
:102DA0006041C0F600012A46234603F007FFD7F82A
:102DB000A43007F1FC021046194601F0CFFCF4E5FF
:102DC000F0B599B004AF786001F0EAFE0346FB6409
:102DD00001F0E6FE06464FF0000001F0F5FE054664
:102DE0004FF0000001F082FD044647F61443C0F6A0
:102DF0000003009347F61463C0F60003019347F6FF
:102E0000C853C0F600030293304647F66041C0F64F
:102E100000012A46234603F0D1FE07F10C031846B1
:102E200001F078FA07F14803184600F0ADFF07F10A
:102E30000C03184600F02AFA0346002B0CD007F1C9
:102E40000C03184600F0FEFDB7F84A3023F48073F7
:102E50009BB2A7F84A300BE0B7F84A3043F48073CE
:102E60009BB2A7F84A3007F10C03184600F042FF66
:102E700007F14803184600F0B3FE07F114031846A3
:102E800000F04EFF07F10C0207F11403104619463B
:102E900001F0AEF80346002B2DD001F081FE06466E
:102EA0004FF0000001F090FE05464FF0000001F0E9
:102EB0001DFD044647F61443C0F60003009347F691
:102EC0001463C0F60003019347F63063C0F60003B5
:102ED0000293304647F66041C0F600012A46234679
:102EE00003F06CFE4FF0060387F8483007F1480303
:102EF000184600F075FE01F053FE06464FF0000044
:102F000001F062FE05464FF0000001F0EFFC0446C0
:102F100047F61443C0F60003009347F61463C0F667
:102F20000003019347F60C63C0F60003029330469A
:102F300047F66041C0F600012A46234603F03EFEF4
:102F4000FB6A07F14C021046194601F007FC3FE707
:102F5000F0B5A7B004AF786001F022FE0346C7F8D1
:102F6000843001F01DFE06464FF0000001F02CFEFB
:102F700005464FF0000001F0B9FC044647F6144343
:102F8000C0F60003009347F65063C0F600030193B8
:102F900047F6C853C0F600030293304647F6604137
:102FA000C0F600012A46234603F008FE07F1440359
:102FB000184602F0EBFF07F10C03184600F010FE74
:102FC00007F14403184603F00FF80346002B0AD11B
:102FD00007F14403184600F097FCFB8923F0200317
:102FE0009BB2FB8104E0FB8943F020039BB2FB8191
:102FF00007F10C03184600F0F3FD07F11003184623
:1030000000F08EFE01F0CCFD06464FF0000001F00E
:10301000DBFD05464FF0000001F068FC044647F672
:103020001443C0F60003009347F65063C0F6000354
:10303000019347F60C63C0F600030293304647F64F
:103040006041C0F600012A46234603F0B7FD7B6BC2
:1030500007F184021046194601F080FB81E700BFAA
:10306000F0B585B004AF01F09BFD06464FF00000BF
:1030700001F0AAFD05464FF0000001F037FC0446C0
:1030800047F61443C0F60003009347F66463C0F6A6
:103090000003019347F67C63C0F6000302933046B9
:1030A00047F66041C0F600012A46234603F086FD3C
:1030B00001F076FD06464FF0000001F085FD054663
:1030C0004FF0000001F012FC044647F61443C0F62E
:1030D0000003009347F66463C0F60003019347F6CC
:1030E0009063C0F600030293304647F66041C0F695
:1030F00000012A46234603F061FD30BF07F10407B3
:10310000BD46F0BDB0B584B004AF40F6EC02C2F2EB
:10311000000247F6D033C0F6000314461D460FCD1B
:103120000FC40FCD0FC40FCD0FC42B68236040F622
:103130007423C2F200034FF000021A7040F67423A9
:10314000C2F200034FF000025A8047F61443C0F663
:103150000003009347F6A863C0F60003019347F607
:10316000C063C0F6000302934FF0000047F66041D1
:10317000C0F6000147F61042C0F600024FF000030F
:1031800003F01CFDBD46B0BD80B500AF4FF00000A0
:10319000FEF700FE02F0ACFC02F002FD80BD00BFB5
:1031A00080B584B004AF47F61443C0F60003009323
:1031B00047F60473C0F60003019347F61873C0F690
:1031C000000302934FF0000047F6FC61C0F60001D7
:1031D00047F61042C0F600024FF0000303F0EEFC89
:1031E000BD4680BD80B500AF02F084FEFCF7CCFF89
:1031F000FDF7A2FCFDF78AFDFFF7D2FF80BD00BFFF
:1032000080B582B000AF4FF00003FB8002F096FE65
:103210000346002B03D0FB8843F01003FB80FCF730
:10322000D9FF0346002B03D0FB8843F00403FB8047
:10323000FDF7A6FC0346002B03D0FB8843F4007384
:10324000FB80FDF787FD0346002B03D0FB8843F08E
:103250000103FB8000F076FF0346002B03D0FB88C0
:1032600043F08003FB80FB88184607F10807BD4642
:1032700080BD00BF80B483B000AF78604FF0010321
:10328000184607F10C07BD4680BC704780B483B078
:1032900000AF78604FF00103184607F10C07BD46F8
:1032A00080BC704780B586B004AF786047F61443A1
:1032B000C0F60003009347F62C73C0F60003019399
:1032C00047F61873C0F6000302934FF0000047F66C
:1032D000FC61C0F6000147F61042C0F600024FF054
:1032E000000303F06BFC07F10807BD4680BD00BF7B
:1032F00080B584B000AFF860B9607A603B60FB686D
:103300001B78072B4AD801A252F823F02D3300086E
:103310003B33000849330008573300086533000881
:1033200073330008813300088F33000847F63C7080
:10333000C0F60000FEF7B6FC37E047F66870C0F64E
:103340000000FEF7AFFC30E047F69470C0F60000D6
:10335000FEF7A8FC29E047F6C070C0F60000FEF7B3
:10336000A1FC22E047F6EC70C0F60000FEF79AFCE4
:103370001BE048F21400C0F60000FEF793FC14E0D6
:1033800048F24000C0F60000FEF78CFC0DE048F269
:103390006C00C0F60000FEF785FC06E048F29800DD
:1033A000C0F60000FEF77EFC00BFFB685B88002BC8
:1033B00006D148F2BC00C0F60000FEF773FC4DE0F9
:1033C00048F2E800C0F60000FEF76CFC48F2181066
:1033D000C0F60000FEF766FC48F24810C0F6000098
:1033E000FEF760FC48F27810C0F60000FEF75AFCC9
:1033F00048F2A810C0F60000FEF754FC48F2D010C6
:10340000C0F60000FEF74EFC48F20020C0F60000B7
:10341000FEF748FC48F22C20C0F60000FEF742FC04
:1034200048F25C20C0F60000FEF73CFC48F28C201D
:10343000C0F60000FEF736FC48F2BC20C0F60000E3
:10344000FEF730FC48F2EC20C0F60000FEF72AFC44
:1034500048F21830C0F60000FEF724FC48F2443071
:10346000C0F60000FEF734FCBB681B6848F2483029
:10347000C0F600001946FEF715FCBB689B881BB21E
:1034800048F25C30C0F600001946FEF70BFCBB6842
:10349000DB881BB248F27030C0F600001946FEF718
:1034A00001FCBB681B891BB248F28430C0F60000E7
:1034B0001946FEF7F7FBBB68DB6848F29830C0F6A8
:1034C00000001946FEF7EEFB48F24430C0F600005B
:1034D000FEF7FEFB7B681B785BB248F2AC30C0F6AF
:1034E00000001946FEF7DEFB7B685B785BB248F2B2
:1034F000C430C0F600001946FEF7D4FB7B689B7809
:103500005BB248F2DC30C0F600001946FEF7CAFB99
:103510007B68DB785BB248F2F430C0F600001946F5
:10352000FEF7C0FB7B68DB6848F20C40C0F6000089
:103530001946FEF7B7FB7B689B6848F22440C0F64B
:1035400000001946FEF7AEFB7B681B7948F23C4051
:10355000C0F600001946FEF7A5FB48F24430C0F65D
:103560000000FEF7B5FB3B68DB6B48F25840C0F645
:1035700000001946FEF796FB48F24430C0F6000002
:10358000FEF7A6FBBB699B7B002B06D148F26C4083
:10359000C0F60000FEF786FB29E048F29040C0F636
:1035A0000000FEF77FFB48F2B440C0F60000FEF7D3
:1035B00079FB48F2DC40C0F60000FEF773FB48F2EE
:1035C0000450C0F60000FEF76DFB48F22850C0F62C
:1035D0000000FEF767FB48F25050C0F60000FEF70F
:1035E00061FB48F27850C0F60000FEF75BFBBB6958
:1035F0001B8848F29C50C0F600001946FEF752FBAB
:10360000BB695B8848F2B850C0F600001946FEF767
:1036100049FBBB69DB8848F2D450C0F6000019466C
:10362000FEF740FBBB695B8948F2F050C0F6000032
:103630001946FEF737FBBB699B8848F20C60C0F661
:1036400000001946FEF72EFBBB691B8948F2286073
:10365000C0F600001946FEF725FBBB699B8948F2BE
:103660004460C0F600001946FEF71CFBBB691B69ED
:1036700048F26060C0F600001946FEF713FB48F2FE
:103680004430C0F60000FEF723FBFB691B6848F2DC
:103690007C60C0F600001946FEF704FBFB695B681E
:1036A00048F29060C0F600001946FEF7FBFA07F1F9
:1036B0001007BD4680BD00BF80B582B000AF786006
:1036C0007B681B78072B4BD801A252F823F000BF70
:1036D000F1360008FF3600080D3700081B370008D8
:1036E00029370008373700084537000853370008E6
:1036F00047F63C70C0F60000FEF7D4FA37E047F614
:103700006870C0F60000FEF7CDFA30E047F694701E
:10371000C0F60000FEF7C6FA29E047F6C070C0F612
:103720000000FEF7BFFA22E047F6EC70C0F600009A
:10373000FEF7B8FA1BE048F21400C0F60000FEF7EE
:10374000B1FA14E048F24000C0F60000FEF7AAFA11
:103750000DE048F26C00C0F60000FEF7A3FA06E0A8
:1037600048F29800C0F60000FEF79CFA00BF7B68A4
:103770005B88002B06D148F2BC00C0F60000FEF7C3
:1037800091FA4DE048F2E800C0F60000FEF78AFA30
:1037900048F21810C0F60000FEF784FA48F248100C
:1037A000C0F60000FEF77EFA48F27810C0F600007E
:1037B000FEF778FA48F2A810C0F60000FEF772FA99
:1037C00048F2D010C0F60000FEF76CFA48F2002074
:1037D000C0F60000FEF766FA48F22C20C0F60000A2
:1037E000FEF760FA48F25C20C0F60000FEF75AFAD5
:1037F00048F28C20C0F60000FEF754FA48F2BC20D4
:10380000C0F60000FEF74EFA48F2EC20C0F60000C9
:10381000FEF748FA48F21830C0F60000FEF742FA08
:1038200007F10807BD4680BD80B500AF47F6D03030
:10383000C0F6000000F04AF980BD00BF80B483B03C
:1038400000AF78607B681B78072B0CD84FF0010223
:1038500002FA03F303F0B803002B04D07B684FF0A7
:1038600006021A7004E07B684FF002021A7000BF73
:1038700007F10C07BD4680BC704700BFF0B587B0AC
:1038800004AF786002F040FC40F6C003C2F20003CF
:103890007A6807CA83E8070001F082F903464FF00F
:1038A000320202FB03F240F6C003C2F20003DA6008
:1038B00002F040FC01F074F906464FF0000001F000
:1038C00083F905464FF0000001F010F8044647F672
:1038D0001443C0F60003009348F2A863C0F6000347
:1038E000019348F2BC63C0F600030293304647F6EA
:1038F0006041C0F600012A46234603F05FF907F154
:103900000C07BD46F0BD00BFF0B587B004AF7860CE
:1039100002F0FAFB40F67003C2F200037A681C461C
:1039200015460FCD0FC40FCD0FC40FCD0FC495E8B2
:10393000070084E8070001F033F903464FF0320234
:1039400002FB03F240F67003C2F20003DA6302F0F6
:10395000F1FB01F025F906464FF0000001F034F9C3
:1039600005464FF0000000F0C1FF044647F614433F
:10397000C0F60003009348F2D063C0F60003019341
:1039800048F2E463C0F600030293304647F6604114
:10399000C0F600012A46234603F010F907F10C0790
:1039A000BD46F0BDF0B587B004AF786002F0ACFB67
:1039B00040F6B003C2F200037A681068186001F0A4
:1039C000EFF803464FF0320202FB03F240F6B00379
:1039D000C2F20003DA6001F0E3F803464FF032026E
:1039E00002FB03F240F6B003C2F200039A6002F059
:1039F000A1FB01F0D5F806464FF0000001F0E4F815
:103A000005464FF0000000F071FF044647F61443EE
:103A1000C0F60003009348F2F863C0F60003019378
:103A200048F20C73C0F600030293304647F660413B
:103A3000C0F600012A46234603F0C0F807F10C0740
:103A4000BD46F0BDF0B587B004AF786002F05CFB16
:103A50007B681A6840F6D003C2F200031A6001F0D6
:103A60009FF803464FF0320202FB03F240F6D00308
:103A7000C2F200035A6002F05DFB01F091F80646C5
:103A80004FF0000001F0A0F805464FF0000000F0F4
:103A90002DFF044647F61443C0F60003009348F296
:103AA0002073C0F60003019348F23873C0F6000398
:103AB0000293304647F66041C0F600012A4623468D
:103AC00003F07CF807F10C07BD46F0BDF0B587B0F8
:103AD00004AF786002F018FB40F6EC03C2F200037A
:103AE0007A681C4615460FCD0FC40FCD0FC40FCDFD
:103AF0000FC42B68236002F01DFB01F051F806464D
:103B00004FF0000001F060F805464FF0000000F0B3
:103B1000EDFE044647F61443C0F60003009348F256
:103B20004C73C0F60003019348F26473C0F60003BF
:103B30000293304647F66041C0F600012A4623460C
:103B400003F03CF807F10C07BD46F0BDF0B587B0B7
:103B500004AF786002F0D8FA40F6D803C2F200034E
:103B60007A681C461346186859689A68DB680FC45F
:103B700001F016F803464FF0320202FB03F240F662
:103B8000D803C2F200031A6102F0D4FA01F008F877
:103B900006464FF0000001F017F805464FF0000010
:103BA00000F0A4FE044647F61443C0F60003009359
:103BB00048F27C73C0F60003019348F29873C0F694
:103BC00000030293304647F66041C0F600012A46E2
:103BD000234602F0F3FF07F10C07BD46F0BD00BF1E
:103BE000F0B587B004AF786002F08EFA7B681A787F
:103BF00040F67423C2F200031A707B685A8840F6BC
:103C00007423C2F200035A8002F094FA00F0C8FF55
:103C100006464FF0000000F0D7FF05464FF00000C9
:103C200000F064FE044647F61443C0F60003009318
:103C300048F2B073C0F60003019348F2C873C0F6AF
:103C400000030293304647F66041C0F600012A4661
:103C5000234602F0B3FF07F10C07BD46F0BD00BFDD
:103C600090B583B000AF786002F04EFA7A6840F603
:103C7000C003C2F2000314460FCB84E80F0002F029
:103C800059FA07F10C07BD4690BD00BFB0B582B030
:103C900000AF786002F038FA7A6840F67003C2F23A
:103CA000000314461D460FCD0FC40FCD0FC40FCD1A
:103CB0000FC495E80F0084E80F0002F03BFA07F10B
:103CC0000807BD46B0BD00BF90B583B000AF7860B7
:103CD00002F01AFA7A6840F6B003C2F20003144602
:103CE0000FCB84E80F0002F025FA07F10C07BD4660
:103CF00090BD00BF80B582B000AF786002F004FADA
:103D00007A6840F6D003C2F2000393E8030082E829
:103D1000030002F00FFA07F10807BD4680BD00BF9F
:103D2000B0B582B000AF786002F0EEF97A6840F684
:103D3000EC03C2F2000314461D460FCD0FC40FCD95
:103D40000FC40FCD0FC42B68236002F0F3F907F105
:103D50000807BD46B0BD00BFB0B582B000AF786007
:103D600002F0D2F97A6840F6D803C2F20003144692
:103D70001D460FCD0FC42B68236002F0DBF907F15D
:103D80000807BD46B0BD00BF80B582B000AF786007
:103D900002F0BAF97A6840F67423C2F20003186898
:103DA000106002F0C7F907F10807BD4680BD00BFEB
:103DB000F0B585B004AF00F0F3FE06464FF000000A
:103DC00000F002FF05464FF0000000F08FFD0446B2
:103DD00047F61443C0F60003009348F2DC73C0F6C4
:103DE0000003019347F61873C0F6000302933046B0
:103DF00047F6FC61C0F600012A46234602F0DEFECB
:103E000007F10407BD46F0BDF0B585B004AF00F082
:103E1000C7FE06464FF0000000F0D6FE05464FF004
:103E2000000000F063FD044647F61443C0F60003AB
:103E3000009348F2F073C0F60003019347F618733D
:103E4000C0F600030293304647F6FC61C0F600015D
:103E50002A46234602F0B2FE07F10407BD46F0BD34
:103E6000F0B587B004AF7860396040F6C003C2F2A5
:103E700000031B681A4640F6EC03C2F200035B68BD
:103E80009A4227D200F08CFE06464FF0000000F068
:103E90009BFE05464FF0000000F028FD044647F663
:103EA0001443C0F60003009348F60403C0F6000371
:103EB000019348F61803C0F600030293304647F614
:103EC0006041C0F600012A46234602F077FE4FF01B
:103ED000010326E000F064FE06464FF0000000F00B
:103EE00073FE05464FF0000000F000FD044647F663
:103EF0001443C0F60003009348F60403C0F6000321
:103F0000019348F63C03C0F600030293304647F69F
:103F10006041C0F600012A46234602F04FFE4FF0F2
:103F20000003184607F10C07BD46F0BDF0B587B099
:103F300004AF7860396000F033FE06464FF00000B1
:103F400000F042FE05464FF0000000F0CFFC0446B2
:103F500047F61443C0F60003009348F65803C0F632
:103F60000003019347F61873C0F60003029330462E
:103F700047F6FC61C0F600012A46234602F01EFE09
:103F80004FF00003184607F10C07BD46F0BD00BF17
:103F900080B483B000AF78607B689B7B002B0CBF44
:103FA00000230123DBB2184607F10C07BD4680BC95
:103FB000704700BF80B584B000AF7860396000F012
:103FC000EFFD02467B681B69D31AFB603B6893F8E0
:103FD0002F303A68D26902FB03F2FB689A422CBF89
:103FE00000230123DBB2184607F11007BD4680BD50
:103FF00080B483B000AF786039607B681A683B6832
:104000001B699A422CBF00230123DBB2184607F13B
:104010000C07BD4680BC704780B584B000AF7860A7
:10402000396000F0BDFD02467B685B68D31AFB6017
:104030003B6893F830303A68926902FB03F2FB6800
:104040009A422CBF00230123DBB2184607F1100768
:10405000BD4680BD80B584B000AF7860396000F0A7
:104060009FFD02467B68DB68D31AFB603B6893F8D0
:104070002C303A68126A02FB03F2FB689A422CBFAA
:1040800000230123DBB2184607F11007BD4680BDAF
:1040900080B584B000AF7860396000F081FD0246E1
:1040A0007B68DB6BD31AFB603B6893F831303A686E
:1040B000526A02FB03F2FB689A422CBF00230123E1
:1040C000DBB2184607F11007BD4680BD80B584B04D
:1040D00000AF7860396000F063FD02467B689B6842
:1040E000D31AFB603B6893F82E303A68926A02FB61
:1040F00003F2FB689A422CBF00230123DBB218466F
:1041000007F11007BD4680BD80B584B000AF786070
:10411000396000F045FD02467B68DB68D31AFB601E
:104120003B6893F82D303A68926A02FB03F2FB6811
:104130009A422CBF00230123DBB2184607F1100777
:10414000BD4680BDB0B584B004AF00F029FD054682
:104150004FF0000000F0CAFB044647F61443C0F6D7
:104160000003009348F66C03C0F60003019347F682
:104170001873C0F600030293284647F6FC61C0F6A8
:10418000000147F61042C0F60002234602F016FD79
:104190004FF000031846BD46B0BD00BF80B584B0E7
:1041A00000AFF860B9607A603B60F868F969FFF7C2
:1041B00001FF0346002B0AD03B6A5B8843F00103F2
:1041C0009AB23B6A5A80386AFFF738FB06E03B6ACE
:1041D0005B8823F001039AB23B6A5A80B868F96998
:1041E000FFF71AFF0346002B0AD03B6A5B8843F0B7
:1041F00080039AB23B6A5A80386AFFF71FFB06E0D9
:104200003B6A5B8823F080039AB23B6A5A807868E5
:10421000F969FFF71FFF0346002B0AD03B6A5B8852
:1042200043F004039AB23B6A5A80386AFFF706FBF0
:1042300006E03B6A5B8823F004039AB23B6A5A802B
:104240003868F969FFF724FF0346002B07D03B6A63
:104250005B8843F010039AB23B6A5A8006E03B6ADF
:104260005B8823F010039AB23B6A5A80B869F969F7
:10427000FFF72CFF0346002B0AD03B6A5B8843F410
:1042800000739AB23B6A5A80386AFFF7D7FA06E0A1
:104290003B6A5B8823F400739AB23B6A5A80B86920
:1042A000F969FFF731FF0346002B12D03B6A5B88A8
:1042B00043F040039AB23B6A5A80BA6947F6A42396
:1042C000C0F600031B681360BB691846FFF76AFB62
:1042D00006E03B6A5B8823F040039AB23B6A5A804F
:1042E000386AFFF77DFC07F11007BD4680BD00BFAF
:1042F00080B582B000AF786039607B681B681A4671
:104300003B68DA603868FFF7E1FB07F10807BD4654
:1043100080BD00BFF0B587B004AF786000F040FC0E
:1043200006464FF0000000F04FFC05464FF000003D
:1043300000F0DCFA044647F61443C0F6000300938D
:1043400048F68403C0F60003019347F61873C0F6DD
:1043500000030293304647F6FC61C0F600012A468E
:10436000234602F02BFC07F10C07BD46F0BD00BF51
:10437000B0B584B004AF00F013FC05464FF0000068
:1043800000F0B4FA044647F61443C0F60003009365
:1043900048F69803C0F60003019348F6A403C0F65C
:1043A00000030293284647F66041C0F6000147F635
:1043B0001042C0F60002234602F000FCFDF712FD99
:1043C000BD46B0BDB0B584B004AF00F0E9FB054612
:1043D0004FF0000000F08AFA044647F61443C0F696
:1043E0000003009348F6B003C0F60003019347F6BC
:1043F0001873C0F600030293284647F6FC61C0F626
:10440000000147F61042C0F60002234602F0D6FB38
:1044100030BFBD46B0BD00BFF0B58DB004AFF86091
:10442000B9603B601346FB80FB68002B1ED100F097
:10443000B7FB024648F6CC03C0F60003009348F6EB
:10444000DC03C0F60003019348F6EC03C0F600035A
:104450000293104648F6C001C0F6000148F6C802B3
:10446000C0F600024FF0000302F0A8FBBB6B042B68
:104470001ED900F095FB024648F6CC03C0F60003B7
:10448000009348F6DC03C0F60003019348F6EC0302
:10449000C0F600030293104648F6C001C0F60001C2
:1044A00048F6C802C0F600024FF0000302F086FB97
:1044B000FB881846396C01F035F8B861BB69002BF0
:1044C00000F00F81BB691A6BFB8803F1FF334FEAE1
:1044D0008303D3187B617B6923F007037B617B69CE
:1044E00003F00703002B1ED000F05AFB024648F6EB
:1044F000CC03C0F60003009348F6DC03C0F60003CB
:10450000019348F6EC03C0F600030293104648F608
:10451000C001C0F6000148F6C802C0F600024FF024
:10452000000302F04BFBFB880093B869B968BA6BD3
:104530007B6C00F021FF7869F9683A6801F060FD52
:104540000246BB691A60BB691B6803F00703002BB6
:104550001ED000F025FB024648F6CC03C0F600034F
:10456000009348F6DC03C0F60003019348F6EC0321
:10457000C0F600030293104648F6C001C0F60001E1
:1045800048F6C802C0F600024FF0000302F016FB26
:10459000FB6B002B02D0FB6BBA691A6001F0B4FD13
:1045A00040F6D013C2F200031B6803F1010240F68B
:1045B000D013C2F200031A6040F62013C2F20003C7
:1045C0001B68002B0FD140F62013C2F20003BA691A
:1045D0001A6040F6D013C2F200031B68012B18D1F9
:1045E00000F00EFF15E040F6E013C2F200031B6876
:1045F000002B0ED140F62013C2F200031B68DA6ACA
:10460000BB6B9A4205D840F62013C2F20003BA6988
:104610001A60BB69DA6A40F6D813C2F200031B685D
:104620009A4206D9BB69DA6A40F6D813C2F200038F
:104630001A6040F6F413C2F200031B6803F1010292
:1046400040F6F413C2F200031A60BB69DA6A40F65E
:10465000DC13C2F200031B689A4206D9BB69DA6A0E
:1046600040F6DC13C2F200031A60BB69DA6A134633
:104670004FEA83039B184FEA830340F62412C2F2E9
:1046800000029A18BB6903F104031046194601F0B1
:10469000A3F94FF00103FB6100F082FA0646BB6903
:1046A00003F13405B86900F021F9044648F6CC035B
:1046B000C0F60003009348F60013C0F60003019310
:1046C00048F61413C0F600030293304648F6F8018A
:1046D000C0F600012A46234602F070FA01F02AFDD6
:1046E00021E04FF0FF33FB6100F05AFA024648F632
:1046F000CC03C0F60003009348F63013C0F6000365
:10470000019348F64C13C0F600030293104648F696
:10471000C001C0F6000148F6C802C0F600024FF022
:10472000000302F04BFAFB69012B11D140F6E013B4
:10473000C2F200031B68002B0AD040F62013C2F21D
:1047400000031B68DA6ABB6B9A4201D201F0D0FC0D
:10475000FB69184607F12407BD46F0BDF0B58BB0E4
:1047600004AF786039604FF000037B617B68002BF9
:104770001ED100F015FA024648F6CC03C0F600033D
:10478000009348F6DC03C0F60003019348F6EC03FF
:10479000C0F600030293104648F6C001C0F60001BF
:1047A00048F6C802C0F600024FF0000302F006FA15
:1047B0003B68002B1ED100F0F3F9024648F6CC030B
:1047C000C0F60003009348F6DC03C0F60003019333
:1047D00048F6EC03C0F600030293104648F6C00109
:1047E000C0F6000148F6C802C0F600024FF0000310
:1047F00002F0E4F900F0F4F87B681A683B68D3181B
:104800003B617B681A6840F6D413C2F200031B6850
:104810009A4210D97B681A683B699A421BD940F6C4
:10482000D413C2F200031B683A699A4213D94FF0BD
:1048300001037B610FE07B681A683B699A4207D8E5
:1048400040F6D413C2F200031B683A699A4202D9B7
:104850004FF001037B617B683A691A607B69002B2A
:1048600037D000F09DF9064640F62013C2F200034F
:104870001B6803F1340540F62013C2F200031B68E5
:10488000184600F033F8044648F6CC03C0F600039F
:10489000009348F66413C0F60003019348F67C13B6
:1048A000C0F600030293304648F6F801C0F6000156
:1048B0002A46234602F082F940F62013C2F2000392
:1048C0001B6803F10403184601F0E8F8386900F0AA
:1048D000E3FD00F097F8F860FB68002B01D101F0D0
:1048E00007FC07F11C07BD46F0BD00BF80B584B0D2
:1048F00000AF786001F008FC7B68002B05D140F622
:104900002013C2F200031B6800E07B68FB60FB68B9
:10491000DB6ABB6001F00EFCBB68184607F11007AC
:10492000BD4680BD80B586B004AF4FF00003009354
:1049300040F6CC13C2F2000301934FF00003029340
:104940004FF00003039345F26530C0F6000048F6CF
:104950009411C0F600014FF480724FF00003FFF78E
:104960005BFD78607B68012B13D14FF0BF0080F3B3
:10497000118840F6E013C2F200034FF001021A6002
:1049800040F6D413C2F200034FF000021A6001F0A7
:1049900085FB7B68002B1ED100F002F9024648F629
:1049A000CC03C0F60003009348F6DC03C0F6000316
:1049B000019348F6EC03C0F600030293104648F654
:1049C000C001C0F6000148F6C802C0F600024FF070
:1049D000000302F0F3F807F10807BD4680BD00BFF1
:1049E00080B400AF40F6E413C2F200031B6803F189
:1049F000010240F6E413C2F200031A60BD4680BC17
:104A0000704700BF90B587B004AF4FF000037B60E4
:104A100040F6E413C2F200031B68002B1ED100F025
:104A2000BFF8024648F6CC03C0F60003009348F6F0
:104A3000DC03C0F60003019348F6EC03C0F6000364
:104A40000293104648F6C001C0F6000148F6C802BD
:104A5000C0F600024FF0000302F0B0F801F054FB82
:104A600040F6E413C2F200031B6803F1FF3240F684
:104A7000E413C2F200031A6040F6E413C2F200032A
:104A80001B68002B40F0848040F6D013C2F2000374
:104A90001B68002B7CD04FF000033B603BE040F6EE
:104AA000B813C2F20003DB68DC6804F1180318468F
:104AB00000F0F4FF04F10403184600F0EFFFE26A8F
:104AC00040F6DC13C2F200031B689A4205D9E26A81
:104AD00040F6DC13C2F200031A60E26A13464FEAA2
:104AE00083039B184FEA830340F62412C2F20002AC
:104AF0009A1804F104031046194600F06DFFE26AAB
:104B000040F62013C2F200031B68DB6A9A4202D30C
:104B10004FF001033B6040F6B813C2F200031B687C
:104B2000002BBCD140F6E813C2F200031B68002B37
:104B300018D00DE000F082F840F6E813C2F200034E
:104B40001B6803F1FF3240F6E813C2F200031A605B
:104B500040F6E813C2F200031B68002BEAD14FF0C5
:104B600001033B603B68012B06D040F6EC13C2F218
:104B700000031B68012B0BD14FF001037B6040F653
:104B8000EC13C2F200034FF000021A6001F0B0FA19
:104B900001F0D0FA7B68184607F10C07BD4690BDBE
:104BA00080B582B000AF01F0AFFA40F6D413C2F284
:104BB00000031B687B6001F0BDFA7B68184607F1B3
:104BC0000807BD4680BD00BF80B588B004AF7860DF
:104BD0007B68002B05D140F62013C2F200031B684E
:104BE00000E07B68FB60FB68002B1ED1FFF7D8FF5D
:104BF000024648F6CC03C0F60003009348F6DC03F7
:104C0000C0F60003019348F6EC03C0F600030293DC
:104C1000104648F6C001C0F6000148F6C802C0F6CA
:104C200000024FF0000301F0C9FFFB6803F13403F9
:104C3000184607F11007BD4680BD00BF80B588B09B
:104C400004AF40F6E413C2F200031B68002B40F0EF
:104C5000E68040F6D413C2F200031B6803F10102A0
:104C600040F6D413C2F200031A6040F6D413C2F225
:104C700000031B68002B67D140F6B013C2F200039B
:104C80001B681B68002B1ED0FFF78AFF024648F600
:104C9000CC03C0F60003009348F6DC03C0F6000323
:104CA000019348F6EC03C0F600030293104648F661
:104CB000C001C0F6000148F6C802C0F600024FF07D
:104CC000000301F07BFF40F6B013C2F200031B6843
:104CD000FB6040F6B413C2F200031A6840F6B0134A
:104CE000C2F200031A6040F6B413C2F20003FA687D
:104CF0001A6040F6F013C2F200031B6803F10102D0
:104D000040F6F013C2F200031A6040F6B013C2F28C
:104D100000031B681B68002B07D140F24043C2F21E
:104D200000034FF0FF321A600EE040F6B013C2F2FB
:104D300000031B68DB68DB68BB60BB685A6840F235
:104D40004043C2F200031A6040F6D413C2F20003DB
:104D50001A6840F24043C2F200031B689A426AD3C9
:104D600040F6B013C2F200031B681B68002B07D18A
:104D700040F24043C2F200034FF0FF321A605AE0A3
:104D800040F6B013C2F200031B68DB68DB68BB604F
:104D9000BB685B687B6040F6D413C2F200031A68FC
:104DA0007B689A4206D240F24043C2F200037A681E
:104DB0001A6040E0BB6803F10403184600F06EFE81
:104DC000BB689B6A002B05D0BB6803F1180318462B
:104DD00000F064FEBB68DA6A40F6DC13C2F200033E
:104DE0001B689A4206D9BB68DA6A40F6DC13C2F245
:104DF00000031A60BB68DA6A13464FEA83039B1804
:104E00004FEA830340F62412C2F200029A18BB68EC
:104E100003F104031046194600F0DEFDA0E740F65A
:104E2000E813C2F200031B6803F1010240F6E81325
:104E3000C2F200031A6007F11007BD4680BD00BF33
:104E4000F0B587B004AF40F6E413C2F200031B686C
:104E5000002B07D040F6EC13C2F200034FF0010222
:104E60001A60DAE0FFF79CFE064640F62013C2F215
:104E700000031B6803F1340540F62013C2F200035F
:104E80001B681846FFF732FD044648F6CC03C0F60F
:104E90000003009348F6A013C0F60003019348F600
:104EA000BC13C0F600030293304648F6F801C0F682
:104EB00000012A46234601F081FE40F62013C2F28B
:104EC00000031A68516C40F62C23C2F200031B68E1
:104ED0007868C31ACB18536440F62C23C2F200033F
:104EE0007A681A6031E040F6DC13C2F200031B68F6
:104EF000002B1ED1FFF754FE024648F6CC03C0F645
:104F00000003009348F6DC03C0F60003019348F663
:104F1000EC03C0F600030293104648F6C001C0F649
:104F2000000148F6C802C0F600024FF0000301F08D
:104F300045FE40F6DC13C2F200031B6803F1FF32AA
:104F400040F6DC13C2F200031A6040F6DC13C2F232
:104F50000003196840F62412C2F200020B464FEA21
:104F600083035B184FEA8303D3181B68002BBAD066
:104F700040F6DC13C2F200031A6813464FEA8303BB
:104F80009B184FEA830340F62412C2F200029B18DA
:104F90003B603B685B685A683B685A603B685A688C
:104FA0003B6803F108039A4204D13B685B685A6886
:104FB0003B685A603B685B68DA6840F62013C2F2CF
:104FC00000031A60FFF7ECFD064640F62013C2F21C
:104FD00000031B6803F1340540F62013C2F20003FE
:104FE0001B681846FFF782FC044648F6CC03C0F65F
:104FF0000003009348F6E013C0F60003019348F65F
:10500000F813C0F600030293304648F6F801C0F6E4
:1050100000012A46234601F0D1FD07F10C07BD46E9
:10502000F0BD00BF80B588B004AF786039607B68A0
:10503000002B1ED1FFF7B4FD024648F6CC03C0F6A4
:105040000003009348F6DC03C0F60003019348F622
:10505000EC03C0F600030293104648F6C001C0F608
:10506000000148F6C802C0F600024FF0000301F04C
:10507000A5FD40F62013C2F200031B6803F11803DC
:105080007868194600F0D0FC40F62013C2F2000305
:105090001B6803F10403184600F000FD40F6D4132A
:1050A000C2F200031A683B68D318FB60F86800F08E
:1050B000F3F907F11007BD4680BD00BF80B588B089
:1050C00004AF78607B68DB68DB68BB60BB68002B83
:1050D0001ED1FFF765FD024648F6CC03C0F600037B
:1050E000009348F6DC03C0F60003019348F6EC0396
:1050F000C0F600030293104648F6C001C0F6000156
:1051000048F6C802C0F600024FF0000301F056FD59
:10511000BB6803F11803184600F0C0FC40F6E41326
:10512000C2F200031B68002B2AD1BB6803F1040301
:10513000184600F0B3FCBB68DA6A40F6DC13C2F232
:1051400000031B689A4206D9BB68DA6A40F6DC1392
:10515000C2F200031A60BB68DA6A13464FEA83039F
:105160009B184FEA830340F62412C2F200029A18F9
:10517000BB6803F104031046194600F02DFC09E05A
:10518000BB6803F1180340F6B810C2F200001946DC
:1051900000F022FCBB68DA6A40F62013C2F200037A
:1051A0001B68DB6A9A4203D34FF00103FB6002E005
:1051B0004FF00003FB60FB68184607F11007BD467F
:1051C00080BD00BF80B586B004AF78607B68002BDF
:1051D0001ED1FFF7E5FC024648F6CC03C0F60003FB
:1051E000009348F6DC03C0F60003019348F6EC0395
:1051F000C0F600030293104648F6C001C0F6000155
:1052000048F6C802C0F600024FF0000301F0D6FCD9
:1052100040F6F013C2F200031A687B681A6040F689
:10522000D413C2F200031A687B685A6007F10807BA
:10523000BD4680BD80B588B004AF786039607B68BA
:10524000002B1ED1FFF7ACFC024648F6CC03C0F69B
:105250000003009348F6DC03C0F60003019348F610
:10526000EC03C0F600030293104648F6C001C0F6F6
:10527000000148F6C802C0F600024FF0000301F03A
:105280009DFC3B68002B1ED1FFF78AFC024648F6C6
:10529000CC03C0F60003009348F6DC03C0F600031D
:1052A000019348F6EC03C0F600030293104648F65B
:1052B000C001C0F6000148F6C802C0F600024FF077
:1052C000000301F07BFC00F01FFF7B681A6840F6CA
:1052D000F013C2F200031B689A420CD07B685A6834
:1052E00040F6D413C2F200031B689A4203D84FF071
:1052F0000103FB6022E040F6D413C2F200031A68F7
:105300007B685B68D21A3B681B689A4213D23B6881
:105310001A687B68596840F6D413C2F200031B6810
:10532000CB1AD2183B681A607868FFF74BFF4FF032
:105330000003FB6002E04FF00103FB6000F0FAFEA7
:10534000FB68184607F11007BD4680BD80B400AF6A
:1053500040F6EC13C2F200034FF001021A60BD46A2
:1053600080BC704780B582B000AF786000F08EF8E6
:10537000FDF776FEFAE700BF80B584B000AFF860B5
:10538000B9607A603B60FB6803F134031846B96882
:105390004FF0050202F05CF8FB684FF0000283F862
:1053A00038207B68042B02D94FF004037B60FB6834
:1053B0007A68DA62FB687A68DA63FB6803F10403EF
:1053C000184600F0FBFAFB6803F11803184600F0DA
:1053D000F5FAFB68FA681A617B68C3F10502FB689D
:1053E0009A61FB68FA685A62FB684FF000021A641F
:1053F000FB684FF000025A6407F11007BD4680BDFC
:1054000080B582B000AF4FF000037B6012E07A6895
:1054100013464FEA83039B184FEA830340F6241296
:10542000C2F200029B18184600F0A8FA7B6803F14C
:1054300001037B607B68042BE9D940F68810C2F237
:10544000000000F09BFA40F69C10C2F2000000F051
:1054500095FA40F6B810C2F2000000F08FFA40F65C
:10546000B013C2F2000340F68812C2F200021A60C2
:1054700040F6B413C2F2000340F69C12C2F20002DE
:105480001A6007F10807BD4680BD00BF80B400AFB9
:10549000BD4680BC704700BF80B582B000AF786069
:1054A00040F62013C2F200031B687A685A6040F687
:1054B000D413C2F200031B687A689A4210D240F6F5
:1054C000B413C2F200031A6840F62013C2F20003BC
:1054D0001B6803F104031046194600F0A5FA1DE00D
:1054E00040F6B013C2F200031A6840F62013C2F26D
:1054F00000031B6803F104031046194600F094FAF8
:1055000040F24043C2F200031B687A689A4205D217
:1055100040F24043C2F200037A681A6007F10807BC
:10552000BD4680BD80B584B000AF03463960FB80C6
:105530004FF0480001F080FB0346FB60FB68002B46
:1055400023D03B68002B07D1FB884FEA8303184622
:1055500001F072FB034600E03B68FA681363FB68E6
:105560001B6B002B06D1F86801F06EFB4FF00003B7
:10557000FB600AE0FB681A6BFB884FEA8303104666
:105580004FF0A5011A4601F0B7FEFB68184607F177
:105590001007BD4680BD00BF80B483B000AF40F6A9
:1055A0002013C2F200031B687B607B68184607F17A
:1055B0000C07BD4680BC704780B588B004AF7860EA
:1055C0007B68FB607B68002B1ED1FFF7E9FA02467F
:1055D00048F6CC03C0F60003009348F6DC03C0F69F
:1055E0000003019348F6EC03C0F600030293104653
:1055F00048F6C001C0F6000148F6C802C0F6000235
:105600004FF0000301F0DAFAFB68DA6A40F6201383
:10561000C2F200031B68DB6A9A4255D240F620139F
:10562000C2F200031B68DB6AC3F10502FB689A61E2
:10563000FB685969FB68DA6A13464FEA83039B18D3
:105640004FEA830340F62412C2F200029B189942EB
:1056500032D1FB6803F10403184600F01FFA40F64C
:105660002013C2F200031B68DA6AFB68DA62FB6887
:10567000DA6A40F6DC13C2F200031B689A4206D9CC
:10568000FB68DA6A40F6DC13C2F200031A60FB68BA
:10569000DA6A13464FEA83039B184FEA830340F606
:1056A0002412C2F200029A18FB6803F104031046A8
:1056B000194600F091F907E040F62013C2F200030A
:1056C0001B68DA6AFB68DA6207F11007BD4680BD25
:1056D00080B584B000AF78607B68FB607B68002B8E
:1056E00039D0FB68DA6AFB68DB6B9A4233D0FB681F
:1056F00003F10403184600F0D1F9FB68DA6BFB688C
:10570000DA62FB68DB6AC3F10502FB689A61FB6839
:10571000DA6A40F6DC13C2F200031B689A4206D92B
:10572000FB68DA6A40F6DC13C2F200031A60FB6819
:10573000DA6A13464FEA83039B184FEA830340F665
:105740002412C2F200029A18FB6803F10403104607
:10575000194600F041F907F11007BD4680BD00BFB2
:1057600080B487B000AF786039604FF000037B6190
:105770004FF000033B614FF00003FB604FF000036C
:105780007B6186E07B694FF0010202FA03F33B6123
:105790003B681A683B691340FB60FA683B699A42B0
:1057A00073D17B681A687B694FEA43034FF00301AA
:1057B00001FA03F36FEA03031A407B681A607B68FF
:1057C0001A683B681B7919467B694FEA430301FA63
:1057D00003F31A437B681A603B681B79012B03D0E3
:1057E0003B681B79022B34D17B689A687B694FEA4E
:1057F00043034FF0030101FA03F36FEA03031A4076
:105800007B689A607B689A683B685B7919467B691C
:105810004FEA430301FA03F31A437B689A607B68FB
:105820005A687B699BB24FF0010101FA03F36FEAFA
:1058300003031A407B685A607B685A683B689B790F
:1058400019467B699BB201FA03F39BB21A437B684A
:105850005A607B68DA687B699BB24FEA43034FF07A
:10586000030101FA03F36FEA03031A407B68DA606D
:105870007B68DA683B68DB7919467B694FEA43034A
:1058800001FA03F31A437B68DA607B6903F10103D1
:105890007B617B690F2B7FF675AF07F11C07BD4657
:1058A00080BC704780B485B000AF786013460A466C
:1058B0007A807B704FF00003FB604FF00003BB6009
:1058C0007A787B8803F007034FEA830302FA03F335
:1058D000FB607B884FEAD3039BB21A467B884FEA72
:1058E000D3039BB219467B6801F1080153F82110DC
:1058F0007B8803F007034FEA83034FF00F0000FAA1
:1059000003F36FEA030319407B6802F1080243F8CE
:1059100022107B884FEAD3039BB21A467B6802F1C0
:10592000080253F82220FB681343BB607B884FEAD0
:10593000D3039BB21A467B6802F10802B96843F8A8
:10594000221007F11407BD4680BC7047ABBE00F0C3
:1059500002B800207047002A00F00180106001208A
:10596000704706980188044A914240F00380043051
:1059700006907047FEE70000ABBE000080B483B025
:1059800000AF78607B6803F108027B685A607B682F
:105990004FF0FF329A607B6803F108027B68DA609F
:1059A0007B6803F108027B681A617B684FF0000294
:1059B0001A6007F10C07BD4680BC704780B483B005
:1059C00000AF78607B684FF000021A6107F10C07A6
:1059D000BD4680BC704700BF80B485B000AF786022
:1059E00039607B685B68FB60FB685A683B685A609B
:1059F0007B685A683B689A60FB685B683A689A60A3
:105A0000FB683A685A607B683A685A603B687A6813
:105A10001A617B681B6803F101027B681A6007F159
:105A20001407BD4680BC704780B485B000AF786075
:105A300039603B681B68BB60BB68B3F1FF3F03D1B3
:105A40007B681B69FB600DE07B6803F10803FB606A
:105A500002E0FB685B68FB60FB685B681A68BB6818
:105A60009A42F6D9FB685A683B685A603B685B68A3
:105A70003A689A603B68FA689A60FB683A685A60CC
:105A80003B687A681A617B681B6803F101027B68D6
:105A90001A6007F11407BD4680BC704780B485B01A
:105AA00000AF78607B685B687A6892689A607B6810
:105AB0009B687A6852685A607B681B69FB60FB6868
:105AC0005A687B689A4203D17B689A68FB685A607F
:105AD0007B684FF000021A61FB681B6803F1FF321C
