:020000040800F2
:1000000050120020D50F0008511000086355000859
:1000100051100008511000085110000800000000A5
:10002000000000000000000000000000695C000803
:1000300051100008000000006D5D0008C55D00085B
:10004000511000085110000851100008511000080C
:1000500051100008511000085110000851100008FC
:1000600051100008511000085110000851100008EC
:1000700051100008511000085110000851100008DC
:1000800051100008511000085110000851100008CC
:1000900051100008511000085110000851100008BC
:1000A00051100008511000085110000851100008AC
:1000B000511000085110000851100008511000089C
:1000C000511000085110000851100008511000088C
:1000D000511000085110000851100008511000087C
:1000E000511000085110000851100008511000086C
:1000F000511000085110000851100008511000085C
:10010000511000085110000851100008511000084B
:10011000511000085110000851100008511000083B
:10012000511000085110000851100008511000082B
:10013000511000085110000851100008511000081B
:10014000511000085110000851100008511000080B
:1001500051100008511000085110000851100008FB
:1001600051100008511000085110000851100008EB
:1001700051100008511000085110000851100008DB
:10018000511000085110000880B584B004AF04F08D
:1001900007FB024647F29833C0F60003009347F28C
:1001A0009C33C0F60003019347F2A833C0F6000366
:1001B0000293104647F28C31C0F6000147F29432A8
:1001C000C0F600024FF0000306F0F8FA00F02AF93A
:1001D000BD4680BD80B584B004AF04F0E1FA0246AC
:1001E00047F29833C0F60003009347F2D433C0F6C9
:1001F0000003019347F2E433C0F600030293104674
:1002000047F2CC31C0F6000147F29432C0F600024A
:100210004FF0000306F0D2FA4FF000031846BD4637
:1002200080BD00BFF0B587B004AF786004F0B8FAC5
:1002300006464FF0000004F0C7FA05464FF00000F4
:1002400004F054F9044647F29833C0F600030093D3
:1002500047F20443C0F60003019347F21443C0F68B
:1002600000030293304647F28C31C0F600012A4663
:10027000234606F0A3FA05F047FD786800F042F93E
:1002800005F058FD7B68DB8819B27B689B881AB241
:100290007B681B891BB247F23040C0F6000001F0BA
:1002A000C9FC07F10C07BD46F0BD00BFF0B589B031
:1002B00004AF78604FF00003FB73786800F060F8DB
:1002C00003461C46786800F071F803462343DAB20F
:1002D000FB7B1343FB73FB7B002B25D104F060FAFF
:1002E00006464FF0000004F06FFA05464FF000009C
:1002F00004F0FCF8044647F29833C0F6000300937C
:1003000047F27443C0F60003019347F28843C0F6F6
:1003100000030293304647F28C31C0F600012A46B2
:10032000234606F04BFA24E004F03AFA06464FF072
:10033000000004F049FA05464FF0000004F0D6F83A
:10034000044647F29833C0F60003009347F2744323
:10035000C0F60003019347F2B043C0F600030293D6
:10036000304647F2A841C0F600012A46234606F06F
:1003700025FAFB7B184607F11407BD46F0BD00BF08
:1003800080B485B000AF78604FF00003FB737B68EA
:100390001B68002B02DA4FF00103FB73FB7B18464E
:1003A00007F11407BD4680BC704700BF80B485B01C
:1003B00000AF78604FF00003FB737B689B881BB233
:1003C000B42B05DC7B689B881BB213F1B40F03DAF6
:1003D000FB7B43F00203FB737B68DB881BB2B42B0F
:1003E00005DC7B68DB881BB213F1B40F03DAFB7BFF
:1003F00043F00403FB737B681B891BB2B42B05DC41
:100400007B681B891BB213F1B40F03DAFB7B43F04B
:100410000803FB73FB7B184607F11407BD4680BC3D
:10042000704700BF80B586B000AF4FF008004FF0B6
:10043000010100F0F7FE4FF480204FF0010100F0C1
:100440001BFF4FF44060C4F202004FF008014FF070
:10045000070205F027F84FF00003BB754FF00103CA
:10046000FB754FF002033B754FF002037B7507F1FC
:1004700010034FF44060C4F20200194604F070FF0C
:100480004FF44060C4F202004FF009014FF0070240
:1004900005F008F84FF002033B754FF002037B753F
:1004A0004FF400733B6107F110034FF44060C4F256
:1004B0000200194604F054FF4FF4E1333B604FF063
:1004C0000003BB804FF00003FB804FF000033B8133
:1004D0004FF00003BB814FF004037B813B464FF498
:1004E0009040C4F20000194600F0FAF94FF4904031
:1004F000C4F200004FF0010100F0C8FA07F118073C
:10050000BD4680BD90B58FB000AF78604FF000035E
:1005100087F8373044E000BF4FF49040C4F2000049
:100520004FF0200100F0F8FA0346002BF4D097F8C2
:100530003730002B1DD04FF49040C4F2000000F083
:10054000D9FA0346522B14D14FF0000387F8373005
:1005500097F837404FF49040C4F2000000F0CAFA18
:1005600003461A464FEA440307F13801CB1823F833
:100570002C2C97F837404FF49040C4F2000000F064
:10058000B9FA03461A464FEA440307F13801CB187B
:1005900023F82C2C97F8373003F1010387F8373014
:1005A00097F837304FEA430307F13802D31833F88E
:1005B0002C3C532BAFD17B684FF000029A807B68B4
:1005C0004FF00002DA807B684FF000021A814FF092
:1005D000000387F8373097F837304FEA430307F1C5
:1005E0003801CB1833F82C3C522B40F0748197F82B
:1005F000373003F1010387F8373097F837304FEA87
:10060000430307F13802D31833F82C3C2D2B5ED16D
:1006100097F8373003F1010387F8373020E07B6823
:100620009B889BB21A464FEA8202D3184FEA4303D3
:100630009AB297F837304FEA430307F13801CB18E5
:1006400033F82C3CD3189BB2A3F130039BB29AB27F
:100650007B689A8097F8373003F1010387F83730C9
:1006600097F837304FEA430307F13802D31833F8CD
:100670002C3C502BD3D17B689B889BB2C3F10003E9
:100680009BB29AB27B689A802DE07B689B889BB274
:100690001A464FEA8202D3184FEA43039AB297F8F8
:1006A00037304FEA430307F13801CB1833F82C3CBD
:1006B000D3189BB2A3F130039BB29AB27B689A80A5
:1006C00097F8373003F1010387F8373000E000BFB7
:1006D00097F837304FEA430307F13802D31833F85D
:1006E0002C3C502BD1D197F8373003F1010387F818
:1006F000373097F837304FEA430307F13801CB180A
:1007000033F82C3C2D2B5ED197F8373003F10103E1
:1007100087F8373020E07B68DB889BB21A464FEAC7
:100720008202D3184FEA43039AB297F837304FEA60
:10073000430307F13801CB1833F82C3CD3189BB294
:10074000A3F130039BB29AB27B68DA8097F8373016
:1007500003F1010387F8373097F837304FEA430346
:1007600007F13802D31833F82C3C592BD3D17B68CE
:10077000DB889BB2C3F100039BB29AB27B68DA803C
:100780002DE07B68DB889BB21A464FEA8202D318C1
:100790004FEA43039AB297F837304FEA430307F121
:1007A0003801CB1833F82C3CD3189BB2A3F130039B
:1007B0009BB29AB27B68DA8097F8373003F1010375
:1007C00087F8373000E000BF97F837304FEA43032F
:1007D00007F13802D31833F82C3C592BD1D197F8B4
:1007E000373003F1010387F8373097F837304FEA95
:1007F000430307F13801CB1833F82C3C2D2B5ED185
:1008000097F8373003F1010387F8373020E07B6831
:100810001B899BB21A464FEA8202D3184FEA430360
:100820009AB297F837304FEA430307F13801CB18F3
:1008300033F82C3CD3189BB2A3F130039BB29AB28D
:100840007B681A8197F8373003F1010387F8373056
:1008500097F837304FEA430307F13802D31833F8DB
:100860002C3C532BD3D17B681B899BB2C3F1000373
:100870009BB29AB27B681A812DE07B681B899BB280
:100880001A464FEA8202D3184FEA43039AB297F806
:1008900037304FEA430307F13801CB1833F82C3CCB
:1008A000D3189BB2A3F130039BB29AB27B681A8132
:1008B00097F8373003F1010387F8373000E000BFC5
:1008C00097F837304FEA430307F13802D31833F86B
:1008D0002C3C532BD1D107F13C07BD4690BD00BF46
:1008E00080B58AB000AF786039604FF000037B625A
:1008F0004FF000033B624FF00003FB614FF0000339
:10090000BB617B681B8A9BB27B627B6A23F440538A
:100910007B623B68DB887A6A13437B627B6A9AB2AC
:100920007B681A827B689B899BB27B627B6A23F41B
:10093000B05323F00C037B623B689A883B681B89A9
:1009400013439AB23B685B8913439BB27A6A1343A1
:100950007B627B6A9AB27B689A817B689B8A9BB236
:100960007B627B6A23F440737B623B689B897A6A73
:1009700013437B627B6A9AB27B689A8207F1080311
:10098000184600F069FB7A684FF48053C4F2010303
:100990009A4206D07A684FF4A053C4F201039A42F7
:1009A00002D17B693B6201E03B693B627B689B89CA
:1009B0009BB29BB21BB2002B0FDA3A6A13464FEA86
:1009C00083039B184FEA83029A183B681B684FEA1F
:1009D0004303B2FBF3F3FB610EE03A6A13464FEABE
:1009E00083039B184FEA83029A183B681B684FEAFF
:1009F0008303B2FBF3F3FB61FA6948F21F53C5F2BC
:100A0000EB13A3FB02134FEA53134FEA03137B626A
:100A10007B6A4FEA13134FF0640202FB03F3FA6997
:100A2000D31ABB617B689B899BB29BB21BB2002B24
:100A300012DABB694FEAC30303F1320248F21F53D3
:100A4000C5F2EB13A3FB02134FEA531303F00703A2
:100A50007A6A13437B6211E0BB694FEA031303F127
:100A6000320248F21F53C5F2EB13A3FB02134FEA05
:100A7000531303F00F037A6A13437B627B6A9AB2C3
:100A80007B681A8107F12807BD4680BD80B483B01A
:100A900000AF78600B46FB70FB78002B08D07B68BA
:100AA0009B899BB243F400539AB27B689A8107E01A
:100AB0007B689B899BB223F400539AB27B689A812E
:100AC00007F10C07BD4680BC704700BF80B483B0FF
:100AD00000AF78600B467B807B884FEAC3534FEAB8
:100AE000D3539AB27B689A8007F10C07BD4680BC4D
:100AF000704700BF80B483B000AF78607B689B888C
:100B00009BB24FEAC3534FEAD3539BB2184607F147
:100B10000C07BD4680BC704780B485B000AF7860DC
:100B20000B467B804FF00003FB737B681B889AB2F7
:100B30007B8813409BB2002B03D04FF00103FB7363
:100B400002E04FF00003FB73FB7B184607F114072C
:100B5000BD4680BC704700BF80B584B004AF03F0D1
:100B60001FFE024647F2E043C0F60003009347F23F
:100B7000E843C0F60003019347F2F843C0F60003D0
:100B80000293104647F2D441C0F6000147F2DC421E
:100B9000C0F600024FF0000305F010FEBD4680BD18
:100BA00080B584B004AF03F0FBFD024647F2E0439A
:100BB000C0F60003009347F20C53C0F60003019304
:100BC00047F2F843C0F600030293104647F2D441BF
:100BD000C0F6000147F2DC42C0F600024FF000030D
:100BE00005F0ECFD4FF000031846BD4680BD00BF88
:100BF000F0B587B004AF786003F0D2FD06464FF041
:100C0000000003F0E1FD05464FF0000003F06EFC2C
:100C1000044647F2E043C0F60003009347F2405316
:100C2000C0F60003019347F2F843C0F600030293B5
:100C3000304647F2D441C0F600012A46234605F06B
:100C4000BDFD07F10C07BD46F0BD00BFF0B589B092
:100C500004AF78604FF4FA73FB814FF03203BB812D
:100C60007B681B881A46FB8903F59C5303F1080334
:100C70009A4207DC7B681B881A46BB8903F596738A
:100C80009A4227DA03F08CFD06464FF0000003F08D
:100C90009BFD05464FF0000003F028FC044647F298
:100CA0005C53C0F60003009347F26853C0F600039C
:100CB000019347F28453C0F600030293304647F293
:100CC0005451C0F600012A46234605F077FD4FF047
:100CD000000326E003F064FD06464FF0000003F039
:100CE00073FD05464FF0000003F000FC044647F298
:100CF0005C53C0F60003009347F26853C0F600034C
:100D0000019347F2AC53C0F600030293304647F21A
:100D1000A451C0F600012A46234605F04FFD4FF0CE
:100D20000103184607F11407BD46F0BD80B584B035
:100D300004AF03F035FD024647F25C53C0F60003F2
:100D4000009347F2D453C0F60003019347F2E853EF
:100D5000C0F600030293104647F2C851C0F60001E6
:100D600047F2D052C0F600024FF0000305F026FD16
:100D7000BD4680BD80B584B004AF03F011FD0246CE
:100D800047F25C53C0F60003009347F2FC53C0F6F1
:100D90000003019347F2E853C0F6000302931046A4
:100DA00047F2C851C0F6000147F2D052C0F6000227
:100DB0004FF0000305F002FD4FF000031846BD465A
:100DC00080BD00BFF0B587B004AF0346FB7103F0F0
:100DD000E7FC06464FF0000003F0F6FC05464FF036
:100DE000000003F083FB044647F25C53C0F60003A7
:100DF000009347F22863C0F60003019347F2E853DB
:100E0000C0F600030293304647F2C851C0F6000115
:100E10002A46234605F0D2FC4FF00003184607F19E
:100E20000C07BD46F0BD00BFF0B587B004AF7860D9
:100E30007B681846FFF70AFF0346002B5DD07B68EE
:100E400003F102031846FFF701FF0346002B54D0BD
:100E50007B6803F104031846FFF7F8FE0346002BF6
:100E60004BD07B6803F106031846FFF7EFFE0346FD
:100E7000002B42D07B6803F108031846FFF7E6FE1B
:100E80000346002B39D07B6803F10A031846FFF7AD
:100E9000DDFE0346002B30D07B6803F10C031846BF
:100EA000FFF7D4FE0346002B27D003F079FC06465B
:100EB0004FF0000003F088FC05464FF0000003F0FF
:100EC00015FB044647F25C53C0F60003009347F25B
:100ED0005863C0F60003019347F27463C0F6000341
:100EE0000293304647F2A451C0F600012A46234639
:100EF00005F064FC4FF0010326E003F051FC0646C8
:100F00004FF0000003F060FC05464FF0000003F0D6
:100F1000EDFA044647F25C53C0F60003009347F233
:100F20005863C0F60003019347F28063C0F60003E4
:100F30000293304647F25451C0F600012A46234638
:100F400005F03CFC4FF00003184607F10C07BD46C6
:100F5000F0BD00BF80B582B000AF78604FF00100F7
:100F6000FFF730FF03461A467B681A804FF00200F5
:100F7000FFF728FF03461A467B685A804FF00400AB
:100F8000FFF720FF03461A467B689A804FF008005F
:100F9000FFF718FF03461A467B68DA804FF010000F
:100FA000FFF710FF03461A467B681A814FF02000B6
:100FB000FFF708FF03461A467B685A814FF040004E
:100FC000FFF700FF03461A467B689A8107F108077E
:100FD000BD4680BD80B582B000AF48F2DC53C0F69C
:100FE00000037B6040F20003C2F200033B600BE0B1
:100FF0007B681A683B681A603B6803F104033B6036
:101000007B6803F104037B603A6840F66C03C2F22C
:1010100000039A42ECD30B480B494FF00002884280
:10102000B8BF40F8042BFFF6FAAFDFF820000168E4
:1010300041F47001016000F0B5FE07F10807BD46FC
:1010400080BD00006C080020500A002088ED00E000
:1010500080B400AFFEE700BF80B489B000AF786015
:101060004FF00003BB614FF000037B614FF00003C2
:10107000FB614FF002033B614FF00003FB604FF058
:101080000203BB604FF46053C4F202039B6803F099
:101090000C03BB61BB69042B0AD0082B0FD0002BBB
:1010A00060D17A684FF41053C0F2F403136060E02B
:1010B0007A684FF49053C0F27A03136059E04FF40A
:1010C0006053C4F202035B6803F480034FEA935356
:1010D000FB604FF46053C4F202035B6803F03F030C
:1010E000BB60FB68002B14D04FF49053C0F27A031E
:1010F000BA68B3FBF2F24FF46053C4F202035968CA
:1011000047F6C0730B404FEA931303FB02F3FB61F6
:1011100013E04FF41053C0F2F403BA68B3FBF2F2D9
:101120004FF46053C4F20203596847F6C0730B4092
:101130004FEA931303FB02F3FB614FF46053C4F2D5
:1011400002035B6803F440334FEA134303F10103E6
:101150004FEA43033B61FA693B69B2FBF3F27B68F8
:101160001A6006E07A684FF41053C0F2F40313607B
:1011700000BF4FF46053C4F202039B6803F0F00316
:10118000BB61BB694FEA1313BB6140F20003C2F2BB
:101190000003BA699B181B78DBB27B617B681A6815
:1011A0007B6922FA03F27B685A604FF46053C4F201
:1011B00002039B6803F4E053BB61BB694FEA9323CE
:1011C000BB6140F20003C2F20003BA699B181B78AE
:1011D000DBB27B617B685A687B6922FA03F27B6829
:1011E0009A604FF46053C4F202039B6803F46043B7
:1011F000BB61BB694FEA5333BB6140F20003C2F2EB
:101200000003BA699B181B78DBB27B617B685A6864
:101210007B6922FA03F27B68DA6007F12407BD4696
:1012200080BC704780B483B000AF78600B46FB7021
:10123000FB78002B0CD04FF46053C4F202034FF440
:101240006052C4F20202116B7A680A431A630DE01D
:101250004FF46053C4F202034FF46052C4F202022E
:10126000116B7A686FEA02020A401A6307F10C07F1
:10127000BD4680BC704700BF80B483B000AF7860CB
:101280000B46FB70FB78002B0CD04FF46053C4F27C
:1012900002034FF46052C4F20202116C7A680A43EE
:1012A0001A640DE04FF46053C4F202034FF460522D
:1012B000C4F20202116C7A686FEA02020A401A64F0
:1012C00007F10C07BD4680BC704700BF80B483B0F7
:1012D00000AF78600B46FB70FB78002B0CD04FF40E
:1012E0006053C4F202034FF46052C4F20202516C24
:1012F0007A680A435A640DE04FF46053C4F2020363
:101300004FF46052C4F20202516C7A686FEA020232
:101310000A405A6407F10C07BD4680BC704700BF05
:1013200080B483B000AF78607B681B785BB213F148
:10133000020F28DB7B681B785BB2022B23DC7B6807
:101340005B785BB213F1020F1DDB7B685B785BB2ED
:10135000022B18DC7B689B785BB213F1020F12DB67
:101360007B689B785BB2022B0DDC7B68DB785BB221
:1013700013F1020F07DB7B68DB785BB2022B02DC28
:101380004FF0010301E04FF00003184607F10C078E
:10139000BD4680BC704700BFF0B589B004AFF860AF
:1013A000B9607A603B6003F0FBF906464FF000003D
:1013B00003F00AFA05464FF0000003F097F80446E0
:1013C00047F2B463C0F60003009347F2BC63C0F673
:1013D0000003019347F2D063C0F600030293304646
:1013E00047F2AC61C0F600012A46234605F0E6F953
:1013F00007F11407BD46F0BDF0B589B004AFF86041
:10140000B9607A6003F0CCF906464FF0000003F0B3
:10141000DBF905464FF0000003F068F8044647F298
:10142000B463C0F60003009347F2E463C0F6000320
:10143000019347F2D063C0F600030293304647F2AF
:10144000AC61C0F600012A46234605F0B7F907F162
:101450001407BD46F0BD00BFF0B589B004AFF86019
:10146000B9607A6003F09CF906464FF0000003F083
:10147000ABF905464FF0000003F038F8044647F298
:10148000B463C0F60003009347F2F863C0F60003AC
:10149000019347F2D063C0F600030293304647F24F
:1014A000AC61C0F600012A46234605F087F94FF0EB
:1014B0000003184607F11407BD46F0BDF0B589B02A
:1014C00004AFF860B9607A603B6003F069F90646E2
:1014D0004FF0000003F078F905464FF0000003F0EC
:1014E00005F8044647F2B463C0F60003009347F2E0
:1014F0001073C0F60003019347F2D063C0F60003F7
:101500000293304647F2AC61C0F600012A462346FA
:1015100005F054F907F11407BD46F0BDF0B587B0EA
:1015200004AF786003F03CF906464FF0000003F08A
:101530004BF905464FF0000002F0D8FF044647F291
:10154000B463C0F60003009347F23873C0F600039B
:10155000019347F2D063C0F600030293304647F28E
:10156000AC61C0F600012A46234605F027F907F1D1
:101570000C07BD46F0BD00BF80B582B000AF03468A
:10158000FB71FB79184605F039F907F10807BD46EC
:1015900080BD00BF80B483B000AF78600B46FB70A5
:1015A0007B68FA781A704FF00103184607F10C07B0
:1015B000BD4680BC704700BF80B485B000AF786086
:1015C00039604FF00003FB600FE03B681A787B68DE
:1015D0001A707B6803F101037B603B6803F1010330
:1015E0003B60FB6803F10103FB603B681B78002B49
:1015F000EBD1FB68184607F11407BD4680BC704765
:1016000080B586B000AFF8607A603B600B46FB7235
:101610004FF000037B617B6803F1FF337B603B6825
:10162000092B25D93A684CF6CD43CCF6CC43A3FB25
:1016300002134FEAD303FA7AF86811467A68FFF783
:10164000DFFF78617B69FA68D318FB6013E0FB7AEF
:10165000F8681946FFF79EFFFB6803F10103FB6082
:101660007B6903F101037B617B6803F1FF337B60DE
:101670007B68002BEBDC39684CF6CD43CCF6CC43D1
:10168000A3FB01234FEAD30213464FEA83039B18BF
:101690004FEA4303CA1AD3B203F13003DBB2F8684E
:1016A0001946FFF777FF03467A69D3187B617B6998
:1016B000184607F11807BD4680BD00BF80B586B04B
:1016C00000AFF8607A603B600B46FB724FF000039E
:1016D0007B613B68002B04DA3B68C3F100033B618C
:1016E00001E03B683B617B6803F1FF337B603B6952
:1016F000092B2AD93B68002B12DA3A694CF6CD4304
:10170000CCF6CC43A3FB02134FEAD303C3F100038F
:10171000FA7AF86811467A68FFF7D0FF78610FE02F
:101720003A694CF6CD43CCF6CC43A3FB02134FEA07
:10173000D303FA7AF86811467A68FFF7BFFF786139
:101740007B69FA68D318FB602BE03B68002B15DA45
:101750007B6803F1FF337B6010E0FB7AF868194681
:10176000FFF718FFFB6803F10103FB607B6903F1DE
:1017700001037B617B6803F1FF337B607B68002B97
:10178000EBDC3B68002B0CDAF8684FF02D01FFF71B
:1017900001FF03467A69D3187B61FB6803F10103FB
:1017A000FB6039694CF6CD43CCF6CC43A3FB012357
:1017B0004FEAD30213464FEA83039B184FEA4303D1
:1017C000CA1AD3B203F13003DBB2F8681946FFF747
:1017D000E1FE03467A69D3187B617B69184607F1FD
:1017E0001807BD4680BD00BF80B588B002AFF86065
:1017F0007A600A46FA72BB724FF000037B617B6825
:1018000003F1FF337B603B6A4FEA1313002B24D0B4
:101810003B6A4FEA1311FA7ABB7A0091F8681146D5
:101820007A68FFF7E1FF03467A69D3187B617B6929
:10183000FA68D318FB6013E0FB7AF8681946FFF7E3
:10184000A9FEFB6803F10103FB607B6903F101035F
:101850007B617B6803F1FF337B607B68002BEBDCF3
:101860003B6A03F00F03092B0CD83B6ADBB203F091
:101870000F03DBB203F13003DBB2F8681946FFF760
:1018800089FE1BE0BB7A002B0CD03B6ADBB203F075
:101890000F03DBB203F13703DBB2F8681946FFF739
:1018A00079FE0BE03B6ADBB203F00F03DBB203F11E
:1018B0005703DBB2F8681946FFF76CFE7B6903F14A
:1018C00001037B617B69184607F11807BD4680BD9F
:1018D00080B58AB002AFF860B9607A603B604FF0C3
:1018E0000003BB614FF000037B61FB68002B00F03D
:1018F0001C81FB684FF000021A7016E17B681B78B0
:10190000252B10D07B681A78FB681A70FB6803F1EE
:101910000103FB607B6803F101037B607B6903F1DA
:1019200001037B6102E17B6803F101031B78252B36
:1019300010D1FB684FF025021A70FB6803F1010318
:10194000FB607B6803F102037B607B6903F10103A9
:101950007B61EBE04FF02003FB774FF00003BB7798
:101960007B6803F101037B607B681B78302B1BD104
:101970004FF03003FB777B6803F101037B6013E0DA
:10198000BB7F1A464FEA8202D3184FEA4303DAB20A
:101990007B681B78D318DBB2A3F13003BB777B687D
:1019A00003F101037B6000E000BF7B681B782F2BF5
:1019B00003D97B681B78392BE2D9BA7F7B69D318AE
:1019C0001A46BB689A4205D9BB68DAB27B69DBB2BA
:1019D000D31ABB777B681B78A3F15803202B00F246
:1019E000948001A252F823F0BD1A00080B1B0008D6
:1019F0000B1B00080B1B00080B1B00080B1B00082F
:101A00000B1B00080B1B00080B1B00080B1B00081E
:101A10000B1B0008F31A00086D1A00080B1B0008C6
:101A20000B1B00080B1B00080B1B00086D1A00089D
:101A30000B1B00080B1B00080B1B00080B1B0008EE
:101A40000B1B00080B1B00080B1B00080B1B0008DE
:101A50000B1B0008DD1A00080B1B0008851A000884
:101A60000B1B00080B1B00089D1A0008BA7F3B687F
:101A700003F1040139601B68F97FF868FFF71EFE67
:101A8000B86145E0BA7F3B6803F1040139601B6827
:101A9000F97FF868FFF7B4FDB86139E0BA7F3B68B9
:101AA00003F1040139601968FB7F0091F868194659
:101AB0004FF00003FFF798FEB86129E0BA7F3B685A
:101AC00003F1040139601968FB7F0091F868194639
:101AD0004FF00103FFF788FEB86119E03B6803F19E
:101AE00004023A601B68F8681946FFF765FDB861A3
:101AF0000EE03B6803F104023A601B68DBB2F86851
:101B00001946FFF747FDB86102E04FF0FF332CE0C4
:101B10007B6803F101037B60BB69FA68D318FB6043
:101B20007A69BB69D3187B6100E000BF7B681B78D2
:101B3000002B04D07A69BB689A42FFF4DFAE7A6961
:101B4000BB689A4204D2FB684FF000021A700BE0A7
:101B5000FB6803F1FF33FB60FB684FF000021A7073
:101B60007B6903F1FF337B617B69184607F120072E
:101B7000BD4680BD80B584B000AFF860B9607A60C2
:101B8000F8684FF0C801BA687B68FFF7A1FE03460A
:101B9000184607F11007BD4680BD00BFB0B5C0B004
:101BA00000AFF860B9607A6047F24C73C0F600038A
:101BB00007F114041D460FCD0FC40FCD0FC42B68C1
:101BC000236007F138031846B9687A68FFF7D2FF37
:101BD0000346C72B0CDD40F23843C2F200031B68FA
:101BE000DB6807F114021046194600F073F8FEE7AF
:101BF00007F138031846F96800F06CF803461846F8
:101C000007F58077BD46B0BD80B582B000AF786083
:101C1000396040F23843C2F200031B689B681846E3
:101C200079683A68FFF7BAFF0346184607F10807D4
:101C3000BD4680BD0FB480B582B000AF07F114037C
:101C40003B6038693968FFF7DFFF78607B681846CA
:101C500007F10807BD46BDE8804004B0704700BFEB
:101C600080B582B000AF786040F23843C2F2000322
:101C70001B689B687868194600F02CF803461846E4
:101C800007F10807BD4680BD80B582B000AF78601F
:101C9000396040F23843C2F200031B689A683B681F
:101CA0009A4208D040F23843C2F200031B68DA6857
:101CB0003B689A4206D17B68DBB21846FFF75CFCB2
:101CC0007B6801E04FF0FF33184607F10807BD4677
:101CD00080BD00BF80B584B000AF786039604FF040
:101CE0000003FB6014E07B681B7818463968FFF737
:101CF000CBFF0346B3F1FF3F02D14FF0FF330CE0BF
:101D0000FB6803F10103FB607B6803F101037B6067
:101D10007B681B78002BE6D1FB68184607F110079B
:101D2000BD4680BD80B485B000AF78607B6803F0AD
:101D30000703FB604FF46D43CEF20003DB68BB602A
:101D4000BA684FF6FF031340BB60FB684FEA0322FB
:101D5000BB68134343F0BF6343F40033BB604FF4ED
:101D60006D43CEF20003BA68DA6007F11407BD468E
:101D700080BC704780B400AFBFF34F8F4FF46D420B
:101D8000CEF200024FF46D43CEF20003DB6803F4A1
:101D9000E0614FF00403C0F2FA530B43D360BFF38A
:101DA0004F8FFEE780B594B004AF01F0B1F904F0B5
:101DB00085FC01F069F901F0F7F901F003FA034637
:101DC0001A4640F64023C2F200035A8040F64023F0
:101DD000C2F200035B88002B4BD040F64023C2F2D6
:101DE00000035B88102B44D002F0DAFC024647F275
:101DF000B873C0F60003009347F2C073C0F6000347
:101E0000019347F2C873C0F600030293104647F2ED
:101E1000AC71C0F6000147F2B472C0F600024FF098
:101E2000000304F0CBFC40F64023C2F200034FF065
:101E300002021A7040F64020C2F2000001F0F4FAEB
:101E40003B461846FEF7D4FE3B78002BF2D13B7898
:101E5000012BEFD13B78002B02D0012B03D005E002
:101E600002F086F805E002F0ADF802E002F0AAF810
:101E700000BF02F095FC024647F2B873C0F60003BB
:101E8000009347F2C073C0F60003019347F60403C2
:101E9000C0F600030293104647F2FC71C0F6000141
:101EA00047F2B472C0F600024FF0000304F086FC63
:101EB0004FF001004FF0000103F0C0FF024640F672
:101EC0006C03C2F200031A6040F66C03C2F2000316
:101ED0001B68002B53D102F063FC024647F2B87333
:101EE000C0F60003009347F2C073C0F600030193ED
:101EF00047F61C03C0F600030293104647F2AC718C
:101F0000C0F6000147F2B472C0F600024FF00003C1
:101F100004F054FC40F64023C2F200034FF00202EA
:101F20001A7040F64023C2F200035B886FEA434315
:101F30006FEA53439AB240F64023C2F200035A803C
:101F400040F64020C2F2000001F06EFA3B4618460F
:101F5000FEF74EFE3B78002BF2D13B78012BEFD100
:101F60003B78002B02D0012B03D005E002F000F8F3
:101F700005E002F027F802E002F024F800BF02F0CA
:101F80000FFC024647F2B873C0F60003009347F215
:101F9000C073C0F60003019347F64003C0F6000388
:101FA0000293104647F2FC71C0F6000147F2B4728A
:101FB000C0F600024FF0000304F000FC4FF00403F1
:101FC000009340F63423C2F2000301934FF0000364
:101FD00002934FF00003039342F2B530C0F60000C5
:101FE00047F66001C0F600014FF480724FF0000325
:101FF00002F012F802F0D4FB024647F2B873C0F6C2
:102000000003009347F2C073C0F60003019347F644
:102010006403C0F600030293104647F2FC71C0F659
:10202000000147F2B472C0F600024FF0000304F062
:10203000C5FB4FF00403009340F63C23C2F20003BB
:1020400001934FF0000302934FF00003039342F615
:102050004950C0F6000047F68801C0F600014FF471
:1020600080724FF0000301F0D7FF02F099FB0246A7
:1020700047F2B873C0F60003009347F2C073C0F68E
:102080000003019347F68C03C0F600030293104649
:1020900047F2FC71C0F6000147F2B472C0F60002CC
:1020A0004FF0000304F08AFB4FF00303009340F667
:1020B0003823C2F2000301934FF0000302934FF064
:1020C0000003039342F2A150C0F6000047F6A801B6
:1020D000C0F600014FF480724FF0000301F09CFF46
:1020E00002F05EFB024647F2B873C0F600030093AD
:1020F00047F2C073C0F60003019347F6AC03C0F685
:1021000000030293104647F2FC71C0F6000147F24B
:10211000B472C0F600024FF0000304F04FFB4FF022
:102120000203009340F64823C2F2000301934FF0EC
:10213000000302934FF00003039342F62110C0F610
:10214000000047F6CC01C0F600014FF480724FF05A
:10215000000301F061FF02F023FB024647F2B8736F
:10216000C0F60003009347F2C073C0F6000301936A
:1021700047F6D003C0F600030293104647F2FC7105
:10218000C0F6000147F2B472C0F600024FF000033F
:1021900004F014FB40F64023C2F200034FF00102AA
:1021A0001A704FF00203009340F64423C2F200037A
:1021B00001934FF0000302934FF00003039342F6A4
:1021C000D960C0F6000047F6EC01C0F600014FF4FC
:1021D00080724FF0000301F01FFF40F63423C2F27B
:1021E00000031B68002B1BD040F63823C2F200030B
:1021F0001B68002B14D040F64823C2F200031B6872
:10220000002B0DD040F63C23C2F200031B68002BCC
:1022100006D040F64423C2F200031B68002B53D1C2
:1022200002F0BEFA024647F2B873C0F6000300930C
:1022300047F2C073C0F60003019347F6F003C0F6FF
:1022400000030293104647F2AC71C0F6000147F25A
:10225000B472C0F600024FF0000304F0AFFA40F68B
:102260004023C2F200034FF002021A7040F64023EE
:10227000C2F200035B886FEA43436FEA53439AB2AA
:1022800040F64023C2F200035A8040F64020C2F2DA
:10229000000001F0C9F83B461846FEF7A9FC3B7860
:1022A000002BF2D13B78012BEFD13B78002B02D0F1
:1022B000012B03D005E001F05BFE05E001F082FE9A
:1022C00002E001F07FFE00BF02F06AFA024647F228
:1022D000B873C0F60003009347F2C073C0F6000362
:1022E000019347F60813C0F600030293104647F225
:1022F000FC71C0F6000147F2B472C0F600024FF064
:10230000000304F05BFA02F00DF902F049FA02460C
:1023100047F2B873C0F60003009347F2C073C0F6EB
:102320000003019347F61C13C0F600030293104606
:1023300047F2AC71C0F6000147F2B472C0F6000279
:102340004FF0000304F03AFA40F64023C2F20003D3
:102350004FF002021A7040F64023C2F200035B887D
:102360006FEA43436FEA53439AB240F64023C2F206
:1023700000035A8040F64020C2F2000001F054F8F9
:102380003B461846FEF734FC3B78002BF2D13B78F5
:10239000012BEFD13B78002B02D0012B03D005E0BD
:1023A00001F0E6FD05E001F00DFE02E001F00AFE9D
:1023B00000BFFEE780B596B000AF786002F0F0F99C
:1023C00003467B6507F10C03184601F0A3FA07F1F9
:1023D0000803184601F0D4FA07F144031846FEF743
:1023E000B9FD07F144031846FEF71EFD0346002B16
:1023F00000F0C4807B8923F002039BB27B8107F14C
:102400000803184601F0EEF9B7F844203B8C9A42D5
:1024100007D297F8523043F00103DBB287F852300D
:1024200006E097F8523023F00103DBB287F8523010
:10243000B7F84E203B8C9A4207D297F8523043F0BF
:102440002003DBB287F8523006E097F8523023F0D1
:102450002003DBB287F85230B7F848203B8C9A4211
:1024600007D297F8523043F00403DBB287F85230BA
:1024700006E097F8523023F00403DBB287F85230BD
:10248000B7F846203B8C9A4207D297F8523043F077
:102490000203DBB287F8523006E097F8523023F09F
:1024A0000203DBB287F85230B7F84C203B8C9A42DB
:1024B00007D297F8523043F01003DBB287F852305E
:1024C00006E097F8523023F01003DBB287F8523061
:1024D000B7F84A203B8C9A4207D297F8523043F023
:1024E0000803DBB287F8523006E097F8523023F049
:1024F0000803DBB287F8523040F64023C2F20003F3
:102500001B78012B06D140F64023C2F200031B7852
:10251000072B14D0B7F85020BB8A9A4207D297F8FD
:10252000523043F04003DBB287F852300EE097F8A8
:10253000523023F04003DBB287F8523006E097F8C0
:10254000523023F04003DBB287F8523007F14403E6
:10255000184601F0FDF897F85230002B18D040F6DD
:102560006C03C2F200031B6818464FF000014FF0E5
:1025700000024FF0000303F02BFD09E07B8943F0DC
:1025800002039BB27B8107F10803184601F02AF988
:10259000FB6A07F154021046194601F0DFFE11E70D
:1025A000F0B5AFB004AF786047F29063C0F60003B7
:1025B00007F10C041D460FCD0FC495E8030084E815
:1025C000030040F66C03C2F200031B68002B24D109
:1025D00002F0E6F806464FF0000002F0F5F8054676
:1025E0004FF0000001F082FF044647F2B873C0F6D6
:1025F0000003009347F63413C0F60003019347F637
:102600004813C0F600030293304647F2AC71C0F69F
:1026100000012A46234604F0D1F802F0C1F806462C
:102620004FF0000002F0D0F805464FF0000001F036
:102630005DFF044647F2B873C0F60003009347F607
:102640003413C0F60003019347F66413C0F6000389
:102650000293304647F2FC71C0F600012A46234639
:1026600004F0ACF807F19003184601F089F907F17E
:102670004403184601F04EF907F194031846FDF79C
:10268000D1FD07F194031846FDF710FE034687F8C5
:10269000A73097F8A730002B11D007F19403184604
:1026A00001F0E0F8B7F8923043F008039BB2A7F8C6
:1026B000923007F19003184601F094F810E007F10A
:1026C0009403184600F0E4FEB7F8923023F00803B4
:1026D0009BB2A7F8923007F19003184601F082F8F8
:1026E00007F17C03184601F033F907F13C03184663
:1026F00001F0FAF807F13403184601F0C9F807F1C0
:102700002403184601F0DAF807F17C0007F13C01D8
:1027100007F1940207F1340307F12404009407F150
:102720004404019407F19004029401F037FB97F8F8
:10273000903003F1FF33062B00F2A08001A252F883
:1027400023F000BF612700087D2800086D270008DE
:10275000E3270008B32700083B280008F9270008F2
:1027600007F17C03184601F00FFA8AE007F19402A2
:1027700007F144031046194601F06EF90346002B99
:102780000DD140F6B403C2F200035B6807F10C0000
:1027900007F1940107F17C02FEF7FEFD71E04FF0B6
:1027A000040387F8903007F19003184601F01AF8F7
:1027B00067E007F10C0107F1940207F17C0308467A
:1027C00011461A46FEF748FE0346002B58D04FF03C
:1027D000040387F8903007F19003184601F002F8DF
:1027E0004EE007F10C0007F1940107F17C0207F1BC
:1027F0002403FEF763FE44E007F1940207F144036B
:102800001046194601F08EF90346002B0BD107F153
:102810000C0107F1940207F17C03084611461A46A1
:10282000FEF7EAFD2DE04FF0010387F8903007F145
:102830009003184600F0D6FF23E007F1940207F159
:1028400044031046194601F06DF90346002B0BD1E5
:1028500007F10C0107F1940207F17C0308461146C9
:102860001A46FEF7C9FD0CE04FF0020387F89030DE
:1028700007F19003184600F0B5FF02E000BF00E04A
:1028800000BF40F64023C2F200031B78002B12D099
:1028900040F64023C2F200031B78012B0BD040F618
:1028A0004023C2F200031B78022B04D007F10C0373
:1028B0001846FEF733FE01F073FF06464FF00000A6
:1028C00001F082FF05464FF0000001F00FFE0446C4
:1028D00047F2B873C0F60003009347F63413C0F60E
:1028E0000003019347F67013C0F6000302933046CD
:1028F00047F2FC71C0F600012A46234603F05EFF52
:1029000040F66C03C2F200031A68BB6E10464FF02B
:1029100000011A464FF0000303F078FC7DE600BF8B
:10292000F0B5B9B004AF786001F03AFF0346C7F8DC
:10293000CC3001F035FF06464FF0000001F044FFB7
:1029400005464FF0000001F0D1FD044647F2B87390
:10295000C0F60003009347F69013C0F600030193FE
:1029600047F66413C0F600030293304647F2FC7149
:10297000C0F600012A46234603F020FF07F17C033E
:102980001846FEF735F907F14403184600F0C2FF78
:1029900007F14003184600F0F3FF97F87C30A3F1ED
:1029A00002030A2B00F27E8101A252F823F000BF3D
:1029B000BB2A0008D92A0008F72A0008552B00086E
:1029C000992B0008D72B0008492A0008F12B000892
:1029D0002B2C0008DD2900084F2C0008B7F84230E6
:1029E00023F400639BB2A7F8423007F14003184676
:1029F00000F0F8FE07F13003184600F033FF07F14E
:102A00002803184600F044FF07F10C03184600F0B5
:102A10009FFF07F12003184600F066FF07F1BC0393
:102A2000184600F04BFF07F1400007F1300107F1B5
:102A3000BC0207F1280307F10C04009407F12004FD
:102A4000019400F037FC3AE197F84030012B27D190
:102A500007F17C0303F10403184600F0EDFB034685
:102A6000002B0ED007F17C0303F10403184600F09D
:102A70002DFEB7F8423023F480639BB2A7F84230B2
:102A800006E0B7F8423043F480639BB2A7F84230C7
:102A9000B7F8423023F400639BB2A7F8423006E057
:102AA000B7F8423043F400639BB2A7F8423007F115
:102AB0004003184600F096FE01E100F075FFB7F8FC
:102AC000423023F400639BB2A7F8423007F1400381
:102AD000184600F087FEF2E000F092FFB7F84230AF
:102AE00023F400639BB2A7F8423007F14003184675
:102AF00000F078FEE3E097F84030012B1DD107F19C
:102B00003003184600F0AEFE07F1300207F144032F
:102B10001046194601F0ECF94FF0030387F84030F6
:102B2000B7F8423023F400639BB2A7F8423007F1B4
:102B30004003184600F056FEC1E0B7F8423043F4B7
:102B400000639BB2A7F8423007F14003184600F03B
:102B500049FEB4E097F84030042B10D14FF0070342
:102B600087F84030B7F8423023F400639BB2A7F8EF
:102B7000423007F14003184600F034FE9FE0B7F8FA
:102B8000423043F400639BB2A7F8423007F14003A0
:102B9000184600F027FE92E097F84030042B10D141
:102BA0004FF0050387F84030B7F8423023F4006354
:102BB0009BB2A7F8423007F14003184600F012FE1E
:102BC0007DE04FF40063A7F8423007F14003184658
:102BD00000F008FE73E0B7F8423023F400639BB2C4
:102BE000A7F8423007F14003184600F0FBFD66E00D
:102BF00097F84030012B0ED100F020FCB7F842309E
:102C000023F400639BB2A7F8423007F14003184653
:102C100000F0E8FD53E04FF40063A7F8423007F1FD
:102C20004003184600F0DEFD49E007F14403184672
:102C300000F01AFBB7F8423023F400639BB2A7F808
:102C4000423007F14003184600F0CCFD37E007F1B1
:102C50007C0303F104031846FEF762FB0346002BD6
:102C600013D007F17C0303F10403184600F09AFC2B
:102C7000B7F8423023F400639BB2A7F8423007F163
:102C80004003184600F0AEFD19E0B7F8423043F4B7
:102C900000639BB2A7F8423007F14003184600F0EA
:102CA000A1FD0CE0B7F8423043F400639BB2A7F8F3
:102CB000423007F14003184600F094FD00BFB7F81A
:102CC000423003F400639BB2A7F84230B7F84230B9
:102CD000002B0BD103F018F801F062FD024640F61C
:102CE0007803C2F200039A6003F024F801F058FD63
:102CF00006464FF0000001F067FD05464FF000006A
:102D000001F0F4FB044647F2B873C0F600030093E9
:102D100047F69013C0F60003019347F6A813C0F6D8
:102D200000030293304647F2FC71C0F600012A46C8
:102D3000234603F043FD3B6F07F1CC0210461946D2
:102D400001F00CFBF5E500BFF0B599B004AF786079
:102D500001F026FD0346FB6401F022FD06464FF01C
:102D6000000001F031FD05464FF0000001F0BEFB10
:102D7000044647F2B873C0F60003009347F6B01359
:102D8000C0F60003019347F66413C0F600030293F4
:102D9000304647F2FC71C0F600012A46234603F094
:102DA0000DFD07F10803184601F0B4F807F14803D8
:102DB000184600F0E5FD07F10803184600F048FA50
:102DC0000346002B0CD007F10803184600F03AFC2C
:102DD000B7F84A3023F480739BB2A7F84A300BE06F
:102DE000B7F84A3043F480739BB2A7F84A3007F132
:102DF0000803184600F078FD07F14803184600F074
:102E0000F1FC07F11003184600F084FD07F10802F9
:102E100007F110031046194600F0E6FE0346002BAA
:102E20002DD001F0BDFC06464FF0000001F0CCFCB7
:102E300005464FF0000001F059FB044647F2B87315
:102E4000C0F60003009347F6B013C0F600030193E9
:102E500047F6CC13C0F600030293304647F2FC71EC
:102E6000C0F600012A46234603F0A8FC4FF00603F3
:102E700087F8483007F14803184600F0B3FC01F02A
:102E80008FFC06464FF0000001F09EFC05464FF017
:102E9000000001F02BFB044647F2B873C0F60003B4
:102EA000009347F6B013C0F60003019347F6A8134A
:102EB000C0F600030293304647F2FC71C0F60001F1
:102EC0002A46234603F07AFCFB6A07F14C021046BF
:102ED000194601F043FA3FE7F0B599B004AF7860C6
:102EE00001F05EFC0346FB6401F05AFC06464FF01D
:102EF000000001F069FC05464FF0000001F0F6FA11
:102F0000044647F2B873C0F60003009347F6EC138B
:102F1000C0F60003019347F66413C0F60003029362
:102F2000304647F2FC71C0F600012A46234603F002
:102F300045FC07F14403184602F028FE07F1080398
:102F4000184600F04FFC07F14403184602F04CFE0F
:102F50000346002B0AD007F14403184600F0DEFABE
:102F60007B8923F020039BB27B8104E07B8943F0C3
:102F700020039BB27B8107F10803184600F032FC66
:102F800007F10C03184600F0C5FC01F009FC0646E9
:102F90004FF0000001F018FC05464FF0000001F072
:102FA000A5FA044647F2B873C0F60003009347F64B
:102FB000EC13C0F60003019347F6A813C0F6000314
:102FC0000293304647F2FC71C0F600012A462346C0
:102FD00003F0F4FB7B6B07F14C021046194601F03D
:102FE000BDF981E7F0B585B004AF01F0D9FB064625
:102FF0004FF0000001F0E8FB05464FF0000001F043
:1030000075FA044647F2B873C0F60003009347F61A
:103010000023C0F60003019347F61823C0F600030F
:103020000293304647F2FC71C0F600012A4623465F
:1030300003F0C4FB01F0B4FB06464FF0000001F0C2
:10304000C3FB05464FF0000001F050FA044647F27A
:10305000B873C0F60003009347F60023C0F60003E0
:10306000019347F62C23C0F600030293304647F243
:10307000FC71C0F600012A46234603F09FFB30BFD7
:1030800007F10407BD46F0BDB0B584B004AF40F60B
:10309000B402C2F2000247F27073C0F60003144695
:1030A0001D460FCD0FC40FCD0FC40FCD0FC495E833
:1030B000030084E8030040F64023C2F200034FF00F
:1030C00000021A7040F64023C2F200034FF00002E3
:1030D0005A8047F2B873C0F60003009347F64C23BA
:1030E000C0F60003019347F66423C0F60003029381
:1030F0004FF0000047F64421C0F6000147F2B472D9
:10310000C0F600024FF0000303F058FBBD46B0BD0F
:1031100080B584B004AF4FF00000FEF703FE02F06C
:10312000E7FA02F03DFB47F2B873C0F600030093E4
:1031300047F6A023C0F60003019347F6B423C0F678
:10314000000302934FF0000047F64421C0F600014F
:1031500047F2B472C0F600024FF0000303F02EFBFA
:10316000BD4680BD80B584B004AF47F2B873C0F6E9
:103170000003009347F6CC23C0F60003019347F603
:10318000E023C0F6000302934FF0000047F6C4218D
:10319000C0F6000147F2B472C0F600024FF000031F
:1031A00003F00CFBBD4680BD80B500AF02F0A2FC71
:1031B000FCF7EAFFFDF7D0FCFDF7B8FDFFF7D2FF03
:1031C00080BD00BF80B582B000AF4FF00003FB8030
:1031D00002F0B4FC0346002B03D0FB8843F010033D
:1031E000FB80FCF7F7FF0346002B03D0FB8843F07E
:1031F0000403FB80FDF7D4FC0346002B03D0FB88BF
:1032000043F40073FB80FDF7B5FD0346002B03D0AC
:10321000FB8843F00103FB8000F090FD0346002B88
:1032200003D0FB8843F08003FB80FB88184607F13E
:103230000807BD4680BD00BF80B483B000AF786092
:103240004FF00103184607F10C07BD4680BC7047DC
:1032500080B483B000AF78604FF00103184607F1E7
:103260000C07BD4680BC704780B586B004AF78605F
:1032700047F2B873C0F60003009347F6F423C0F694
:103280000003019347F6E023C0F6000302934FF0DA
:10329000000047F6C421C0F6000147F2B472C0F640
:1032A00000024FF0000303F089FA07F10807BD465A
:1032B00080BD00BF80B584B000AFF860B9607A60AF
:1032C0003B60FB681B78072B4AD801A252F823F019
:1032D000F1320008FF3200080D3300081B330008EC
:1032E00029330008373300084533000853330008FA
:1032F00047F60430C0F60000FEF79CFC37E047F6C6
:103300003030C0F60000FEF795FC30E047F65C3048
:10331000C0F60000FEF78EFC29E047F68830C0F6C4
:103320000000FEF787FC22E047F6B430C0F600004C
:10333000FEF780FC1BE047F6DC30C0F60000FEF72D
:1033400079FC14E047F60840C0F60000FEF772FC76
:103350000DE047F63440C0F60000FEF76BFC06E0D7
:1033600047F66040C0F60000FEF764FC00BFFB6853
:103370005B88002B06D147F68440C0F60000FEF7BC
:1033800059FC4DE047F6B040C0F60000FEF752FC95
:1033900047F6E040C0F60000FEF74CFC47F6105040
:1033A000C0F60000FEF746FC47F64050C0F60000AD
:1033B000FEF740FC47F67050C0F60000FEF73AFCFE
:1033C00047F69850C0F60000FEF734FC47F6C850A8
:1033D000C0F60000FEF72EFC47F6F450C0F60000E1
:1033E000FEF728FC47F62460C0F60000FEF722FC3A
:1033F00047F65460C0F60000FEF71CFC47F68460F8
:10340000C0F60000FEF716FC47F6B460C0F60000F8
:10341000FEF710FC47F6E060C0F60000FEF70AFC7D
:1034200007F11007BD4680BD80B483B000AF78605F
:1034300007F10C07BD4680BC704700BF80B500AFE8
:1034400047F27070C0F6000000F040F980BD00BF88
:1034500080B483B000AF78607B681B78072B0CD8F2
:103460004FF0010202FA03F303F0B803002B04D07B
:103470007B684FF006021A7004E07B684FF002028E
:103480001A7000BF07F10C07BD4680BC704700BF33
:10349000F0B587B004AF786002F036FC40F68803E0
:1034A000C2F200037A6807CA83E8070001F078F9DE
:1034B00003464FF0320202FB03F240F68803C2F2E9
:1034C0000003DA6002F036FC01F06AF906464FF0BC
:1034D000000001F079F905464FF0000001F006F810
:1034E000044647F2B873C0F60003009347F60C7326
:1034F000C0F60003019347F62073C0F60003029361
:10350000304647F2FC71C0F600012A46234603F01C
:1035100055F907F10C07BD46F0BD00BFF0B587B007
:1035200004AF786002F0F0FB40F67003C2F20003D3
:103530007A6812681A6001F033F903464FF03202DC
:1035400002FB03F240F67003C2F200035A6002F07D
:10355000F1FB01F025F906464FF0000001F034F9C7
:1035600005464FF0000000F0C1FF044647F2B87373
:10357000C0F60003009347F63473C0F600030193CE
:1035800047F64873C0F600030293304647F2FC71D9
:10359000C0F600012A46234603F010F907F10C0794
:1035A000BD46F0BDF0B587B004AF786002F0ACFB6B
:1035B00040F67803C2F200037A681068186001F0E0
:1035C000EFF803464FF0320202FB03F240F67803B5
:1035D000C2F20003DA6001F0E3F803464FF0320272
:1035E00002FB03F240F67803C2F200039A6002F095
:1035F000A1FB01F0D5F806464FF0000001F0E4F819
:1036000005464FF0000000F071FF044647F2B87322
:10361000C0F60003009347F65C73C0F60003019305
:1036200047F67073C0F600030293304647F2FC7110
:10363000C0F600012A46234603F0C0F807F10C0744
:10364000BD46F0BDF0B587B004AF786002F05CFB1A
:103650007B681A6840F69803C2F200031A6001F012
:103660009FF803464FF0320202FB03F240F6980344
:10367000C2F200035A6002F05DFB01F091F80646C9
:103680004FF0000001F0A0F805464FF0000000F0F8
:103690002DFF044647F2B873C0F60003009347F6C7
:1036A0008473C0F60003019347F69C73C0F60003D1
:1036B0000293304647F2FC71C0F600012A462346C9
:1036C00003F07CF807F10C07BD46F0BDF0B587B0FC
:1036D00004AF786002F018FB40F6B403C2F20003B6
:1036E0007A681C4615460FCD0FC40FCD0FC40FCD01
:1036F0000FC495E8030084E8030002F01BFB01F00F
:103700004FF806464FF0000001F05EF805464FF016
:10371000000000F0EBFE044647F2B873C0F6000369
:10372000009347F6B073C0F60003019347F6C873E1
:10373000C0F600030293304647F2FC71C0F6000168
:103740002A46234603F03AF807F10C07BD46F0BDC0
:10375000F0B587B004AF786002F0D6FA40F6A00367
:10376000C2F200037A681C461346186859689A68C2
:10377000DB680FC401F014F803464FF0320202FB7D
:1037800003F240F6A003C2F200031A6102F0D2FA7B
:1037900001F006F806464FF0000001F015F8054666
:1037A0004FF0000000F0A2FE044647F2B873C0F6E6
:1037B0000003009347F6E073C0F60003019347F659
:1037C000FC73C0F600030293304647F2FC71C0F66A
:1037D00000012A46234602F0F1FF07F10C07BD461F
:1037E000F0BD00BFF0B587B004AF786002F08CFA8E
:1037F0007B681A7840F64023C2F200031A707B6897
:103800005A8840F64023C2F200035A8002F092FA2E
:1038100000F0C6FF06464FF0000000F0D5FF054659
:103820004FF0000000F062FE044647F2B873C0F6A5
:103830000003009348F21403C0F60003019348F21A
:103840002C03C0F600030293304647F2FC71C0F629
:1038500000012A46234602F0B1FF07F10C07BD46DE
:10386000F0BD00BF90B583B000AF786002F04CFAB5
:103870007A6840F68803C2F2000314460FCB84E84E
:103880000F0002F057FA07F10C07BD4690BD00BFCC
:1038900080B582B000AF786002F036FA7A6840F600
:1038A0007003C2F2000393E8030082E8030002F011
:1038B00041FA07F10807BD4680BD00BF90B583B04F
:1038C00000AF786002F020FA7A6840F67803C2F21E
:1038D000000314460FCB84E80F0002F02BFA07F127
:1038E0000C07BD4690BD00BF80B582B000AF7860C8
:1038F00002F00AFA7A6840F69803C2F2000393E8ED
:10390000030082E8030002F015FA07F10807BD463C
:1039100080BD00BFB0B582B000AF786002F0F4F9AE
:103920007A6840F6B403C2F2000314461D460FCD78
:103930000FC40FCD0FC40FCD0FC495E8030084E86A
:10394000030002F0F7F907F10807BD46B0BD00BF5C
:10395000B0B582B000AF786002F0D6F97A6840F670
:10396000A003C2F2000314461D460FCD0FC42B68FE
:10397000236002F0DFF907F10807BD46B0BD00BFC4
:1039800080B582B000AF786002F0BEF97A6840F688
:103990004023C2F200031868106002F0CBF907F16F
:1039A0000807BD4680BD00BFF0B585B004AF00F08C
:1039B000F7FE06464FF0000000F006FF05464FF008
:1039C000000000F093FD044647F2B873C0F6000310
:1039D000009348F24803C0F60003019347F6E02342
:1039E000C0F600030293304648F24001C0F60001E1
:1039F0002A46234602F0E2FE07F10407BD46F0BD69
:103A0000F0B585B004AF00F0CBFE06464FF00000E5
:103A100000F0DAFE05464FF0000000F067FD0446B6
:103A200047F2B873C0F60003009348F25C03C0F697
:103A30000003019347F6E023C0F6000302933046EB
:103A400048F24001C0F600012A46234602F0B6FEC5
:103A500007F10407BD46F0BDF0B587B004AF78604C
:103A6000396040F68803C2F200031B681A4640F62C
:103A7000B403C2F200035B689A4227D200F090FEC2
:103A800006464FF0000000F09FFE05464FF0000094
:103A900000F02CFD044647F2B873C0F60003009313
:103AA00048F27003C0F60003019348F28403C0F6A5
:103AB00000030293304647F2FC71C0F600012A462B
:103AC000234602F07BFE4FF0010326E000F068FE83
:103AD00006464FF0000000F077FE05464FF000006C
:103AE00000F004FD044647F2B873C0F600030093EB
:103AF00048F27003C0F60003019348F2A803C0F631
:103B000000030293304647F2FC71C0F600012A46DA
:103B1000234602F053FE4FF00003184607F10C074E
:103B2000BD46F0BDF0B587B004AF7860396000F0F5
:103B300037FE06464FF0000000F046FE05464FF007
:103B4000000000F0D3FC044647F2B873C0F600034F
:103B5000009348F2C403C0F60003019347F6E02344
:103B6000C0F600030293304648F24001C0F600015F
:103B70002A46234602F022FE4FF00003184607F1C2
:103B80000C07BD46F0BD00BF80B483B000AF7860C5
:103B90007B689B7B002B0CBF00230123DBB2184604
:103BA00007F10C07BD4680BC704700BF80B584B0EC
:103BB00000AF7860396000F0F3FD02467B681B6956
:103BC000D31AFB603B6893F833303A68126A02FB01
:103BD00003F2FB689A422CBF00230123DBB2184694
:103BE00007F11007BD4680BD80B483B000AF786098
:103BF00039607B681A683B681B699A422CBF0023B6
:103C00000123DBB2184607F10C07BD4680BC7047A4
:103C100080B584B000AF7860396000F0C1FD024625
:103C20007B685B68D31AFB603B6893F834303A6872
:103C3000D26902FB03F2FB689A422CBF00230123E6
:103C4000DBB2184607F11007BD4680BD80B584B0D1
:103C500000AF7860396000F0A3FD02467B68DB6846
:103C6000D31AFB603B6893F830303A68526A02FB23
:103C700003F2FB689A422CBF00230123DBB21846F3
:103C800007F11007BD4680BD80B584B000AF7860F5
:103C9000396000F085FD02467B685B68D31AFB60E3
:103CA0003B6893F835303A68926A02FB03F2FB688E
:103CB0009A422CBF00230123DBB2184607F11007FC
:103CC000BD4680BD80B584B000AF7860396000F03B
:103CD00067FD02467B689B68D31AFB603B6893F8DC
:103CE00032303A68D26A02FB03F2FB689A422CBF78
:103CF00000230123DBB2184607F11007BD4680BD43
:103D000080B584B000AF7860396000F049FD0246AC
:103D10007B68DB68D31AFB603B6893F831303A6804
:103D2000D26A02FB03F2FB689A422CBF00230123F4
:103D3000DBB2184607F11007BD4680BDF0B585B06F
:103D400004AF00F02DFD06464FF0000000F03CFDF2
:103D500005464FF0000000F0C9FB044647F2B87377
:103D6000C0F60003009348F2D803C0F600030193A5
:103D700047F6E023C0F600030293304648F24001C4
:103D8000C0F600012A46234602F018FD4FF000035A
:103D9000184607F10407BD46F0BD00BF80B584B0EA
:103DA00000AFF860B9607A603B60F868F969FFF7C6
:103DB000FDFE0346002B0AD03B6A5B8843F00103FB
:103DC0009AB23B6A5A80386AFFF742FB06E03B6AC8
:103DD0005B8823F001039AB23B6A5A80B868F9699C
:103DE000FFF716FF0346002B0AD03B6A5B8843F0BF
:103DF00080039AB23B6A5A80386AFFF729FB06E0D3
:103E00003B6A5B8823F080039AB23B6A5A807868E9
:103E1000F969FFF71BFF0346002B0AD03B6A5B885A
:103E200043F004039AB23B6A5A80386AFFF710FBEA
:103E300006E03B6A5B8823F004039AB23B6A5A802F
:103E40003868F969FFF720FF0346002B07D03B6A6B
:103E50005B8843F010039AB23B6A5A8006E03B6AE3
:103E60005B8823F010039AB23B6A5A80B869F969FB
:103E7000FFF728FF0346002B0AD03B6A5B8843F418
:103E800000739AB23B6A5A80386AFFF7E1FA06E09B
:103E90003B6A5B8823F400739AB23B6A5A80B86924
:103EA000F969FFF72DFF0346002B12D03B6A5B88B0
:103EB00043F040039AB23B6A5A80BA6947F2A8635A
:103EC000C0F600031B681360BB691846FFF76AFB66
:103ED00006E03B6A5B8823F040039AB23B6A5A8053
:103EE000386AFFF77FFC07F11007BD4680BD00BFB1
:103EF00080B582B000AF786039607B681B681A4675
:103F00003B68DA603868FFF7E1FB07F10807BD4658
:103F100080BD00BFF0B587B004AF786000F040FC12
:103F200006464FF0000000F04FFC05464FF0000041
:103F300000F0DCFA044647F2B873C0F600030093C1
:103F400048F2EC03C0F60003019347F6E023C0F605
:103F500000030293304648F24001C0F600012A46B1
:103F6000234602F02BFC07F10C07BD46F0BD00BF55
:103F7000B0B584B004AF00F013FC05464FF000006C
:103F800000F0B4FA044647F2B873C0F60003009399
:103F900048F20013C0F60003019348F20C13C0F678
:103FA00000030293284647F2FC71C0F6000147F275
:103FB000B472C0F60002234602F000FCFDF7DAFE00
:103FC000BD46B0BDB0B584B004AF00F0E9FB054616
:103FD0004FF0000000F08AFA044647F2B873C0F6CA
:103FE0000003009348F21813C0F60003019347F64C
:103FF000E023C0F600030293284648F24001C0F6D1
:10400000000147F2B472C0F60002234602F0D6FB6C
:1040100030BFBD46B0BD00BFF0B58DB004AFF86095
:10402000B9603B601346FB80FB68002B1ED100F09B
:10403000B7FB024648F23413C0F60003009348F27F
:104040004013C0F60003019348F25013C0F600037A
:104050000293104648F22811C0F6000148F23012CF
:10406000C0F600024FF0000302F0A8FBBB6B042B6C
:104070001ED900F095FB024648F23413C0F6000347
:10408000009348F24013C0F60003019348F2501326
:10409000C0F600030293104648F22811C0F6000152
:1040A00048F23012C0F600024FF0000302F086FB27
:1040B000FB881846396C01F035F8B861BB69002BF4
:1040C00000F00F81BB691A6BFB8803F1FF334FEAE5
:1040D0008303D3187B617B6923F007037B617B69D2
:1040E00003F00703002B1ED000F05AFB024648F2F3
:1040F0003413C0F60003009348F24013C0F60003E7
:10410000019348F25013C0F600030293104648F2A0
:104110002811C0F6000148F23012C0F600024FF03C
:10412000000302F04BFBFB880093B869B968BA6BD7
:104130007B6C00F021FF7869F9683A6801F060FD56
:104140000246BB691A60BB691B6803F00703002BBA
:104150001ED000F025FB024648F23413C0F60003DF
:10416000009348F24013C0F60003019348F2501345
:10417000C0F600030293104648F22811C0F6000171
:1041800048F23012C0F600024FF0000302F016FBB6
:10419000FB6B002B02D0FB6BBA691A6001F0B4FD17
:1041A00040F69C13C2F200031B6803F1010240F6C3
:1041B0009C13C2F200031A6040F6EC03C2F2000343
:1041C0001B68002B0FD140F6EC03C2F20003BA6962
:1041D0001A6040F69C13C2F200031B68012B18D131
:1041E00000F00EFF15E040F6AC13C2F200031B68AE
:1041F000002B0ED140F6EC03C2F200031B68DA6A12
:10420000BB6B9A4205D840F6EC03C2F20003BA69D0
:104210001A60BB69DA6A40F6A413C2F200031B6895
:104220009A4206D9BB69DA6A40F6A413C2F20003C7
:104230001A6040F6C013C2F200031B6803F10102CA
:1042400040F6C013C2F200031A60BB69DA6A40F696
:10425000A813C2F200031B689A4206D9BB69DA6A46
:1042600040F6A813C2F200031A60BB69DA6A13466B
:104270004FEA83039B184FEA830340F6F002C2F231
:1042800000029A18BB6903F104031046194601F0B5
:10429000A3F94FF00103FB6100F082FA0646BB6907
:1042A00003F13405B86900F021F9044648F23413EB
:1042B000C0F60003009348F26413C0F600030193B4
:1042C00048F27813C0F600030293304648F25C11BE
:1042D000C0F600012A46234602F070FA01F02AFDDA
:1042E00021E04FF0FF33FB6100F05AFA024648F23A
:1042F0003413C0F60003009348F29413C0F6000391
:10430000019348F2B013C0F600030293104648F23E
:104310002811C0F6000148F23012C0F600024FF03A
:10432000000302F04BFAFB69012B11D140F6AC13EC
:10433000C2F200031B68002B0AD040F6EC03C2F265
:1043400000031B68DA6ABB6B9A4201D201F0D0FC11
:10435000FB69184607F12407BD46F0BDF0B58BB0E8
:1043600004AF786039604FF000037B617B68002BFD
:104370001ED100F015FA024648F23413C0F60003CD
:10438000009348F24013C0F60003019348F2501323
:10439000C0F600030293104648F22811C0F600014F
:1043A00048F23012C0F600024FF0000302F006FAA5
:1043B0003B68002B1ED100F0F3F9024648F234139B
:1043C000C0F60003009348F24013C0F600030193C7
:1043D00048F25013C0F600030293104648F2281129
:1043E000C0F6000148F23012C0F600024FF00003A0
:1043F00002F0E4F900F0F4F87B681A683B68D3181F
:104400003B617B681A6840F6A013C2F200031B6888
:104410009A4210D97B681A683B699A421BD940F6C8
:10442000A013C2F200031B683A699A4213D94FF0F5
:1044300001037B610FE07B681A683B699A4207D8E9
:1044400040F6A013C2F200031B683A699A4202D9EF
:104450004FF001037B617B683A691A607B69002B2E
:1044600037D000F09DF9064640F6EC03C2F2000397
:104470001B6803F1340540F6EC03C2F200031B682D
:10448000184600F033F8044648F23413C0F600032F
:10449000009348F2C813C0F60003019348F2E013FA
:1044A000C0F600030293304648F25C11C0F60001EA
:1044B0002A46234602F082F940F6EC03C2F20003DA
:1044C0001B6803F10403184601F0E8F8386900F0AE
:1044D000E3FD00F097F8F860FB68002B01D101F0D4
:1044E00007FC07F11C07BD46F0BD00BF80B584B0D6
:1044F00000AF786001F008FC7B68002B05D140F626
:10450000EC03C2F200031B6800E07B68FB60FB6801
:10451000DB6ABB6001F00EFCBB68184607F11007B0
:10452000BD4680BD80B586B004AF4FF00003009358
:1045300040F69813C2F2000301934FF00003029378
:104540004FF00003039344F66570C0F6000048F294
:10455000F811C0F600014FF480724FF00003FFF72E
:104560005BFD78607B68012B13D14FF0BF0080F3B7
:10457000118840F6AC13C2F200034FF001021A603A
:1045800040F6A013C2F200034FF000021A6001F0DF
:1045900085FB7B68002B1ED100F002F9024648F231
:1045A0003413C0F60003009348F24013C0F6000332
:1045B000019348F25013C0F600030293104648F2EC
:1045C0002811C0F6000148F23012C0F600024FF088
:1045D000000302F0F3F807F10807BD4680BD00BFF5
:1045E00080B400AF40F6B013C2F200031B6803F1C1
:1045F000010240F6B013C2F200031A60BD4680BC4F
:10460000704700BF90B587B004AF4FF000037B60E8
:1046100040F6B013C2F200031B68002B1ED100F05D
:10462000BFF8024648F23413C0F60003009348F284
:104630004013C0F60003019348F25013C0F6000384
:104640000293104648F22811C0F6000148F23012D9
:10465000C0F600024FF0000302F0B0F801F054FB86
:1046600040F6B013C2F200031B6803F1FF3240F6BC
:10467000B013C2F200031A6040F6B013C2F2000396
:104680001B68002B40F0848040F69C13C2F20003AC
:104690001B68002B7CD04FF000033B603BE040F6F2
:1046A0008413C2F20003DB68DC6804F118031846C7
:1046B00000F0F4FF04F10403184600F0EFFFE26A93
:1046C00040F6A813C2F200031B689A4205D9E26AB9
:1046D00040F6A813C2F200031A60E26A13464FEADA
:1046E00083039B184FEA830340F6F002C2F20002F4
:1046F0009A1804F104031046194600F06DFFE26AAF
:1047000040F6EC03C2F200031B68DB6A9A4202D354
:104710004FF001033B6040F68413C2F200031B68B4
:10472000002BBCD140F6B413C2F200031B68002B6F
:1047300018D00DE000F082F840F6B413C2F2000386
:104740001B6803F1FF3240F6B413C2F200031A6093
:1047500040F6B413C2F200031B68002BEAD14FF0FD
:1047600001033B603B68012B06D040F6B813C2F250
:1047700000031B68012B0BD14FF001037B6040F657
:10478000B813C2F200034FF000021A6001F0B0FA51
:1047900001F0D0FA7B68184607F10C07BD4690BDC2
:1047A00080B582B000AF01F0AFFA40F6A013C2F2BC
:1047B00000031B687B6001F0BDFA7B68184607F1B7
:1047C0000807BD4680BD00BF80B588B004AF7860E3
:1047D0007B68002B05D140F6EC03C2F200031B6896
:1047E00000E07B68FB60FB68002B1ED1FFF7D8FF61
:1047F000024648F23413C0F60003009348F2401317
:10480000C0F60003019348F25013C0F60003029370
:10481000104648F22811C0F6000148F23012C0F6E6
:1048200000024FF0000301F0C9FFFB6803F13403FD
:10483000184607F11007BD4680BD00BF80B588B09F
:1048400004AF40F6B013C2F200031B68002B40F027
:10485000E68040F6A013C2F200031B6803F10102D8
:1048600040F6A013C2F200031A6040F6A013C2F291
:1048700000031B68002B67D140F67C13C2F20003D3
:104880001B681B68002B1ED0FFF78AFF024648F208
:104890003413C0F60003009348F24013C0F600033F
:1048A000019348F25013C0F600030293104648F2F9
:1048B0002811C0F6000148F23012C0F600024FF095
:1048C000000301F07BFF40F67C13C2F200031B687B
:1048D000FB6040F68013C2F200031A6840F67C13B6
:1048E000C2F200031A6040F68013C2F20003FA68B5
:1048F0001A6040F6BC13C2F200031B6803F1010208
:1049000040F6BC13C2F200031A6040F67C13C2F2F8
:1049100000031B681B68002B07D140F24043C2F222
:1049200000034FF0FF321A600EE040F67C13C2F233
:1049300000031B68DB68DB68BB60BB685A6840F239
:104940004043C2F200031A6040F6A013C2F2000313
:104950001A6840F24043C2F200031B689A426AD3CD
:1049600040F67C13C2F200031B681B68002B07D1C2
:1049700040F24043C2F200034FF0FF321A605AE0A7
:1049800040F67C13C2F200031B68DB68DB68BB6087
:10499000BB685B687B6040F6A013C2F200031A6834
:1049A0007B689A4206D240F24043C2F200037A6822
:1049B0001A6040E0BB6803F10403184600F06EFE85
:1049C000BB689B6A002B05D0BB6803F1180318462F
:1049D00000F064FEBB68DA6A40F6A813C2F2000376
:1049E0001B689A4206D9BB68DA6A40F6A813C2F27D
:1049F00000031A60BB68DA6A13464FEA83039B1808
:104A00004FEA830340F6F002C2F200029A18BB6834
:104A100003F104031046194600F0DEFDA0E740F65E
:104A2000B413C2F200031B6803F1010240F6B41391
:104A3000C2F200031A6007F11007BD4680BD00BF37
:104A4000F0B587B004AF40F6B013C2F200031B68A4
:104A5000002B07D040F6B813C2F200034FF001025A
:104A60001A60DAE0FFF79CFE064640F6EC03C2F25D
:104A700000031B6803F1340540F6EC03C2F20003A7
:104A80001B681846FFF732FD044648F23413C0F69F
:104A90000003009348F20423C0F60003019348F298
:104AA0002023C0F600030293304648F25C11C0F6A2
:104AB00000012A46234601F081FE40F6EC03C2F2D3
:104AC00000031A68516C40F6F813C2F200031B6829
:104AD0007868C31ACB18536440F6F813C2F2000387
:104AE0007A681A6031E040F6A813C2F200031B682E
:104AF000002B1ED1FFF754FE024648F23413C0F6D5
:104B00000003009348F24013C0F60003019348F2FB
:104B10005013C0F600030293104648F22811C0F665
:104B2000000148F23012C0F600024FF0000301F01D
:104B300045FE40F6A813C2F200031B6803F1FF32E2
:104B400040F6A813C2F200031A6040F6A813C2F29E
:104B50000003196840F6F002C2F200020B464FEA69
:104B600083035B184FEA8303D3181B68002BBAD06A
:104B700040F6A813C2F200031A6813464FEA8303F3
:104B80009B184FEA830340F6F002C2F200029B1822
:104B90003B603B685B685A683B685A603B685A6890
:104BA0003B6803F108039A4204D13B685B685A688A
:104BB0003B685A603B685B68DA6840F6EC03C2F217
:104BC00000031A60FFF7ECFD064640F6EC03C2F264
:104BD00000031B6803F1340540F6EC03C2F2000346
:104BE0001B681846FFF782FC044648F23413C0F6EF
:104BF0000003009348F24423C0F60003019348F2F7
:104C00005C23C0F600030293304648F25C11C0F604
:104C100000012A46234601F0D1FD07F10C07BD46ED
:104C2000F0BD00BF80B588B004AF786039607B68A4
:104C3000002B1ED1FFF7B4FD024648F23413C0F634
:104C40000003009348F24013C0F60003019348F2BA
:104C50005013C0F600030293104648F22811C0F624
:104C6000000148F23012C0F600024FF0000301F0DC
:104C7000A5FD40F6EC03C2F200031B6803F1180324
:104C80007868194600F0D0FC40F6EC03C2F200034D
:104C90001B6803F10403184600F000FD40F6A01362
:104CA000C2F200031A683B68D318FB60F86800F092
:104CB000F3F907F11007BD4680BD00BF80B588B08D
:104CC00004AF78607B68DB68DB68BB60BB68002B87
:104CD0001ED1FFF765FD024648F23413C0F600030B
:104CE000009348F24013C0F60003019348F25013BA
:104CF000C0F600030293104648F22811C0F60001E6
:104D000048F23012C0F600024FF0000301F056FDE9
:104D1000BB6803F11803184600F0C0FC40F6B0135E
:104D2000C2F200031B68002B2AD1BB6803F1040305
:104D3000184600F0B3FCBB68DA6A40F6A813C2F26A
:104D400000031B689A4206D9BB68DA6A40F6A813CA
:104D5000C2F200031A60BB68DA6A13464FEA8303A3
:104D60009B184FEA830340F6F002C2F200029A1841
:104D7000BB6803F104031046194600F02DFC09E05E
:104D8000BB6803F1180340F68410C2F20000194614
:104D900000F022FCBB68DA6A40F6EC03C2F20003C2
:104DA0001B68DB6A9A4203D34FF00103FB6002E009
:104DB0004FF00003FB60FB68184607F11007BD4683
:104DC00080BD00BF80B586B004AF78607B68002BE3
:104DD0001ED1FFF7E5FC024648F23413C0F600038B
:104DE000009348F24013C0F60003019348F25013B9
:104DF000C0F600030293104648F22811C0F60001E5
:104E000048F23012C0F600024FF0000301F0D6FC69
:104E100040F6BC13C2F200031A687B681A6040F6C1
:104E2000A013C2F200031A687B685A6007F10807F2
:104E3000BD4680BD80B588B004AF786039607B68BE
:104E4000002B1ED1FFF7ACFC024648F23413C0F62B
:104E50000003009348F24013C0F60003019348F2A8
:104E60005013C0F600030293104648F22811C0F612
:104E7000000148F23012C0F600024FF0000301F0CA
:104E80009DFC3B68002B1ED1FFF78AFC024648F2CE
:104E90003413C0F60003009348F24013C0F6000339
:104EA000019348F25013C0F600030293104648F2F3
:104EB0002811C0F6000148F23012C0F600024FF08F
:104EC000000301F07BFC00F01FFF7B681A6840F6CE
:104ED000BC13C2F200031B689A420CD07B685A686C
:104EE00040F6A013C2F200031B689A4203D84FF0A9
:104EF0000103FB6022E040F6A013C2F200031A682F
:104F00007B685B68D21A3B681B689A4213D23B6885
:104F10001A687B68596840F6A013C2F200031B6848
:104F2000CB1AD2183B681A607868FFF74BFF4FF036
:104F30000003FB6002E04FF00103FB6000F0FAFEAB
:104F4000FB68184607F11007BD4680BD80B400AF6E
:104F500040F6B813C2F200034FF001021A60BD46DA
:104F600080BC704780B582B000AF786000F08EF8EA
:104F7000FEF738F8FAE700BF80B584B000AFF860FC
:104F8000B9607A603B60FB6803F134031846B96886
:104F90004FF0050202F05CF8FB684FF0000283F866
:104FA00038207B68042B02D94FF004037B60FB6838
:104FB0007A68DA62FB687A68DA63FB6803F10403F3
:104FC000184600F0FBFAFB6803F11803184600F0DE
:104FD000F5FAFB68FA681A617B68C3F10502FB68A1
:104FE0009A61FB68FA685A62FB684FF000021A6423
:104FF000FB684FF000025A6407F11007BD4680BD00
:1050000080B582B000AF4FF000037B6012E07A6899
:1050100013464FEA83039B184FEA830340F6F002DE
:10502000C2F200029B18184600F0A8FA7B6803F150
:1050300001037B607B68042BE9D940F65410C2F26F
:10504000000000F09BFA40F66810C2F2000000F089
:1050500095FA40F68410C2F2000000F08FFA40F694
:105060007C13C2F2000340F65412C2F200021A602E
:1050700040F68013C2F2000340F66812C2F200024A
:105080001A6007F10807BD4680BD00BF80B400AFBD
:10509000BD4680BC704700BF80B582B000AF78606D
:1050A00040F6EC03C2F200031B687A685A6040F6CF
:1050B000A013C2F200031B687A689A4210D240F62D
:1050C0008013C2F200031A6840F6EC03C2F2000338
:1050D0001B6803F104031046194600F0A5FA1DE011
:1050E00040F67C13C2F200031A6840F6EC03C2F2E9
:1050F00000031B6803F104031046194600F094FAFC
:1051000040F24043C2F200031B687A689A4205D21B
:1051100040F24043C2F200037A681A6007F10807C0
:10512000BD4680BD80B584B000AF03463960FB80CA
:105130004FF0480001F080FB0346FB60FB68002B4A
:1051400023D03B68002B07D1FB884FEA8303184626
:1051500001F072FB034600E03B68FA681363FB68EA
:105160001B6B002B06D1F86801F06EFB4FF00003BB
:10517000FB600AE0FB681A6BFB884FEA830310466A
:105180004FF0A5011A4601F0B7FEFB68184607F17B
:105190001007BD4680BD00BF80B483B000AF40F6AD
:1051A000EC03C2F200031B687B607B68184607F1C2
:1051B0000C07BD4680BC704780B588B004AF7860EE
:1051C0007B68FB607B68002B1ED1FFF7E9FA024683
:1051D00048F23413C0F60003009348F24013C0F6BF
:1051E0000003019348F25013C0F6000302931046E7
:1051F00048F22811C0F6000148F23012C0F6000251
:105200004FF0000301F0DAFAFB68DA6A40F6EC03CB
:10521000C2F200031B68DB6A9A4255D240F6EC03E7
:10522000C2F200031B68DB6AC3F10502FB689A61E6
:10523000FB685969FB68DA6A13464FEA83039B18D7
:105240004FEA830340F6F002C2F200029B18994233
:1052500032D1FB6803F10403184600F01FFA40F650
:10526000EC03C2F200031B68DA6AFB68DA62FB68CF
:10527000DA6A40F6A813C2F200031B689A4206D904
:10528000FB68DA6A40F6A813C2F200031A60FB68F2
:10529000DA6A13464FEA83039B184FEA830340F60A
:1052A000F002C2F200029A18FB6803F104031046F0
:1052B000194600F091F907E040F6EC03C2F2000352
:1052C0001B68DA6AFB68DA6207F11007BD4680BD29
:1052D00080B584B000AF78607B68FB607B68002B92
:1052E00039D0FB68DA6AFB68DB6B9A4233D0FB6823
:1052F00003F10403184600F0D1F9FB68DA6BFB6890
:10530000DA62FB68DB6AC3F10502FB689A61FB683D
:10531000DA6A40F6A813C2F200031B689A4206D963
:10532000FB68DA6A40F6A813C2F200031A60FB6851
:10533000DA6A13464FEA83039B184FEA830340F669
:10534000F002C2F200029A18FB6803F1040310464F
:10535000194600F041F907F11007BD4680BD00BFB6
:1053600080B487B000AF786039604FF000037B6194
:105370004FF000033B614FF00003FB604FF0000370
:105380007B6186E07B694FF0010202FA03F33B6127
:105390003B681A683B691340FB60FA683B699A42B4
:1053A00073D17B681A687B694FEA43034FF00301AE
:1053B00001FA03F36FEA03031A407B681A607B6803
:1053C0001A683B681B7919467B694FEA430301FA67
:1053D00003F31A437B681A603B681B79012B03D0E7
:1053E0003B681B79022B34D17B689A687B694FEA52
:1053F00043034FF0030101FA03F36FEA03031A407A
:105400007B689A607B689A683B685B7919467B6920
:105410004FEA430301FA03F31A437B689A607B68FF
:105420005A687B699BB24FF0010101FA03F36FEAFE
:1054300003031A407B685A607B685A683B689B7913
:1054400019467B699BB201FA03F39BB21A437B684E
:105450005A607B68DA687B699BB24FEA43034FF07E
:10546000030101FA03F36FEA03031A407B68DA6071
:105470007B68DA683B68DB7919467B694FEA43034E
:1054800001FA03F31A437B68DA607B6903F10103D5
:105490007B617B690F2B7FF675AF07F11C07BD465B
:1054A00080BC704780B485B000AF786013460A4670
:1054B0007A807B704FF00003FB604FF00003BB600D
:1054C0007A787B8803F007034FEA830302FA03F339
:1054D000FB607B884FEAD3039BB21A467B884FEA76
:1054E000D3039BB219467B6801F1080153F82110E0
:1054F0007B8803F007034FEA83034FF00F0000FAA5
:1055000003F36FEA030319407B6802F1080243F8D2
:1055100022107B884FEAD3039BB21A467B6802F1C4
:10552000080253F82220FB681343BB607B884FEAD4
:10553000D3039BB21A467B6802F10802B96843F8AC
:10554000221007F11407BD4680BC7047ABBE00F0C7
:1055500002B800207047002A00F00180106001208E
:10556000704706980188044A914240F00380043055
:1055700006907047FEE70000ABBE000080B483B029
:1055800000AF78607B6803F108027B685A607B6833
:105590004FF0FF329A607B6803F108027B68DA60A3
:1055A0007B6803F108027B681A617B684FF0000298
:1055B0001A6007F10C07BD4680BC704780B483B009
:1055C00000AF78607B684FF000021A6107F10C07AA
:1055D000BD4680BC704700BF80B485B000AF786026
:1055E00039607B685B68FB60FB685A683B685A609F
:1055F0007B685A683B689A60FB685B683A689A60A7
:10560000FB683A685A607B683A685A603B687A6817
:105610001A617B681B6803F101027B681A6007F15D
:105620001407BD4680BC704780B485B000AF786079
:1056300039603B681B68BB60BB68B3F1FF3F03D1B7
:105640007B681B69FB600DE07B6803F10803FB606E
:1056500002E0FB685B68FB60FB685B681A68BB681C
:105660009A42F6D9FB685A683B685A603B685B68A7
:105670003A689A603B68FA689A60FB683A685A60D0
:105680003B687A681A617B681B6803F101027B68DA
:105690001A6007F11407BD4680BC704780B485B01E
:1056A00000AF78607B685B687A6892689A607B6814
:1056B0009B687A6852685A607B681B69FB60FB686C
:1056C0005A687B689A4203D17B689A68FB685A6083
:1056D0007B684FF000021A61FB681B6803F1FF3220
:1056E000FB681A6007F11407BD4680BC704700BF15
:1056F00080B500AF4FF46D43CEF200034FF46D421E
:10570000CEF20002D2F8882042F47002C3F888205A
:105710004FF46053C4F202034FF46052C4F2020229
:10572000126842F001021A604FF46053C4F202039F
:105730004FF000029A604FF46053C4F202034FF43A
:105740006052C4F20202126822F0847222F48032A3
:105750001A604FF46053C4F2020343F21002C2F223
:1057600000425A604FF46053C4F202034FF4605297
:10577000C4F20202126822F480221A604FF46053CD
:10578000C4F202034FF00002DA6000F0C1F84FF4F7
:105790006D43CEF200034FF000629A6080BD00BFFF
:1057A00080B487B000AF4FF000033B614FF00003BF
:1057B0007B614FF00203FB604FF00003BB604FF0D2
:1057C00002037B604FF46053C4F202039B6803F052
:1057D0000C033B613B69042B0DD0082B15D0002B2B
:1057E00069D140F24443C2F200034FF41052C0F2B8
:1057F000F4021A6069E040F24443C2F200034FF43D
:105800009052C0F27A021A605FE04FF46053C4F223
:1058100002035B6803F480034FEA9353BB604FF4C9
:105820006053C4F202035B6803F03F037B60BB6814
:10583000002B14D04FF49053C0F27A037A68B3FB74
:10584000F2F24FF46053C4F20203596847F6C07392
:105850000B404FEA931303FB02F37B6113E04FF419
:105860001053C0F2F4037A68B3FBF2F24FF46053C2
:10587000C4F20203596847F6C0730B404FEA931312
:1058800003FB02F37B614FF46053C4F202035B68D5
:1058900003F440334FEA134303F101034FEA430398
:1058A000FB607A69FB68B2FBF3F240F24443C2F258
:1058B00000031A6009E040F24443C2F200034FF4CF
:1058C0001052C0F2F4021A6000BF4FF46053C4F2E9
:1058D00002039B6803F0F0034FEA131240F24843BF
:1058E000C2F200039B5CDBB23B6140F24443C2F274
:1058F00000031A683B6922FA03F240F24443C2F201
:1059000000031A6007F11C07BD4680BC704700BF4A
:1059100080B483B000AF4FF000037B604FF0000312
:105920003B604FF46053C4F202034FF46052C4F280
:105930000202126842F480321A604FF46053C4F2DB
:1059400002031B6803F400333B607B6803F101032F
:105950007B603B68002B03D17B68B3F5A06FECD173
:105960004FF46053C4F202031B6803F40033002BAE
:1059700003D04FF001033B6002E04FF000033B60B7
:105980003B68012B40F082804FF46053C4F2020365
:105990004FF46052C4F20202126C42F080521A6458
:1059A0004FF4E043C4F200034FF4E042C4F20002BB
:1059B000126842F480421A604FF46053C4F202034A
:1059C0004FF46052C4F2020292689A604FF460533E
:1059D000C4F202034FF46052C4F20202926842F42D
:1059E00000429A604FF46053C4F202034FF46052D5
:1059F000C4F20202926842F4A0529A604FF46053DB
:105A0000C4F2020345F21942C0F240725A604FF4E8
:105A10006053C4F202034FF46052C4F202021268EF
:105A200042F080721A6000BF4FF46053C4F2020368
:105A30001B6803F00073002BF6D04FF47053C4F2D0
:105A4000020340F205621A604FF46053C4F202038D
:105A50004FF46052C4F20202926822F003029A608C
:105A60004FF46053C4F202034FF46052C4F20202D6
:105A7000926842F002029A6000BF4FF46053C4F291
:105A800002039B6803F00C03082BF6D107F10C0707
:105A9000BD4680BC704700BF80B485B000AF786061
:105AA00040F6FC13C2F200031B68002B08D140F63D
:105AB000FC13C2F2000341F25022C2F200021A604B
:105AC00040F6FC13C2F200031B68FB6040F6FC13B7
:105AD000C2F200031A687B68D21840F6FC13C2F2C7
