:020000040800F2
:10000000C8120020AD120008291300088F5B0008F9
:100010002913000829130008291300080000000014
:1000200000000000000000000000000095620008D1
:10003000291300080000000099630008F16300081C
:1000400029130008291300082913000829130008A0
:100050002913000829130008291300082913000890
:100060002913000829130008291300082913000880
:100070002913000829130008291300082913000870
:100080002913000829130008291300082913000860
:100090002913000829130008291300082913000850
:1000A0002913000829130008291300082913000840
:1000B0002913000829130008291300082913000830
:1000C0002913000829130008291300082913000820
:1000D000291300082913000829130008DD09000866
:1000E0002913000829130008291300082913000800
:1000F00029130008291300082913000829130008F0
:1001000029130008291300082913000829130008DF
:1001100029130008291300082913000829130008CF
:1001200029130008291300082913000829130008BF
:1001300029130008291300082913000829130008AF
:10014000291300082913000829130008291300089F
:10015000291300082913000829130008291300088F
:10016000291300082913000829130008291300087F
:10017000291300082913000829130008291300086F
:10018000291300082913000880B584B004AF04F0D7
:100190001DFE024647F6A823C0F60003009347F66B
:1001A000B823C0F60003019347F6C423C0F600034A
:1001B0000293104647F69C21C0F6000147F6A422A0
:1001C000C0F600024FF0000306F00EFE00F02AF920
:1001D000BD4680BD80B584B004AF04F0F7FD024693
:1001E00047F6A823C0F60003009347F6F023C0F6B5
:1001F0000003019347F60033C0F600030293104654
:1002000047F6E821C0F6000147F6A422C0F6000236
:100210004FF0000306F0E8FD4FF000031846BD461E
:1002200080BD00BFF0B587B004AF786004F0CEFDAC
:1002300006464FF0000004F0DDFD05464FF00000DB
:1002400004F06AFC044647F6A823C0F600030093B6
:1002500047F62033C0F60003019347F63033C0F66B
:1002600000030293304647F69C21C0F600012A465F
:10027000234606F0B9FD786800F0B8F907F10C07DD
:10028000BD46F0BDF0B589B004AF78604FF0000313
:10029000FB73786800F060F803461C46786800F04D
:1002A00077F803462343DAB2FB7B1343FB73FB7BF4
:1002B000002B25D104F08AFD06464FF0000004F023
:1002C00099FD05464FF0000004F026FC044647F671
:1002D000A823C0F60003009347F64C33C0F6000392
:1002E000019347F65C33C0F600030293304647F6AD
:1002F0009C21C0F600012A46234606F075FD24E045
:1003000004F064FD06464FF0000004F073FD05465E
:100310004FF0000004F000FC044647F6A823C0F6A6
:100320000003009347F64C33C0F60003019347F6F1
:100330008433C0F600030293304647F67C31C0F6A2
:1003400000012A46234606F04FFDFB7B184607F1C5
:100350001407BD46F0BD00BF80B485B000AF786023
:100360004FF00003FB737B681B68002B04DAFB7BF8
:1003700043F00103FB7303E0FB7B23F00103FB73FA
:10038000FB7B184607F11407BD4680BC704700BFD1
:1003900080B485B000AF78604FF00003FB737B68DA
:1003A0009B881BB2B42B05DC7B689B881BB213F1C6
:1003B000B40F04DAFB7B43F00203FB7303E0FB7B27
:1003C00023F00203FB737B68DB881BB2B42B05DCD4
:1003D0007B68DB881BB213F1B40F04DAFB7B43F0BC
:1003E0000403FB7303E0FB7B23F00403FB737B68D4
:1003F0001B891BB2B42B05DC7B681B891BB213F174
:10040000B40F04DAFB7B43F00803FB7303E0FB7BD0
:1004100023F00803FB73FB7B184607F11407BD4666
:1004200080BC704780B588B000AF4FF008004FF037
:10043000010101F063F84FF480204FF0010101F059
:1004400087F84FF44060C4F202004FF008014FF00B
:10045000070205F03DFB4FF00003BB774FF00103AF
:10046000FB774FF002033B774FF002037B7707F1F6
:1004700018034FF44060C4F20200194605F086FAF2
:100480004FF44060C4F202004FF009014FF0070240
:1004900005F01EFB4FF002033B774FF002037B7722
:1004A0004FF40073BB6107F118034FF44060C4F2CE
:1004B0000200194605F06AFA4FF4E133BB604FF0D1
:1004C0000003BB814FF00003FB814FF000033B8230
:1004D0004FF00003BB824FF004037B8207F1080357
:1004E0004FF49040C4F20000194600F08FFA4FF428
:1004F0009040C4F2000040F225514FF0010200F09C
:10050000A1FB4FF027033B714FF000037B714FF0CD
:100510000003BB714FF00103FB7107F104031846A0
:1005200006F0A0FC4FF49040C4F200004FF001012F
:1005300000F042FB07F12007BD4680BD80B582B0C8
:1005400000AF40F6A803C2F200031B781A4640F63B
:100550006C03C2F2000333F812309BB2532B3AD033
:1005600040F6A803C2F200031B781D2B33D84FF4CA
:100570009040C4F2000000F053FB0346FB8040F6BD
:10058000A803C2F200031B78002B09D0FB88522B72
:1005900006D140F6A803C2F200034FF000021A7021
:1005A00040F6A803C2F200031B781A4640F66C031B
:1005B000C2F20003F98823F8121040F6A803C2F231
:1005C00000031B7803F10103DAB240F6A803C2F27C
:1005D00000031A7006E040F6A803C2F200034FF0D1
:1005E00000021A7007F10807BD4680BD80B485B0CF
:1005F00000AF78604FF00003FB737B684FF00002A0
:100600009A807B684FF00002DA807B684FF000022E
:100610001A817B684FF000021A604FF00003FB73F1
:10062000FA7B40F66C03C2F2000333F812309BB23F
:10063000522B40F0CD81FB7B03F10103FB73FA7B6E
:1006400040F66C03C2F2000333F812309BB22D2B3C
:1006500058D1FB7B03F10103FB731DE07B689B8892
:100660009BB21A464FEA8202D3184FEA43039AB26A
:10067000F97B40F66C03C2F2000333F811309BB2F1
:10068000D3189BB2A3F130039BB29AB27B689A80D5
:10069000FB7B03F10103FB73FA7B40F66C03C2F2B0
:1006A000000333F812309BB2502B02D0FB7B1D2B82
:1006B000D4D97B689B889BB2C3F100039BB29AB2EA
:1006C0007B689A802CE07B689B889BB21A464FEA35
:1006D0008202D3184FEA43039AB2F97B40F66C03C7
:1006E000C2F2000333F811309BB2D3189BB2A3F1CE
:1006F00030039BB29AB27B689A80FB7B03F10103C3
:10070000FB7300E000BFFA7B40F66C03C2F200030B
:1007100033F812309BB2502B02D0FB7B1D2BD2D969
:10072000FB7B03F10103FB73FA7B40F66C03C2F21F
:10073000000333F812309BB22D2B58D1FB7B03F111
:100740000103FB731DE07B68DB889BB21A464FEA0E
:100750008202D3184FEA43039AB2F97B40F66C0346
:10076000C2F2000333F811309BB2D3189BB2A3F14D
:1007700030039BB29AB27B68DA80FB7B03F1010302
:10078000FB73FA7B40F66C03C2F2000333F81230BD
:100790009BB2592B02D0FB7B1D2BD4D97B68DB8805
:1007A0009BB2C3F100039BB29AB27B68DA802CE063
:1007B0007B68DB889BB21A464FEA8202D3184FEA65
:1007C00043039AB2F97B40F66C03C2F2000333F89C
:1007D00011309BB2D3189BB2A3F130039BB29AB2F3
:1007E0007B68DA80FB7B03F10103FB7300E000BF51
:1007F000FA7B40F66C03C2F2000333F812309BB26E
:10080000592B02D0FB7B1D2BD2D9FB7B03F10103BB
:10081000FB73FA7B40F66C03C2F2000333F812302C
:100820009BB22D2B58D1FB7B03F10103FB731DE021
:100830007B681B899BB21A464FEA8202D3184FEAA3
:1008400043039AB2F97B40F66C03C2F2000333F81B
:1008500011309BB2D3189BB2A3F130039BB29AB272
:100860007B681A81FB7B03F10103FB73FA7B40F683
:100870006C03C2F2000333F812309BB2412B02D05A
:10088000FB7B1D2BD4D97B681B899BB2C3F1000372
:100890009BB29AB27B681A812CE07B681B899BB261
:1008A0001A464FEA8202D3184FEA43039AB2F97B01
:1008B00040F66C03C2F2000333F811309BB2D31838
:1008C0009BB2A3F130039BB29AB27B681A81FB7B87
:1008D00003F10103FB7300E000BFFA7B40F66C03F9
:1008E000C2F2000333F812309BB2412B02D0FB7BE3
:1008F0001D2BD2D9FB7B03F10103FB73FA7B40F67E
:100900006C03C2F2000333F812309BB22D2B51D18D
:10091000FB7B03F10103FB731BE07B681A68134642
:100920004FEA83039B184FEA43031A46F97B40F6CC
:100930006C03C2F2000333F811309BB29BB21BB2BE
:10094000D318A3F130027B681A60FB7B03F101032B
:10095000FB73FA7B40F66C03C2F2000333F81230EB
:100960009BB2532B02D0FB7B1D2BD6D97B681B6817
:10097000C3F100027B681A602AE07B681A6813469C
:100980004FEA83039B184FEA43031A46F97B40F66C
:100990006C03C2F2000333F811309BB29BB21BB25E
:1009A000D318A3F130027B681A60FB7B03F10103CB
:1009B000FB7300E000BFFA7B40F66C03C2F2000359
:1009C00033F812309BB2532B02D0FB7B1D2BD4D9B2
:1009D00007F11407BD4680BC704700BF80B500AF6B
:1009E0004FF49040C4F2000040F2255100F09CF911
:1009F0000346012B09D1FFF7A1FD4FF49040C4F24B
:100A0000000040F2255100F0F1F980BD80B58AB0B8
:100A100000AF786039604FF000037B624FF0000355
:100A20003B624FF00003FB614FF00003BB617B684A
:100A30001B8A9BB27B627B6A23F440537B623B68D8
:100A4000DB887A6A13437B627B6A9AB27B681A827C
:100A50007B689B899BB27B627B6A23F4B05323F053
:100A60000C037B623B689A883B681B8913439AB2EC
:100A70003B685B8913439BB27A6A13437B627B6A50
:100A80009AB27B689A817B689B8A9BB27B627B6A05
:100A900023F440737B623B689B897A6A13437B62D1
:100AA0007B6A9AB27B689A8207F10803184600F0C5
:100AB0003FFC7A684FF48053C4F201039A4206D097
:100AC0007A684FF4A053C4F201039A4202D17B69C1
:100AD0003B6201E03B693B627B689B899BB29BB2B6
:100AE0001BB2002B0FDA3A6A13464FEA83039B18B6
:100AF0004FEA83029A183B681B684FEA4303B2FB34
:100B0000F3F3FB610EE03A6A13464FEA83039B1846
:100B10004FEA83029A183B681B684FEA8303B2FBD3
:100B2000F3F3FB61FA6948F21F53C5F2EB13A3FB21
:100B300002134FEA53134FEA03137B627B6A4FEAB7
:100B400013134FF0640202FB03F3FA69D31ABB617B
:100B50007B689B899BB29BB21BB2002B12DABB69EC
:100B60004FEAC30303F1320248F21F53C5F2EB13FD
:100B7000A3FB02134FEA531303F007037A6A1343EC
:100B80007B6211E0BB694FEA031303F1320248F2C2
:100B90001F53C5F2EB13A3FB02134FEA531303F0E9
:100BA0000F037A6A13437B627B6A9AB27B681A816D
:100BB00007F12807BD4680BD80B483B000AF7860E0
:100BC0000B46FB70FB78002B08D07B689B899BB29F
:100BD00043F400539AB27B689A8107E07B689B8953
:100BE0009BB223F400539AB27B689A8107F10C07F9
:100BF000BD4680BC704700BF80B483B000AF786052
:100C00000B467B807B884FEAC3534FEAD3539AB29B
:100C10007B689A8007F10C07BD4680BC704700BF17
:100C200080B483B000AF78607B689B889BB24FEA4A
:100C3000C3534FEAD3539BB2184607F10C07BD4686
:100C400080BC704780B487B000AF786013460A4616
:100C50007A807B704FF000033B614FF00003FB6034
:100C60004FF00003BB604FF000037B617B687B614A
:100C70007B88DBB24FEA5313DBB23B617B8803F026
:100C80001F03FB60FB684FF0010202FA03F3BB6035
:100C90003B69012B04D17B6903F10C037B610BE001
:100CA0003B69022B04D17B6903F110037B6103E0F4
:100CB0007B6903F114037B617B78002B06D07B6991
:100CC0007A691168BA680A431A6007E07B697A6931
:100CD0001168BA686FEA02020A401A6007F11C073D
:100CE000BD4680BC704700BF80B485B000AF78605F
:100CF0000B467B804FF00003FB737B681B889AB226
:100D00007B8813409BB2002B03D04FF00103FB7391
:100D100002E04FF00003FB73FB7B184607F114075A
:100D2000BD4680BC704700BF80B487B000AF78601C
:100D30000B467B804FF00003FB604FF000037B61AC
:100D40004FF00003BB604FF00003FB747B88DBB205
:100D50004FEA5313DBB2BB607B8803F01F037B6158
:100D60007B694FF0010202FA03F37B61BB68012B40
:100D700006D17B689B899BB27A6913407B610FE047
:100D8000BB68022B06D17B681B8A9BB27A69134031
:100D90007B6105E07B689B8A9BB27A6913407B612B
:100DA0007B884FEA13239BB2FB60FB684FF0010284
:100DB00002FA03F3FB607B681B889BB2FA6813405E
:100DC000FB607B69002B06D0FB68002B03D04FF043
:100DD0000103FB7402E04FF00003FB74FB7C184638
:100DE00007F11C07BD4680BC704700BF80B485B0CA
:100DF00000AF78600B467B804FF00003FB814FF023
:100E00000003BB817B884FEA1323FB81FB894FF0F2
:100E1000010202FA03F3BB81BB896FEA03039AB2B2
:100E20007B681A8007F11407BD4680BC704700BF7D
:100E300080B584B004AF03F0C9FF024647F6B4336F
:100E4000C0F60003009347F6C433C0F600030193D5
:100E500047F6D433C0F600030293104647F6A83194
:100E6000C0F6000147F6B032C0F600024FF00003B2
:100E700005F0BAFFBD4680BD80B584B004AF03F075
:100E8000A5FF024647F6B433C0F60003009347F6C9
:100E9000E833C0F60003019347F6D433C0F60003ED
:100EA0000293104647F6A831C0F6000147F6B0326B
:100EB000C0F600024FF0000305F096FF4FF000036C
:100EC0001846BD4680BD00BFF0B587B004AF78605E
:100ED00003F07CFF06464FF0000003F08BFF054651
:100EE0004FF0000003F018FE044647F6B433C0F696
:100EF0000003009347F61C43C0F60003019347F636
:100F0000D433C0F600030293304647F6A831C0F64A
:100F100000012A46234605F067FF07F10C07BD468E
:100F2000F0BD00BFF0B589B004AF78604FF4FA733C
:100F3000FB814FF03203BB817B681B881A46FB891B
:100F400003F59C5303F108039A4207DC7B681B8876
:100F50001A46BB8903F596739A4227DA03F036FFE7
:100F600006464FF0000003F045FF05464FF0000035
:100F700003F0D2FD044647F63843C0F60003009361
:100F800047F64843C0F60003019347F66043C0F6B6
:100F900000030293304647F63041C0F600012A466E
:100FA000234605F021FF4FF0000326E003F00EFF7B
:100FB00006464FF0000003F01DFF05464FF000000D
:100FC00003F0AAFD044647F63843C0F60003009339
:100FD00047F64843C0F60003019347F68843C0F63E
:100FE00000030293304647F68041C0F600012A46CE
:100FF000234605F0F9FE4FF00103184607F11407E8
:10100000BD46F0BD80B584B004AF03F0DFFE0246FC
:1010100047F63843C0F60003009347F6AC43C0F6EA
:101020000003019347F6C043C0F600030293104645
:1010300047F6A041C0F6000147F6A842C0F60002FC
:101040004FF0000305F0D0FEBD4680BD80B584B0F2
:1010500004AF03F0BBFE024647F63843C0F6000378
:10106000009347F6D443C0F60003019347F6C0430C
:10107000C0F600030293104647F6A041C0F60001F7
:1010800047F6A842C0F600024FF0000305F0ACFEA0
:101090004FF000031846BD4680BD00BFF0B587B0D5
:1010A00004AF0346FB7103F091FE06464FF00000CB
:1010B00003F0A0FE05464FF0000003F02DFD0446AE
:1010C00047F63843C0F60003009347F60053C0F6D6
:1010D0000003019347F6C043C0F600030293304675
:1010E00047F6A041C0F600012A46234605F07CFEE3
:1010F0004FF00003184607F10C07BD46F0BD00BFD6
:10110000F0B587B004AF78607B681846FFF70AFF38
:101110000346002B5DD07B6803F102031846FFF7FE
:1011200001FF0346002B54D07B6803F104031846EB
:10113000FFF7F8FE0346002B4BD07B6803F1060354
:101140001846FFF7EFFE0346002B42D07B6803F101
:1011500008031846FFF7E6FE0346002B39D07B68EC
:1011600003F10A031846FFF7DDFE0346002B30D0DB
:101170007B6803F10C031846FFF7D4FE0346002BEF
:1011800027D003F023FE06464FF0000003F032FEA6
:1011900005464FF0000003F0BFFC044647F6384315
:1011A000C0F60003009347F66053C0F600030193B6
:1011B00047F67853C0F600030293304647F6804165
:1011C000C0F600012A46234605F00EFE4FF001034B
:1011D00026E003F0FBFD06464FF0000003F00AFE98
:1011E00005464FF0000003F097FC044647F63843ED
:1011F000C0F60003009347F66053C0F60003019366
:1012000047F68853C0F600030293304647F6304154
:10121000C0F600012A46234605F0E6FD4FF0000324
:10122000184607F10C07BD46F0BD00BF80B582B07F
:1012300000AF78604FF00100FFF730FF03461A4619
:101240007B681A804FF00200FFF728FF03461A461A
:101250007B685A804FF00400FFF720FF03461A46D0
:101260007B689A804FF00800FFF718FF03461A4684
:101270007B68DA804FF01000FFF710FF03461A4634
:101280007B681A814FF02000FFF708FF03461A46DB
:101290007B685A814FF04000FFF700FF03461A4673
:1012A0007B689A8107F10807BD4680BD80B582B092
:1012B00000AF49F21C53C0F600037B6040F200030C
:1012C000C2F200033B600BE07B681A683B681A605F
:1012D0003B6803F104033B607B6803F104037B601C
:1012E0003A6840F66C03C2F200039A42ECD30B4812
:1012F0000B494FF000028842B8BF40F8042BFFF6BC
:10130000FAAFDFF82000016841F47001016000F0DD
:10131000FDFE07F10807BD4680BD00006C080020F7
:10132000C40A002088ED00E080B400AFFEE700BFF3
:1013300080B489B000AF78604FF00003BB614FF01C
:1013400000037B614FF00003FB614FF002033B6140
:101350004FF00003FB604FF00203BB604FF460539B
:10136000C4F202039B6803F00C03BB61BB69042B4E
:101370000AD0082B0FD0002B60D17A684FF410539D
:10138000C0F2F403136060E07A684FF49053C0F247
:101390007A03136059E04FF46053C4F202035B68B0
:1013A00003F480034FEA9353FB604FF46053C4F29D
:1013B00002035B6803F03F03BB60FB68002B14D0A3
:1013C0004FF49053C0F27A03BA68B3FBF2F24FF4D1
:1013D0006053C4F20203596847F6C0730B404FEAEA
:1013E000931303FB02F3FB6113E04FF41053C0F2BD
:1013F000F403BA68B3FBF2F24FF46053C4F2020391
:10140000596847F6C0730B404FEA931303FB02F38E
:10141000FB614FF46053C4F202035B6803F4403392
:101420004FEA134303F101034FEA43033B61FA69B7
:101430003B69B2FBF3F27B681A6006E07A684FF40E
:101440001053C0F2F403136000BF4FF46053C4F2B2
:1014500002039B6803F0F003BB61BB694FEA1313FF
:10146000BB6140F20003C2F20003BA699B181B780B
:10147000DBB27B617B681A687B6922FA03F27B68C6
:101480005A604FF46053C4F202039B6803F4E053C4
:10149000BB61BB694FEA9323BB6140F20003C2F218
:1014A0000003BA699B181B78DBB27B617B685A68C2
:1014B0007B6922FA03F27B689A604FF46053C4F2AE
:1014C00002039B6803F46043BB61BB694FEA53337B
:1014D000BB6140F20003C2F20003BA699B181B789B
:1014E000DBB27B617B685A687B6922FA03F27B6816
:1014F000DA6007F12407BD4680BC704780B483B032
:1015000000AF78600B46FB70FB78002B0CD04FF4DB
:101510006053C4F202034FF46052C4F20202116B32
:101520007A680A431A630DE04FF46053C4F2020371
:101530004FF46052C4F20202116B7A686FEA020241
:101540000A401A6307F10C07BD4680BC704700BF14
:1015500080B483B000AF78600B46FB70FB78002B43
:101560000CD04FF46053C4F202034FF46052C4F243
:101570000202116C7A680A431A640DE04FF460535A
:10158000C4F202034FF46052C4F20202116C7A6892
:101590006FEA02020A401A6407F10C07BD4680BCDC
:1015A000704700BF80B483B000AF78600B46FB701B
:1015B000FB78002B0CD04FF46053C4F202034FF4BD
:1015C0006052C4F20202516C7A680A435A640DE018
:1015D0004FF46053C4F202034FF46052C4F20202AB
:1015E000516C7A686FEA02020A405A6407F10C07EC
:1015F000BD4680BC704700BFF0B587B004AF7860CF
:101600007B681B785BB213F1020F4DDB7B681B78A4
:101610005BB2022B48DC7B685B785BB213F1020F94
:1016200042DB7B685B785BB2022B3DDC7B689B789E
:101630005BB213F1020F37DB7B689B785BB2022B46
:1016400032DC7B68DB785BB213F1020F2CDB7B684A
:10165000DB785BB2022B27DC03F0B8FB06464FF0C9
:10166000000003F0C7FB05464FF0000003F054FAFA
:10167000044647F6C053C0F60003009347F6D05324
:10168000C0F60003019347F6E453C0F6000302934B
:10169000304647F6B851C0F600012A46234605F009
:1016A000A3FB4FF0010326E003F090FB06464FF04A
:1016B000000003F09FFB05464FF0000003F02CFAFA
:1016C000044647F6C053C0F60003009347F6D053D4
:1016D000C0F60003019347F61063C0F600030293BF
:1016E000304647F60861C0F600012A46234605F059
:1016F0007BFB4FF00003184607F10C07BD46F0BD19
:10170000F0B589B004AFF860B9607A603B6003F06F
:101710005DFB06464FF0000003F06CFB05464FF002
:10172000000003F0F9F9044647F6C053C0F6000381
:10173000009347F64063C0F60003019347F65463F5
:10174000C0F600030293304647F63861C0F6000148
:101750002A46234605F048FB07F11407BD46F0BDB5
:10176000F0B589B004AFF860B9607A6003F02EFB81
:1017700006464FF0000003F03DFB05464FF0000029
:1017800003F0CAF9044647F6C053C0F600030093BD
:1017900047F66863C0F60003019347F65463C0F64A
:1017A00000030293304647F63861C0F600012A462E
:1017B000234605F019FB07F11407BD46F0BD00BF35
:1017C000F0B589B004AFF860B9607A6003F0FEFA52
:1017D00006464FF0000003F00DFB05464FF00000F9
:1017E00003F09AF9044647F6C053C0F6000300938D
:1017F00047F67C63C0F60003019347F65463C0F6D6
:1018000000030293304647F63861C0F600012A46CD
:10181000234605F0E9FA4FF00003184607F11407D4
:10182000BD46F0BDF0B589B004AFF860B9607A602C
:101830003B6003F0CBFA06464FF0000003F0DAFA03
:1018400005464FF0000003F067F9044647F6C05321
:10185000C0F60003009347F69463C0F600030193BB
:1018600047F65463C0F600030293304647F63861EA
:10187000C0F600012A46234605F0B6FA07F1140720
:10188000BD46F0BDF0B587B004AF786003F09EFAB6
:1018900006464FF0000003F0ADFA05464FF0000099
:1018A00003F03AF9044647F6C053C0F6000300932C
:1018B00047F6A863C0F60003019347F65463C0F6E9
:1018C00000030293304647F63861C0F600012A460D
:1018D000234605F089FA07F10C07BD46F0BD00BFAD
:1018E00080B582B000AF0346FB71FB79184605F066
:1018F0009BFA07F10807BD4680BD00BF80B483B0E6
:1019000000AF78600B46FB707B68FA781A704FF076
:101910000103184607F10C07BD4680BC704700BFA5
:1019200080B485B000AF786039604FF00003FB6091
:101930000FE03B681A787B681A707B6803F101033B
:101940007B603B6803F101033B60FB6803F101032B
:10195000FB603B681B78002BEBD1FB68184607F156
:101960001407BD4680BC704780B586B000AFF860F4
:101970007A603B600B46FB724FF000037B617B6833
:1019800003F1FF337B603B68092B25D93A684CF69D
:10199000CD43CCF6CC43A3FB02134FEAD303FA7A30
:1019A000F86811467A68FFF7DFFF78617B69FA68AB
:1019B000D318FB6013E0FB7AF8681946FFF79EFF27
:1019C000FB6803F10103FB607B6903F101037B61A9
:1019D0007B6803F1FF337B607B68002BEBDC3968AD
:1019E0004CF6CD43CCF6CC43A3FB01234FEAD30204
:1019F00013464FEA83039B184FEA4303CA1AD3B234
:101A000003F13003DBB2F8681946FFF777FF0346AE
:101A10007A69D3187B617B69184607F11807BD46C0
:101A200080BD00BF80B586B000AFF8607A603B60D3
:101A30000B46FB724FF000037B613B68002B04DA1E
:101A40003B68C3F100033B6101E03B683B617B689D
:101A500003F1FF337B603B69092B2AD93B68002BDC
:101A600012DA3A694CF6CD43CCF6CC43A3FB021311
:101A70004FEAD303C3F10003FA7AF86811467A6893
:101A8000FFF7D0FF78610FE03A694CF6CD43CCF612
:101A9000CC43A3FB02134FEAD303FA7AF86811464A
:101AA0007A68FFF7BFFF78617B69FA68D318FB603B
:101AB0002BE03B68002B15DA7B6803F1FF337B607A
:101AC00010E0FB7AF8681946FFF718FFFB6803F18E
:101AD0000103FB607B6903F101037B617B6803F118
:101AE000FF337B607B68002BEBDC3B68002B0CDA60
:101AF000F8684FF02D01FFF701FF03467A69D3180C
:101B00007B61FB6803F10103FB6039694CF6CD434F
:101B1000CCF6CC43A3FB01234FEAD30213464FEA92
:101B200083039B184FEA4303CA1AD3B203F130036D
:101B3000DBB2F8681946FFF7E1FE03467A69D3186D
:101B40007B617B69184607F11807BD4680BD00BF61
:101B500080B588B002AFF8607A600A46FA72BB724C
:101B60004FF000037B617B6803F1FF337B603B6ACE
:101B70004FEA1313002B24D03B6A4FEA1311FA7A71
:101B8000BB7A0091F86811467A68FFF7E1FF0346D7
:101B90007A69D3187B617B69FA68D318FB6013E01C
:101BA000FB7AF8681946FFF7A9FEFB6803F1010309
:101BB000FB607B6903F101037B617B6803F1FF3309
:101BC0007B607B68002BEBDC3B6A03F00F03092B87
:101BD0000CD83B6ADBB203F00F03DBB203F1300336
:101BE000DBB2F8681946FFF789FE1BE0BB7A002BD1
:101BF0000CD03B6ADBB203F00F03DBB203F1370317
:101C0000DBB2F8681946FFF779FE0BE03B6ADBB2FE
:101C100003F00F03DBB203F15703DBB2F868194698
:101C2000FFF76CFE7B6903F101037B617B6918465A
:101C300007F11807BD4680BD80B58AB002AFF860D5
:101C4000B9607A603B604FF00003BB614FF0000366
:101C50007B61FB68002B00F01C81FB684FF00002E9
:101C60001A7016E17B681B78252B10D07B681A78D8
:101C7000FB681A70FB6803F10103FB607B6803F1EA
:101C800001037B607B6903F101037B6102E17B68F7
:101C900003F101031B78252B10D1FB684FF02502BF
:101CA0001A70FB6803F10103FB607B6803F1020318
:101CB0007B607B6903F101037B61EBE04FF0200364
:101CC000FB774FF00003BB777B6803F101037B6078
:101CD0007B681B78302B1BD14FF03003FB777B6880
:101CE00003F101037B6013E0BB7F1A464FEA8202D7
:101CF000D3184FEA4303DAB27B681B78D318DBB200
:101D0000A3F13003BB777B6803F101037B6000E044
:101D100000BF7B681B782F2B03D97B681B78392B7E
:101D2000E2D9BA7F7B69D3181A46BB689A4205D9B3
:101D3000BB68DAB27B69DBB2D31ABB777B681B78EE
:101D4000A3F15803202B00F2948001A252F823F053
:101D5000251E0008731E0008731E0008731E00086D
:101D6000731E0008731E0008731E0008731E00080F
:101D7000731E0008731E0008731E00085B1E000817
:101D8000D51D0008731E0008731E0008731E00088E
:101D9000731E0008D51D0008731E0008731E00087E
:101DA000731E0008731E0008731E0008731E0008CF
:101DB000731E0008731E0008731E0008451E0008ED
:101DC000731E0008ED1D0008731E0008731E000836
:101DD000051E0008BA7F3B6803F1040139601B68E7
:101DE000F97FF868FFF71EFEB86145E0BA7F3B68EF
:101DF00003F1040139601B68F97FF868FFF7B4FD4F
:101E0000B86139E0BA7F3B6803F1040139601968B1
:101E1000FB7F0091F86819464FF00003FFF798FE2A
:101E2000B86129E0BA7F3B6803F1040139601968A1
:101E3000FB7F0091F86819464FF00103FFF788FE19
:101E4000B86119E03B6803F104023A601B68F86866
:101E50001946FFF765FDB8610EE03B6803F1040227
:101E60003A601B68DBB2F8681946FFF747FDB861B6
:101E700002E04FF0FF332CE07B6803F101037B604D
:101E8000BB69FA68D318FB607A69BB69D3187B61B8
:101E900000E000BF7B681B78002B04D07A69BB6828
:101EA0009A42FFF4DFAE7A69BB689A4204D2FB68BB
:101EB0004FF000021A700BE0FB6803F1FF33FB6088
:101EC000FB684FF000021A707B6903F1FF337B61FE
:101ED0007B69184607F12007BD4680BD80B584B0F8
:101EE00000AFF860B9607A60F8684FF0C801BA686E
:101EF0007B68FFF7A1FE0346184607F11007BD46B1
:101F000080BD00BFB0B5C0B000AFF860B9607A6006
:101F100047F6BC63C0F6000307F114041D460FCD5D
:101F20000FC40FCD0FC42B68236007F13803184688
:101F3000B9687A68FFF7D2FF0346C72B0CDD40F281
:101F40003843C2F200031B68DB6807F11402104635
:101F5000194600F073F8FEE707F138031846F968F0
:101F600000F06CF80346184607F58077BD46B0BD13
:101F700080B582B000AF7860396040F23843C2F279
:101F800000031B689B68184679683A68FFF7BAFF38
:101F90000346184607F10807BD4680BD0FB480B55B
:101FA00082B000AF07F114033B6038693968FFF76E
:101FB000DFFF78607B68184607F10807BD46BDE87B
:101FC000804004B0704700BF80B582B000AF786039
:101FD00040F23843C2F200031B689B6878681946D8
:101FE00000F02CF80346184607F10807BD4680BDEF
:101FF00080B582B000AF7860396040F23843C2F2F9
:1020000000031B689A683B689A4208D040F2384344
:10201000C2F200031B68DA683B689A4206D17B680B
:10202000DBB21846FFF75CFC7B6801E04FF0FF3342
:10203000184607F10807BD4680BD00BF80B584B0D3
:1020400000AF786039604FF00003FB6014E07B68FC
:102050001B7818463968FFF7CBFF0346B3F1FF3F03
:1020600002D14FF0FF330CE0FB6803F10103FB608A
:102070007B6803F101037B607B681B78002BE6D152
:10208000FB68184607F11007BD4680BD80B485B0D7
:1020900000AF78607B6803F00703FB604FF46D438B
:1020A000CEF20003DB68BB60BA684FF6FF03134053
:1020B000BB60FB684FEA0322BB68134343F0BF6376
:1020C00043F40033BB604FF46D43CEF20003BA68B3
:1020D000DA6007F11407BD4680BC704780B400AFDA
:1020E000BFF34F8F4FF46D42CEF200024FF46D43B9
:1020F000CEF20003DB6803F4E0614FF00403C0F2AA
:10210000FA530B43D360BFF34F8FFEE780B594B013
:1021100004AF01F0B9F904F0E7FD01F073F901F043
:10212000E1F901F0EDF903461A4640F6B423C2F294
:1021300000035A8040F6B423C2F200035B88002BF0
:102140004CD040F6B423C2F200035B88102B45D07C
:1021500002F03CFE024647F62473C0F600030093EB
:1021600047F63473C0F60003019347F63C73C0F69C
:1021700000030293104647F61871C0F6000147F6B7
:102180002072C0F600024FF0000304F02DFE40F66E
:10219000B423C2F200034FF002021A7040F6B420DA
:1021A000C2F2000001F042FA07F104031846FEF7FC
:1021B0008BFE3B79002BF1D13B79012BEED13B79A2
:1021C000002B02D0012B03D005E001F0DBFF05E07E
:1021D00002F002F802E001F0FFFF00BF02F0F6FD9E
:1021E000024647F62473C0F60003009347F63473A3
:1021F000C0F60003019347F67873C0F6000302931C
:10220000104647F67071C0F6000147F62072C0F61E
:1022100000024FF0000304F0E7FD4FF001004FF023
:10222000000104F021F9024640F6AC03C2F20003BB
:102230001A6040F6AC03C2F200031B68002B54D1B5
:1022400002F0C4FD024647F62473C0F60003009373
:1022500047F63473C0F60003019347F69073C0F657
:1022600000030293104647F61871C0F6000147F6C6
:102270002072C0F600024FF0000304F0B5FD40F6F6
:10228000B423C2F200034FF002021A7040F6B423E6
:10229000C2F200035B886FEA43436FEA53439AB28A
:1022A00040F6B423C2F200035A8040F6B420C2F2D2
:1022B000000001F0BBF907F104031846FEF704FE25
:1022C0003B79002BF1D13B79012BEED13B79002BEF
:1022D00002D0012B03D005E001F054FF05E001F02E
:1022E0007BFF02E001F078FF00BF02F06FFD0246C5
:1022F00047F62473C0F60003009347F63473C0F624
:102300000003019347F6B473C0F60003029310462E
:1023100047F67071C0F6000147F62072C0F6000261
:102320004FF0000304F060FD4FF00403009340F60B
:10233000A823C2F2000301934FF0000302934FF071
:102340000003039342F22570C0F6000047F6D471F3
:10235000C0F600014FF480724FF0000302F072F9F2
:1023600002F034FD024647F62473C0F600030093E2
:1023700047F63473C0F60003019347F6DC73C0F6EA
:1023800000030293104647F67071C0F6000147F64D
:102390002072C0F600024FF0000304F025FD4FF05C
:1023A0000403009340F6B023C2F2000301934FF000
:1023B000000302934FF00003039343F2C100C0F601
:1023C000000048F20001C0F600014FF480724FF0A7
:1023D000000302F037F902F0F9FC024647F62473D5
:1023E000C0F60003009347F63473C0F60003019370
:1023F00048F20803C0F600030293104647F67071D6
:10240000C0F6000147F62072C0F600024FF000034C
:1024100004F0EAFC4FF00303009340F6AC23C2F251
:10242000000301934FF0000302934FF00003039366
:1024300042F61110C0F6000048F22401C0F6000177
:102440004FF480724FF0000302F0FCF802F0BEFC83
:10245000024647F62473C0F60003009347F6347330
:10246000C0F60003019348F22C03C0F60003029368
:10247000104647F67071C0F6000147F62072C0F6AC
:1024800000024FF0000304F0AFFC4FF00203009392
:1024900040F6BC23C2F2000301934FF00003029305
:1024A0004FF00003039342F69940C0F6000048F253
:1024B0004C01C0F600014FF480724FF0000302F0AF
:1024C000C1F802F083FC024647F62473C0F600030D
:1024D000009347F63473C0F60003019348F25403A7
:1024E000C0F600030293104647F67071C0F6000173
:1024F00047F62072C0F600024FF0000304F074FCAF
:1025000040F6B423C2F200034FF001021A704FF0FC
:102510000203009340F6B823C2F2000301934FF088
:10252000000302934FF00003039343F25120C0F6DF
:10253000000048F27001C0F600014FF480724FF0C5
:10254000000302F07FF840F6A823C2F200031B68E4
:10255000002B1BD040F6AC23C2F200031B68002BFB
:1025600014D040F6BC23C2F200031B68002B0DD030
:1025700040F6B023C2F200031B68002B06D040F6E1
:10258000B823C2F200031B68002B54D102F01EFCDA
:10259000024647F62473C0F60003009347F63473EF
:1025A000C0F60003019348F27803C0F600030293DB
:1025B000104647F61871C0F6000147F62072C0F6C3
:1025C00000024FF0000304F00FFC40F6B423C2F207
:1025D00000034FF002021A7040F6B423C2F2000367
:1025E0005B886FEA43436FEA53439AB240F6B423E1
:1025F000C2F200035A8040F6B420C2F2000001F09B
:1026000015F807F104031846FEF75EFC3B79002B32
:10261000F1D13B79012BEED13B79002B02D0012B7C
:1026200003D005E001F0AEFD05E001F0D5FD02E0CC
:1026300001F0D2FD00BF02F0C9FB024647F6247349
:10264000C0F60003009347F63473C0F6000301930D
:1026500048F29003C0F600030293104647F67071EB
:10266000C0F6000147F62072C0F600024FF00003EA
:1026700004F0BAFB02F06CFA02F0A8FB024647F63F
:102680002473C0F60003009347F63473C0F60003CA
:10269000019348F2A403C0F600030293104647F6E4
:1026A0001871C0F6000147F62072C0F600024FF024
:1026B000000304F099FB40F6B423C2F200034FF08C
:1026C00002021A7040F6B423C2F200035B886FEA7C
:1026D00043436FEA53439AB240F6B423C2F2000375
:1026E0005A8040F6B420C2F2000000F09FFF07F1CC
:1026F00004031846FEF7E8FB3B79002BF1D13B7948
:10270000012BEED13B79002B02D0012B03D005E049
:1027100001F038FD05E001F05FFD02E001F05CFD35
:1027200000BFFEE780B596B000AF786002F04EFBC8
:1027300003467B6507F11003184601F0FFF907F126
:102740000C03184601F02EFA07F144031846FEF771
:102750006DFD07F144031846FEF7D2FC0346002B3B
:1027600000F0C480FB8923F002039BB2FB8107F1D8
:102770000C03184601F042F9B7F84420BB8C9A428A
:1027800007D297F8523043F00103DBB287F852309A
:1027900006E097F8523023F00103DBB287F852309D
:1027A000B7F84E20BB8C9A4207D297F8523043F0CC
:1027B0002003DBB287F8523006E097F8523023F05E
:1027C0002003DBB287F85230B7F84820BB8C9A421E
:1027D00007D297F8523043F00403DBB287F8523047
:1027E00006E097F8523023F00403DBB287F852304A
:1027F000B7F84620BB8C9A4207D297F8523043F084
:102800000203DBB287F8523006E097F8523023F02B
:102810000203DBB287F85230B7F84C20BB8C9A42E7
:1028200007D297F8523043F01003DBB287F85230EA
:1028300006E097F8523023F01003DBB287F85230ED
:10284000B7F84A20BB8C9A4207D297F8523043F02F
:102850000803DBB287F8523006E097F8523023F0D5
:102860000803DBB287F8523040F6B423C2F200030B
:102870001B78012B06D140F6B423C2F200031B786B
:10288000072B14D0B7F850203B8B9A4207D297F809
:10289000523043F04003DBB287F852300EE097F835
:1028A000523023F04003DBB287F8523006E097F84D
:1028B000523023F04003DBB287F8523007F1440373
:1028C000184601F051F897F85230002B18D040F616
:1028D000AC03C2F200031B6818464FF000014FF032
:1028E00000024FF0000303F089FE09E0FB8943F08A
:1028F00002039BB2FB8107F10C03184601F07EF83E
:10290000FB6A07F154021046194602F03DF811E740
:10291000F0B5BBB004AF786047F69C53C0F6000337
:1029200007F108041D460FCD0FC495E8030084E8A5
:10293000030040F6AC03C2F200031B68002B24D155
:1029400002F044FA06464FF0000002F053FA054642
:102950004FF0000002F0E0F8044647F62473C0F69A
:102960000003009348F2BC03C0F60003019348F251
:10297000D003C0F600030293304647F61871C0F644
:1029800000012A46234604F02FFA02F01FFA0646F9
:102990004FF0000002F02EFA05464FF0000002F062
:1029A000BBF8044647F62473C0F60003009348F2D0
:1029B000BC03C0F60003019348F2EC03C0F6000329
:1029C0000293304647F67071C0F600012A4623464E
:1029D00004F00AFA07F1C003184601F0E3F807F122
:1029E0007803184601F0AAF807F1C4031846FDF76A
:1029F00019FC07F1C4031846FDF744FC034687F8A9
:102A0000D73097F8D730002B11D007F1C403184600
:102A100001F034F8B7F8C23043F008039BB2A7F8CE
:102A2000C23007F1C003184600F0E8FF10E007F1DC
:102A3000C403184600F030FEB7F8C23023F0080394
:102A40009BB2A7F8C23007F1C003184600F0D6FFCA
:102A500007F1C403184601F0A1FC07F1AC031846C6
:102A600001F088F807F17003184601F051F807F1FA
:102A70003003184601F018F807F12003184601F05A
:102A800031F807F1AC0007F1700107F1C40207F15A
:102A9000300307F12004009407F17804019407F152
:102AA000C004029401F084FA97F8C03003F1FF33B8
:102AB000062B00F29F8001A252F823F0D92A0008C9
:102AC000F52B0008E52A00085B2B00082B2B0008DB
:102AD000B32B0008712B000807F1AC03184601F076
:102AE00065F98AE007F1C40207F178031046194638
:102AF00001F0C4F80346002B0DD140F62C13C2F2AE
:102B000000035B6807F1080007F1C40107F1AC029C
:102B1000FEF7F6FD71E04FF0040387F8C03007F1CF
:102B2000C003184600F06AFF67E007F1080107F1EB
:102B3000C40207F1AC03084611461A46FEF740FEF0
:102B40000346002B58D04FF0040387F8C03007F13C
:102B5000C003184600F052FF4EE007F1080007F1ED
:102B6000C40107F1AC0207F12003FEF75BFE44E06D
:102B700007F1C40207F178031046194601F0E4F8A2
:102B80000346002B0BD107F1080107F1C40207F13E
:102B9000AC03084611461A46FEF7E2FD2DE04FF061
:102BA000010387F8C03007F1C003184600F026FF84
:102BB00023E007F1C40207F178031046194601F03B
:102BC000C3F80346002B0BD107F1080107F1C4023B
:102BD00007F1AC03084611461A46FEF7C1FD0CE0AA
:102BE0004FF0020387F8C03007F1C003184600F029
:102BF00005FF02E000BF00E000BF40F6B423C2F2D0
:102C000000031B78002B12D040F6B423C2F200035D
:102C10001B78012B0BD040F6B423C2F200031B78C3
:102C2000022B04D007F108031846FEF72BFE02F032
:102C3000CDF806464FF0000002F0DCF805464FF0F4
:102C4000000001F069FF044647F62473C0F6000354
:102C5000009348F2BC03C0F60003019348F2F80366
:102C6000C0F600030293304647F67071C0F60001CB
:102C70002A46234604F0B8F840F6AC03C2F200033B
:102C80001A68D7F8983010464FF000011A464FF0F6
:102C9000000303F0D1FD78E6F0B5C5B004AF78606D
:102CA00002F094F80346C7F8FC3002F08FF80646AD
:102CB0004FF0000002F09EF805464FF0000001F0D2
:102CC0002BFF044647F62473C0F60003009348F236
:102CD0001813C0F60003019348F2EC03C0F600039A
:102CE0000293304647F67071C0F600012A4623462B
:102CF00004F07AF807F1B0031846FEF7E5F807F19B
:102D00007C03184600F01AFF07F17803184600F01C
:102D100049FF97F8B030A3F102030A2B00F27E813D
:102D200001A252F823F000BF332E0008512E0008F4
:102D30006F2E0008CD2E0008112F00084F2F00081D
:102D4000C12D0008692F0008A32F0008552D000889
:102D5000C72F0008B7F87A3023F400639BB2A7F8B6
:102D60007A3007F17803184600F048FE07F168034F
:102D7000184600F083FE07F12803184600F094FE81
:102D800007F10C03184600F0F5FE07F12003184682
:102D900000F0BEFE07F1EC03184600F0A3FE07F1B9
:102DA000780007F1680107F1EC0207F1280307F149
:102DB0000C04009407F12004019400F019FC3AE19E
:102DC00097F87830012B27D107F1B00303F1040302
:102DD000184600F0CFFB0346002B0ED007F1B003DE
:102DE00003F10403184600F07FFDB7F87A3023F4AE
:102DF00080639BB2A7F87A3006E0B7F87A3043F4E4
:102E000080639BB2A7F87A30B7F87A3023F4006376
:102E10009BB2A7F87A3006E0B7F87A3043F4006343
:102E20009BB2A7F87A3007F17803184600F0E6FD68
:102E300001E100F0CBFEB7F87A3023F400639BB2D7
:102E4000A7F87A3007F17803184600F0D7FDF2E0D2
:102E500000F0E8FEB7F87A3023F400639BB2A7F8DD
:102E60007A3007F17803184600F0C8FDE3E097F8E0
:102E70007830012B1DD107F16803184600F0FEFDE4
:102E800007F1680207F17C031046194601F03AF990
:102E90004FF0030387F87830B7F87A3023F40063F3
:102EA0009BB2A7F87A3007F17803184600F0A6FD28
:102EB000C1E0B7F87A3043F400639BB2A7F87A30E8
:102EC00007F17803184600F099FDB4E097F87830E0
:102ED000042B10D14FF0070387F87830B7F87A3019
:102EE00023F400639BB2A7F87A3007F17803184601
:102EF00000F084FD9FE0B7F87A3043F400639BB2A2
:102F0000A7F87A3007F17803184600F077FD92E0D1
:102F100097F87830042B10D14FF0050387F87830FC
:102F2000B7F87A3023F400639BB2A7F87A3007F140
:102F30007803184600F062FD7DE04FF40063A7F8C7
:102F40007A3007F17803184600F058FD73E0B7F8BF
:102F50007A3023F400639BB2A7F87A3007F1780344
:102F6000184600F04BFD66E097F87830012B0ED143
:102F700000F068FBB7F87A3023F400639BB2A7F83F
:102F80007A3007F17803184600F038FD53E04FF42B
:102F90000063A7F87A3007F17803184600F02EFD99
:102FA00049E007F17C03184600F0FCFAB7F87A30E4
:102FB00023F400639BB2A7F87A3007F17803184630
:102FC00000F01CFD37E007F1B00303F104031846DD
:102FD000FEF712FB0346002B13D007F1B00303F1F9
:102FE0000403184600F0ECFBB7F87A3023F40063D2
:102FF0009BB2A7F87A3007F17803184600F0FEFC80
:1030000019E0B7F87A3043F400639BB2A7F87A303E
:1030100007F17803184600F0F1FC0CE0B7F87A30BD
:1030200043F400639BB2A7F87A3007F1780318469F
:1030300000F0E4FC00BFB7F87A3003F400639BB201
:10304000A7F87A30B7F87A30002B0BD103F072F979
:1030500001F0BCFE024640F6F003C2F200039A60A3
:1030600003F07EF901F0B2FE06464FF0000001F0D9
:10307000C1FE05464FF0000001F04EFD044647F644
:103080002473C0F60003009348F21813C0F600033F
:10309000019348F23013C0F600030293304647F61E
:1030A0007071C0F600012A46234603F09DFED7F852
:1030B000A43007F1FC021046194601F065FCF4E566
:1030C000F0B599B004AF786001F080FE0346FB6470
:1030D00001F07CFE06464FF0000001F08BFE054635
:1030E0004FF0000001F018FD044647F62473C0F6C7
:1030F0000003009348F23813C0F60003019348F22E
:10310000EC03C0F600030293304647F67071C0F638
:1031100000012A46234603F067FE07F10C03184618
:1031200001F002F807F14803184600F03BFD07F1F3
:103130000C03184600F02AFA0346002B0CD007F1C6
:103140000C03184600F08CFBB7F84A3023F4807368
:103150009BB2A7F84A300BE0B7F84A3043F48073CB
:103160009BB2A7F84A3007F10C03184600F0D0FCD8
:1031700007F14803184600F041FC07F11403184614
:1031800000F0DCFC07F10C0207F1140310461946AD
:1031900000F03CFE0346002B2DD001F017FE064642
:1031A0004FF0000001F026FE05464FF0000001F050
:1031B000B3FC044647F62473C0F60003009348F2BC
:1031C0003813C0F60003019348F25413C0F600030D
:1031D0000293304647F67071C0F600012A46234636
:1031E00003F002FE4FF0060387F8483007F148036A
:1031F000184600F003FC01F0E9FD06464FF0000020
:1032000001F0F8FD05464FF0000001F085FC044692
:1032100047F62473C0F60003009348F23813C0F653
:103220000003019348F23013C0F6000302933046C6
:1032300047F67071C0F600012A46234603F0D4FD1C
:10324000FB6A07F14C021046194601F09DFB3FE76F
:10325000F0B5A7B004AF786001F0B8FD0346C7F839
:10326000843001F0B3FD06464FF0000001F0C2FDCE
:1032700005464FF0000001F04FFC044647F624736A
:10328000C0F60003009348F27413C0F600030193E4
:1032900048F2EC03C0F600030293304647F6707123
:1032A000C0F600012A46234603F09EFD07F14403C1
:1032B000184602F081FF07F10C03184600F09EFB50
:1032C00007F14403184602F0A5FF0346002B0AD17C
:1032D00007F14403184600F025FAFB8923F0200388
:1032E0009BB2FB8104E0FB8943F020039BB2FB818E
:1032F00007F10C03184600F081FB07F11003184694
:1033000000F01CFC01F062FD06464FF0000001F0E9
:1033100071FD05464FF0000001F0FEFB044647F644
:103320002473C0F60003009348F27413C0F6000340
:10333000019348F23013C0F600030293304647F67B
:103340007071C0F600012A46234603F04DFD7B6BE9
:1033500007F184021046194601F016FB81E700BF11
:10336000F0B585B004AF01F031FD06464FF0000026
:1033700001F040FD05464FF0000001F0CDFB044692
:1033800047F62473C0F60003009348F28813C0F692
:103390000003019348F2A013C0F6000302933046E5
:1033A00047F67071C0F600012A46234603F01CFD63
:1033B00001F00CFD06464FF0000001F01BFD054634
:1033C0004FF0000001F0A8FB044647F62473C0F656
:1033D0000003009348F28813C0F60003019348F2FB
:1033E000B413C0F600030293304647F67071C0F67E
:1033F00000012A46234603F0F7FC30BF07F104071B
:10340000BD46F0BDB0B584B004AF40F62C12C2F298
:10341000000247F6E063C0F6000314461D460FCDD8
:103420000FC40FCD0FC40FCD0FC42B68236040F61F
:10343000B423C2F200034FF000021A7040F6B42326
:10344000C2F200034FF000025A8047F62473C0F620
:103450000003009348F2CC13C0F60003019348F236
:10346000E413C0F6000302934FF0000047F67071BA
:10347000C0F6000147F62072C0F600024FF00003CC
:1034800003F0B2FCBD46B0BD80B500AF4FF4407054
:10349000FEF7FCFD02F042FC02F098FC80BD00BF8C
:1034A00080B584B004AF47F62473C0F600030093E0
:1034B00048F22823C0F60003019348F23C23C0F6EB
:1034C000000302934FF0000048F22021C0F60001F3
:1034D00047F62072C0F600024FF0000303F084FCB0
:1034E000BD4680BD80B500AF02F01AFEFCF74CFE71
:1034F000FDF79EFCFDF786FDFFF7D2FF80BD00BF04
:1035000080B582B000AF4FF00003FB8002F02CFECC
:103510000346002B03D0FB8843F01003FB80FCF72D
:1035200059FE0346002B03D0FB8843F00403FB80C5
:10353000FDF7A2FC0346002B03D0FB8843F4007385
:10354000FB80FDF783FD0346002B03D0FB8843F08F
:103550000103FB8000F004FD0346002B03D0FB8831
:1035600043F08003FB80FB88184607F10807BD463F
:1035700080BD00BF80B483B000AF78604FF001031E
:10358000184607F10C07BD4680BC704780B483B075
:1035900000AF78604FF00103184607F10C07BD46F5
:1035A00080BC704780B586B004AF786047F624735E
:1035B000C0F60003009348F25023C0F600030193C5
:1035C00048F23C23C0F6000302934FF0000048F29B
:1035D0002021C0F6000147F62072C0F600024FF02D
:1035E000000303F001FC07F10807BD4680BD00BFE2
:1035F00080B584B000AFF860B9607A603B60F8686D
:1036000000F014FEB86800F0C9FEB86900F06EFF63
:10361000386800F053FF786800F0FEFEF86900F0AB
:10362000F1FF07F11007BD4680BD00BF80B582B035
:1036300000AF7860786800F0F9FD07F10807BD4633
:1036400080BD00BF80B500AF47F6E060C0F6000067
:1036500000F04AF980BD00BF80B483B000AF78604D
:103660007B681B78072B0CD84FF0010202FA03F39A
:1036700003F0B803002B04D07B684FF006021A70E9
:1036800004E07B684FF002021A7000BF07F10C07DC
:10369000BD4680BC704700BFF0B587B004AF78600E
:1036A00002F048FE40F60013C2F200037A6807CA2F
:1036B00083E8070001F08AFB03464FF0320202FB69
:1036C00003F240F60013C2F20003DA6002F048FE93
:1036D00001F07CFB06464FF0000001F08BFB054635
:1036E0004FF0000001F018FA044647F62473C0F6C4
:1036F0000003009348F26023C0F60003019348F2F0
:103700007423C0F600030293304647F67071C0F68A
:1037100000012A46234603F067FB07F10C07BD466C
:10372000F0BD00BFF0B587B004AF786002F002FED4
:1037300040F6B003C2F200037A681C4615460FCD6E
:103740000FC40FCD0FC40FCD0FC495E8070084E858
:10375000070001F03BFB03464FF0320202FB03F28D
:1037600040F6B003C2F20003DA6302F0F9FD01F0A3
:103770002DFB06464FF0000001F03CFB05464FF0E4
:10378000000001F0C9F9044647F62473C0F60003AF
:10379000009348F28823C0F60003019348F29C236B
:1037A000C0F600030293304647F67071C0F6000180
:1037B0002A46234603F018FB07F10C07BD46F0BD6F
:1037C000F0B587B004AF786002F0B4FD40F6F003C6
:1037D000C2F200037A681068186001F0F7FA034635
:1037E0004FF0320202FB03F240F6F003C2F2000394
:1037F000DA6001F0EBFA03464FF0320202FB03F20B
:1038000040F6F003C2F200039A6002F0A9FD01F055
:10381000DDFA06464FF0000001F0ECFA05464FF0E5
:10382000000001F079F9044647F62473C0F600035E
:10383000009348F2B023C0F60003019348F2C4237A
:10384000C0F600030293304647F67071C0F60001DF
:103850002A46234603F0C8FA07F10C07BD46F0BD1F
:10386000F0B587B004AF786002F064FD7B681A6839
:1038700040F61013C2F200031A6001F0A7FA0346E3
:103880004FF0320202FB03F240F61013C2F20003C3
:103890005A6002F065FD01F099FA06464FF000000B
:1038A00001F0A8FA05464FF0000001F035F9044692
:1038B00047F62473C0F60003009348F2D823C0F6FD
:1038C0000003019348F2F023C0F600030293304650
:1038D00047F67071C0F600012A46234603F084FAC9
:1038E00007F10C07BD46F0BDF0B587B004AF7860B6
:1038F00002F020FD40F62C13C2F200037A681C4649
:1039000015460FCD0FC40FCD0FC40FCD0FC42B68BC
:10391000236002F025FD01F059FA06464FF0000041
:1039200001F068FA05464FF0000001F0F5F8044692
:1039300047F62473C0F60003009348F20433C0F640
:103940000003019348F21C33C0F600030293304693
:1039500047F67071C0F600012A46234603F044FA88
:1039600007F10C07BD46F0BDF0B587B004AF786035
:1039700002F0E0FC40F61813C2F200037A681C461D
:103980001346186859689A68DB680FC401F01EFA7C
:1039900003464FF0320202FB03F240F61813C2F264
:1039A00000031A6102F0DCFC01F010FA06464FF049
:1039B000000001F01FFA05464FF0000001F0ACF8DE
:1039C000044647F62473C0F60003009348F23433EC
:1039D000C0F60003019348F25033C0F6000302938F
:1039E000304647F67071C0F600012A46234603F0C0
:1039F000FBF907F10C07BD46F0BD00BFF0B587B07D
:103A000004AF786002F096FC7B681A7840F6B42325
:103A1000C2F200031A707B685A8840F6B423C2F2DF
:103A200000035A8002F09CFC01F0D0F906464FF0EA
:103A3000000001F0DFF905464FF0000001F06CF8DE
:103A4000044647F62473C0F60003009348F2683337
:103A5000C0F60003019348F28033C0F600030293DE
:103A6000304647F67071C0F600012A46234603F03F
:103A7000BBF907F10C07BD46F0BD00BF90B583B0A0
:103A800000AF786002F056FC7A6840F60013C2F28C
:103A9000000314460FCB84E80F0002F061FC07F12D
:103AA0000C07BD4690BD00BFB0B582B000AF7860D6
:103AB00002F040FC7A6840F6B003C2F200031446FC
:103AC0001D460FCD0FC40FCD0FC40FCD0FC495E809
:103AD0000F0084E80F0002F043FC07F10807BD4621
:103AE000B0BD00BF90B583B000AF786002F022FC9B
:103AF0007A6840F6F003C2F2000314460FCB84E864
:103B00000F0002F02DFC07F10C07BD4690BD00BF71
:103B100080B582B000AF786002F00CFC7A6840F6A5
:103B20001013C2F2000393E8030082E8030002F0DE
:103B300017FC07F10807BD4680BD00BFB0B582B0D5
:103B400000AF786002F0F6FB7A6840F62C13C2F200
:103B5000000314461D460FCD0FC40FCD0FC40FCD6B
:103B60000FC42B68236002F0FBFB07F10807BD467A
:103B7000B0BD00BFB0B582B000AF786002F0DAFB34
:103B80007A6840F61813C2F2000314461D460FCDA2
:103B90000FC42B68236002F0E3FB07F10807BD4662
:103BA000B0BD00BF80B582B000AF786002F0C2FB4C
:103BB0007A6840F6B423C2F200031868106002F07D
:103BC000CFFB07F10807BD4680BD00BFF0B585B04B
:103BD00004AF01F0FBF806464FF0000001F00AF9CF
:103BE00005464FF0000000F097FF044647F62473A7
:103BF000C0F60003009348F29433C0F6000301932B
:103C000048F23C23C0F600030293304648F22021DC
:103C1000C0F600012A46234603F0E6F807F1040740
:103C2000BD46F0BDF0B585B004AF01F0CFF8064653
:103C30004FF0000001F0DEF805464FF0000000F004
:103C40006BFF044647F62473C0F60003009348F266
:103C5000A833C0F60003019348F23C23C0F60003EA
:103C60000293304648F22021C0F600012A4623463E
:103C700003F0BAF807F10407BD46F0BDF0B587B010
:103C800004AF7860396040F60013C2F200031B688D
:103C90001A4640F62C13C2F200035B689A4227D200
:103CA00001F094F806464FF0000001F0A3F8054635
:103CB0004FF0000000F030FF044647F62473C0F6D2
:103CC0000003009348F2BC33C0F60003019348F2AE
:103CD000D033C0F600030293304647F67071C0F649
:103CE00000012A46234603F07FF84FF0010326E047
:103CF00001F06CF806464FF0000001F07BF8054635
:103D00004FF0000000F008FF044647F62473C0F6A9
:103D10000003009348F2BC33C0F60003019348F25D
:103D2000F433C0F600030293304647F67071C0F6D4
:103D300000012A46234603F057F84FF000031846C7
:103D400007F10C07BD46F0BDF0B587B004AF786051
:103D5000396001F03BF806464FF0000001F04AF8E8
:103D600005464FF0000000F0D7FE044647F62473E6
:103D7000C0F60003009348F21043C0F6000301931D
:103D800048F23C23C0F600030293304648F220215B
:103D9000C0F600012A46234603F026F84FF0000340
:103DA000184607F10C07BD46F0BD00BF80B483B0D4
:103DB00000AF78607B689B7B002B0CBF0023012346
:103DC000DBB2184607F10C07BD4680BC704700BF48
:103DD00080B584B000AF7860396000F0F7FF02462C
:103DE0007B681B69D31AFB603B6893F82F303A68F5
:103DF000D26902FB03F2FB689A422CBF0023012325
:103E0000DBB2184607F11007BD4680BD80B483B011
:103E100000AF786039607B681A683B681B699A421A
:103E20002CBF00230123DBB2184607F10C07BD4667
:103E300080BC704780B584B000AF7860396000F016
:103E4000C5FF02467B685B68D31AFB603B6893F84A
:103E500030303A68926902FB03F2FB689A422CBF49
:103E600000230123DBB2184607F11007BD4680BDD1
:103E700080B584B000AF7860396000F0A7FF0246DB
:103E80007B68DB68D31AFB603B6893F82C303A6898
:103E9000126A02FB03F2FB689A422CBF0023012343
:103EA000DBB2184607F11007BD4680BD80B584B06F
:103EB00000AF7860396000F089FF02467B68DB6BF9
:103EC000D31AFB603B6893F831303A68526A02FBC0
:103ED00003F2FB689A422CBF00230123DBB2184691
:103EE00007F11007BD4680BD80B584B000AF786093
:103EF000396000F06BFF02467B689B68D31AFB6059
:103F00003B6893F82E303A68926A02FB03F2FB6832
:103F10009A422CBF00230123DBB2184607F1100799
:103F2000BD4680BD80B584B000AF7860396000F0D8
:103F30004DFF02467B68DB68D31AFB603B6893F851
:103F40002D303A68926A02FB03F2FB689A422CBF5A
:103F500000230123DBB2184607F11007BD4680BDE0
:103F600080B584B004AF00F031FF024647F62473F9
:103F7000C0F60003009348F22443C0F60003019307
:103F800048F23C23C0F600030293104648F2202179
:103F9000C0F6000147F62072C0F600024FF00003A1
:103FA00002F022FF4FF000031846BD4680BD00BF5F
:103FB00080B584B000AFF860B9607A603B60F868A3
:103FC000F969FFF705FF0346002B0AD03B6A5B88BF
:103FD00043F001039AB23B6A5A80386AFFF73CFB10
:103FE00006E03B6A5B8823F001039AB23B6A5A8081
:103FF000B868F969FFF71EFF0346002B0AD03B6A39
:104000005B8843F080039AB23B6A5A80386AFFF7B4
:1040100023FB06E03B6A5B8823F080039AB23B6A8D
:104020005A807868F969FFF723FF0346002B0AD00E
:104030003B6A5B8843F004039AB23B6A5A80386A51
:10404000FFF70AFB06E03B6A5B8823F004039AB2A1
:104050003B6A5A803868F969FFF728FF0346002B4E
:1040600007D03B6A5B8843F010039AB23B6A5A80E0
:1040700006E03B6A5B8823F010039AB23B6A5A80E1
:10408000B869F969FFF730FF0346002B0AD03B6A95
:104090005B8843F400739AB23B6A5A80386AFFF730
:1040A000DBFA06E03B6A5B8823F400739AB23B6A52
:1040B0005A80B869F969FFF735FF0346002B12D023
:1040C0003B6A5B8843F040039AB23B6A5A80BA6904
:1040D00047F6B453C0F600031B681360BB6918466B
:1040E000FFF76EFB06E03B6A5B8823F040039AB261
:1040F0003B6A5A80386AFFF781FC07F11007BD461A
:1041000080BD00BF80B582B000AF786039607B6849
:104110001B681A463B68DA603868FFF7E5FB07F171
:104120000807BD4680BD00BFF0B587B004AF78601A
:1041300000F04CFE06464FF0000000F05BFE054626
:104140004FF0000000F0E8FC044647F62473C0F688
:104150000003009348F23C43C0F60003019348F289
:104160003C23C0F600030293304648F22021C0F6FB
:1041700000012A46234602F037FE07F10C07BD4630
:10418000F0BD00BFB0B584B004AF00F01FFE05461F
:104190004FF0000000F0C0FC044647F62473C0F660
:1041A0000003009348F25043C0F60003019348F225
:1041B0005C43C0F600030293284647F67071C0F6D0
:1041C000000147F62072C0F60002234602F00CFE02
:1041D000FDF784FFBD46B0BDB0B584B004AF00F0BC
:1041E000F5FD05464FF0000000F096FC044647F64A
:1041F0002473C0F60003009348F26843C0F600033E
:10420000019348F23C23C0F600030293284648F28B
:104210002021C0F6000147F62072C0F600022346B6
:1042200002F0E2FD30BFBD46B0BD00BF80B582B038
:1042300000AF78607B681B78072B4BD801A252F83F
:1042400023F000BF65420008734200088142000865
:104250008F4200089D420008AB420008B9420008A6
:10426000C742000848F27840C0F60000FDF796FE0D
:1042700037E048F2A440C0F60000FDF78FFE30E0C2
:1042800048F2D440C0F60000FDF788FE29E048F26D
:104290000450C0F60000FDF781FE22E048F23050E5
:1042A000C0F60000FDF77AFE1BE048F25C50C0F655
:1042B0000000FDF773FE14E048F28C50C0F60000D9
:1042C000FDF76CFE0DE048F2BC50C0F60000FDF7B3
:1042D00065FE06E048F2E850C0F60000FDF75EFE1D
:1042E00000BF7B685B88002B06D148F21060C0F6E7
:1042F0000000FDF753FE4DE048F23C60C0F60000C0
:10430000FDF74CFE48F26C60C0F60000FDF746FE7B
:1043100048F29C60C0F60000FDF740FE48F2D06015
:10432000C0F60000FDF73AFE48F20070C0F600004B
:10433000FDF734FE48F22C70C0F60000FDF72EFEAB
:1043400048F25C70C0F60000FDF728FE48F28C7061
:10435000C0F60000FDF722FE48F2BC70C0F6000077
:10436000FDF71CFE48F2EC70C0F60000FDF716FEEB
:1043700048F61C00C0F60000FDF710FE48F64C00A1
:10438000C0F60000FDF70AFE48F67800C0F600000F
:10439000FDF704FE07F10807BD4680BD80B582B079
:1043A00000AF786048F6A800C0F60000FDF70CFEEC
:1043B0007B681B6848F6AC00C0F600001946FDF7A4
:1043C000EDFD7B689B881BB248F6C000C0F600007C
:1043D0001946FDF7E3FD7B68DB881BB248F6D40085
:1043E000C0F600001946FDF7D9FD7B681B891BB29A
:1043F00048F6E800C0F600001946FDF7CFFD7B68DF
:10440000DB6848F6FC00C0F600001946FDF7C6FD63
:1044100007F10807BD4680BD80B582B000AF786067
:1044200048F6A800C0F60000FDF7CEFD7B681B78BB
:104430005BB248F61010C0F600001946FDF7AEFD5D
:104440007B685B785BB248F62810C0F6000019461E
:10445000FDF7A4FD7B689B785BB248F64010C0F680
:1044600000001946FDF79AFD7B68DB785BB248F6E1
:104470005810C0F600001946FDF790FD7B68DB6818
:1044800048F67010C0F600001946FDF787FD7B68FE
:104490009B6848F68810C0F600001946FDF77EFDBF
:1044A0007B681B7948F6A010C0F600001946FDF79E
:1044B00075FD07F10807BD4680BD00BF80B582B01D
:1044C00000AF786048F6A800C0F60000FDF77CFD5C
:1044D0007B68DB6B48F6BC10C0F600001946FDF7A0
:1044E0005DFD07F10807BD4680BD00BF80B582B005
:1044F00000AF786048F6A800C0F60000FDF764FD44
:104500007B689B7B002B06D148F6D010C0F60000DC
:10451000FDF744FD29E048F6F810C0F60000FDF76D
:104520003DFD48F62020C0F60000FDF737FD48F6B7
:104530004C20C0F60000FDF731FD48F67820C0F6AB
:104540000000FDF72BFD48F6A020C0F60000FDF7A7
:1045500025FD48F6CC20C0F60000FDF71FFD48F60B
:10456000F820C0F60000FDF719FD7B681B8848F6AF
:104570002030C0F600001946FDF710FD7B685B880F
:1045800048F63C30C0F600001946FDF707FD7B6891
:10459000DB8848F65830C0F600001946FDF7FEFCEF
:1045A0007B685B8948F67430C0F600001946FDF759
:1045B000F5FC7B689B8848F69030C0F600001946F1
:1045C000FDF7ECFC7B681B8948F6AC30C0F60000B8
:1045D0001946FDF7E3FC7B689B8948F6C830C0F6B6
:1045E00000001946FDF7DAFC7B681B6948F6E430E9
:1045F000C0F600001946FDF7D1FC07F10807BD46DB
:1046000080BD00BF80B582B000AF786048F6A800DA
:10461000C0F60000FDF7D8FC7B681B6848F6004038
:10462000C0F600001946FDF7B9FC7B685B6848F6E8
:104630001840C0F600001946FDF7B0FC07F1080766
:10464000BD4680BDF0B58DB004AFF860B9603B6089
:104650001346FB80FB68002B1ED100F0B7FB02461F
:1046600048F63C43C0F60003009348F64C43C0F6BE
:104670000003019348F65C43C0F600030293104622
:1046800048F63041C0F6000148F63842C0F6000254
:104690004FF0000302F0A8FBBB6B042B1ED900F007
:1046A00095FB024648F63C43C0F60003009348F6EB
:1046B0004C43C0F60003019348F67843C0F600036C
:1046C0000293104648F63041C0F6000148F63842E1
:1046D000C0F600024FF0000302F086FBFB8818468C
:1046E000396C01F035F8B861BB69002B00F00F811F
:1046F000BB691A6BFB8803F1FF334FEA8303D318BE
:104700007B617B6923F007037B617B6903F007030F
:10471000002B1ED000F05AFB024648F63C43C0F680
:104720000003009348F64C43C0F60003019348F69B
:10473000AC43C0F600030293104648F63041C0F681
:10474000000148F63842C0F600024FF0000302F0C4
:104750004BFBFB880093B869B968BA6B7B6C00F0BF
:1047600021FF7869F9683A6801F060FD0246BB698B
:104770001A60BB691B6803F00703002B1ED000F012
:1047800025FB024648F63C43C0F60003009348F67A
:104790004C43C0F60003019348F61453C0F60003DF
:1047A0000293104648F63041C0F6000148F6384200
:1047B000C0F600024FF0000302F016FBFB6B002B6B
:1047C00002D0FB6BBA691A6001F0B4FD40F6102309
:1047D000C2F200031B6803F1010240F61023C2F28B
:1047E00000031A6040F66013C2F200031B68002B3E
:1047F0000FD140F66013C2F20003BA691A6040F6A6
:104800001023C2F200031B68012B18D100F00EFF29
:1048100015E040F62023C2F200031B68002B0ED1E6
:1048200040F66013C2F200031B68DA6ABB6B9A425F
:1048300005D840F66013C2F20003BA691A60BB697A
:10484000DA6A40F61823C2F200031B689A4206D9BE
:10485000BB69DA6A40F61823C2F200031A6040F618
:104860003423C2F200031B6803F1010240F6342333
:10487000C2F200031A60BB69DA6A40F61C23C2F276
:1048800000031B689A4206D9BB69DA6A40F61C230A
:10489000C2F200031A60BB69DA6A13464FEA830367
:1048A0009B184FEA830340F66412C2F200029A1882
:1048B000BB6903F104031046194601F0A3F94FF058
:1048C0000103FB6100F082FA0646BB6903F134057F
:1048D000B86900F021F9044648F63C43C0F60003ED
:1048E000009348F69053C0F60003019348F6A45392
:1048F000C0F600030293304648F68851C0F6000126
:104900002A46234602F070FA01F02AFD21E04FF01A
:10491000FF33FB6100F05AFA024648F63C43C0F60A
:104920000003009348F6C053C0F60003019348F615
:10493000DC53C0F600030293104648F63041C0F63F
:10494000000148F63842C0F600024FF0000302F0C2
:104950004BFAFB69012B11D140F62023C2F2000370
:104960001B68002B0AD040F66013C2F200031B68DC
:10497000DA6ABB6B9A4201D201F0D0FCFB6918469F
:1049800007F12407BD46F0BDF0B58BB004AF7860E9
:1049900039604FF000037B617B68002B1ED100F073
:1049A00015FA024648F63C43C0F60003009348F669
:1049B0004C43C0F60003019348F6F453C0F60003DD
:1049C0000293104648F63041C0F6000148F63842DE
:1049D000C0F600024FF0000302F006FA3B68002B1D
:1049E0001ED100F0F3F9024648F63C43C0F600033E
:1049F000009348F64C43C0F60003019348F6186351
:104A0000C0F600030293104648F63041C0F600019C
:104A100048F63842C0F600024FF0000302F0E4F915
:104A200000F0F4F87B681A683B68D3183B617B6838
:104A30001A6840F61423C2F200031B689A4210D988
:104A40007B681A683B699A421BD940F61423C2F26C
:104A500000031B683A699A4213D94FF001037B6146
:104A60000FE07B681A683B699A4207D840F6142326
:104A7000C2F200031B683A699A4202D94FF001035F
:104A80007B617B683A691A607B69002B37D000F044
:104A90009DF9064640F66013C2F200031B6803F15D
:104AA000340540F66013C2F200031B68184600F09C
:104AB00033F8044648F63C43C0F60003009348F63A
:104AC0004063C0F60003019348F65863C0F6000344
:104AD0000293304648F68851C0F600012A46234624
:104AE00002F082F940F66013C2F200031B6803F182
:104AF0000403184601F0E8F8386900F0E3FD00F01F
:104B000097F8F860FB68002B01D101F007FC07F172
:104B10001C07BD46F0BD00BF80B584B000AF786013
:104B200001F008FC7B68002B05D140F66013C2F24F
:104B300000031B6800E07B68FB60FB68DB6ABB600E
:104B400001F00EFCBB68184607F11007BD4680BD9A
:104B500080B586B004AF4FF00003009340F60C23FD
:104B6000C2F2000301934FF0000302934FF00003E1
:104B7000039345F29150C0F6000048F67061C0F60C
:104B800000014FF480724FF00003FFF75BFD786087
:104B90007B68012B13D14FF0BF0080F3118840F6E2
:104BA0002023C2F200034FF001021A6040F61423E2
:104BB000C2F200034FF000021A6001F085FB7B682F
:104BC000002B1ED100F002F9024648F63C43C0F625
:104BD0000003009348F64C43C0F60003019348F6E7
:104BE0007863C0F600030293104648F63041C0F6E1
:104BF000000148F63842C0F600024FF0000302F010
:104C0000F3F807F10807BD4680BD00BF80B400AFD0
:104C100040F62423C2F200031B6803F1010240F6B0
:104C20002423C2F200031A60BD4680BC704700BF57
:104C300090B587B004AF4FF000037B6040F62423AB
:104C4000C2F200031B68002B1ED100F0BFF8024621
:104C500048F63C43C0F60003009348F64C43C0F6C8
:104C60000003019348F69063C0F6000302931046D8
:104C700048F63041C0F6000148F63842C0F600025E
:104C80004FF0000302F0B0F801F054FB40F624238B
:104C9000C2F200031B6803F1FF3240F62423C2F284
:104CA00000031A6040F62423C2F200031B68002BA5
:104CB00040F0848040F61023C2F200031B68002BF2
:104CC0007CD04FF000033B603BE040F6F813C2F2AB
:104CD0000003DB68DC6804F11803184600F0F4FFF9
:104CE00004F10403184600F0EFFFE26A40F61C23CB
:104CF000C2F200031B689A4205D9E26A40F61C23FF
:104D0000C2F200031A60E26A13464FEA83039B185B
:104D10004FEA830340F66412C2F200029A1804F1CB
:104D200004031046194600F06DFFE26A40F6601376
:104D3000C2F200031B68DB6A9A4202D34FF0010300
:104D40003B6040F6F813C2F200031B68002BBCD195
:104D500040F62823C2F200031B68002B18D00DE098
:104D600000F082F840F62823C2F200031B6803F12A
:104D7000FF3240F62823C2F200031A6040F62823CF
:104D8000C2F200031B68002BEAD14FF001033B6025
:104D90003B68012B06D040F62C23C2F200031B68AF
:104DA000012B0BD14FF001037B6040F62C23C2F2A4
:104DB00000034FF000021A6001F0B0FA01F0D0FADF
:104DC0007B68184607F10C07BD4690BD80B582B0E0
:104DD00000AF01F0AFFA40F61423C2F200031B68E3
:104DE0007B6001F0BDFA7B68184607F10807BD46F5
:104DF00080BD00BF80B588B004AF78607B68002BB1
:104E000005D140F66013C2F200031B6800E07B6826
:104E1000FB60FB68002B1ED1FFF7D8FF024648F667
:104E20003C43C0F60003009348F64C43C0F6000331
:104E3000019348F6B463C0F600030293104648F6A7
:104E40003041C0F6000148F63842C0F600024FF08B
:104E5000000301F0C9FFFB6803F13403184607F1B2
:104E60001007BD4680BD00BF80B588B004AF40F6D6
:104E70002423C2F200031B68002B40F0E68040F6BA
:104E80001423C2F200031B6803F1010240F614234D
:104E9000C2F200031A6040F61423C2F200031B683A
:104EA000002B67D140F6F013C2F200031B681B68A9
:104EB000002B1ED0FFF78AFF024648F63C43C0F69F
:104EC0000003009348F64C43C0F60003019348F6F4
:104ED000F863C0F600030293104648F63041C0F66E
:104EE000000148F63842C0F600024FF0000301F01E
:104EF0007BFF40F6F013C2F200031B68FB6040F634
:104F0000F413C2F200031A6840F6F013C2F2000371
:104F10001A6040F6F413C2F20003FA681A6040F611
:104F20003023C2F200031B6803F1010240F6302374
:104F3000C2F200031A6040F6F013C2F200031B68CD
:104F40001B68002B07D140F24043C2F200034FF030
:104F5000FF321A600EE040F6F013C2F200031B6845
:104F6000DB68DB68BB60BB685A6840F24043C2F252
:104F700000031A6040F61423C2F200031A6840F2DC
:104F80004043C2F200031B689A426AD340F6F01312
:104F9000C2F200031B681B68002B07D140F240439C
:104FA000C2F200034FF0FF321A605AE040F6F013ED
:104FB000C2F200031B68DB68DB68BB60BB685B6830
:104FC0007B6040F61423C2F200031A687B689A42A1
:104FD00006D240F24043C2F200037A681A6040E011
:104FE000BB6803F10403184600F06EFEBB689B6AC1
:104FF000002B05D0BB6803F11803184600F064FECF
:10500000BB68DA6A40F61C23C2F200031B689A42AE
:1050100006D9BB68DA6A40F61C23C2F200031A60A4
:10502000BB68DA6A13464FEA83039B184FEA83038F
:1050300040F66412C2F200029A18BB6803F104033E
:105040001046194600F0DEFDA0E740F62823C2F224
:1050500000031B6803F1010240F62823C2F200039B
:105060001A6007F11007BD4680BD00BFF0B587B0DC
:1050700004AF40F62423C2F200031B68002B07D0C4
:1050800040F62C23C2F200034FF001021A60DAE06E
:10509000FFF79CFE064640F66013C2F200031B6851
:1050A00003F1340540F66013C2F200031B68184692
:1050B000FFF732FD044648F63C43C0F60003009378
:1050C00048F63473C0F60003019348F65073C0F6F7
:1050D00000030293304648F68851C0F600012A4684
:1050E000234601F081FE40F66013C2F200031A6805
:1050F000516C40F66C23C2F200031B687868C31A37
:10510000CB18536440F66C23C2F200037A681A602D
:1051100031E040F61C23C2F200031B68002B1ED1B5
:10512000FFF754FE024648F63C43C0F600030093E6
:1051300048F64C43C0F60003019348F67473C0F67A
:1051400000030293104648F63041C0F6000148F6CD
:105150003842C0F600024FF0000301F045FE40F671
:105160001C23C2F200031B6803F1FF3240F61C232C
:10517000C2F200031A6040F61C23C2F20003196851
:1051800040F66412C2F200020B464FEA83035B183A
:105190004FEA8303D3181B68002BBAD040F61C23B8
:1051A000C2F200031A6813464FEA83039B184FEAC2
:1051B000830340F66412C2F200029B183B603B6816
:1051C0005B685A683B685A603B685A683B6803F101
:1051D00008039A4204D13B685B685A683B685A608E
:1051E0003B685B68DA6840F66013C2F200031A603D
:1051F000FFF7ECFD064640F66013C2F200031B68A1
:1052000003F1340540F66013C2F200031B68184630
:10521000FFF782FC044648F63C43C0F600030093C7
:1052200048F69873C0F60003019348F6B073C0F6D1
:1052300000030293304648F68851C0F600012A4622
:10524000234601F0D1FD07F10C07BD46F0BD00BFBC
:1052500080B588B004AF786039607B68002B1ED1C0
:10526000FFF7B4FD024648F63C43C0F60003009346
:1052700048F64C43C0F60003019348F6C073C0F6ED
:1052800000030293104648F63041C0F6000148F68C
:105290003842C0F600024FF0000301F0A5FD40F6D1
:1052A0006013C2F200031B6803F118037868194603
:1052B00000F0D0FC40F66013C2F200031B6803F15B
:1052C0000403184600F000FD40F61423C2F2000368
:1052D0001A683B68D318FB60F86800F0F3F907F12F
:1052E0001007BD4680BD00BF80B588B004AF7860B0
:1052F0007B68DB68DB68BB60BB68002B1ED1FFF7F7
:1053000065FD024648F63C43C0F60003009348F6AC
:105310004C43C0F60003019348F6DC73C0F600036B
:105320000293104648F63041C0F6000148F6384274
:10533000C0F600024FF0000301F056FDBB6803F118
:105340001803184600F0C0FC40F62423C2F2000304
:105350001B68002B2AD1BB6803F10403184600F038
:10536000B3FCBB68DA6A40F61C23C2F200031B6878
:105370009A4206D9BB68DA6A40F61C23C2F20003DF
:105380001A60BB68DA6A13464FEA83039B184FEA38
:10539000830340F66412C2F200029A18BB6803F15C
:1053A00004031046194600F02DFC09E0BB6803F128
:1053B000180340F6F810C2F20000194600F022FC73
:1053C000BB68DA6A40F66013C2F200031B68DB6A4E
:1053D0009A4203D34FF00103FB6002E04FF0000359
:1053E000FB60FB68184607F11007BD4680BD00BF93
:1053F00080B586B004AF78607B68002B1ED1FFF7C4
:10540000E5FC024648F63C43C0F60003009348F62C
:105410004C43C0F60003019348F6FC73C0F600034A
:105420000293104648F63041C0F6000148F6384273
:10543000C0F600024FF0000301F0D6FC40F6302326
:10544000C2F200031A687B681A6040F61423C2F2A5
:1054500000031A687B685A6007F10807BD4680BDE3
:1054600080B588B004AF786039607B68002B1ED1AE
:10547000FFF7ACFC024648F63C43C0F6000300933D
:1054800048F64C43C0F60003019348F6FC73C0F69F
:1054900000030293104648F63041C0F6000148F67A
:1054A0003842C0F600024FF0000301F09DFC3B685B
:1054B000002B1ED1FFF78AFC024648F63C43C0F69B
:1054C0000003009348F64C43C0F60003019349F2F1
:1054D0001403C0F600030293104648F63041C0F6AC
:1054E000000148F63842C0F600024FF0000301F018
:1054F0007BFC00F01FFF7B681A6840F63023C2F285
:1055000000031B689A420CD07B685A6840F614234B
:10551000C2F200031B689A4203D84FF00103FB60FC
:1055200022E040F61423C2F200031A687B685B682D
:10553000D21A3B681B689A4213D23B681A687B6890
:10554000596840F61423C2F200031B68CB1AD21824
:105550003B681A607868FFF74BFF4FF00003FB6071
:1055600002E04FF00103FB6000F0FAFEFB68184612
:1055700007F11007BD4680BD80B400AF40F62C2374
:10558000C2F200034FF001021A60BD4680BC7047B2
:1055900080B582B000AF786000F08EF8FDF7E0FED5
:1055A000FAE700BF80B584B000AFF860B9607A60F8
:1055B0003B60FB6803F134031846B9684FF00502FD
:1055C00002F0CEF8FB684FF0000283F838207B68C9
:1055D000042B02D94FF004037B60FB687A68DA621F
:1055E000FB687A68DA63FB6803F10403184600F08D
:1055F000FBFAFB6803F11803184600F0F5FAFB68A4
:10560000FA681A617B68C3F10502FB689A61FB685E
:10561000FA685A62FB684FF000021A64FB684FF0A8
:1056200000025A6407F11007BD4680BD80B582B004
:1056300000AF4FF000037B6012E07A6813464FEA38
:1056400083039B184FEA830340F66412C2F2000200
:105650009B18184600F0A8FA7B6803F101037B60F1
:105660007B68042BE9D940F6C810C2F2000000F0B4
:105670009BFA40F6DC10C2F2000000F095FA40F60A
:10568000F810C2F2000000F08FFA40F6F013C2F2F8
:10569000000340F6C812C2F200021A6040F6F4138A
:1056A000C2F2000340F6DC12C2F200021A6007F1F7
:1056B0000807BD4680BD00BF80B400AFBD4680BCBA
:1056C000704700BF80B582B000AF786040F66013CD
:1056D000C2F200031B687A685A6040F61423C2F2D3
:1056E00000031B687A689A4210D240F6F413C2F2A3
:1056F00000031A6840F66013C2F200031B6803F14E
:1057000004031046194600F0A5FA1DE040F6F01318
:10571000C2F200031A6840F66013C2F200031B686D
:1057200003F104031046194600F094FA40F2404396
:10573000C2F200031B687A689A4205D240F24043E5
:10574000C2F200037A681A6007F10807BD4680BDFF
:1057500080B584B000AF03463960FB804FF048004D
:1057600001F0F2FB0346FB60FB68002B23D03B6893
:10577000002B07D1FB884FEA8303184601F0E4FBB6
:10578000034600E03B68FA681363FB681B6B002B61
:1057900006D1F86801F0E0FB4FF00003FB600AE07F
:1057A000FB681A6BFB884FEA830310464FF0A50194
:1057B0001A4601F029FFFB68184607F11007BD469D
:1057C00080BD00BF80B483B000AF40F66013C2F26A
:1057D00000031B687B607B68184607F10C07BD4619
:1057E00080BC704780B588B004AF78607B68FB6090
:1057F0007B68002B1ED1FFF7E9FA024648F63C43CE
:10580000C0F60003009348F64C43C0F60003019332
:1058100049F28403C0F600030293104648F6304173
:10582000C0F6000148F63842C0F600024FF000030F
:1058300001F0DAFAFB68DA6A40F66013C2F200039C
:105840001B68DB6A9A4255D240F66013C2F200032D
:105850001B68DB6AC3F10502FB689A61FB68596942
:10586000FB68DA6A13464FEA83039B184FEA830307
:1058700040F66412C2F200029B18994232D1FB68D2
:1058800003F10403184600F01FFA40F66013C2F259
:1058900000031B68DA6AFB68DA62FB68DA6A40F6C2
:1058A0001C23C2F200031B689A4206D9FB68DA6A1D
:1058B00040F61C23C2F200031A60FB68DA6A134642
:1058C0004FEA83039B184FEA830340F66412C2F247
:1058D00000029A18FB6803F104031046194600F011
:1058E00091F907E040F66013C2F200031B68DA6A20
:1058F000FB68DA6207F11007BD4680BD80B584B051
:1059000000AF78607B68FB607B68002B39D0FB6858
:10591000DA6AFB68DB6B9A4233D0FB6803F104035D
:10592000184600F0D1F9FB68DA6BFB68DA62FB68B5
:10593000DB6AC3F10502FB689A61FB68DA6A40F62C
:105940001C23C2F200031B689A4206D9FB68DA6A7C
:1059500040F61C23C2F200031A60FB68DA6A1346A1
:105960004FEA83039B184FEA830340F66412C2F2A6
:1059700000029A18FB6803F104031046194600F070
:1059800041F907F11007BD4680BD00BF80B487B064
:1059900000AF786039604FF000037B614FF0000387
:1059A0003B614FF00003FB604FF000037B6186E03A
:1059B0007B694FF0010202FA03F33B613B681A680E
:1059C0003B691340FB60FA683B699A4273D17B687C
:1059D0001A687B694FEA43034FF0030101FA03F3AE
:1059E0006FEA03031A407B681A607B681A683B6899
:1059F0001B7919467B694FEA430301FA03F31A4303
:105A00007B681A603B681B79012B03D03B681B79CC
:105A1000022B34D17B689A687B694FEA43034FF0CD
:105A2000030101FA03F36FEA03031A407B689A60EB
:105A30007B689A683B685B7919467B694FEA430348
:105A400001FA03F31A437B689A607B685A687B69A2
:105A50009BB24FF0010101FA03F36FEA03031A400E
:105A60007B685A607B685A683B689B7919467B69FA
:105A70009BB201FA03F39BB21A437B685A607B68BE
:105A8000DA687B699BB24FEA43034FF0030101FAE6
:105A900003F36FEA03031A407B68DA607B68DA6815
:105AA0003B68DB7919467B694FEA430301FA03F34C
:105AB0001A437B68DA607B6903F101037B617B69D0
:105AC0000F2B7FF675AF07F11C07BD4680BC7047F2
:105AD00080B485B000AF786013460A467A807B7048
